:1000000000800020BD0100007D6600007D660000CC
:100010007D6600007D6600007D6600004966000088
:100020004966000049660000496600007D660000E0
:100030007D660000496600007D66000039660000AC
:100040007D6600007D6600007D6600007D66000024
:100050007D6600007D6600007D6600007D66000014
:100060007D6600007D6600007D6600007D66000004
:100070007D6600007D6600007D6600007D660000F4
:100080007D6600007D6600007D6600007D660000E4
:100090007D6600007D6600007D6600007D660000D4
:1000A000013400007D6600007D6600007D66000072
:1000B0007D6600007D6600007D6600007D660000B4
:1000C0007D6600007D6600007D6600007D660000A4
:1000D0007D6600007D6600007D6600007D66000094
:1000E0007D6600007D6600007D6600007D66000084
:1000F0007D660000597700007D660000DD7200001B
:100100007D660000557B00007D6600007D66000076
:100110007D6600007D6600007D6600007D66000053
:100120007D6600007D6600007D6600007D66000043
:100130007D6600007D660000055B00007D660000B6
:100140007D6600007D6600007D6600007D66000023
:100150007D6600007D6600007D6600007D66000013
:10016000C90600009D7D00007D6600007D660000E0
:100170007D6600007D6600007D6600007D660000F3
:100180007D6600007D6600007D6600007D660000E3
:100190007D6600007D6600007D6600005D6B0000EE
:1001A000AD6B0000356C0000F16C0000756D000057
:1001B0007D6600007D6600007D660000544B4CF2B9
:1001C000205210B51A804DF628121A8000BF00BFC9
:1001D00006F058FA4F4B4FF010621A604E4A9A6080
:1001E0004E4ADA604E4B1A6812F4807204D14D49BF
:1001F0000A604FF4A8521A604B4B1A7802F00802BA
:10020000D2B21AB11A7842F008021A70474B484825
:10021000484C2A221A700023474A02E01959995083
:10022000043399188142F9D3444B454A002101E037
:1002300043F8041B9342FBD34249434800231A5816
:100240005A500433B3F5DE7FF9D1404B404A802148
:1002500003F8011B9342FBD13A4A3E4B1A603E4BD6
:100260000A221A703D4B24221A70A02203F8012C96
:100270003B4A137803F00203DBB2002BF9D0384A73
:10028000137803F01003DBB2002BF9D1344A137852
:1002900003F00C03082BFAD1324B03221A704022D0
:1002A0005A702F4A137803F02003DBB2002BF9D0E9
:1002B0002B4A137803F04003DBB2002BF9D02A4B12
:1002C0002A4A1A6002225A60294B20221A70244AB4
:1002D000137803F00C030C2BFAD1264A264B1A6034
:1002E000264B4BF67F321A60072243F8042C62B685
:1002F00006F0E4FD0B4B1B68DC0702D5204806F036
:1003000051FD0BF0E1FD06F0C3F908F073FAFEE7CA
:100310000E20054030800440823F04000100002B85
:1003200010D0034014D0034002D0074000E0074043
:100330001C8DFF1F38DB00006087FF1F1C8DFF1F17
:100340008092FF1F0082FF1F0000000000E400E019
:100350005FE400E008ED00E0005006400140064088
:10036000064006400440064044800440000003115B
:1003700000400640C01005000480044014E000E086
:100380006969AE55FFFFFFFFFFFFFFFFFFFFFFFFA4
:10039000FFFFFFFFFFFFFFFFFFFFFFFFFFFFFFFF6D
:1003A000FFFFFFFFFFFFFFFFFFFFFFFFFFFFFFFF5D
:1003B000FFFFFFFFFFFFFFFFFFFFFFFFFFFFFFFF4D
:1003C000FFFFFFFFFFFFFFFFFFFFFFFFFFFFFFFF3D
:1003D000FFFFFFFFFFFFFFFFFFFFFFFFFFFFFFFF2D
:1003E000FFFFFFFFFFFFFFFFFFFFFFFFFFFFFFFF1D
:1003F000FFFFFFFFFFFFFFFFFFFFFFFFFFFFFFFF0D
:10040000FFFFFFFFFFFFFFFFFFFFFFFFFEFFFFFFFD
:1004100008B548F61C50074BC1F6FF701B1A062B97
:1004200000D808BD40F20003C0F20003002BF8D052
:100430009847F6E71F8DFF1F08B548F61C5048F691
:100440001C53C1F6FF70C1F6FF731B1A9B1003EB20
:10045000D373591000D108BD40F20002C0F200026F
:10046000002AF8D09047F6E710B548F61C54C1F6BC
:10047000FF74237873B9FFF7CBFF40F20003C0F29B
:1004800000032BB14DF63830C0F20000AFF300800E
:100490000123237010BD00BF08B540F20003C0F275
:1004A00000034BB14DF6383048F62051C0F2000041
:1004B000C1F6FF71AFF3008048F61C50C1F6FF7023
:1004C00003682BB140F20003C0F2000303B1984768
:1004D000BDE80840B0E700BF42F2107007F0D0B9A5
:1004E00008B514210A220023084808F0B7F9074884
:1004F00008F0A6F9064800F0D1FA10B9044800F057
:10050000E6FB0348BDE8084000F05ABF1492FF1F05
:10051000388DFF1F10B5054C204600F057FB0449ED
:10052000044A2046BDE810400BF0B0BC388DFF1FD8
:10053000691300006087FF1F10B5002303710C4B87
:100540000C22198801230B4208D1094A1943118052
:10055000084A118821EA0303138010BD04795B0067
:100560000134013A04719BB2EDD1FF23037110BD38
:10057000948DFF1F908DFF1F2DE9F0419846037960
:100580000B2B0446174634D8CEB23046012106F074
:1005900045FC2579184B19485E55194B44F25062B9
:1005A00023F81520012303FA05F503881D43154B95
:1005B00005801A680C214F4301FB08F112F48002F8
:1005C0002780618011D1196841F4800119600E4BB8
:1005D0004FF6FF7119605A609A6042F6A27243F8B2
:1005E000042C02F5803243F8042C084B4FF480723F
:1005F0001A602079BDE8F081AE8DFF1F908DFF1F3E
:10060000968DFF1F3C8004400460034008E100E039
:1006100003790B2B10D8094A012101FA03F1138841
:10062000C9430B401380064A1088014011801BB952
:10063000044B4FF480721A60704700BF908DFF1F0B
:10064000948DFF1F88E100E00C23594303889942F1
:1006500003DB43889942B8BF0B4602790B2A9CBF43
:10066000014921F812307047968DFF1F13B50479A8
:100670000B2C024616D8B1F5087F04DB02B0BDE8AA
:100680001040FFF7E1BF1388528821EAE170009221
:10069000B428A8BFB4200021B42208F081F8024B8E
:1006A00023F8140002B010BD968DFF1F03790B2BA9
:1006B00006D8044A108840FA03F000F001007047A1
:1006C00000207047908DFF1F70B5334A334C11885E
:1006D00094F9003041FA03F111F0010F154606D0EC
:1006E0002F4A0021D05C06F06DFB0C2323702D4BAC
:1006F0002C88197800234DB223E0581944FA00F6EB
:10070000013316F0010F1CD0254B264C185C2270CB
:10071000012106F057FB2378204A59B21370224A70
:1007200032F81110214A106808181060204A106829
:1007300009181160013342F6A37142F80C1C2370B2
:1007400070BD5A1850B20B28D7DD164B17491A70D6
:100750000A68C2F56A3303F5C073B3F5966F05DB1B
:100760004EF660208342A8BF034601E04FF4966333
:100770009A180A600E4908681B180B600D4B42F668
:10078000A37119600C4B9A4204D9084A00231360E4
:10079000044A137070BD00BF908DFF1F6487FF1F58
:1007A000AE8DFF1F928DFF1F968DFF1F8C8DFF1F3B
:1007B0000C600340006003407FA9030030B585B0A2
:1007C000044600F007F960B366238DF804300B236C
:1007D00000258DF80530204641F20103ADF80630C2
:1007E000ADF8085000F0F4F8E16A8DF80A00A06B4B
:1007F0000BF056F8216B0BF011FA2B46CDF80B00DD
:100800002A469DF8050003E0C95C521892B20133F4
:10081000834201A9F8DBA069ADF8082003681B69D1
:10082000984705B030BDFFFF074B10B50446036085
:10083000406B08B107F0D2FE00236363204600F04E
:100840009DF8204610BD00BF48D1000010B50446F9
:10085000FFF7EAFF204607F0C1FE204610BD70B545
:10086000856A04460E46084629460BF0DFFA30B981
:10087000656A304629460BF0BBFA00B93546216B54
:1008800028460BF017F9E16A0BF00CF8A0630BF0A7
:10089000D7FA1C3401462046BDE87040FFF7E6BE9B
:1008A000D1F80710FFF7DBBF10B504461C30FFF787
:1008B000FDFE38B1636B2BB119682046BDE81040CE
:1008C000FFF7CDBF10BDFFFFF7B50D9D0C9E009546
:1008D00004461F46092300F061F825461C4B45F8E5
:1008E0001C3B2846FFF728FE012F01D1032300E01F
:1008F0000423E363089B1749A362099B63620A9B75
:10090000E3620B9B304623630BF068FA20B90420A6
:1009100007F060FE066000E0002000236063A36330
:1009200028464FF4FA63E16B4FF47A72FFF724FE26
:10093000636B204613B1FFF7B7FF02E0A16BFFF72F
:100940008EFF2046012100F041F82046FEBD00BF89
:1009500048D1000000C0794438B500F11C040546B8
:100960002046FFF755FE2846002100F02FF82046CC
:10097000FFF79CFE80F00100C0B238BD014B036060
:10098000704700BF60D10000034B10B50446036000
:1009900007F024FE204610BD60D1000010B50446CB
:1009A00008482371002323732060636102980B6859
:1009B000A161A06022610846DB6921469847204674
:1009C00010BD00BF60D1000000797047017370470F
:1009D0000069704773B50F4B1B680193019D436914
:1009E00004468068EE1A0BF00DF80AF0EFFB0246A1
:1009F0000B46002008490AF067FD0022074B0AF069
:100A000039FC0AF0D1FE864202D96561012000E07E
:100A100000207CBD848FFF1F0000F03F00408F400E
:100A2000014B0360704700BF78D10000034B10B545
:100A30000446036007F0D2FD204610BD78D10000C7
:100A400037B50C4D2B680093009A8368D31A8B42FC
:100A500004460DD90D2006F0D5F9D0F1010138BFBB
:100A600000210D2006F0AEF92B680193019BA360D5
:100A70003EBD00BF848FFF1F01717047064B10B54C
:100A80000360002304460371836001210D2006F0FA
:100A9000C5F9204610BD00BF78D10000007970472D
:100AA00003790BB1642101E04FF47A71FFF7C8BFFD
:100AB000704708B107F092BD704708B107F08EBDCE
:100AC000704708B107F08ABD704708B107F086BDCE
:100AD000704708B50368C9B21B68984708BDFFFF97
:100AE00070B50E4C0D462046FD211646FFF7F1FF6E
:100AF000284606F09FFE2368C1B21B68204698472F
:100B0000284606F097FE2368024629465B68204681
:100B1000984720463146FFF7DCFF70BDF091FF1F7C
:100B200010B505480C46FE21FFF7D3FF617820463B
:100B3000BDE8104006F0A0BFF091FF1F38B5064891
:100B40000C46FE211546FFF7C4FF20462946BDE8A6
:100B5000384006F091BF00BFF091FF1F002310B591
:100B60001A4603E0C45C121992B201338B42F9DBDE
:100B7000104610BD30B5144B85B01B680193019D24
:100B8000836C40F6B832EB1A9342044619D901231C
:100B9000072141F201028DF808308DF80E3002A8CD
:100BA00000238DF80910ADF80A20ADF80C30FFF7DE
:100BB000D5FF2368ADF80C001B69204602A99847B1
:100BC000A56405B030BD00BF848FFF1F70B504461B
:100BD000FFF754FF114B00252360E5602561656137
:100BE000A561E56125626562A562E56225636563CD
:100BF000A56342F2107006F043FE2565E563656467
:100C00002564182007F0E6FC064600F091FD2665F5
:100C1000A56484F84C50204670BD00BFA8D10000E8
:100C20000269C368D31A70B505469E10002406E019
:100C3000EB6853F8240003681B6898470134B442FA
:100C4000F6DB70BD38B500230C460B714B710846BE
:100C500049781546FFF782FF2B1AA0805842584169
:100C600038BD826A436AD31A70B505469E100024C7
:100C700006E06B6A53F8240003681B699847013447
:100C8000B442F6DB70BD13B569238DF8003008233C
:100C90008DF8013041F20103ADF802300B78672B7B
:100CA00008BF0B898DF806304B7804468DF8073065
:100CB000082100236846ADF80430FFF74FFF236892
:100CC000ADF804001B692046694698471CBD7FB5F6
:100CD0000446FFF7E3FE0646002839D1206D00F0F8
:100CE00049FD50B934E020462946AA88FFF7AAFFFB
:100CF00058B9206D00F030FD2AE0206D00F026FD8F
:100D00000378652B0546F4D1EDE72046A979FFF776
:100D1000B3FE20462946FFF7B6FF76238DF8043050
:100D200041F201030A21ADF8063001A84FF07E53CD
:100D30008DF80510CDF80A30ADF80860FFF70EFF0A
:100D40002368ADF808001B69204601A99847D0E741
:100D50007FBD2DE9F047CB889CB005460C460E2B95
:100D600000F2F181DFE813F007016E0195017B01CC
:100D7000EF01A9013B00A0018B010F0058015B01AD
:100D80009E00BC012B01C26983690026D31A4FEA79
:100D9000A3083046464503DA002840F0D081AAE196
:100DA000002840F0CC81402007F014FCD4F8161045
:100DB00022890091D4F81210D4F80E300191D4F8A1
:100DC0001A100291D4F81E100391D4F82210049145
:100DD000D4F80A1005912946FFF776FDAFE1826A43
:100DE000436A0026D31A4FEAA3083046464503DA81
:100DF000002840F0A4818CE1002840F0A081A820C8
:100E000007F0E8FB8046D4F812002789D4F80A607E
:100E10000AF0DCF9CDE90001D4F80E000AF0B4F9CB
:100E2000D4F816300493D4F81A300593D4F83A3035
:100E30000693D4F83E30CDE90201D4F81E000793A2
:100E40000AF0A2F9CDE90801D4F822000AF0BEF9AF
:100E5000CDE90A01D4F826000AF0B8F9CDE90C0171
:100E6000D4F82A000AF0B2F9D4F82E301093D4F84E
:100E700032301193D4F836301293D4F842301393B1
:100E8000D4F846301493D4F84A301593D4F84E3041
:100E9000CDE90E011693404629463A46334601F005
:100EA00073FA4CE1826A436A0026D31A4FEAA30818
:100EB0003046464503DA002840F0418134E10028FD
:100EC00040F03D81A82007F085FB8046D4F8120051
:100ED0002789D4F80A600AF079F9CDE90001D4F83D
:100EE0000E000AF051F9D4F816300493D4F81A30F1
:100EF0000593D4F83A300693D4F83E30CDE9020198
:100F0000D4F81E0007930AF03FF9CDE90801D4F8A0
:100F100022000AF05BF9CDE90A01D4F826000AF0B4
:100F200055F9CDE90C01D4F82A000AF04FF9D4F8AC
:100F30002E301093D4F832301193D4F83630129307
:100F4000D4F842301393D4F846301493D4F84A308E
:100F50001593D4F84E301693D4F85230CDE90E01E3
:100F60001793D4F856304046189329463A463346EC
:100F700000F08CFFE3E0C36B002B40F0E080436A9D
:100F8000D1F8162053F82280D1F81A20482053F8BF
:100F9000227007F01FFBD4F80E1022890091D4F8BC
:100FA0001210D4F80A300191D4F81E10CDF8088040
:100FB000049103972946064601F0C0FD2AE0436AE2
:100FC000D1F8162053F822A0D1F81A2053F8229015
:100FD000D1F81E2053F82280D1F82220582053F84F
:100FE000227007F0F7FAD4F80E1022890091D4F895
:100FF0001210D4F80A300191D4F82610CDF808A0C8
:101000000691CDF80C90CDF810800597294606463C
:1010100005F010F9EE6392E01CAE0A2301E01CAE6D
:101020000B2306F8013D202007F0D4FAD4F80A304B
:1010300022890093D4F80E3029460193334601F0FB
:101040001DFE7CE0202007F0C5FAD4F80E1022899E
:101050000091D4F80A30294601F078FE6FE04FF491
:10106000907007F0B7FA618AD4F80A20009106461A
:10107000D4F80E30294602F06BF86E645FE0202051
:1010800007F0A8FA29462289D4F80E3004F004F8B3
:1010900055E0F82007F09EFA2946D4F80A20D4F843
:1010A0000E3004F09FF84AE0A82007F093FA294692
:1010B000D4F80A2004F0B0FE41E0342007F08AFAA8
:1010C000D4F8121022890091D4F81610D4F80E30FA
:1010D0000191D4F81A100291294604F041FF2EE044
:1010E000202007F077FA2946D4F80A20D4F80E30E9
:1010F00004F074FF23E0AB69278953F82600FFF75B
:1011000067FCB7EB000EDEF1000050EB0E0001367D
:1011100040E66B6A278953F82600FFF759FC391A15
:1011200048424841013661E66B6A278953F8260038
:10113000FFF74EFC3A1A504250410136B9E62846B4
:101140002146FFF7A0FD1CB0BDE8F087F8B590E898
:101150004800F61AB61014BF334601239B19044603
:101160000F466FF0404603D2B34238BF1E4626B149
:10117000B00007F02FFA054600E0354662682368A4
:10118000D31A9B1005EB83013A6809B145F8232077
:1011900094E882007F1ABF1003D02846BA000BF0F3
:1011A00055FA05EB87072068FFF78FFC04372560A9
:1011B00005EB86056760A560F8BD091A38B58C1087
:1011C0000546134605D010462946A2000BF03EFA0C
:1011D000034603EB840038BDF8B590E84800F61AE2
:1011E000B61014BF334601239B1904460F466FF017
:1011F000404603D2B34238BF1E4626B1B00007F0C6
:10120000E9F9054600E0354662682368D31A9B1069
:1012100005EB83013A6809B145F823202A4694E892
:101220000300FFF7CAFF07462068FFF746FC0437B4
:10123000256005EB86056760A560F8BD091A38B51D
:101240008C100546134605D010462946A2000BF027
:10125000FDF9034603EB840038BDF8B590E848007B
:10126000F61AB61014BF334601239B1904460F46E5
:101270006FF0404603D2B34238BF1E4626B1B000DD
:1012800007F0A8F9054600E0354662682368D31ADE
:101290009B1005EB83013A6809B145F823202A46E3
:1012A00094E80300FFF7CAFF07462068FFF709FC30
:1012B0000437256005EB86056760A560F8BD38B585
:1012C00042688468A24203460D4606D0096802B10E
:1012D00011605A6804325A6038BDFFF7BEFF38BD4E
:1012E000091A38B58C100546134605D01046294614
:1012F000A2000BF0ABF9034603EB840038BDF8B550
:10130000C3680669C269F61A8369D31A0446B6101F
:101310009F10002504E053F82500FFF71DFB013561
:10132000BD42A369F7DBE269934218BFE361A26A99
:10133000636A934218BFA362002506E053F82500B4
:1013400010B10368DB6898470135B542E368F5DB07
:101350002269934218BF2361002384F84C306364F0
:10136000E3632364F8BDFFFF0F4B10B50446036031
:10137000006D10B103685B68984700232365204621
:10138000FFF7BDFF206BFFF7A0FB606AFFF799FB3B
:10139000A069FFF792FBE068FFF78BFB2046FFF7A1
:1013A0003FFB204610BD00BFA8D1000010B5044689
:1013B000FFF7DAFF204607F011F9204610BDFFFFC6
:1013C0002DE9F041044688B0FFF76AFB206D00F07C
:1013D00046FA2046FFF762FB002840F00481206DAA
:1013E00000F093FA002840F0FE8002E1206D00F04A
:1013F000ADF9054629462046AA88FFF723FC0028B8
:1014000000F0E0802B780C2B6FD00ED8072B27D064
:1014100005D8022B31D0062B40F0D48043E0082BB6
:1014200056D00B2B40F0CE805BE0652B0CD005D85E
:101430000F2B70D0512B40F0C5804BE0672B17D09D
:10144000752B40F0BF8082E02046A979FFF714FB9E
:101450002046FFF723FB30B92046FFF750FF02E09C
:10146000AB7984F84C3020462946FFF70CFCA9E004
:1014700020462946FFF76DFCA4E0E269A369D31A70
:101480009F1000260CE0A36953F82600FFF7A0FA8E
:10149000AB7998424FEA860801D1A3694CE0013646
:1014A000BE42F0DB8EE0A26A636AD31A9F10002668
:1014B0000BE0636A53F82600FFF78AFAAB7998428B
:1014C0004FEA860800D136E00136BE42F1DB79E012
:1014D000E06B07E0E06B002874D0294601F08AF940
:1014E00070E0606C00286DD028E0626B236BD31A2B
:1014F0009F1000260CE0236B53F82600FFF768FAD4
:10150000AB7998424FEA860801D1236B14E001368B
:10151000BE42F0DB56E0A26A636AD31A9F1000262F
:1015200012E0636A53F82600FFF752FAAB7998424B
:101530004FEA860807D1636A53F808000368294612
:101540005B6898473EE00136BE42EADB3AE0112391
:101550008DF804301A238DF8053041F20103ADF8FF
:101560000630E62100232448ADF8083002F056F991
:10157000E721CDF80A00204802F050F9E821CDF823
:101580000E001D4802F04AF9E921CDF812001A4870
:1015900002F044F9EA21CDF81600174802F03EF9AE
:1015A0009DF80550CDF81A00294601A8FFF7D6FA94
:1015B0002946ADF8080001A806F05EFA0F480D2193
:1015C000FFF787FA206D00F0C7F894F84C3083B12C
:1015D0002046FFF725FB2046FFF743FB206C40B178
:1015E00003F02AFE05E0206D00F0C4F80028ECD0DE
:1015F000FCE608B0BDE8F081AD8EFF1FF091FF1F43
:10160000F8B590E84800F61AB61014BF3346012327
:101610009B1904460F466FF0404603D2B34238BFD1
:101620001E4626B1B00006F0D5FF054600E035465F
:1016300062682368D31A9B1005EB83013A6809B1ED
:1016400045F823202A4694E80300FFF749FE0746A1
:101650002068FFF72EFA0437256005EB86056760E2
:10166000A560F8BD1FB50369426901919342044624
:1016700005D003B1196023690433236103E00C3002
:1016800001A9FFF7BDFF0198FFF79EF9023807286F
:1016900034D8DFE800F03133331616331F04E36922
:1016A000216A019A8B42039205D003B11A60E36963
:1016B0000433E36122E004F1180003A9FFF78CFD75
:1016C0001CE004A9019B04F1240041F8043DFFF74C
:1016D000F6FD13E0636BA16B019A8B42039205D078
:1016E00003B11A60636B0433636307E004F13000F5
:1016F00003A9FFF72BFD01E0019B23641FBDFFFF42
:10170000054B10B504460360006908B106F068FF98
:1017100000232361204610BDD8D1000010B5044637
:10172000FFF7EEFF204606F059FF204610BDFFFFF1
:10173000054A0260002202710261C2608260427149
:101740008271C271704700BFD8D1000003790BB11C
:10175000006970471846704710B50446006908B123
:1017600006F03EFF002323612371A371E371E36060
:10177000A36010BD007970470B780F2B2CD00DD8CB
:10178000072B31D004D8022B26D0062B2BD123E0F7
:101790000B2B1DD00C2B1DD0082B05E0652B0CD07E
:1017A00004D8512B12D0642B1DD10DE06C2B0BD023
:1017B000752B13D0672B16D101E0072314E00E23FD
:1017C000C3600123437110E00E230DE012230BE0F0
:1017D0000A2309E0082307E00B2305E00623C36082
:1017E0000123C37101E00023C360C068704770B576
:1017F0000446C0680E4606F0EFFE0023054602E0F0
:10180000C25CEA540133B3422069F9DB08B106F047
:10181000E7FE256170BDCB880E2B1ED8DFE803F0F4
:101820000E1919101D170A12190819190C191B0085
:10183000262311E052230FE05A230DE022230BE070
:10184000142309E00E23C3600123037105E01E2366
:1018500002E0122300E02A23C360C06870472DE92C
:10186000F843044606F030F900284CD02379002BC9
:1018700049D144E006F028F9002833D0E368002B72
:1018800011DC06F02FF941462075A5602046FFF7D0
:1018900073FF06F0A1FEA368227D2061C254A368F5
:1018A0000133A3601EE0A6689E421BDAD4F81090B4
:1018B00006F018F909F80600E36801369E42A660B2
:1018C00010D163790BB927710CE021692046FFF72D
:1018D000A2FF20463146FFF78AFF657102E001272B
:1018E00004F114082579002DC4D0BDE8F88306F072
:1018F000F9F8FE2807D10123A371BDE8F883A37985
:10190000002BECD1F3E7BDE8F883C0797047FFFF07
:10191000034B10B504460360FFF730F8204610BDB6
:10192000E8D1000010B50446FFF7F2FF204606F0AC
:1019300055FE204610BDFFFF37B5069D00950446B5
:10194000FFF72CF8014B204623603EBDE8D1000094
:10195000084B10B504460360D0F8A40008B106F0A7
:101960003DFE0023C4F8A430204600F009FB2046C9
:1019700010BD00BF08D2000010B50446FFF7E8FF15
:10198000204606F02BFE204610BD10B50368017AF4
:101990001C7843681A78437A1A40837A0C4203F021
:1019A000030318BF43F004030AB143F008039A107D
:1019B000013B82720D2B14D8DFE803F0070A0D0AF1
:1019C0001310070710130A0D0A07C368013307E055
:1019D000C368013B04E0C368023301E0C368023B13
:1019E000C36010BD70B5054600F0EFFAD5F8A4400D
:1019F0000646237C72B6012B02D82046FFF7C5FFAE
:101A000062B6E368D5F8A000584309F0FFFF01462D
:101A1000304609F047FF4FF07C510AF04BF870BD9B
:101A200008B5034BD3F88400FFF7AFFF08BD00BF34
:101A3000BC8DFF1F08B5034BD3F88000FFF7A5FF4F
:101A400008BD00BFBC8DFF1F08B5024BD86FFFF764
:101A50009CFF08BDBC8DFF1F08B5024B986FFFF7B8
:101A600094FF08BDBC8DFF1F08B5024B586FFFF7F0
:101A70008CFF08BDBC8DFF1F08B5024B186FFFF728
:101A800084FF08BDBC8DFF1F08B5024BD86EFFF761
:101A90007CFF08BDBC8DFF1F08B5024B986EFFF799
:101AA00074FF08BDBC8DFF1F08B5024B586EFFF7D1
:101AB0006CFF08BDBC8DFF1F08B5024B186EFFF709
:101AC00064FF08BDBC8DFF1F08B5024BD86DFFF742
:101AD0005CFF08BDBC8DFF1F08B5024B986DFFF77A
:101AE00054FF08BDBC8DFF1F08B5024B586DFFF7B2
:101AF0004CFF08BDBC8DFF1F08B5024B186DFFF7EA
:101B000044FF08BDBC8DFF1F08B5024BD86CFFF722
:101B10003CFF08BDBC8DFF1F08B5024B986CFFF75A
:101B200034FF08BDBC8DFF1F08B5024B586CFFF792
:101B30002CFF08BDBC8DFF1F08B5024B186CFFF7CA
:101B400024FF08BDBC8DFF1F08B5024BD86BFFF703
:101B50001CFF08BDBC8DFF1F08B5024B986BFFF73B
:101B600014FF08BDBC8DFF1F08B5024B586BFFF773
:101B70000CFF08BDBC8DFF1F08B5024B186BFFF7AB
:101B800004FF08BDBC8DFF1F08B5024BD86AFFF7E4
:101B9000FCFE08BDBC8DFF1F08B5024B986AFFF71D
:101BA000F4FE08BDBC8DFF1F08B5024B586AFFF755
:101BB000ECFE08BDBC8DFF1F08B5024B186AFFF78D
:101BC000E4FE08BDBC8DFF1F08B5024BD869FFF7C6
:101BD000DCFE08BDBC8DFF1F08B5024B9869FFF7FE
:101BE000D4FE08BDBC8DFF1F08B5024B5869FFF736
:101BF000CCFE08BDBC8DFF1F08B5024B1869FFF76E
:101C0000C4FE08BDBC8DFF1F08B5024BD868FFF7A6
:101C1000BCFE08BDBC8DFF1F08B5024B9868FFF7DE
:101C2000B4FE08BDBC8DFF1F08B5024B5868FFF716
:101C3000ACFE08BDBC8DFF1F08B5024B1868FFF74E
:101C4000A4FE08BDBC8DFF1F08B5212800F2D58079
:101C5000DFE810F0220027002C00310036003C00A5
:101C6000410046004B00500055005A005F006400E0
:101C700069006E00730078007D00820087008C0090
:101C8000910096009B00A000A500AA00AF00B40040
:101C9000B900BE00C300CD00594B0020196059495E
:101CA000A0E0574B0120596057499BE0544B02205C
:101CB0009960564996E0524B0320D960544991E00F
:101CC0004F4B04201961024652498CE04C4B0520D1
:101CD0005961514986E04A4B062099614F4981E09C
:101CE000474B0720D9614E497CE0454B08201962DB
:101CF0004C4977E0424B092059624B4972E0404B16
:101D00000A20996249496DE03D4B0B20D962484950
:101D100068E03B4B0C201963464963E0384B0D20CB
:101D2000596345495EE0364B0E209963434959E0BB
:101D3000334B0F20D963424954E0314B10201964D2
:101D400040494FE02E4B112059643F494AE02C4B4B
:101D5000122099643D4945E0294B1320D9643C4940
:101D600040E0274B142019653A493BE0244B1520ED
:101D70005965394936E0224B16209965374931E0DB
:101D80001F4B1720D96536492CE01D4B18201966CA
:101D9000344927E01A4B19205966334922E0184B81
:101DA0001A20996631491DE0154B1B20D966304930
:101DB00018E0134B1C2019672E4913E0104B1D200F
:101DC00059672D490EE00E4B1E2099672B4909E0FB
:101DD0000B4B1F20D9672A4904E0094BC3F8801038
:101DE00028492020042204F077FE012008BD044B7E
:101DF0002120C3F884102449F4E7002008BD00BF67
:101E0000BC8DFF1F391C0000291C0000191C00009C
:101E1000091C0000F91B0000E91B0000D91B000091
:101E2000C91B0000B91B0000A91B0000991B000082
:101E3000891B0000791B0000691B0000591B000072
:101E4000491B0000391B0000291B0000191B000062
:101E5000091B0000F91A0000E91A0000D91A000055
:101E6000C91A0000B91A0000A91A0000991A000046
:101E7000891A0000791A0000691A0000591A000036
:101E8000491A0000351A0000211A0000F0B599B077
:101E9000DDE91E45CDE90045DDE92045CDE90245F6
:101EA000229C0494239C0594249C0694259C0794CE
:101EB000DDE92645CDE90845DDE92845CDE90A45B6
:101EC000DDE92A45CDE90C45DDE92C45CDE90E4596
:101ED0002E9C10942F9C1194309C1294319C13943E
:101EE000329C1494339C1594349C0646169400F04E
:101EF0004BFA214B1420336006F06CFB9DF8D47034
:101F00009DF8D85004460221384604F087FF284641
:101F1000022104F083FF194A52F8373003F50071AB
:101F200021600121217252F83520617202F50070A2
:101F30000021E16060604FF4FA410139FDD193F86E
:101F4000003292F8002203F00103D20744BF43F0AD
:101F50000203DBB2A37221463846FFF775FE214625
:101F600020742846FFF770FE237C18182074C6F8EA
:101F7000A440304619B0F0BD08D20000E0D4000003
:101F80000C4B10B504460360406A08B106F026FB0E
:101F9000E06910B103689B689847206A08B106F0B1
:101FA0001DFB00232362E36163622046FFF7B0FC60
:101FB000204610BD28D2000010B50446FFF7E0FF10
:101FC000204606F00BFB204610BD38B5046A0546D6
:101FD000237C72B6012B02D82046FFF7D6FC62B6EE
:101FE000E368D5F8A000584309F010FD38BDFFFFA5
:101FF0002DE9F047444B86B01B680593824605984F
:1020000009F0C2F8DAE91223CDE9000108F07EFFF9
:10201000DAE9222306460F4600203C4909F054FA2B
:1020200000223B4B09F026F902460B463046394662
:1020300009F0A6FB00285DD0DAF8003050465B6955
:10204000984709F0C3F8DAE91C23CDE9020108F04A
:102050005DFF02460B4608F05BFF29A3D3E900238E
:1020600009F008F98046DAF89000894609F09CF8F2
:1020700002460B464046494609F026FA00228046B1
:10208000894630463946224B09F01EFA02460B4675
:102090004046494609F018FADAE9204502460B465F
:1020A0002046294609F0E6F822462B4606460F460A
:1020B0000020164908F02AFF0446DAF844000D46CD
:1020C00009F084F802460B462046294609F0D2F86A
:1020D00002460B463046394608F01AFF09F08CFBE1
:1020E000DDE90223CAE91C23DDE90023CAE9122342
:1020F000CAF8440006B0BDE8F08700BFAFF3008027
:10210000182D4454FB210940848FFF1F0000F03F2D
:1021100000408F40AFF30080C06908B503681B68BA
:10212000984708BD2DE9F7431F4690F82C308046AC
:10213000164663B9194B446A1B680193019809F06C
:1021400023F80022164B09F0BFF9C4E90401D8F8BE
:102150005890012388F82C30484609F037F8324669
:102160003B4604460D4609F0F7FA60B909F1004014
:1021700009F02CF832463B4604460D4609F00AFBAE
:1021800008B934463D46054B1B680093009BC8E9DF
:102190001E45C8F83030BDE8FE8300BF848FFF1FA6
:1021A00000408F4010B50446D1F8070009F00EF842
:1021B00002460B462046BDE81040FFF7B3BFFFFFC5
:1021C00013B5114B1B68019390F82C30019A04460B
:1021D000C3B1036BD21A436B9A4213D90022002376
:1021E0000021C0E9182380F82C1000206064E06909
:1021F000C4E91A23C4E91E2303681B689847606A70
:1022000000F012FA1CBD00BF848FFF1FFFFFFFFF0D
:10221000036870B55B6906469847014609F042FBC2
:1022200008F0D4FF0AA3D3E9002309F023F80446F9
:10223000D6F890000D4608F0B7FF02460B46204640
:10224000294609F041F909F0D7FAF06370BD00BFE3
:10225000182D4454FB2109402DE9D343214B1B6821
:1022600001930446019808F08FFFD4E914238046B7
:10227000894608F04BFED4E9262306460F46002087
:10228000194909F021F90022184B08F0F3FF024622
:102290000B463046394609F07DFA08B3A36B012B93
:1022A00002D1606C206403E02046FFF7B1FFE06BD1
:1022B00008F08CFFC4E91801606A00F0BBF9A06A5D
:1022C00008F072FFD4E91A2308F0D4FFC4E9148996
:1022D000C4E91A0109F068FA01462046FFF71CFF1D
:1022E000BDE8DC83848FFF1F0000F03F00408F407B
:1022F00010B50446FFF77CFE94F82C3023B120463D
:10230000BDE81040FFF7A8BF10BD10B50446FFF7A9
:1023100057FF2046BDE81040FFF7EABF1FB504464F
:10232000FEF758FB68B3636C23646A238DF80030B2
:102330000F238DF80130204641F20103ADF8023041
:10234000FEF746FB8DF806002046FFF761FF236C81
:10235000CDF80700CDF80B300023ADF804309DF820
:1023600001101A4604E01DF80300121892B201335E
:102370008B42F8DBA069ADF80420036869461B694D
:1023800098471FBDFFFFFFFF2DE9F0438DB00746C3
:1023900000930623DDF86090199EFFF7CDFA624B9B
:1023A0003B60279BBB63002387F82C30269B7B6315
:1023B000DDE91C23C7E92623DDE91423C7E920232F
:1023C000DDE91623C7E92223259AC7F89020289A29
:1023D000BA6240F2E7320024002500230C20914528
:1023E000C7E918453B64FB63C7E91A45C7E91C45C3
:1023F000C7E91E45984609D106F0ECF83146044677
:102400004A4D04F0B5F8FC6100240AE006F0E2F859
:1024100049460446324604F0F7F8FC6140A5D5E988
:102420000045434E33680993099B3B6333680A9325
:102430000A9808F0A9FE33680B93C7E912010B98BC
:1024400008F0A2FEC7F84480C7E91401582006F03E
:10245000C1F8DDE91E23CDE90023DDE92023CDE924
:102460000223DDE92223CDE904232A9B07F1600240
:10247000064607F16801069307F1780300F09CF81F
:102480007E621420C6E9064506F0A4F89DF868604F
:102490009DF86C5004460221304604F0BFFC2846EB
:1024A000022104F0BBFC234A52F8363003F50071D8
:1024B00021600121217252F83520617202F500700D
:1024C0000021E16060604FF4FA410139FDD193F8D9
:1024D000003292F8002203F00103D20744BF43F018
:1024E0000203DBB2A37221463046FFF7ADFB214663
:1024F00020742846FFF7A8FB237C1818249B20741F
:10250000BB65299B3C623846C7F8A0300A21FEF71C
:102510005DFA38460DB0BDE8F08300BFAFF3008030
:102520000000000000C05F4028D2000000407F4053
:10253000848FFF1FE0D40000014A017042607047A1
:10254000E091FF1F70B50446406803680E461B68A3
:102550002178154698476068036831461B6898479C
:102560006068036829461B6898476068227803689A
:10257000B618A9191B6801F07F01984770BD7E2A23
:10258000A8BF7E226FF07D039A42B8BF1A46002A88
:10259000B8BF5242D2B2FFF7D5BF10B54C1E012CC6
:1025A00009D802290CBF0421002101EBD271BDE83A
:1025B0001040FFF7E4BF10BD13B580E80E00DDE961
:1025C0000423C0E90A23DDE90623C0E90C23DDE981
:1025D0000823C0E90E23124B1B680193044601989F
:1025E00008F0D2FD00220F4B08F06EFF00220023FE
:1025F000C4E91223C4E9102307A3D3E90023C4E9E3
:102600000401C4E906230A9808F0E0FDC4E91401B6
:1026100020461CBDAFF300800000000000C05F40FA
:10262000848FFF1F00408F4000220023C0E9102349
:102630007047FFFF2DE9F04F584B89B01B68079397
:102640008046079808F0A0FD0022554B08F03CFF9B
:10265000D8E90423CDE9040108F058FCD8F8082093
:10266000D8F8043082468B46D2E90001D3E9002332
:1026700008F04CFCD8E9062304460D46D8E91401BD
:1026800008F0F8FD524681460E465B462046294634
:1026900008F0F0FDD8E9102308F03AFC4A4633462A
:1026A000CDE9020109F076F810B14A46334611E04F
:1026B00006F1004C6346DDE902014A46CDF804C04C
:1026C00009F04AF8DDF804C010B9DDE9022301E0A1
:1026D0004A466346C8E910232046D8E90A2329461A
:1026E00008F0C8FDD8E9102306460F46D8E90C01CA
:1026F00008F0C0FD02460B463046394608F008FC9B
:10270000D8E9122306460F462046294608F0FEFB6C
:1027100052465B4608F0D8FED8E90E2308F0AAFD21
:1027200002460B463046394608F0F2FBD8F80090D6
:102730000B460246C9E90023D8F818B0D8F81CA007
:102740005A4653460E46074609F024F8002818BF9B
:102750005F4618BF56463A463346C9E90023D8F8C3
:102760001C30D8F818B003F1004A5A465346384690
:10277000314608F0F1FF00280CBF3A465A460CBF1C
:1027800033465346C9E90023DDE90423C8E912456D
:10279000C8E9042309B0BDE8F08F00BF848FFF1F94
:1027A00000408F40034B10B504460360FEF7E6F887
:1027B000204610BD48D2000010B50446FFF7F2FFD6
:1027C000204605F00BFF204610BDFFFF37B5069DE4
:1027D0001B7800950446FEF7E1F8054B2360079B44
:1027E00023639DF824302377089B2046E3623EBD97
:1027F00048D20000037F43B1D1F806304362D1F8DC
:102800000A308362D1F80E300362704713B5D1F8F5
:1028100006300193D1F80A2002AB43F8082D026874
:10282000546993E80600A0471CBD10B50446806BB0
:10283000FFF7C6FCA06BFFF75BFD606BFFF7C0FC0A
:10284000606BBDE81040FFF753BD2DE9F74302ABC5
:1028500003E90600076B009E019D04463946304699
:1028600009F0DCF9E16A8046284609F023F9394687
:102870008146384609F016F80146484609F0CEF977
:102880000146404609F00EF808F0A0FC02460B464F
:10289000A06BFFF747FC276B3046394609F0BEF9BD
:1028A000E16A0646284609F005F9394605463846E4
:1028B00008F0F8FF0146284609F0B0F90146304615
:1028C00008F0EEFF08F082FC0246606B0B4603B096
:1028D000BDE8F043FFF726BC034B10B50446036088
:1028E000FFF760FF204610BD68D2000010B5044617
:1028F000FFF7F2FF204605F071FE204610BDFFFFF6
:10290000F8B51046194614A3D3E9002308F000FBDC
:1029100013A3D3E9002306460F4606F019FA002256
:1029200004460D4630463946002308F015FF40B1F5
:10293000204629460AA3D3E9002308F0E9FA044611
:102940000D462046294604A3D3E9002308F0DEFA09
:10295000F8BD00BFAFF30080182D4454FB2109409F
:10296000182D4454FB21194038B50446806BFFF7FD
:102970004FFC216C054608F093FF216B09F09AF893
:10298000256438BD38B50446406BFFF741FCE16B68
:10299000054608F085FF216B09F08CF8E56338BD2A
:1029A000002170B5064601604160104619460022BC
:1029B000094B08F05FFC04460D4606F027F908F0C5
:1029C0001BFF2946B060204606F0D6F808F014FF39
:1029D000F060304670BD00BF0000E03F2DE9F04FD1
:1029E00091B08246FDF7F6FF002800F0A380504624
:1029F000FFF7BAFF04465046FFF7C4FF05462946D5
:102A0000204608F04DFFDAF82C1009F007F9DAF843
:102A1000441009F04FF8DAF8201008F043FFCAF824
:102A2000200008F0D3FB02460B465046FFF768FF34
:102A300008F0E2FE29468346CAF82000204608F046
:102A400031FF4FF07C5109F035F808F0BFFB064626
:102A500058460F4608F0BAFB04460D4606F08CF8BF
:102A60000246DAF824000392029108F0AFFB039AC1
:102A7000029B804689463046394608F0FBFB0B46F0
:102A800002464946404608F043FA08F0B5FE29469A
:102A90008446CAF824002046CDF804C006F0B6F8F3
:102AA0000246DAF828000392029108F08FFB039A9D
:102AB000029B804689463046394608F0DBFB0246D9
:102AC0000B464046494608F023FA08F095FE224698
:102AD0000646CAF828002B4605A85146FFF760FFB6
:102AE0006C23079A8DF824301A238DF82530DDF8F1
:102AF00004C0CDF8362041F20103089AADF8263023
:102B00000023CDF83A20ADF82830CDF82AC0CDF812
:102B10002E60CDF832B01A4609A9505C01321B185C
:102B20001A2A9BB2F8D1DAF81800ADF828300368F9
:102B30001B69984711B0BDE8F08FFFFF70B586B0F4
:102B400006AD002605F8016D00930A9B01930B9BCF
:102B50000293012303932B460446FFF737FE084BED
:102B600023600C9B63630D9BA3630023E3632364D7
:102B700023626362A3620E9B2046636406B070BD4D
:102B800068D200007047FFFF034B10B50446036096
:102B9000FDF7F4FE204610BD88D2000010B50446B3
:102BA000FFF7F2FF204605F019FD204610BDFFFF9C
:102BB00038B50546007F03F091FE04462846FDF730
:102BC00003FF0A28204606D108F020FF08F0FEFA8D
:102BD00000220F4B06E008F019FF08F0F7FA08A3EF
:102BE000D3E9002308F046FB07A3D3E9002308F04C
:102BF0006BFC0022074B08F067FC08F0FDFD38BDB8
:102C0000666666666666C94000000000E0FFEF4049
:102C10000000B44000408F4030B585B00446FDF759
:102C2000D9FE40B36D238DF804300B2300258DF8B9
:102C30000530204641F20103ADF80630ADF80850EA
:102C4000FDF7C6FE8DF80A002046FFF7B1FF2B46C0
:102C5000CDF80B002A469DF8050003E0C95C521828
:102C600092B20133834201A9F8DBA069ADF80820D4
:102C700003681B69984705B030BDFFFF73B5069E1A
:102C80001B78079D00960446FDF788FE0A4B012D30
:102C9000236001D10E2304E0022D01D10F2300E0B7
:102CA0001023E361207F002104F0B8F8102003F026
:102CB000EBFD20467CBD00BF88D20000704737B5D1
:102CC0000446FDF787FE60B36E238DF800300823BD
:102CD00000258DF80130204641F20103ADF80230A5
:102CE000ADF80450FDF774FE8DF80600207F04F067
:102CF00089F8431B584258418DF807009DF8011090
:102D00002B462A4604E01DF80300121892B2013344
:102D10008B42F8DBA069ADF80420036869461B69A3
:102D200098473EBD034B10B504460360FDF726FEF1
:102D3000204610BDA0D2000010B50446FFF7F2FFF8
:102D4000204605F04BFC204610BDFFFF13B5009355
:102D500001230446FDF722FE084B2360049B012B50
:102D600001D10B2300E00C23E361207F022104F05A
:102D700055F8102003F088FD20461CBDA0D20000AD
:102D8000054B10B5044640F8703B01F0D1FE2046DB
:102D9000FDF7F4FD204610BDB8D2000010B5044682
:102DA000FFF7EEFF204605F019FC204610BDFFFF9F
:102DB00010B50446CC3001F0FDFC0368E0661B69E9
:102DC0009847002812DDE36EA0691A79E2B95B79B1
:102DD000D3B115E00121002384F8C43084F8C51074
:102DE00084F8C61084F81011204605E0002384F80A
:102DF000103120466FF00101BDE81040FDF7E6BD3F
:102E0000036804495B6903E0036803495B690022C6
:102E10009847DFE7C8D20000E2D20000F8B51148B9
:102E2000069D16461F460C4600F072FB31460D48C3
:102E300000F014FA00210B4800F07AFB2146094803
:102E40003A4600F043FC002405E0064800F02EFA64
:102E500028550134E4B2034800F01EFA0028F4D1EA
:102E6000F8BD00BF988EFF1F1FB503AB009368210C
:102E700002234122FFF7D2FF9DF80C009DF80D3090
:102E800043EA002000B205B000BDFFFFFFFFFFFFD7
:102E90002DE9F0417A4B94B01B680393DDF80C8068
:102EA000836E0446B0F81C01C3EB080508F0AAFDC8
:102EB00008F08CF902460B460020724908F004FB2A
:102EC0000022714B08F0D6F908F06EFC854240F202
:102ED000CA80E06E03689B699847002800F0C180B3
:102EE00094F81131002B40F08A8004A800F02AFDEC
:102EF00007A800F027FD0AA800F024FDE16E04A851
:102F0000143100F0FDFCE16E07A8083100F0F8FC78
:102F1000E16E0AA8203100F0F3FCE36EDB6A04AA3C
:102F200007A9009304F170000AAB01F031FFE06ED5
:102F300003681B6A984710A800F0C0FE0DA800F0B7
:102F400001FD04F1B8010DA800F0DAFC04F1A801BC
:102F500010A800F0E7FD049BE361059B2362069B3C
:102F60006362079BA362089BE362099B23630A9B3E
:102F700063630B9BA3630C9BE363109B2364119B14
:102F80006364129BA364139B2046E364FFF76CFF0A
:102F900008F03CFD08F01AF935A3D3E9002308F046
:102FA00093FA0022394B07F0B3FF08F025FC2065A7
:102FB0000E980F9E0D9D08F009F92FA3D3E9002369
:102FC00008F058F908F018FC6065304608F0FEF883
:102FD00029A3D3E9002308F04DF908F00DFC216E78
:102FE00008F05EFCA065284608F0F0F822A3D3E9BB
:102FF000002308F03FF908F0FFFBE06531E094F8AA
:103000001261FEB90DA800F09DFCE16E0DA8203103
:1030100000F076FC25460DABD5F8F810F758384689
:1030200008F0E6FE08B1C5F8F8703846D5F8041186
:1030300008F0FCFE08B1C5F80471043604350C2E06
:10304000E9D10EE00025012384F8F63084F811510F
:1030500084F81251284604F1F40101F0C1FFE36E37
:103060001D71C4F8688014B0BDE8F081AFF3008032
:1030700052B81E85EBDD7440F8C1631ADCA54C40E4
:10308000848FFF1F0000F03F00408F40000035405C
:1030900010B5044690B0FFF7FBFE2046FDF79AFC02
:1030A000002841D0A26ACDF80A20E26ACDF80E20AD
:1030B000226BCDF81220E269CDF81620226ACDF8F5
:1030C0001A20626ACDF81E20626BCDF82220A26B16
:1030D000CDF82620E26BCDF82A20226CCDF82E20E8
:1030E000626C6F23CDF83220A26C8DF804303A2345
:1030F0008DF80530CDF8362041F20103E26CADF8D1
:1031000006300023CDF83A20ADF808301A4601A960
:10311000505C01321B183A2A9BB2F8D1A069ADF875
:10312000083003681B69984710B010BD0023C361C5
:103130008362436343640362C36283638364436261
:103140000363C363C3644FF07E5303647047FFFFA0
:1031500037B504461D46009203230022FDF71EFCEE
:10316000194B204640F8703B01F008FD04F1CC00FB
:1031700000F05DFB154800F01FF92046FFF7D6FF71
:1031800020460021FDF722FC00236366E3656365AA
:10319000A3652365BDF8183025660025A4F81C3109
:1031A000C4F81851C4F8145184F8105184F811511E
:1031B000A5662046FFF7FCFD94F810310BB184F8AA
:1031C000125120463EBD00BFB8D20000988EFF1FAE
:1031D00010B5044604F1F401002001F017FF0023AC
:1031E00084F8F630084B094AC4F80431C4F80831B1
:1031F000C4F80C31E36EC4F8F820C4F8FC20C4F81D
:10320000002101221A7110BD809618CB8096184BB0
:1032100010B590F81131D1F8062004460BB112B167
:1032200010BD22B910BD012380F8123110BD80F805
:103230001231FFF7CDFF012384F8113110BDFFFFDC
:10324000054A137803F00203DBB2002BF9D0024BDE
:1032500002221A70704700BF03600640094B1B78BA
:1032600013B9094B1B782BB1084A1378202B03D9CB
:1032700001230371002070470548C15401331370C6
:1032800001207047AA8EFF1F6D8EFF1FAB8EFF1FA0
:103290004C8EFF1F7047FFFF024B1878024B1B78C4
:1032A000C01A7047A98EFF1FA88EFF1F064A074944
:1032B00013780978994204D90549C85C0133137021
:1032C00070474FF0FF307047A88EFF1FA98EFF1F79
:1032D0006E8EFF1F054B064A1B7812789A4202D960
:1032E000044AD05C70474FF0FF307047A88EFF1F34
:1032F000A98EFF1F6E8EFF1F38B50E4B1B7814462C
:1033000013B90D4B1B788BB10C4B1D78C5F1210304
:103310009C4202D9012202711C46094822464019EA
:1033200009F0DAF8054B2D191D7000E01C46204607
:1033300038BD00BFAA8EFF1F6D8EFF1FAB8EFF1F13
:103340004C8EFF1F10B5104B1B7813F020040BD1CF
:10335000122003F0EBFB0D4B1B68A3B10C4A147059
:103360000C4A1078984710BD0B4A13780133DBB232
:10337000012B137002D8094B1B7823B91220BDE82A
:10338000104003F0D3BB10BD03600640488EFF1F02
:10339000A88EFF1FA98EFF1F948EFF1F6D8EFF1F2B
:1033A000002202710273034A4FF47A718160026055
:1033B000704700BF10D300000C4B00221A700C4B5A
:1033C000196841F0400119600A4B0B491A704FF41B
:1033D00019720A6041F8042C084A2721117004214F
:1033E00051712021117180221A7070476D8EFF1F5C
:1033F00034800440026006400CA004400160064096
:1034000010B5374A137803F01001C9B221B903F09F
:103410004002D2B242B92EE01021117003F04002F6
:10342000D2B2002AF3D110BD13F004032D4A18D0F4
:10343000002313702C4A13702C4B1B68144603B1E5
:10344000984722782A4B1AB927491A700120087028
:10345000284AD02111701A78274B1A700122274B65
:1034600021E001211170264A1370224BC0221A70EC
:1034700002331B7830E01F4A1F4C117811F0100105
:1034800017D013F0010310D11C4917480A780078AF
:10349000904205D9164B9B5C013223700A7000E004
:1034A0002370144BD0221A7016E0C02313702378B7
:1034B00012E0144B122019700322134903F00CFB85
:1034C0000F4A207813781F2B06D80649097819B1BE
:1034D0000E49C85401331370014B02221A7010BDFB
:1034E00003600640448EFF1FAB8EFF1F908EFF1FB0
:1034F0004C8EFF1F0260064004600640AC8EFF1F2A
:10350000A98EFF1F948EFF1F453300006E8EFF1F94
:10351000044B054A4900197001231370034A1370C4
:10352000704700BF4C8EFF1FAA8EFF1FAB8EFF1F80
:103530002DE9F041204B12221A70204A0D461178D5
:1035400001F02001C9B211B1B42313700BE0194688
:103550000A7802F02002D3B2002BF9D1184A137076
:10356000164BB0221A700024164E174FDFF86080F9
:1035700013E03B5D88F80030FFF762FE0E4B1B78CE
:10358000DA0704D5002C14BF032002200BE003F05F
:103590001003DBB233B90134E4B23378A342E8D884
:1035A000002000E0042015B1044B80221A70074B64
:1035B00000221A70BDE8F0810360064002600640F8
:1035C0006D8EFF1FAB8EFF1F4C8EFF1FAA8EFF1F3D
:1035D000046006402DE9F0471446344A1E46002395
:1035E0001370334A1370334B12221A70324A107818
:1035F00000F02000C0B210B1B42313700BE01846E5
:10360000027802F02002D3B2002BF9D12B4A1370BA
:10361000294BB0221A704900294D41F0010129704F
:10362000FFF70EFE234B244A1B7813F0110F04D032
:10363000802313700020BDE8F0872CB9002E0CBF4A
:10364000A02680261670F5E7012C01D1A82300E002
:10365000A02313702B781B4FDFF86480DFF858909D
:1036600025464FF0A80A0BE0013DEDB2FFF7E8FD5B
:10367000012D08BF89F800A098F8003007F8013F35
:10368000012DF1D1FFF7DCFD0B4B0F49B0221A7071
:103690000B4A1078621ED2B2885420460EB18022A6
:1036A0001A70034B1C70BDE8F08700BFA88EFF1F87
:1036B000A98EFF1F03600640026006406D8EFF1F4B
:1036C000046006406D8EFF1F6E8EFF1F0123FFF703
:1036D00081BF0121FFF72CBF0148FFF761BE00BF8A
:1036E000988EFF1F2DE9F04F1546324A89B09A4651
:1036F00013680291059300240746BDF84860DDF881
:103700001480A1462FE02C483946FFF701FF0299AB
:103710002948FFF7A3FD2848FFF7DBFF2648394675
:10372000FFF7F6FE2A1B202AA8BF2022224839468E
:10373000D2B2FFF7CBFF4AFA89F34FF0000B0393A5
:103740000BEB0901C9B21C480191FFF7A5FD0199D6
:10375000E8B11EB3174B186806900698C8EB000036
:10376000B0421BD313E0AC42CDD36EB1114A126804
:103770000792079AC8EB0208B04505D34FFA89F2C1
:10378000AA42B8BF4FF0FF094FFA89F00FE0202D91
:1037900094BF64192034E4B28946E4E70648FFF791
:1037A00085FD039B03F80B000BF1010BC8E709B083
:1037B000BDE8F08F848FFF1F988EFF1F13B514464E
:1037C000009301222346FFF78DFF1CBDF8B5074685
:1037D0000C460D48394615461E46FFF799FE214610
:1037E0000948FFF73BFD002403E0315DFFF736FD9C
:1037F0000134E3B2AB420448F7D3FFF76AFFD0F1DC
:10380000010038BF0020F8BD988EFF1F07B502AB3E
:1038100003F8012D0122FFF7D9FF0EBD084603F082
:1038200019B90846114603F029B903F0D7B84FF08B
:10383000FF3202605022026128224261032282612B
:10384000C261102202624262682202717047FFFF69
:1038500010B50B4C4FF07C51A4EB600408F02AF932
:10386000214608F027F9214608F024F901464FF0D7
:103870007F5008F015F80146204608F01BF910BDEE
:10388000DF59375F70B5044616460D46027840781A
:10389000B3B140EA022000B208F0B8F8314608F0AF
:1038A00009F92860E378A07843EA002000B208F024
:1038B000ADF8314608F0FEF868602079637915E0CC
:1038C00042EA002000B208F0A1F8314608F0F2F810
:1038D0002860A378E07843EA002000B208F096F868
:1038E000314608F0E7F868606079237943EA002000
:1038F00000B208F08BF8314608F0DCF8A86070BD23
:10390000884205D00B6803604B6843608B68836016
:10391000704738B504460D460068096807F0C0FFD7
:1039200020606968606807F0BBFF6060A968A068F4
:1039300007F0B6FFA060204638BD00230360436057
:103940008360704710B50446FFF7F7FF204610BDAF
:1039500070B505460C460068096808F0ABF8616868
:103960000646686808F0A6F80146304607F09AFF58
:10397000A1680646A86808F09DF80146304607F0A1
:1039800091FF70BD2DE9F047D1F808A0D0F808806C
:1039900005460C4650466968164608F08BF8616883
:1039A0000746404608F086F80146384607F078FF9B
:1039B0003060D4F800902F684046494608F07AF805
:1039C00051468046384608F075F80146404607F0F3
:1039D00067FF70606168384608F06CF869680446F3
:1039E000484608F067F80146204607F059FFB060E6
:1039F000BDE8F0872DE9F041D0F80080476886687F
:103A000041460446404608F055F8394605463846D2
:103A100008F050F80146284607F044FF31460546B5
:103A2000304608F047F80146284607F03BFFFFF70D
:103A30000FFF0021054608F0D1F9A0B928464FF044
:103A40007E5108F0CBF970B92946404608F032F8AB
:103A500029462060384608F02DF829466060304637
:103A600008F028F8A060BDE8F0812DE9FF410E467E
:103A700007C801AB83E807001846FFF7BBFF0298B1
:103A800007F0A4FB044603980D4607F09FFB02468F
:103A90000B462046294605F059F907F0ADFE306087
:103AA000019807F093FB04460298DDF80C800D4660
:103AB000014607F0FFFF41460746404607F0FAFF80
:103AC0000146384607F0EEFE07F080FB05F09CF952
:103AD0000B4602462946204605F038F907F08CFED1
:103AE000002300F100407060B360BDE8FF81034631
:103AF000006870B501465E689D6807F0DBFF3146DF
:103B00000446304607F0D6FF0146204607F0CAFEBD
:103B100029460446284607F0CDFF0146204607F017
:103B2000C1FE70BD884207D00B6803604B684360DC
:103B30008B688360CB68C360704770B505460E46DE
:103B400000242859315907F0ADFE28510434102CB7
:103B5000F7D1284670BD70B505460E460024285999
:103B6000315907F09DFE28510434102CF7D1284616
:103B700070BDF0B58BB0044601A80D46FFF7DDFE21
:103B800004A8FFF7DAFE07A8FFF7D7FE63680193E2
:103B9000A3680293E36803936B680493AB6805938F
:103BA000EB6804A901A80693FFF7D2FE07AA07460F
:103BB00004A901A8FFF7E6FE26682968304607F049
:103BC00079FF394607F06CFE04992060304607F013
:103BD00071FF2D6801990746284607F06BFF0146E3
:103BE000384607F05FFE079907F05CFE05996060B4
:103BF000304607F05FFF02990746284607F05AFF54
:103C00000146384607F04EFE089907F04BFE06992C
:103C1000A060304607F04EFF03990646284607F09D
:103C200049FF0146304607F03DFE099907F03AFE8C
:103C3000E06020460BB0F0BD38B5044600680D4684
:103C400007F038FF29462060606807F033FF2946F7
:103C50006060A06807F02EFF2946A060E06807F0CA
:103C600029FFE060204638BD38B5044615460FC927
:103C700084E80F0020462946FFF77BFF204638BD29
:103C800038B5044615460FC984E80F00204629467A
:103C9000FFF7D2FF204638BD38B5044615460FC998
:103CA00084E80F0020462946FFF755FF204638BD1F
:103CB0000023036043608360C360704710B504460F
:103CC000FFF7F6FF204610BD2DE9F843D0F800902D
:103CD000D0F804808768C66849460446484607F01D
:103CE000E9FE41460546404607F0E4FE0146284607
:103CF00007F0D8FD39460546384607F0DBFE014699
:103D0000284607F0CFFD31460546304607F0D2FE83
:103D10000146284607F0C6FDFFF79AFD002105463B
:103D200008F05CF8C8B928464FF07E5108F056F804
:103D300098B92946484607F0BDFE2946206040460E
:103D400007F0B8FE29466060384607F0B3FE294602
:103D5000A060304607F0AEFEE060BDE8F883FFFFEC
:103D60002DE9F8430746D0F80890D0F804800E46B5
:103D70004846F96807F09EFE39680446404607F059
:103D800099FE0146204607F08DFD07F01FFA024616
:103D90000B4607F0BDF804460D464046414607F085
:103DA00089FE49468046484607F084FE0146404663
:103DB00007F078FD07F00AFA02460B4607F0A8F86C
:103DC00002460B460020304907F0A0F802460B4699
:103DD0002046294604F0BAFF07F00EFDB9683060AE
:103DE000386807F067FEF9680446786807F062FEF5
:103DF0000146204607F054FD07F0E8F902460B465D
:103E000007F086F804F04EFF07F0F6FCD7F80890AC
:103E100079687060484607F04DFED7F80C80396825
:103E20000446404607F046FE0146204607F03AFDAC
:103E300007F0CCF902460B4607F06AF804460D4637
:103E40004846494607F036FE41460746404607F0D9
:103E500031FE0146384607F025FD07F0B7F9024666
:103E60000B4607F055F802460B460020064907F0BE
:103E70004DF802460B462046294604F067FF07F03E
:103E8000BBFCB060BDE8F8830000F03F2DE9F74FC0
:103E900004460D4608684FF07C5107F00BFE07F012
:103EA00095F906460F4604F067FE07F0A5FC394673
:103EB0008146304604F0AAFE07F09EFC4FF07C518C
:103EC0008346686807F0F6FD07F080F906460F465E
:103ED00004F052FE07F090FC39468246304604F06A
:103EE00095FE07F089FC4FF07C510190A86807F01F
:103EF000E1FD07F06BF906460F4604F03DFE07F0C2
:103F00007BFC39460546304604F080FE07F074FC21
:103F100051460646484607F0CDFD01998046584671
:103F200007F0C8FD29460746404607F0C3FD314665
:103F300003463846009307F0BDFD009B0146184636
:103F400007F0B0FC51462060584607F0B3FD0199D8
:103F50008246484607F0AEFD29468146504607F0A6
:103F6000A9FD31468346484607F0A4FD0146584660
:103F700007F096FC29466060484607F09BFD3146F5
:103F80008146504607F096FD0146484607F08AFCF8
:103F90003146A060404607F08DFD2946064638466A
:103FA00007F088FD0146304607F07AFCE0602046C5
:103FB00003B0BDE8F04FFFF787BE38B50D460446A5
:103FC000FFF776FE2B6823606B6803F100436360A4
:103FD000AB6803F10043A360EB6803F10043E360C7
:103FE000204638BD407970470048704728D300000C
:103FF00005207047436B4FF4C87090FBF3F0704797
:10400000034B10B50446036000F0C0FB204610BD12
:1040100040D3000010B50446FFF7F2FF204604F03D
:10402000DDFA204610BDFFFF10B5044600F0CEFBC0
:10403000014B2046236010BD40D300004B1FB3F559
:10404000797F4FF0000308D24FF47A724163B2FBDC
:10405000F1F18163C3630120704718467047FFFF89
:10406000112907D8044A4BB29A4003D580F88B1027
:10407000012070470020704700C000FE082907D8C3
:10408000044A4BB29A4003D580F88C100120704747
:1040900000207047000080FE4B1E632B03D8C0F841
:1040A00090100120704700207047FFFF08290BD0B7
:1040B00001D829B117E010290AD0182913D10BE033
:1040C00080F89410094B0AE080F89410084B06E041
:1040D00080F89410074B02E0074B80F89410C0F86A
:1040E0009830012070470020704700BFFDB30B39A6
:1040F000A9689239787D0B3A787D8B3A08290CD0E3
:1041000001D829B11BE010290CD0182917D10EE0D5
:1041100080F895104FF062530DE080F895104FF045
:10412000645308E080F895104FF0665303E080F880
:1041300095104FF06853C0F89C3001207047002064
:10414000704710B538210446002290F88900FFF727
:104150005DFB00282DD094F8890023210022FFF771
:1041600055FB30B394F889006A210022FFF74EFB1B
:10417000F8B194F889006A210422FFF747FBC0B127
:1041800094F889006A216022FFF740FB88B1322051
:1041900002F07EFE94F8890038210122FFF736FBF9
:1041A00038B194F8890023217822BDE81040FFF748
:1041B0002DBB002010BDFFFF70B5514E8AB0338873
:1041C0000446722190F889000093022203ABFFF7A6
:1041D00089FA00B911E09DF80C509DF80D3003EB01
:1041E0000525B5F5806F0AD12046FFF7AAFFE36ADF
:1041F000A26B562101FB0233E36200207EE0B5F59D
:10420000F07F11D9338894F88900009374210C222F
:1042100007ABFFF767FA0028EFD0E26AA36B0C3D0B
:10422000D318E362772DECE70B2DE6D9344D94F8E3
:1042300089002B88742100930C2207ABFFF752FAF8
:104240000028DAD02B8894F88900009349210822AD
:1042500005ABFFF747FA0028CFD007A804F11401F7
:10426000D4F89C200123FFF70DFB0DF1220004F18F
:104270000801D4F898200123FFF704FB214A0DF12F
:10428000150004F120010023FFF7FCFAE368206A1F
:10429000D4F8A01003F10043E360236903F1004365
:1042A0002361636903F10043636107F003FCD4F801
:1042B000A4100546606A07F0FDFBD4F8A810064676
:1042C000A06A07F0F7FB05F10045A06226622046D0
:1042D000656200F001FB204600F0AAFB94F88830EC
:1042E00023B1094B1B680493049B02E0E26AA36BB1
:1042F000D318E362002384F8883001200AB070BD2F
:104300006687FF1F9A99193F848FFF1F13B5164BBD
:1043100004466A2190F889001B880DF10702FFF717
:104320004DFA08B900201DE09DF8072094F8890097
:1043300022F0200242F002026A218DF80720FFF7E6
:1043400065FA0028EED0322002F0A2FD94F8890030
:1043500037218222FFF75AFA0028E3D0322002F0F8
:1043600097FD01201CBD00BF6687FF1F13B5144BCE
:1043700004466A2190F889001B880DF10702FFF7B7
:104380001DFA08B900201AE09DF8072094F889006A
:1043900042F020026A218DF80720FFF737FA002843
:1043A000F0D0322002F074FD94F889003721802289
:1043B000FFF72CFA18B1322002F06AFD01201CBD73
:1043C0006687FF1F38B590F88B5090F89430C5F38E
:1043D000C102D21804461B2190F88900D2B2FFF71F
:1043E00015FA40B194F889001A2105F00702BDE8DA
:1043F0003840FFF70BBA38BD10B504461C2190F8C1
:10440000890094F89520FFF701FA40B194F88900EB
:1044100094F88C201D21BDE81040FFF7F7B910BDBE
:10442000436BB3F57A7F0ADC4FF47A7292FBF3F3B5
:104430005A1E90F889001921D2B2FFF7E7B901207E
:104440007047426BD0F8903090F8890092FBF3F2FD
:10445000013A1F2AA8BF1F223421D2B2FFF7D6B9D2
:104460001FB5012380F88830036B1A79044680F861
:1044700089201969FFF7E2FD236B20465969FFF790
:104480000BFE236B2046197EFFF7EAFD236B2046C7
:10449000197FFFF7F3FD236B204693F82010FFF7F9
:1044A00005FE236B204693F82410FFF727FE2046D5
:1044B00000F0B2F994F889006B218022FFF7A6F989
:1044C000002800F01881642002F0E2FC94F88900D2
:1044D0006B210022FFF79AF9002800F00F81A74B0B
:1044E00094F889001B8875210DF10B02FFF766F91E
:1044F000002800F006819DF80B30712B40F00481FC
:104500002046FFF75FFF002800F001812046FFF7FB
:1045100073FF002800F0FE802046FFF781FF00288F
:1045200000F0FB802046FFF7F1FE002800F0F88045
:104530000C200A210022FFF769F928B92046FFF76D
:1045400015FF6FF00B0017E10C200A210F22FFF777
:104550005DF928B92046FFF709FF6FF00C000BE169
:10456000864B1B880C200093102103220DEB0003C7
:10457000FFF7B8F828B92046FFF7F8FE6FF00D00F6
:10458000FAE09DF80C0007F03DFA06F01FFE00224D
:104590007B4B06F0BBFC00227A4B06F06BFE002240
:1045A000794B06F0B5FC07F027F9C4F8A0009DF898
:1045B0000D0007F027FA06F009FE0022704B06F006
:1045C000A5FC00226F4B06F055FE00226E4B06F054
:1045D0009FFC07F011F9C4F8A4009DF80E0007F045
:1045E00011FA06F0F3FD0022654B06F08FFC002265
:1045F000644B06F03FFE0022634B06F089FC07F097
:10460000FBF80A21C4F8A80000220C20FFF7FEF8EE
:1046100028B92046FFF7AAFE6FF00E00ACE0204656
:10462000FFF7A4FE00287ED094F8890024214022C0
:10463000FFF7ECF8002879D094F8890025218C2226
:10464000FFF7E4F8002874D094F8890026210222AC
:10465000FFF7DCF800286FD094F889002721882222
:10466000FFF7D4F800286AD094F8890028210C229A
:10467000FFF7CCF8002865D094F8890029210A2298
:10468000FFF7C4F8002860D094F889002A2181221D
:10469000FFF7BCF800285BD094F889006421012260
:1046A000FFF7B4F8002856D094F889006721032258
:1046B000FFF7ACF8002851D02046FFF7C2FE0028D3
:1046C0004FD094F889006B210122FFF79FF8002852
:1046D0004AD094F889006C210022FFF797F800284F
:1046E00045D02046FFF72DFD002843D0204600F09E
:1046F000E5F8012040E04FF0FF303DE06FF00300AF
:104700003AE06FF0040037E06FF0050034E06FF03E
:10471000060031E06FF007002EE06FF008002BE09C
:104720006FF00A0028E06FF00F0025E06FF0100036
:1047300022E06FF011001FE06FF012001CE06FF03C
:10474000130019E06FF0140016E06FF0150013E08D
:104750006FF0160010E06FF017000DE06FF018001A
:104760000AE06FF01A0007E06FF01B0004E06FF042
:104770001C0001E06FF01D0004B010BD6687FF1F34
:10478000000060400000703F0000F03F014B0360FC
:10479000704700BF70D3000090F848007047FFFFDB
:1047A000034B10B50446036003F018FF204610BD0C
:1047B00070D3000038B50546B02003F00BFF294642
:1047C0000446FFF731FC204638BDFFFF38B5114BDA
:1047D000044640F8083B0D46FFF7B4F804F1140016
:1047E000FFF7B0F804F12000FFF7ACF804F14C003B
:1047F000FFF7A8F804F15800FFF7A4F804F17C00D3
:10480000FFF7A0F8002325632371637184F8483013
:10481000204638BD70D300002DE9F043064689B02C
:104820000020707101A900F0F1FB002841D09DF833
:104830000630012B3DD1204D6C4603AF6069043436
:10484000616807F02DF82946804607F0EFFA00B1BD
:104850004546BC42F2D12846002107F0C9FA40BBC8
:1048600028464FF07C5107F025F935468146002453
:1048700001AA13190434D3F810805F684046394602
:1048800007F00EF84FF07C5107F014F90146484646
:1048900007F0C4F939462867404607F003F84FF09F
:1048A0007C5107F007F9043528660C2CE0D1012370
:1048B000737109B0BDE8F083000080BF10B50446F5
:1048C000406B07F0A3F801464FF0804007F0A6F9CF
:1048D00000232064636410BD2DE9F04300F1580506
:1048E000804695E8070085B001AC08F1140684E81D
:1048F000070031462046FFF70CF831462846FEF700
:10490000FFFF2046FFF7F3F8454907F071FA80B141
:1049100008F10800FFF7EBF8424907F069FA78B9A7
:1049200007E001329A42C8F8442002D1012388F8F6
:10493000483008F1080008F14C01FEF7EAFF6CE08E
:10494000D8F84090484606F041FC02460B4600204D
:10495000354906F0DBFA0446D8F84C000D4606F05F
:1049600035FC02460B462046294606F083FC0646E7
:104970000F464846D8F8081007F09CF806F026FCC9
:1049800002460B463046394606F0C2FA06F034FFBE
:10499000C8F84C00D8F8500006F018FC02460B4648
:1049A0002046294606F066FC06460F464846D8F8DB
:1049B0000C1007F07FF806F009FC02460B46304663
:1049C000394606F0A5FA06F017FFC8F85000D8F8E7
:1049D000540006F0FBFB02460B462046294606F033
:1049E00049FC04460D464846D8F8101007F062F816
:1049F00006F0ECFB02460B462046294606F088FAF4
:104A000006F0FAFED8F83430D8F84420C8F854003C
:104A100005214B439A4284DB8BE705B0BDE8F08368
:104A20000BD7233B0BD7233D0000F03FFFFFFFFFD9
:104A3000037970B50646CBB94379BBB1006A716E94
:104A400006F02EFF316F07F035F8B16E3062706AF4
:104A500006F026FF716F07F02DF8F16E7062B06AF4
:104A600006F01EFFB16F07F025F8B062306A2E49DC
:104A700007F020F806F0AAFB0446F06F0D4606F09A
:104A8000A5FB27A3D3E9002306F0F4FB02460B465F
:104A90002046294606F03CFA06F0AEFE2249F067B1
:104AA000706A07F007F806F091FB0446D6F880001C
:104AB0000D4606F08BFB1AA3D3E9002306F0DAFBC0
:104AC00002460B462046294606F022FA06F094FEDE
:104AD0001549C6F88000B06A06F0ECFF06F076FBD8
:104AE0000446D6F884000D4606F070FB0CA3D3E90B
:104AF000002306F0BFFB02460B462046294606F07F
:104B000007FA06F079FE06F17C01C6F8840006F18A
:104B10002000BDE87040FEF7F3BE00BFAFF3008099
:104B2000000000989999E93FCDCC4C3EAFF300804E
:104B3000704730B5012385B080F85730044600F146
:104B4000480501A8FEF7FEFE01A92846FEF7D8FE9B
:104B5000294604F13800FFF799F904F12C0501A862
:104B6000FEF7F0FE01A92846FEF7CAFE04F11C007C
:104B70002946FFF78BF905B030BDFFFF10B504469D
:104B80000430FFF79BF804F11C00FFF797F804F1DD
:104B90002C00FEF7D7FE04F13800FFF78FF804F180
:104BA0004800FEF7CFFE084B6361084BA361012369
:104BB000204684F8543084F8553084F85630FFF796
:104BC000B8FF204610BD00BF6F12833A6F12033A40
:104BD0002DE9F04794B0064668460C461746FFF7A5
:104BE0006DF804A8FFF76AF896F8552006F12C0135
:104BF0001AB12046FEF739FF06E0084606F14801E3
:104C0000FEF77EFE0023736396F85630002B6CD0BF
:104C1000F06A4FF07C5106F04DFF06F0D7FA0446DB
:104C20000D4603F0A9FF06F0E7FD29468046204621
:104C300003F0ECFF06F0E0FD4FF07C518146306B55
:104C400006F038FF06F0C2FA04460D4603F094FF62
:104C500006F0D2FD29468246204603F0D7FF06F033
:104C6000CBFD51460446404606F024FF51460490D1
:104C7000484606F01FFF21460590404606F01AFF01
:104C80002146069009F1004006F014FF002300932E
:104C90003B68079001937B680293BB686A4608A84B
:104CA00004A90393FEF7E0FF0CA804A9FFF785F918
:104CB0000CAA10A808A9FEF7D7FF10A96846FEF7AE
:104CC00031FF029806F082FA044601980D4606F07C
:104CD0007DFA02460B462046294604F037F806F0D6
:104CE0008BFD00F10040706301E0336D736306F1EA
:104CF0001C0806F12C0740463946FFF7C7F8DFF8D5
:104D00008C9000244FF0FF3506F11C03494653F800
:104D1000243023F0004A504607F088F808B1D14605
:104D200025460134042CEFD106EB85090021D9F882
:104D30001C40204607F05CF828B1D9F83800002163
:104D400007F074F858B92046002107F06FF8D0B189
:104D500006EB85050021A86B07F04AF898B1F369C6
:104D600003F10043F361336A03F100433362736A72
:104D700003F100437362B36A03F10043B362404638
:104D80003946FEF7EDFF14B0BDE8F08700007AC4A5
:104D90002DE9F04F04468DB002A81E460F469046FE
:104DA000169DFEF7CFFD94F85730ABB13246A5659E
:104DB0002046414604F12C05FFF70AFF04F13800B4
:104DC0002946FFF763F804F148002946FEF798FDED
:104DD000002384F85730FDE0A06D281A06F012FE7B
:104DE0007E4906F01BFFA5652060002107F00AF848
:104DF000002840F0EF80414632462046FFF7E8FEAB
:104E0000636CD4F838A0019394F85430D4F83C8003
:104E1000266C13B102A8394604E005A8FEF792FDFE
:104E200002A805A9FEF76CFD02984FF07C5106F030
:104E300041FE4FF07C510746039806F03BFE4FF0D1
:104E40007C518146049806F035FE4146834607F1C1
:104E5000004006F02FFE314603464846009306F018
:104E600029FE009B25680146184606F019FD0199A8
:104E700003465846009306F01DFE009B0146184667
:104E800006F00EFD294606F015FE0146504606F0D6
:104E900009FD5146A063384606F00CFE3146034634
:104EA0005846009306F006FE009B0146184606F0A1
:104EB000F9FC019903464846009306F0FBFD009B70
:104EC0000146184606F0ECFC294606F0F3FD0146C3
:104ED000404606F0E7FC5146E063484606F0EAFD2E
:104EE000414603465846009306F0E4FD009B014608
:104EF000184606F0D5FC019903463846009306F0A3
:104F0000D9FD009B0146184606F0CCFC294606F068
:104F1000D1FD0146304606F0C5FC51462064584696
:104F200006F0C8FD41468246484606F0C3FD0146EC
:104F3000504606F0B7FC31468046384606F0BAFDCA
:104F40000146404606F0ACFC294606F0B3FD01469A
:104F5000019806F0A7FC94F85630606408A813B9CD
:104F600094F8553033B104F11C0104F13802FEF716
:104F700093FE01E0FEF7A2FE04F1380508A9201D0A
:104F8000FEF7D0FD261D2A4608A804F11C01FEF7F5
:104F900083FE08A93046FEF7C5FD2168606906F06A
:104FA00089FDA169074606F07DFC0146384606F0FA
:104FB00035FE3146024608A8FEF762FE08A92846DB
:104FC000FEF7BBFD2846FEF77FFE284604F14801A8
:104FD000FEF7C6FE0DB0BDE8F08F00BF00007A44BA
:104FE00070B583004401E41AFC230B7015234B7049
:104FF00004F11C050E1B2146325D03480134FEF707
:1050000010FCAC42F7D170BDAD8EFF1F70B58300B0
:105010004401E41A00238B700D460D482146FEF72B
:10502000FDFBFC2812D1611C0948FEF7F7FB15288F
:105030000CD104F11C062D1B21460548FEF7EEFBA2
:1050400028550134B442F7D1012070BD002070BD55
:10505000AD8EFF1F7047FFFF034B10B50446036082
:10506000FBF78CFC204610BDA0D3000010B5044611
:10507000FFF7F2FF204603F0B1FA204610BDC069E9
:10508000C0B201B1012101F09DBEC979003118BF44
:105090000121FFF7F4BFFFFF37B51D460023009342
:1050A00008230446FBF77AFC084B012D236001D14D
:1050B000062300E00723E361207F012101F0AEFE1B
:1050C00020460121FBF782FC20463EBDA0D3000014
:1050D0007047FFFF034B10B504460360FBF74EFC1F
:1050E000204610BDB8D3000010B50446FFF7F2FF0C
:1050F000204603F073FA204610BD38B5044603F08D
:10510000E5FB0546204603F09BFB281838BDFFFF52
:10511000F0B587B00446FBF75DFC00285AD0712338
:105120008DF8003004F11C07172300258DF801309D
:10513000384641F20103ADF80230ADF8045000F0FA
:1051400077F906F059FBCDF80600384600F094F9DF
:1051500006F052FB84F89550CDF80A00D4F89C0074
:1051600006F022F800221C4B06F0AEF906F044FBD4
:10517000D4F8BC3084F8B550ADF8123084F8A5509E
:10518000D4F8AC30154DCDF80E00ADF81430012632
:105190002B688DF8166012495B68284605229847EF
:1051A0009DF91610284601B13146FFF7A6FF0023EE
:1051B0009DF801101A4604E01DF80300121892B27F
:1051C00001338B42F8DBA069ADF80420036869461F
:1051D0001B69984707B0F0BD00005940F091FF1FD0
:1051E000C8D3000037B504461D46009202230022B2
:1051F000FBF7D4FB20460F4B40F81C3B00F02CF88B
:1052000015B1C4F8F45003E04FF41653C4F8F43069
:10521000D4F8F430580800F1B76000F55840B0FBFE
:10522000F3F001F08BFE20460121FBF7CFFB204677
:105230003EBD00BFB8D3000010B5044601F0F6FF34
:10524000002808DD02F000F8C1B204F11C00BDE83E
:10525000104000F0D3BA10BD0346002110B502245F
:1052600001704170818081600182416181830162AE
:105270000185C1621973197683F8241083F8301000
:1052800083F83810C16383F8391083F84810C1647B
:1052900083F8491083F8581001660167C0F8801040
:1052A00083F8591083F8681083F8691083F8781030
:1052B00083F8791083F8881083F88910C0F890106B
:1052C00083F8981083F89910C0F8A01080F8B940BE
:1052D00083F8A81083F8A91083F8BA1083F8BB10DC
:1052E00083F8BC10C0F8C010C0F8C410C0F8C810D3
:1052F000C0F8CC10C0F8D010C0F8D41083F8AA10B1
:1053000010BDA1F14103052B02D8A1F13700704770
:10531000A1F16103052B94BFA1F15700A1F1300069
:10532000704738B50578B5F12D035D425D410446FF
:1053300005B1441C204606F0AFFD642343432246DA
:1053400014F8011BA1F130000928F8D92E2910D139
:105350005178A1F1300009280BD809B2C800927821
:1053600000EB4101303AA1F5F0715B18092A98BFB2
:105370009B1805B15B42184638BDFFFF38B50C4697
:10538000054606F089FD6423B0FBF3F21249228042
:1053900003FB12034B432846014610F8012BA2F1F0
:1053A0003005092DF8D92E2A0CD108460A4A0A25BB
:1053B00003E0B2FBF5F202FB013310F8011F3039B4
:1053C0000929F6D90522534301330322B3FBF2F333
:1053D00063600023237238BD80969800034682B034
:1053E00053F81C2F42605A6882601B7A037303468D
:1053F00053F8282F02615A6842611B7A0376054BE5
:105400001B680193019B436301234370037002B047
:10541000704700BF848FFF1F00F11C030846194628
:10542000FFF7ACBF00F1280308461946FFF7A6BFF7
:10543000002370B543700646808805F0B5FE04462B
:10544000B0680D4605F0A0FE09A3D3E9002306F0DD
:105450003BF802460B462046294605F059FD0B460F
:10546000317B024609B103F100431046194670BD75
:105470000000000065CDCD41002370B543700646A5
:10548000008A05F091FE044670690D4605F07CFE29
:1054900009A3D3E9002306F017F802460B4620467D
:1054A000294605F035FD0B46317E024609B103F170
:1054B00000431046194670BD0000000065CDCD4187
:1054C00083684360054B82B01B680193019BC360F6
:1054D00001234370037002B0704700BF848FFF1F29
:1054E00083684360054B82B01B680193019BC360D6
:1054F00001234370037002B0704700BF848FFF1F09
:1055000010B504460846FFF70CFFA06010BD10B5AB
:105510000446084606F0C0FCA06010BDC368836066
:10552000054B82B01B680193019B436001234370CC
:10553000037002B0704700BF848FFF1F10B5044690
:105540000846FFF7EEFEE06010BDFFFFC368836012
:10555000054B82B01B680193019B4360012343709C
:10556000037002B0704700BF848FFF1F10B5044660
:10557000084606F091FCE06010BDFFFF13B504463D
:105580002146103007F0CEF9054B1B680193019BB3
:105590002362012384F8253084F824301CBD00BF29
:1055A000848FFF1F102207F01BBAFFFF90F8A9306D
:1055B00070B50446002B62D090F8AA10FFF7A1FE48
:1055C00094F8AB1005462046FFF79BFE94F8A830F0
:1055D00000EB0510C5B2AB424BD1D4F8D430013347
:1055E000C4F8D43094F8BC3023B1D4F8CC300133B3
:1055F000C4F8CC3094F8B930B3B1012B2AD104F1FE
:105600003800FFF75DFF04F14800FFF769FF94F8E9
:10561000BC30FBB12046FFF7E1FE04F15800FFF774
:105620007DFF04F1680013E004F14800FFF758FF24
:1056300094F8BC3033B12046FFF7D0FE04F1780077
:10564000FFF76CFF04F18800FFF780FF04F198007A
:10565000FFF764FFD4F8C450002D00F0BC80D4F8EC
:10566000C430A86A996A07F06FF8002800F0B58086
:10567000B1E0D4F8D0300133C4F8D0301DE090F858
:10568000BA2042BB00F1AA0528465A4907F05CF847
:1056900008B9012308E02846574907F055F810B922
:1056A00084F8B90002E0022384F8B930D4F8C0309D
:1056B000C4F8C430D4F8C4600EB9002070BDB06A1C
:1056C000294607F041F8002880F290808AE0002007
:1056D000C4F8C40070BD90F8B910022960D090F8E9
:1056E000AA30002B5CD042EA4112013A282A57D84E
:1056F000DFE802F01520252C3142494F515656560D
:105700005656565656565656565656565656565639
:1057100056565656151B20252C31383A3C00483039
:1057200004F1AA01FFF7ECFE3AE0B3F14100434275
:10573000434125E004F1AA01FFF76EFE30E0B3F12A
:1057400053014B424B4180F8243029E004F1AA0177
:10575000FFF768FE24E0B3F157025342534180F84B
:1057600030301DE0583017E0683015E0383004F173
:10577000AA01FFF7CCFE13E0302B94BF00230123D6
:1057800084F8BC300CE0883004F1AA01FFF7EEFE8B
:1057900006E0983000E0783004F1AA01FFF7CEFE71
:1057A000D4F8C45004F1AA0604E028463146FFF7B5
:1057B000F9FE2D6B002D80D0D4F8C430A86A996A08
:1057C00006F0C2FF00287FF478AFEB6A94F8BA20A5
:1057D000934209DD71E7012070BD2846FFF7CEFE38
:1057E0002D6B39E7336B63E7E3D1DEE77FF46FAF0F
:1057F00063E700BFCED30000D4D3000038B5D0F8A3
:10580000C8300133242904460D46C0F8C8302CD0D6
:1058100004D80A290CD00D2936D109E02A2907D04D
:105820002C2931D190F8A83083F02C0380F8A830CF
:1058300094F8BB300E2B4FF0000005D8E31883F826
:10584000AA002046FFF7B2FE94F8BA30013384F87C
:10585000BA300023B5F12A0CDCF1000555EB0C053C
:1058600084F8BB3084F8A95038BD0020022384F8A6
:10587000BB0084F8BA0084F8A80084F8B93084F832
:10588000A90084F8BC0038BD94F8BB300D2B05D8B6
:10589000E218013382F8AA5084F8BB3094F8A900CA
:1058A00028B994F8A8305D4084F8A85038BD00208D
:1058B00038BDFFFF2E4B002230B51A6090F89430AF
:1058C00053B9D0F890305A6802F596525A6090F861
:1058D00099201A60012347E0012B28D190F89530D8
:1058E00073B100EB830290F89710526C01338B4236
:1058F00088BF0023D0F88C10A2F5965271B913E03E
:1059000090F89640011F80F897401A4603E051F83E
:10591000045F01324D64A242F9D9E2E7012B01D1C3
:105920000B7001E000240C7080F8953001E0D0F895
:1059300088204EF660239A42D0F89030596806D8F5
:105940008A185A6090F898201A6000230CE001F53C
:1059500062419031596090F89910A2F56242903AF4
:105960001960C0F88820022380F8943030BD00BF51
:1059700054800340442380F88A307047324B1A68C1
:105980004FF6FF739A4230B5304A51D1136803F095
:105990007F03482B4CD14B1F0024122B46D8DFE845
:1059A00003F00A1F45450D1045454545454545450C
:1059B000451316191C00264A072313E0254A022323
:1059C00010E0254A03230DE0244A05230AE0244A77
:1059D000062307E0234A002304E0234A012301E0D1
:1059E000224A0423C0F8844080F88B4090F88A4013
:1059F0000260FF2580F8885014601D4A42F8230099
:105A00001C4A0120147800FA03F3234313701A4B45
:105A100003EBC10140F244424B681A60174B20224D
:105A20001A70174B4FF080421A6030BD002030BD15
:105A3000144C00234FF6FF75136023606560482403
:105A40001460114A1360A6E70880034000800340F9
:105A5000448003401C800340248003403480034082
:105A60003C8003400C800340148003402C800340A2
:105A7000B48EFF1FB38EFF1FE0D400003EE400E0B1
:105A800004E100E00480034054800340036890F880
:105A90008A105A6810B51960174BB2F5604F1B8811
:105AA00003D91649097801B1013B42EA0343D0F812
:105AB0008420C0F884309A1A114B9A4290F88830AA
:105AC00011D9FF2B0DD0021F002103E004325468CE
:105AD000013154649942F9DB80F88930012380F860
