:1000000000800020BD0100000D5E00000D5E0000BC
:100010000D5E00000D5E00000D5E0000D95D000069
:10002000D95D0000D95D0000D95D00000D5E0000C3
:100030000D5E0000D95D00000D5E0000C95D00008E
:100040000D5E00000D5E00000D5E00000D5E000004
:100050000D5E00000D5E00000D5E00000D5E0000F4
:100060000D5E00000D5E00000D5E00000D5E0000E4
:100070000D5E00000D5E00000D5E00000D5E0000D4
:100080000D5E00000D5E00000D5E00000D5E0000C4
:100090000D5E00000D5E00000D5E00000D5E0000B4
:1000A0002D3100000D5E00000D5E00000D5E0000B1
:1000B0000D5E00000D5E00000D5E00000D5E000094
:1000C0000D5E00000D5E00000D5E00000D5E000084
:1000D0000D5E00000D5E00000D5E00000D5E000074
:1000E0000D5E00000D5E00000D5E00000D5E000064
:1000F0000D5E0000117100000D5E0000956C0000A7
:100100000D5E00000D7500000D5E00000D5E00002C
:100110000D5E00000D5E00000D5E00000D5E000033
:100120000D5E00000D5E00000D5E00000D5E000023
:100130000D5E00000D5E00002D5800000D5E0000F9
:100140000D5E00000D5E00000D5E00000D5E000003
:100150000D5E00000D5E00000D5E00000D5E0000F3
:10016000C1060000557700000D5E00000D5E000026
:100170000D5E00000D5E00000D5E00000D5E0000D3
:100180000D5E00000D5E00000D5E00000D5E0000C3
:100190000D5E00000D5E00000D5E0000ED620000CF
:1001A0003D630000C5630000816400000565000038
:1001B0000D5E00000D5E00000D5E0000544B4CF221
:1001C000205210B51A804DF628121A8000BF00BFC9
:1001D00005F020FE4F4B4FF010621A604E4A9A60B5
:1001E0004E4ADA604E4B1A6812F4807204D14D49BF
:1001F0000A604FF4A8521A604B4B1A7802F00802BA
:10020000D2B21AB11A7842F008021A70474B484825
:10021000484C2A221A700023474A02E01959995083
:10022000043399188142F9D3444B454A002101E037
:1002300043F8041B9342FBD34249434800231A5816
:100240005A500433B3F5DE7FF9D1404B404A802148
:1002500003F8011B9342FBD13A4A3E4B1A603E4BD6
:100260000A221A703D4B24221A70A02203F8012C96
:100270003B4A137803F00203DBB2002BF9D0384A73
:10028000137803F01003DBB2002BF9D1344A137852
:1002900003F00C03082BFAD1324B03221A704022D0
:1002A0005A702F4A137803F02003DBB2002BF9D0E9
:1002B0002B4A137803F04003DBB2002BF9D02A4B12
:1002C0002A4A1A6002225A60294B20221A70244AB4
:1002D000137803F00C030C2BFAD1264A264B1A6034
:1002E000264B4BF67F321A60072243F8042C62B685
:1002F00006F0ACF90B4B1B68DC0702D5204806F072
:1003000019F90BF0ADF905F08BFD07F055FFFEE78D
:100310000E20054030800440823F04000100002B85
:1003200010D0034014D0034002D0074000E0074043
:100330001C8DFF1F28D200006087FF1F1C8DFF1F30
:100340008492FF1F0082FF1F0000000000E400E015
:100350005FE400E008ED00E0005006400140064088
:10036000064006400440064044800440000003115B
:1003700000400640C01005000480044014E000E086
:10038000A1805355FFFFFFFFFFFFFFFFFFFFFFFFB0
:10039000FFFFFFFFFFFFFFFFFFFFFFFFFFFFFFFF6D
:1003A000FFFFFFFFFFFFFFFFFFFFFFFFFFFFFFFF5D
:1003B000FFFFFFFFFFFFFFFFFFFFFFFFFFFFFFFF4D
:1003C000FFFFFFFFFFFFFFFFFFFFFFFFFFFFFFFF3D
:1003D000FFFFFFFFFFFFFFFFFFFFFFFFFFFFFFFF2D
:1003E000FFFFFFFFFFFFFFFFFFFFFFFFFFFFFFFF1D
:1003F000FFFFFFFFFFFFFFFFFFFFFFFFFFFFFFFF0D
:10040000FFFFFFFFFFFFFFFFFFFFFFFFFEFFFFFFFD
:1004100008B548F61C50074BC1F6FF701B1A062B97
:1004200000D808BD40F20003C0F20003002BF8D052
:100430009847F6E71F8DFF1F08B548F61C5048F691
:100440001C53C1F6FF70C1F6FF731B1A9B1003EB20
:10045000D373591000D108BD40F20002C0F200026F
:10046000002AF8D09047F6E710B548F61C54C1F6BC
:10047000FF74237873B9FFF7CBFF40F20003C0F29B
:1004800000032BB14DF22820C0F20000AFF3008032
:100490000123237010BD00BF08B540F20003C0F275
:1004A00000034BB14DF2282048F62051C0F2000065
:1004B000C1F6FF71AFF3008048F61C50C1F6FF7023
:1004C00003682BB140F20003C0F2000303B1984768
:1004D000BDE80840B0E700BF42F2107006F0ACBEC5
:1004E00008B5064800F0CEFA10B9044800F0C2FB87
:1004F0000248BDE8084000F0AABE00BF388DFF1FCB
:1005000010B5054C204600F035FB0449044A20464E
:10051000BDE810400BF086B8388DFF1FF9110000C0
:100520006087FF1F10B5002303710C4B0C22198844
:1005300001230B4208D1094A19431180084A118846
:1005400021EA0303138010BD04795B000134013AF2
:1005500004719BB2EDD1FF23037110BD948DFF1F79
:10056000908DFF1F2DE9F041984603790B2B04462F
:10057000174634D8CEB23046012106F017F8257957
:10058000184B19485E55194B44F2506223F8152058
:10059000012303FA05F503881D43154B05801A68EE
:1005A0000C214F4301FB08F112F480022780618087
:1005B00011D1196841F4800119600E4B4FF6FF719B
:1005C00019605A609A6042F6A27243F8042C02F550
:1005D000803243F8042C084B4FF480721A60207963
:1005E000BDE8F081AE8DFF1F908DFF1F968DFF1F20
:1005F0003C8004400460034008E100E04FF40872CE
:100600004FF41663FFF7AEBF03790B2B10D8094ADE
:10061000012101FA03F11388C9430B401380064AF4
:100620001088014011801BB9044B4FF480721A608E
:10063000704700BF908DFF1F948DFF1F88E100E081
:100640000C2359430388994203DB43889942B8BF7E
:100650000B4602790B2A9CBF014921F812307047E2
:10066000968DFF1F13B504790B2C024616D8B1F5F1
:10067000087F04DB02B0BDE81040FFF7E1BF13883C
:10068000528821EAE1700092B428A8BFB42000216A
:10069000B42207F067FD024B23F8140002B010BD2E
:1006A000968DFF1F03790B2B06D8044A108840FA59
:1006B00003F000F00100704700207047908DFF1F8D
:1006C00070B5334A334C118894F9003041FA03F184
:1006D00011F0010F154606D02F4A0021D05C05F01D
:1006E00039FF0C2323702D4B2C88197800234DB231
:1006F00023E0581944FA00F6013316F0010F1CD01C
:10070000254B264C185C2270012105F023FF23782D
:10071000204A59B21370224A32F81110214A106847
:1007200008181060204A106809181160013342F659
:10073000A37142F80C1C237070BD5A1850B20B28DC
:10074000D7DD164B17491A700A68C2F56A3303F5EC
:10075000C073B3F5966F05DB4EF660208342A8BFE9
:10076000034601E04FF496639A180A600E49086840
:100770001B180B600D4B42F6A37119600C4B9A428B
:1007800004D9084A00231360044A137070BD00BFE7
:10079000908DFF1F6487FF1FAE8DFF1F928DFF1F7F
:1007A000968DFF1F8C8DFF1F0C600340006003407F
:1007B0007FA9030030B585B0044600F0FFF858B3B8
:1007C0006623ADF8003010230025ADF80230204636
:1007D00041F20103ADF80430ADF8065000F0ECF83A
:1007E000E16A0290A06B0AF027FC216B0AF0E2FD9F
:1007F000BDF8021003902B462A4604E01DF80300C2
:10080000121892B201338B42F8DBA069ADF80620D2
:10081000036869461B69984705B030BD074B10B5A2
:1008200004460360406B08B107F0B4FB0023636328
:10083000204600F097F8204610BD00BFE0C8000039
:1008400010B50446FFF7EAFF204607F0A3FB204659
:1008500010BD70B5856A04460E46084629460AF062
:10086000B1FE30B9656A304629460AF08DFE00B9FE
:100870003546216B28460AF0E9FCE16A0AF0DEFB06
:10088000A0630AF0A9FE1C3401462046BDE8704072
:10089000FFF7E8BEC968FFF7DCBF10B504461C309F
:1008A000FFF700FF38B1636B2BB119682046BDE834
:1008B0001040FFF7CEBF10BDF7B50D9D0C9E009503
:1008C00004461F46092300F05DF825461A4B45F8FB
:1008D0001C3B2846FFF726FE012F01D1032300E031
:1008E0000423E363089B1549A362099B63620A9B87
:1008F000E3620B9B304623630AF03CFE20B90420E0
:1009000007F044FB066000E0002000236063A3635F
:100910002846E16BFFF772FE636B204613B1FFF7C9
:10092000BCFF02E0A16BFFF794FF2046012100F01D
:1009300041F82046FEBD00BFE0C8000000C0794479
:1009400038B500F11C0405462046FFF75DFE284639
:10095000002100F02FF82046FFF7A4FE80F00100F0
:10096000C0B238BD014B0360704700BFF8C800003B
:10097000034B10B50446036007F00CFB204610BD86
:10098000F8C8000010B504460848237100232374FA
:100990002060A36002980B68A161E0606261084674
:1009A0009B6921469847204610BD00BFF8C800004B
:1009B00000797047017470474069704773B50F4BF9
:1009C0001B680193019D83680446C068EE1A0AF013
:1009D000E5FB09F0C7FF02460B46002008490AF074
:1009E0003FF90022074B0AF011F80AF0A9FA8642F3
:1009F00002D9A560012000E000207CBD888FFF1F88
:100A00000000F03F00408F40014B0360704700BF83
:100A100010C90000034B10B50446036007F0BAFA92
:100A2000204610BD10C9000037B50C4D2B6800934F
:100A3000009A8368D31A8B4204460DD90D2005F025
:100A4000A9FDD0F1010138BF00210D2005F082FD84
:100A50002B680193019BA3603EBD00BF888FFF1FE1
:100A600001717047064B10B5036000230446037103
:100A7000836001210D2005F099FD204610BD00BFC7
:100A800010C900000079704703790BB1642101E0BF
:100A90004FF47A71FFF7C8BF7047FFFF30B5164BB0
:100AA00085B01B680093009D836C40F6B832EB1A4A
:100AB000934204461DD90A23ADF80630012341F2C2
:100AC0000102ADF80430ADF80C300023ADF8082079
:100AD000ADF80A301A4601A9505C01321B180A2AE7
:100AE0009BB2F8D1ADF80A30236820461B699847BD
:100AF000A56405B030BD00BF888FFF1F08B107F0A7
:100B000049BA704708B107F045BA704708B107F015
:100B100041BA704708B107F03DBA704708B503689D
:100B2000C9B21B68984708BD38B509480D46FE2173
:100B3000FFF7F4FF002406E00022295D0448134675
:100B400007F06EFB01346B889C42F5DB38BD00BFBB
:100B50002C92FF1F38B506480C46FE211546FFF7BC
:100B6000DDFF20462946BDE8384005F003BE00BF42
:100B70002C92FF1F70B50446FFF774FF0F4B002542
:100B80002360E56025616561A561E56125626562B7
:100B9000A562E56225636563A5632565E563656414
:100BA0002564182007F0F2F9064600F0C7FC266518
:100BB000A56484F84C50204670BD00BF40C90000B9
:100BC0000269C368D31A70B505469E10002406E07A
:100BD000EB6853F8240003681B6898470134B4425B
:100BE000F6DB70BD002330B5CB804C88184603E09F
:100BF000CD5C401980B20133A342F9DB131AC880DF
:100C00005842584130BD826A436AD31A70B50546CE
:100C10009E10002406E06B6A53F8240003681B69E9
:100C200098470134B442F6DB70BD1FB56923ADF8B7
:100C300000301023ADF8023041F20103ADF804306A
:100C40000B88672B08BF4B8902934B8803930023C3
:100C5000ADF806301A461DF8021001325B18102A52
:100C60009BB2F8D1ADF80630036869461B69984716
:100C700005B000BD38B50446FFF704FF002823D1B6
:100C8000206D00F07AFC58B938BD20462946EA8824
:100C9000FFF7A8FF60B9206DBDE8384000F060BCE8
:100CA000206D00F057FC0388652B0546F3D1ECE777
:100CB00029890031204618BF0121FFF7D1FE2046C7
:100CC0002946FFF7B2FFE6E738BD2DE9F0410B8971
:100CD0009CB005460C460D2B00F27D81DFE813F039
:100CE000D7000A012A0115017B013B0133003301C2
:100CF00021010E00F600F90083004A01C2698369F0
:100D00000026D31A4FEAA3083046464503DA0028E6
:100D100040F05D8137E1002840F05981402007F024
:100D200035F9A3696289009363690193E3690293CA
:100D3000236A0393636A0493E3682946059323694E
:100D4000FFF7BAFD43E1826A436A0026D31A4FEAED
:100D5000A3083046464503DA002840F0388120E1F8
:100D6000002840F03481B02007F010F90746606990
:100D7000668909F0F7FDCDE90001206909F0D0FD91
:100D8000A3690493E3690593E36B0693236CCDE9B0
:100D90000201206A079309F0C3FDCDE90801606AEA
:100DA00009F0E0FDCDE90A01A06A09F0DBFDCDE91B
:100DB0000C01E06A09F0D6FD236B1093636B11936D
:100DC000A36B1293636C1393A36C1493E36C15934E
:100DD000236DCDE90E011693384629463246E36865
:100DE00001F0C2F9F3E0826A436A0026D31A4FEA9F
:100DF000A3083046464503DA002840F0E880DBE0EF
:100E0000002840F0E480B02007F0C0F80746606991
:100E1000668909F0A7FDCDE90001206909F080FD90
:100E2000A3690493E3690593E36B0693236CCDE90F
:100E30000201206A079309F073FDCDE90801606A99
:100E400009F090FDCDE90A01A06A09F08BFDCDE91A
:100E50000C01E06A09F086FD236B1093636B11931C
:100E6000A36B1293636C1393A36C1493E36C1593AD
:100E7000236D1693636DCDE90E011793A36D38466C
:100E8000189329463246E36800F0F2FE9FE0C36BF8
:100E9000002B40F09C80436A8A6953F82280CA691B
:100EA000482053F8227007F071F823696289009393
:100EB0006369CDF808800193236A0397064604937B
:100EC0002946E36801F018FDEE6380E01CAE0A23BA
:100ED00001E01CAE0B2306F8013D202007F056F878
:100EE000E36862890093236929460193334601F040
:100EF000A3FD6CE0202007F049F823696289009384
:100F00002946E36801F000FE61E04FF48C7007F0C1
:100F10003DF829460646E268236901F0B7FF6E6492
:100F200055E0202007F032F829466289236903F052
:100F300047FF4CE0F82007F029F82946E2682369CA
:100F400003F0E2FF43E0A82007F020F82946E2681A
:100F500004F0EEFD3BE0342007F018F86369628985
:100F60000093A3690193E36929460293236904F07E
:100F700083FE2CE0202007F009F82946E268236967
:100F800004F0B8FE23E0AB69678953F82600FFF749
:100F900013FDB7EB000EDEF1000050EB0E00013642
:100FA000B3E66B6A678953F82600FFF705FD391A27
:100FB000484248410136CDE66B6A678953F82600FE
:100FC000FFF7FAFC3A1A50425041013612E7284620
:100FD0002146FFF72AFE1CB0BDE8F081F8B590E885
:100FE0004800F61AB61014BF334601239B19044675
:100FF0000F466FF0404603D2B34238BF1E4626B1BB
:10100000B00006F0C3FF054600E03546626823687D
:10101000D31A9B1005EB83013A6809B145F82320E8
:1010200094E882007F1ABF1003D02846BA000AF065
:10103000D9FE05EB87072068FFF76CFD04372560B4
:1010400005EB86056760A560F8BD091A38B58C10F8
:101050000546134605D010462946A2000AF0C2FEF6
:10106000034603EB840038BDF8B590E84800F61A53
:10107000B61014BF334601239B1904460F466FF088
:10108000404603D2B34238BF1E4626B1B00006F038
:101090007DFF054600E0354662682368D31A9B1041
:1010A00005EB83013A6809B145F823202A4694E804
:1010B0000300FFF7CAFF07462068FFF723FD043748
:1010C000256005EB86056760A560F8BD091A38B58F
:1010D0008C100546134605D010462946A2000AF09A
:1010E00081FE034603EB840038BDF8B590E8480064
:1010F000F61AB61014BF334601239B1904460F4657
:101100006FF0404603D2B34238BF1E4626B1B0004E
:1011100006F03CFF054600E0354662682368D31AB6
:101120009B1005EB83013A6809B145F823202A4654
:1011300094E80300FFF7CAFF07462068FFF7E6FCC4
:101140000437256005EB86056760A560F8BD38B5F6
:1011500042688468A24203460D4606D0096802B17F
:1011600011605A6804325A6038BDFFF7BEFF38BDBF
:10117000091A38B58C100546134605D01046294685
:10118000A2000AF02FFE034603EB840038BDF8B539
:10119000C3680669C269F61A8369D31A0446B61091
:1011A0009F10002504E053F82500FFF7C9FB013527
:1011B000BD42A369F7DBE269934218BFE361A26A0B
:1011C000636A934218BFA362002506E053F8250026
:1011D00010B10368DB6898470135B542E368F5DB79
:1011E0002269934218BF2361002384F84C30636462
:1011F000E3632364F8BDFFFF0F4B10B504460360A3
:10120000006D10B103685B68984700232365204692
:10121000FFF7BDFF206BFFF77DFC606AFFF776FCF0
:10122000A069FFF76FFCE068FFF768FC2046FFF756
:10123000EBFB204610BD00BF40C9000010B50446BE
:10124000FFF7DAFF204606F0A5FE204610BD2DE987
:10125000F0410446FFF718FC206D00F0F3F920463A
:10126000FFF710FC002800F0CF80206D00F085F91A
:10127000002800F0B680206D00F06CF90546294684
:101280002046EA88FFF7AEFC002800F0A7802B88F4
:101290000B2B6FD00CD8062B4ED003D8022B40F06E
:1012A0009D8033E0072B21D0082B40F0978058E039
:1012B000512B58D005D80C2B5FD00F2B40F08E80CF
:1012C00071E0652B03D0672B40F0888019E02989F5
:1012D0000031204618BF0121FFF7C2FB2046FFF76F
:1012E000D1FB48B92046FFF752FF05E02B890033B8
:1012F00018BF012384F84C3020462946FFF795FC9F
:101300006CE020462946FFF7E0FC67E0E269A3694C
:10131000D31A9F1000260CE0A36953F82600FFF7AC
:101320004BFBAB6898424FEA860801D1A3694BE0BA
:101330000136BE42F0DB51E0A26A636AD31A9F1005
:1013400000260BE0636A53F82600FFF735FBAB6815
:1013500098424FEA860800D135E00136BE42F1DB03
:101360003CE0E06B07E0E06B002837D0294601F055
:1013700021F933E0606C88B328E0626B236BD31AE9
:101380009F1000260CE0236B53F82600FFF714FB98
:10139000AB6898424FEA860801D1236B14E001360E
:1013A000BE42F0DB1AE0A26A636AD31A9F100026DD
:1013B00012E0636A53F82600FFF7FEFAAB68984222
:1013C0004FEA860807D1636A53F808000368294684
:1013D0005B68984702E00136BE42EADB206D00F010
:1013E000BFF894F84C307BB12046FFF7E9FB20466C
:1013F000FFF709FC606C08B101F056FC206C18B1D5
:10140000BDE8F04103F0AABDBDE8F081F8B590E871
:101410004800F61AB61014BF334601239B19044640
:101420000F466FF0404603D2B34238BF1E4626B186
:10143000B00006F0ABFD054600E035466268236863
:10144000D31A9B1005EB83013A6809B145F82320B4
:101450002A4694E80300FFF78BFE07462068FFF753
:101460004DFB0437256005EB86056760A560F8BD78
:101470001FB50369426901919342044605D003B147
:10148000196023690433236103E00C3001A9FFF7DD
:10149000BDFF0198FFF78CFA0238072834D8DFE83F
:1014A00000F03133331616331F04E369216A019AC1
:1014B0008B42039205D003B11A60E3690433E36100
:1014C00022E004F1180003A9FFF7CEFD1CE004A9F7
:1014D000019B04F1240041F8043DFFF738FE13E0BE
:1014E000636BA16B019A8B42039205D003B11A6022
:1014F000636B0433636307E004F1300003A9FFF773
:101500006DFD01E0019B23641FBDFFFF054B10B57E
:1015100004460360006908B106F03EFD0023236124
:10152000204610BD70C9000010B50446FFF7EEFF5D
:10153000204606F02FFD204610BDFFFF044A026042
:10154000002202710261C260826042718271704742
:1015500070C9000003790BB10069704718467047E5
:1015600010B50446006908B106F016FD002323619A
:101570002371A371E360A36010BD007970470B88ED
:101580000C2B26D00CD8072B18D004D8022B20D037
:10159000062B20D11DE0082B1BD00B2B1BD116E0F6
:1015A000642B16D004D80F2B13D0512B13D10CE081
:1015B000672B05D06C2B0CD0652B0CD10A230BE0CC
:1015C0001023C3600123437107E0142304E00C23BC
:1015D00002E0102300E00023C360C068704770B5CC
:1015E0000446C0680E4606F0D3FC0023054602E020
:1015F000C25CEA540133B3422069F9DB08B106F05A
:10160000CBFC256170BD0B890D2B19D8DFE803F0E9
:101610000D1616161814090F160716160B16282382
:101620000DE054230BE05C2309E0242307E01023A2
:10163000C3600123037103E0202300E01423C3608F
:10164000C0687047F8B5044605F086F800284ED00B
:101650002779002F4BD146E0E368A568002B1DDCFD
:1016600005F034F804F1140670550135012DA5601C
:101670003DD93146A7602046FFF781FF06F088FC80
:10168000A3682061F25CC254A36822690133A3609D
:10169000F15CD154A3680133A360F8BD9D4226DA02
:1016A000266905F013F87055E36801359D42A56081
:1016B0001DD1637933B90E4B1A6801321A600123C8
:1016C0002371F8BD21692046FFF79DFF204629467A
:1016D000FFF785FF6771F8BD04F0F8FFFE2806D11B
:1016E0000123A371F8BDA379002BB5D1F4E7F8BDB0
:1016F000BC8DFF1F034B10B504460360FFF732F9A2
:10170000204610BD80C9000010B50446FFF7F2FF67
:10171000204606F03FFC204610BDFFFF37B5069D72
:1017200000950446FFF72EF9014B204623603EBD8D
:1017300080C90000084B10B504460360D0F8AC0027
:1017400008B106F027FC0023C4F8AC30204600F0B6
:10175000B7FB204610BD00BFA0C9000010B504466D
:10176000FFF7E8FF204606F015FC204610BD10B537
:101770000368017A1C7843681A78437A1A40837A9E
:101780000C4203F0030318BF43F004030AB143F013
:1017900008039A10013B82720D2B14D8DFE803F086
:1017A000070A0D0A1310070710130A0D0A07C3686A
:1017B000013307E0C368013B04E0C368023301E082
:1017C000C368023BC36010BD70B5054600F0CAFA9D
:1017D000D5F8AC400646237C72B6012B02D82046D1
:1017E000FFF7C5FF62B6E368D5F8A800584309F0D3
:1017F000D9FC0146304609F021FC4FF07C5109F03C
:1018000025FD70BD08B5034BD3F88400FFF7AFFF8B
:1018100008BD00BFC08DFF1F08B5034BD3F8800083
:10182000FFF7A5FF08BD00BFC08DFF1F08B5024B25
:10183000D86FFFF79CFF08BDC08DFF1F08B5024B96
:10184000986FFFF794FF08BDC08DFF1F08B5024BCE
:10185000586FFFF78CFF08BDC08DFF1F08B5024B06
:10186000186FFFF784FF08BDC08DFF1F08B5024B3E
:10187000D86EFFF77CFF08BDC08DFF1F08B5024B77
:10188000986EFFF774FF08BDC08DFF1F08B5024BAF
:10189000586EFFF76CFF08BDC08DFF1F08B5024BE7
:1018A000186EFFF764FF08BDC08DFF1F08B5024B1F
:1018B000D86DFFF75CFF08BDC08DFF1F08B5024B58
:1018C000986DFFF754FF08BDC08DFF1F08B5024B90
:1018D000586DFFF74CFF08BDC08DFF1F08B5024BC8
:1018E000186DFFF744FF08BDC08DFF1F08B5024B00
:1018F000D86CFFF73CFF08BDC08DFF1F08B5024B39
:10190000986CFFF734FF08BDC08DFF1F08B5024B70
:10191000586CFFF72CFF08BDC08DFF1F08B5024BA8
:10192000186CFFF724FF08BDC08DFF1F08B5024BE0
:10193000D86BFFF71CFF08BDC08DFF1F08B5024B19
:10194000986BFFF714FF08BDC08DFF1F08B5024B51
:10195000586BFFF70CFF08BDC08DFF1F08B5024B89
:10196000186BFFF704FF08BDC08DFF1F08B5024BC1
:10197000D86AFFF7FCFE08BDC08DFF1F08B5024BFB
:10198000986AFFF7F4FE08BDC08DFF1F08B5024B33
:10199000586AFFF7ECFE08BDC08DFF1F08B5024B6B
:1019A000186AFFF7E4FE08BDC08DFF1F08B5024BA3
:1019B000D869FFF7DCFE08BDC08DFF1F08B5024BDC
:1019C0009869FFF7D4FE08BDC08DFF1F08B5024B14
:1019D0005869FFF7CCFE08BDC08DFF1F08B5024B4C
:1019E0001869FFF7C4FE08BDC08DFF1F08B5024B84
:1019F000D868FFF7BCFE08BDC08DFF1F08B5024BBD
:101A00009868FFF7B4FE08BDC08DFF1F08B5024BF4
:101A10005868FFF7ACFE08BDC08DFF1F08B5024B2C
:101A20001868FFF7A4FE08BDC08DFF1F08B5212868
:101A300000F2D580DFE810F0220027002C003100F2
:101A400036003C00410046004B00500055005A0053
:101A50005F00640069006E00730078007D00820002
:101A600087008C00910096009B00A000A500AA00B2
:101A7000AF00B400B900BE00C300CD00594B002038
:101A800019605949A0E0574B0120596057499BE024
:101A9000544B02209960564996E0524B0320D9607E
:101AA000544991E04F4B04201961024652498CE0A1
:101AB0004C4B05205961514986E04A4B06209961FB
:101AC0004F4981E0474B0720D9614E497CE0454BA7
:101AD000082019624C4977E0424B092059624B4972
:101AE00072E0404B0A20996249496DE03D4B0B2062
:101AF000D962484968E03B4B0C201963464963E0D2
:101B0000384B0D20596345495EE0364B0E209963F2
:101B1000434959E0334B0F20D963424954E0314BDC
:101B20001020196440494FE02E4B112059643F4961
:101B30004AE02C4B122099643D4945E0294B132083
:101B4000D9643C4940E0274B142019653A493BE0F1
:101B5000244B15205965394936E0224B16209965EA
:101B6000374931E01F4B1720D96536492CE01D4B12
:101B700018201966344927E01A4B19205966334951
:101B800022E0184B1A20996631491DE0154B1B20A5
:101B9000D966304918E0134B1C2019672E4913E011
:101BA000104B1D2059672D490EE00E4B1E209967E2
:101BB0002B4909E00B4B1F20D9672A4904E0094B48
:101BC000C3F8801028492020042204F04DFB012096
:101BD00008BD044B2120C3F884102449F4E70020F9
:101BE00008BD00BFC08DFF1F1D1A00000D1A0000A8
:101BF000FD190000ED190000DD190000CD190000ED
:101C0000BD190000AD1900009D1900008D190000DC
:101C10007D1900006D1900005D1900004D190000CC
:101C20003D1900002D1900001D1900000D190000BC
:101C3000FD180000ED180000DD180000CD180000B0
:101C4000BD180000AD1800009D1800008D180000A0
:101C50007D1800006D1800005D1800004D18000090
:101C60003D1800002D18000019180000051800008C
:101C7000F0B599B0DDE91E45CDE90045DDE9204527
:101C8000CDE90245229C0494239C0594249C06944F
:101C9000259C0794DDE92645CDE90845DDE9284581
:101CA000CDE90A45DDE92A45CDE90C45DDE92C45BC
:101CB000CDE90E452E9C10942F9C1194309C1294CB
:101CC000319C1394329C1494339C1594349C064696
:101CD000169400F049FA214B1420336006F056F9AF
:101CE0009DF8D4709DF8D85004460221384604F07F
:101CF0005DFC2846022104F059FC194A52F837309D
:101D000003F5007121600121217252F835206172C2
:101D100002F500700021E16060604FF4FA41013982
:101D2000FDD193F8003292F8002203F00103D207AC
:101D300044BF43F00203DBB2A37221463846FFF7EB
:101D400075FE214620742846FFF770FE237C181884
:101D50002074C6F8AC40304619B0F0BDA0C90000F0
:101D6000D0CB000038B5046A0546237C72B6012B3F
:101D700002D82046FFF7FBFC62B6E368D5F8A8005E
:101D8000584309F00FFA38BD2DE9F047444B86B0AF
:101D90001B6805938246059808F0C2FDDAE9122314
:101DA000CDE9000108F07EFCDAE9242306460F465F
:101DB00000203C4908F054FF00223B4B08F026FE6F
:101DC00002460B463046394609F0A6F800285DD099
:101DD000DAF8003050465B69984708F0C3FDDAE94D
:101DE0001C23CDE9020108F05DFC02460B4608F019
:101DF0005BFC29A3D3E9002308F008FE8046DAF84B
:101E00009800894608F09CFD02460B46404649462C
:101E100008F026FF00228046894630463946224B8C
:101E200008F01EFF02460B464046494608F018FFE0
:101E3000DAE9204502460B462046294608F0E6FD31
:101E400022462B4606460F460020164908F02AFC7B
:101E50000446DAF844000D4608F084FD02460B46BD
:101E60002046294608F0D2FD02460B463046394648
:101E700008F01AFC09F08CF8DDE90223CAE91C23FA
:101E8000DDE90023CAE91223CAF8440006B0BDE820
:101E9000F08700BFAFF30080182D4454FB210940A8
:101EA000888FFF1F0000F03F00408F40AFF300809D
:101EB00003460A46C06993F8881000F04EBAFFFF47
:101EC0000D4B10B5044603600021FFF7F1FF606A77
:101ED00008B106F05FF8E06908B106F05BF8206A27
:101EE00008B106F057F800232362E36163622046DD
:101EF000FFF700FC204610BDC0C9000010B5044625
:101F0000FFF7DEFF204606F045F8204610BDFFFF34
:101F10002DE9F7431F4690F82C308046164663B9EA
:101F2000194B446A1B680193019808F0F9FC0022E0
:101F3000164B08F095FEC4E90401D8F85890012327
:101F400088F82C30484608F00DFD32463B460446E2
:101F50000D4608F0CDFF60B909F1004008F002FD20
:101F600032463B4604460D4608F0E0FF08B93446C9
:101F70003D46054B1B680093009BC8E91E45C8F809
:101F80003030BDE8FE8300BF888FFF1F00408F40C8
:101F900010B50446C86808F0E5FC02460B4620462A
:101FA000BDE81040FFF7B4BF73B5114B1B68019338
:101FB00090F82C30019A0646CBB1036BD21A436BD2
:101FC0009A4214D9002400250022002380F82C20F6
:101FD000C0E918454364C0E91A45C0E91E4596F8B2
:101FE0008810C06900F0B9F9706A00F0FDF97CBD95
:101FF000888FFF1FFFFFFFFF036870B55B69064610
:102000009847014609F01AF808F0ACFC0AA3D3E996
:10201000002308F0FBFC0446D6F898000D4608F0B3
:102020008FFC02460B462046294608F019FE08F0B0
:10203000AFFFF06370BD00BF182D4454FB21094071
:102040002DE9D343214B1B6801930446019808F006
:1020500067FCD4E914238046894608F023FBD4E9C1
:10206000282306460F460020194908F0F9FD0022F2
:10207000184B08F0CBFC02460B463046394608F0B8
:1020800055FF08B3A36B012B02D1606C206403E001
:102090002046FFF7B1FFE06B08F064FCC4E91801CB
:1020A000606A00F0A7F9A06A08F04AFCD4E91A2394
:1020B00008F0ACFCC4E91489C4E91A0108F040FF37
:1020C00001462046FFF7F4FEBDE8DC83888FFF1F42
:1020D0000000F03F00408F4010B50446FFF754FE6B
:1020E00094F82C3023B12046BDE81040FFF7A8BF7C
:1020F00010BD10B50446FFF757FF2046BDE810405D
:10210000FFF7EABF10B586B00446FEF757FC48B3A8
:10211000636C23646A23ADF804301423ADF80630F1
:10212000204641F20103ADF80830FEF745FC03906C
:102130002046FFF761FF236C049005930023ADF860
:102140000A30BDF806001A4603E0C95C521892B284
:102150000133834201A9F8DBA069ADF80A200368C6
:102160001B69984706B010BD2DE9F0418CB00646BA
:1021700000930623FFF7D2FA25995B4BB1632499AC
:102180003360DDE91A457163DDE91401C6E92845CC
:10219000C6E92401DDE912452399C6F8981026996D
:1021A00000220023C6E9204500270024C6E91823A1
:1021B000C6E91A23C6E91C23C6E91E233464F46366
:1021C000B16286F82C70082005F0E0FE9DF85810EA
:1021D000054600F091F8179BF561444DC6F888302C
:1021E00042F2107004F0C4FD2B680993099B33631D
:1021F0002B680A930A9808F093FB2B680B93C6E9A7
:1022000012010B9808F08CFB7464C6E91401582085
:1022100005F0BCFEDDE91C23CDE90023DDE91E232A
:10222000CDE90223DDE92023CDE90423289B06F133
:102230006801069306F1600206F17803044600F097
:102240009BF827A3D3E9002374621420C4E9062372
:1022500005F09CFE9DF860809DF8645004460221C4
:10226000404604F0A3F92846022104F09FF9204AD1
:1022700052F8383003F5007121600121217252F8C3
:102280003520617202F500706060E7604FF4FA413A
:102290000139FDD193F8003292F8002203F00103D6
:1022A000D20744BF43F00203DBB2A372214640468B
:1022B000FFF7BCFB214620742846FFF7B7FB237CC1
:1022C0001818229B2074B365279B34623046C6F8E9
:1022D000A8300A21FEF76EFB30460CB0BDE8F08155
:1022E0000000000000C05F40C0C90000888FFF1FD1
:1022F000D0CB0000AFF30080014A0170426070470C
:10230000F891FF1F70B50446406803680E461B68CD
:102310002178154698476068036831461B689847DE
:102320006068036829461B689847606822780368DC
:10233000B618A9191B6801F07F01984770BD7E2A65
:10234000A8BF7E226FF07D039A42B8BF1A46002ACA
:10235000B8BF5242D2B2FFF7D5BF10B54C1E012C08
:1023600009D802290CBF0421002101EBD271BDE87C
:102370001040FFF7E4BF10BD13B580E80E00DDE9A3
:102380000423C0E90A23DDE90623C0E90C23DDE9C3
:102390000823C0E90E23124B1B68019304460198E1
:1023A00008F0BEFA00220F4B08F05AFC002200236E
:1023B000C4E91223C4E9102307A3D3E90023C4E925
:1023C0000401C4E906230A9808F0CCFAC4E9140110
:1023D00020461CBDAFF300800000000000C05F403D
:1023E000888FFF1F00408F4000220023C0E9102388
:1023F0007047FFFF2DE9F04F584B89B01B680793DA
:102400008046079808F08CFA0022554B08F028FC0B
:10241000D8E90423CDE9040108F044F9D8F80820EC
:10242000D8F8043082468B46D2E90001D3E9002374
:1024300008F038F9D8E9062304460D46D8E9140116
:1024400008F0E4FA524681460E465B46204629468D
:1024500008F0DCFAD8E9102308F026F94A4633469A
:10246000CDE9020108F062FD10B14A46334611E0A1
:1024700006F1004C6346DDE902014A46CDF804C08E
:1024800008F036FDDDF804C010B9DDE9022301E0F3
:102490004A466346C8E910232046D8E90A2329465C
:1024A00008F0B4FAD8E9102306460F46D8E90C0123
:1024B00008F0ACFA02460B463046394608F0F4F80C
:1024C000D8E9122306460F462046294608F0EAF8C6
:1024D00052465B4608F0C4FBD8E90E2308F096FA92
:1024E00002460B463046394608F0DEF8D8F8009030
:1024F0000B460246C9E90023D8F818B0D8F81CA04A
:102500005A4653460E46074608F010FD002818BFED
:102510005F4618BF56463A463346C9E90023D8F805
:102520001C30D8F818B003F1004A5A4653463846D2
:10253000314608F0DDFC00280CBF3A465A460CBF75
:1025400033465346C9E90023DDE90423C8E91245AF
:10255000C8E9042309B0BDE8F08F00BF888FFF1FD2
:1025600000408F40034B10B504460360FEF7FAF9B4
:10257000204610BDE0C9000010B50446FFF7F2FF89
:10258000204605F007FD204610BDFFFF37B5069D2C
:102590001B7800950446FEF7F5F9054B2360079B71
:1025A00023639DF824302377089B2046E3623EBDD9
:1025B000E0C90000037F2BB18B684362CB68836264
:1025C0000B690362704713B58B68CA68019302AB4D
:1025D00043F8082D0268546993E80600A0471CBD23
:1025E00010B50446806BFFF7DFFCA06BFFF774FDAE
:1025F000606BFFF7D9FC606BBDE81040FFF76CBD66
:102600002DE9F74302AB03E90600076B009E019D2D
:1026100004463946304608F0CDFEE16A8046284639
:1026200008F014FE39468146384608F007FD014699
:10263000484608F0BFFE0146404608F0FFFC08F09F
:1026400091F902460B46A06BFFF762FC276B304600
:10265000394608F0AFFEE16A0646284608F0F6FD66
:1026600039460546384608F0E9FC0146284608F098
:10267000A1FE0146304608F0DFFC08F073F902467F
:10268000606B0B4603B0BDE8F043FFF741BCFFFFB2
:10269000034B10B504460360FFF764FF204610BDEE
:1026A00000CA000010B50446FFF7F2FF204605F00F
:1026B00071FC204610BDFFFFF8B51046194614A363
:1026C000D3E9002307F0F0FF13A3D3E90023064664
:1026D0000F4605F00BFF002204460D4630463946F2
:1026E000002308F005FC40B1204629460AA3D3E99F
:1026F000002307F0D9FF04460D462046294604A3CF
:10270000D3E9002307F0CEFFF8BD00BFAFF3008090
:10271000182D4454FB210940182D4454FB21194025
:1027200038B50446806BFFF767FC216C054608F05E
:1027300083FC216B08F08AFD256438BD38B504465A
:10274000406BFFF759FCE16B054608F075FC216B07
:1027500008F07CFDE56338BD002170B506460160D8
:102760004160104619460022094B08F04FF9044613
:102770000D4605F019FE08F00BFC2946B060204616
:1027800005F0C8FD08F004FCF060304670BD00BFE5
:102790000000E03F2DE9F04F93B08246FEF70EF9BE
:1027A000002800F0A5805046FFF7BAFF04465046C7
:1027B000FFF7C4FF05462946204608F03DFCDAF83D
:1027C0002C1008F0F7FDDAF8441008F03FFDDAF8B5
:1027D000201008F033FCCAF8200008F0C3F80246C5
:1027E0000B465046FFF768FF08F0D2FB29468346A8
:1027F000CAF82000204608F021FC4FF07C5108F078
:1028000025FD08F0AFF8064658460F4608F0AAF82E
:1028100004460D4605F07EFD0246DAF824000392D8
:10282000029108F09FF8039A029B80468946304641
:10283000394608F0EBF80B4602464946404607F099
:1028400033FF08F0A5FB29468446CAF82400204639
:10285000CDF804C005F0A8FD0246DAF8280003927E
:10286000029108F07FF8039A029B80468946304621
:10287000394608F0CBF802460B464046494607F079
:1028800013FF08F085FB22460646CAF828002B46AF
:1028900004A85146FFF760FF00226C230F92069AAE
:1028A000ADF820302823DDF804C0ADF822301092B6
:1028B00041F20103079AADF8243000231192ADF8DC
:1028C0002630CDF828C00B96CDF830B0CDF834C006
:1028D0000E961A4608A9505C01321B18282A9BB292
:1028E000F8D1DAF81800ADF8263003681B6998476C
:1028F00013B0BDE8F08FFFFF70B586B006AD0026BF
:1029000005F8016D00930A9B01930B9B0293012331
:1029100003932B460446FFF739FE084B23600C9BBC
:1029200063630D9BA3630023E363236423626362F9
:10293000A3620E9B2046636406B070BD00CA00000F
:102940007047FFFF034B10B504460360FEF70AF81B
:10295000204610BD20CA000010B50446FFF7F2FF64
:10296000204605F017FB204610BDFFFFFFFFFFFFCD
:1029700038B50546007F03F079FB04462846FEF78C
:1029800017F80A28204606D108F00CFC07F0EAFFE9
:1029900000220F4B06E008F005FC07F0E3FF08A358
:1029A000D3E9002308F032F807A3D3E9002308F0A5
:1029B00057F90022074B08F053F908F0E9FA38BD3F
:1029C000666666666666C94000000000E0FFEF408C
:1029D0000000B44000408F4030B585B00446FDF79C
:1029E000EDFF38B36D23ADF8003010230025ADF8AE
:1029F0000230204641F20103ADF80430ADF8065034
:102A0000FDF7DAFF02902046FFF7B2FFBDF8021093
:102A100003902B462A4604E01DF80300121892B2D8
:102A200001338B42F8DBA069ADF8062003686946E4
:102A30001B69984705B030BD73B5069E1B78079D8E
:102A400000960446FDF79EFF0A4B012D236001D13D
:102A50000E2304E0022D01D10F2300E01023E361D7
:102A6000207F002103F0A2FD102003F0D5FA2046BC
:102A70007CBD00BF20CA0000704730B585B0044659
:102A8000FDF79CFF50B36E23ADF8003010230025F6
:102A9000ADF80230204641F20103ADF80430ADF844
:102AA0000650FDF789FF0290207F03F073FD431B62
:102AB000584258410390BDF802102B462A4604E0C4
:102AC0001DF80300121892B201338B42F8DBA069A3
:102AD000ADF80620036869461B69984705B030BD0C
:102AE000034B10B504460360FDF73CFF204610BDC4
:102AF00038CA000010B50446FFF7F2FF204605F083
:102B000049FA204610BDFFFF13B500930123044688
:102B1000FDF738FF084B2360049B012B01D10B23E9
:102B200000E00C23E361207F022103F03FFD102031
:102B300003F072FA20461CBD38CA0000054B10B5E0
:102B4000044640F86C3B01F087FE2046FDF70AFF83
:102B5000204610BD50CA000010B50446FFF7EEFF36
:102B6000204605F017FA204610BD10B594B0044673
:102B7000FDF724FF00283CD0A26A0392E26A049287
:102B8000226B0592E2690692226A0792626A0892B3
:102B9000626B0992A26B0A92E26B0B92226C0C920E
:102BA000626C0D92A26C0E92E26C6F230F92E26D3A
:102BB000ADF804304C23ADF80630109241F2010319
:102BC000626DADF808300023ADF80A301192A26DA5
:102BD0001292226D13921A4601A9505C01321B1801
:102BE0004C2A9BB2F8D1A069ADF80A3003681B6982
:102BF000984714B010BD10B50446C83001F070FC01
:102C00000368A0661B69984700280ADD012184F843
:102C1000C01084F8C11084F8C21084F80C1120464A
:102C200005E0002384F80C3120466FF00101BDE877
:102C30001040FDF7BFBEFFFFF8B51148069D1646D0
:102C40001F460C4600F0FAFA31460D4800F09CF998
:102C500000210B4800F002FB214609483A4600F0EB
:102C6000CBFB002405E0064800F0B6F928550134F6
:102C7000E4B2034800F0A6F90028F4D1F8BD00BF83
:102C80009C8EFF1F1FB503AB0093682102234122D6
:102C9000FFF7D2FF9DF80C009DF80D3043EA0020AD
:102CA00000B205B000BDFFFF70B590F80C3192B0D6
:102CB0000446002B00F0C780806E03689B6998472C
:102CC000002800F0C08094F80D31002B40F08A807D
:102CD00002A800F0CDFC05A800F0CAFC08A800F08E
:102CE000C7FCA16E02A8143100F0A0FCA16E05A8DB
:102CF000083100F09BFCA16E08A8203100F096FC82
:102D0000A36EDB6A02AA05A9009304F16C0008AB6C
:102D100001F0D2FEA06E03681B6A98470EA800F06F
:102D200063FE0BA800F0A4FC04F1B4010BA800F0B2
:102D30007DFC04F1A4010EA800F08AFD029BE36172
:102D4000039B2362049B6362059BA362069BE36271
:102D5000079B2363089B6363099BA3630A9BE3634D
:102D60000E9B23640F9B6364109BA364119B2046FE
:102D7000E364FFF787FF08F015FA07F0F3FD34A3CB
:102D8000D3E9002307F06CFF0022354B07F08CFCE1
:102D900008F0FEF820650C980D9E0B9D07F0E2FDF3
:102DA0002DA3D3E9002307F031FE08F0F1F86065A8
:102DB000304607F0D7FD28A3D3E9002307F026FE0D
:102DC00008F0E6F8216E08F037F9A065284607F00C
:102DD000C9FD21A3D3E9002307F018FE08F0D8F8B5
:102DE000E06530E094F80E51F5B90BA800F040FC16
:102DF000A16E0BA8203100F019FC0BABD4F8F41035
:102E0000EE58304608F0C0FB08B1C4F8F460304614
:102E1000D4F8001108F0D6FB08B1C4F800610435FD
:102E200004340C2DE9D10EE00025012384F8F230A2
:102E300084F80D5184F80E51284604F1F00101F098
:102E400063FFA36E1D7112B070BD00BFAFF30080B1
:102E500052B81E85EBDD7440F8C1631ADCA54C4006
:102E600000003540AFF300800023C36183624363F9
:102E700043640362C3628363836443620363C36323
:102E8000C3644FF07E5303647047FFFF37B50446B9
:102E90001D46009203230022FDF774FD164B2046C9
:102EA00040F86C3B01F0FEFC04F1C80000F055FB5B
:102EB000124800F017F92046FFF7D6FF2046002100
:102EC000FDF778FD0023256600256366E3656365ED
:102ED000A3652365C4F81451C4F8105184F80C514B
:102EE00084F80D512046FFF786FE94F80C310BB1A3
:102EF00084F80E5120463EBD50CA00009C8EFF1F34
:102F000010B5044604F1F001002001F013FF002386
:102F100084F8F230084B094AC4F80031C4F804318F
:102F2000C4F80831A36EC4F8F420C4F8F820C4F83B
:102F3000FC2001221A7110BD809618CB8096184B88
:102F400090F80D318A6810B504460BB112B110BD6E
:102F500022B910BD012380F80E3110BD80F80E316A
:102F6000FFF7CEFF012384F80D3110BD054A137819
:102F700003F00203DBB2002BF9D0024B02221A70DD
:102F8000704700BF03600640094B1B7813B9094B1B
:102F90001B782BB1084A1378202B03D90123037126
:102FA000002070470548C154013313700120704759
:102FB000AE8EFF1F718EFF1FAF8EFF1F508EFF1F43
:102FC0007047FFFF024B1878024B1B78C01A7047FE
:102FD000AD8EFF1FAC8EFF1F064A07491378097894
:102FE000994204D90549C85C0133137070474FF00A
:102FF000FF307047AC8EFF1FAD8EFF1F728EFF1F1C
:10300000054B064A1B7812789A4202D9044AD05CD2
:1030100070474FF0FF307047AC8EFF1FAD8EFF1F23
:10302000728EFF1F38B50E4B1B78144613B90D4B2B
:103030001B788BB10C4B1D78C5F121039C4202D942
:10304000012202711C4609482246401908F010FE70
:10305000054B2D191D7000E01C46204638BD00BFF1
:10306000AE8EFF1F718EFF1FAF8EFF1F508EFF1F92
:1030700010B5104B1B7813F020040BD1122003F075
:103080001DF90D4B1B68A3B10C4A14700C4A107843
:10309000984710BD0B4A13780133DBB2012B137034
:1030A00002D8094B1B7823B91220BDE8104003F069
:1030B00005B910BD036006404C8EFF1FAC8EFF1F8C
:1030C000AD8EFF1F988EFF1F718EFF1F00220271B1
:1030D0000273034A4FF47A7181600260704700BF47
:1030E00068CA00000C4B00221A700C4B196841F0A2
:1030F000400119600A4B0B491A704FF419720A60AB
:1031000041F8042C084A2721117004215171202113
:10311000117180221A707047718EFF1F3480044035
:10312000026006400CA004400160064010B5374A1A
:10313000137803F01001C9B221B903F04002D2B2F2
:1031400042B92EE01021117003F04002D2B2002AE1
:10315000F3D110BD13F004032D4A18D000231370CF
:103160002C4A13702C4B1B68144603B198472278E5
:103170002A4B1AB927491A7001200870284AD02111
:1031800011701A78274B1A700122274B21E0012178
:103190001170264A1370224BC0221A7002331B781A
:1031A00030E01F4A1F4C117811F0100117D013F0B6
:1031B000010310D11C4917480A780078904205D9BC
:1031C000164B9B5C013223700A7000E02370144B95
:1031D000D0221A7016E0C0231370237812E0144B2B
:1031E000122019700322134903F03EF80F4A207889
:1031F00013781F2B06D80649097819B10E49C8540F
:1032000001331370014B02221A7010BD0360064097
:10321000488EFF1FAF8EFF1F948EFF1F508EFF1F23
:103220000260064004600640B08EFF1FAD8EFF1F97
:10323000988EFF1F71300000728EFF1F044B054AED
:103240004900197001231370034A1370704700BFBF
:10325000508EFF1FAE8EFF1FAF8EFF1F2DE9F04176
:10326000204B12221A70204A0D46117801F02001DD
:10327000C9B211B1B42313700BE019460A7802F0F9
:103280002002D3B2002BF9D1184A1370164BB0228A
:103290001A700024164E174FDFF8608013E03B5D74
:1032A00088F80030FFF762FE0E4B1B78DA0704D572
:1032B000002C14BF032002200BE003F01003DBB24C
:1032C00033B90134E4B23378A342E8D8002000E0F7
:1032D000042015B1044B80221A70074B00221A708B
:1032E000BDE8F0810360064002600640718EFF1F5A
:1032F000AF8EFF1F508EFF1FAE8EFF1F0460064073
:103300002DE9F0471446344A1E4600231370334A11
:103310001370334B12221A70324A107800F02000DA
:10332000C0B210B1B42313700BE01846027802F05B
:103330002002D3B2002BF9D12B4A1370294BB022B3
:103340001A704900294D41F001012970FFF70EFE66
:10335000234B244A1B7813F0110F04D080231370E1
:103360000020BDE8F0872CB9002E0CBFA0268026D7
:103370001670F5E7012C01D1A82300E0A0231370FB
:103380002B781B4FDFF86480DFF8589025464FF00C
:10339000A80A0BE0013DEDB2FFF7E8FD012D08BFE3
:1033A00089F800A098F8003007F8013F012DF1D10D
:1033B000FFF7DCFD0B4B0F49B0221A700B4A107857
:1033C000621ED2B2885420460EB180221A70034B7E
:1033D0001C70BDE8F08700BFAC8EFF1FAD8EFF1FD5
:1033E0000360064002600640718EFF1F04600640C5
:1033F000718EFF1F728EFF1F0123FFF781BF012116
:10340000FFF72CBF0148FFF761BE00BF9C8EFF1F76
:103410002DE9F04F1546324A89B09A461368029159
:10342000059300240746BDF84860DDF81480A146E6
:103430002FE02C483946FFF701FF02992948FFF792
:10344000A3FD2848FFF7DBFF26483946FFF7F6FEC5
:103450002A1B202AA8BF202222483946D2B2FFF7D1
:10346000CBFF4AFA89F34FF0000B03930BEB0901F2
:10347000C9B21C480191FFF7A5FD0199E8B11EB33F
:10348000174B186806900698C8EB0000B0421BD393
:1034900013E0AC42CDD36EB1114A12680792079A7D
:1034A000C8EB0208B04505D34FFA89F2AA42B8BF6B
:1034B0004FF0FF094FFA89F00FE0202D94BF6419F7
:1034C0002034E4B28946E4E70648FFF785FD039B14
:1034D00003F80B000BF1010BC8E709B0BDE8F08F52
:1034E000888FFF1F9C8EFF1F13B514460093012287
:1034F0002346FFF78DFF1CBDF8B507460C460D4867
:10350000394615461E46FFF799FE21460948FFF742
:103510003BFD002403E0315DFFF736FD0134E3B2EB
:10352000AB420448F7D3FFF76AFFD0F1010038BF80
:103530000020F8BD9C8EFF1F07B502AB03F8012DDC
:103540000122FFF7D9FF0EBD084602F04BBE084628
:10355000114602F05BBE02F009BE4FF0FF3202607E
:10356000502202612822426103228261C26110223C
:1035700002624262682202717047FFFF10B50B4C75
:103580004FF07C51A4EB600407F060FE214607F089
:103590005DFE214607F05AFE01464FF07F5007F0CE
:1035A0004BFD0146204607F051FE10BDDF59375F45
:1035B00070B5044616460D4602784078B3B140EA2D
:1035C000022000B207F0EEFD314607F03FFE286012
:1035D000E378A07843EA002000B207F0E3FD31462B
:1035E00007F034FE68602079637915E042EA002034
:1035F00000B207F0D7FD314607F028FE2860A37817
:10360000E07843EA002000B207F0CCFD314607F035
:103610001DFE68606079237943EA002000B207F05C
:10362000C1FD314607F012FEA86070BD884205D08A
:103630000B6803604B6843608B688360704738B5E4
:1036400004460D460068096807F0F6FC20606968CA
:10365000606807F0F1FC6060A968A06807F0ECFC06
:10366000A060204638BD002303604360836070473C
:1036700010B50446FFF7F7FF204610BD70B50546AC
:103680000C460068096807F0E1FD61680646686855
:1036900007F0DCFD0146304607F0D0FCA168064685
:1036A000A86807F0D3FD0146304607F0C7FC70BD9F
:1036B0002DE9F047D1F808A0D0F8088005460C465F
:1036C00050466968164607F0C1FD616807464046E6
:1036D00007F0BCFD0146384607F0AEFC3060D4F878
:1036E00000902F684046494607F0B0FD514680469D
:1036F000384607F0ABFD0146404607F09DFC706080
:103700006168384607F0A2FD69680446484607F03C
:103710009DFD0146204607F08FFCB060BDE8F087B4
:103720002DE9F041D0F8008047688668414604469C
:10373000404607F08BFD39460546384607F086FDC2
:103740000146284607F07AFC31460546304607F028
:103750007DFD0146284607F071FCFFF70FFF0021B1
:10376000054607F007FFA0B928464FF07E5107F045
:1037700001FF70B92946404607F068FD29462060E0
:10378000384607F063FD29466060304607F05EFD6D
:10379000A060BDE8F0812DE9FF410E4607C801ABEE
:1037A00083E807001846FFF7BBFF029807F0DAF836
:1037B000044603980D4607F0D5F802460B4620460E
:1037C000294604F091FE07F0E3FB3060019807F012
:1037D000C9F804460298DDF80C800D46014607F052
:1037E00035FD41460746404607F030FD0146384664
:1037F00007F024FC07F0B6F804F0D4FE0B460246AE
:103800002946204604F070FE07F0C2FB002300F1B9
:1038100000407060B360BDE8FF810346006870B58A
:1038200001465E689D6807F011FD3146044630464A
:1038300007F00CFD0146204607F000FC294604462F
:10384000284607F003FD0146204607F0F7FB70BD50
:10385000884207D00B6803604B6843608B688360C5
:10386000CB68C360704770B505460E4600242859E2
:10387000315907F0E3FB28510434102CF7D12846C6
:1038800070BD70B505460E4600242859315907F021
:10389000D3FB28510434102CF7D1284670BDF0B565
:1038A0008BB0044601A80D46FFF7DDFE04A8FFF724
:1038B000DAFE07A8FFF7D7FE63680193A3680293B7
:1038C000E36803936B680493AB680593EB6804A902
:1038D00001A80693FFF7D2FE07AA074604A901A88C
:1038E000FFF7E6FE26682968304607F0AFFC394648
:1038F00007F0A2FB04992060304607F0A7FC2D6872
:1039000001990746284607F0A1FC0146384607F012
:1039100095FB079907F092FB05996060304607F028
:1039200095FC02990746284607F090FC0146384668
:1039300007F084FB089907F081FB0699A0603046E8
:1039400007F084FC03990646284607F07FFC0146F1
:10395000304607F073FB099907F070FBE0602046E2
:103960000BB0F0BD38B5044600680D4607F06EFC9C
:1039700029462060606807F069FC29466060A068FD
:1039800007F064FC2946A060E06807F05FFCE06097
:10399000204638BD38B5044615460FC984E80F00E7
:1039A00020462946FFF77BFF204638BD38B5044640
:1039B00015460FC984E80F0020462946FFF7D2FFBD
:1039C000204638BD38B5044615460FC984E80F00B7
:1039D00020462946FFF755FF204638BD00230360E7
:1039E00043608360C360704710B50446FFF7F6FF7D
:1039F000204610BD2DE9F843D0F80090D0F804809F
:103A00008768C66849460446484607F01FFC414699
:103A10000546404607F01AFC0146284607F00EFB13
:103A200039460546384607F011FC0146284607F09E
:103A300005FB31460546304607F008FC014628469E
:103A400007F0FCFAFFF79AFD0021054607F092FD0A
:103A5000C8B928464FF07E5107F08CFD98B9294629
:103A6000484607F0F3FB29462060404607F0EEFB8E
:103A700029466060384607F0E9FB2946A0603046D9
:103A800007F0E4FBE060BDE8F883FFFF2DE9F843B1
:103A90000746D0F80890D0F804800E464846F968EA
:103AA00007F0D4FB39680446404607F0CFFB0146D7
:103AB000204607F0C3FA06F055FF02460B4606F013
:103AC000F3FD04460D464046414607F0BFFB49461C
:103AD0008046484607F0BAFB0146404607F0AEFA7A
:103AE00006F040FF02460B4606F0DEFD02460B469E
:103AF0000020304906F0D6FD02460B4620462946F6
:103B000004F0F2FC07F044FAB9683060386807F056
:103B10009DFBF9680446786807F098FB014620464B
:103B200007F08AFA06F01EFF02460B4606F0BCFDBF
:103B300004F086FC07F02CFAD7F8089079687060DA
:103B4000484607F083FBD7F80C80396804464046A6
:103B500007F07CFB0146204607F070FA06F002FFF2
:103B600002460B4606F0A0FD04460D46484649466F
:103B700007F06CFB41460746404607F067FB0146ED
:103B8000384607F05BFA06F0EDFE02460B4606F0FB
:103B90008BFD02460B460020064906F083FD0246D7
:103BA0000B462046294604F09FFC07F0F1F9B0606F
:103BB000BDE8F8830000F03F2DE9F74F04460D46BD
:103BC00008684FF07C5107F041FB06F0CBFE06463B
:103BD0000F4604F09FFB07F0DBF93946814630467B
:103BE00004F0E2FB07F0D4F94FF07C51834668689B
:103BF00007F02CFB06F0B6FE06460F4604F08AFBE3
:103C000007F0C6F939468246304604F0CDFB07F08E
:103C1000BFF94FF07C510190A86807F017FB06F040
:103C2000A1FE06460F4604F075FB07F0B1F93946D0
:103C30000546304604F0B8FB07F0AAF9514606469F
:103C4000484607F003FB01998046584607F0FEFA04
:103C500029460746404607F0F9FA314603463846FA
:103C6000009307F0F3FA009B0146184607F0E6F9C7
:103C700051462060584607F0E9FA019982464846C5
:103C800007F0E4FA29468146504607F0DFFA31464C
:103C90008346484607F0DAFA0146584607F0CCF961
:103CA00029466060484607F0D1FA314681465046C1
:103CB00007F0CCFA0146484607F0C0F93146A0604B
:103CC000404607F0C3FA29460646384607F0BEFAD2
:103CD0000146304607F0B0F9E060204603B0BDE889
:103CE000F04FFFF787BE38B50D460446FFF776FE66
:103CF0002B6823606B6803F100436360AB6803F1DA
:103D00000043A360EB6803F10043E360204638BD45
:103D1000407970470048704780CA0000052070470E
:103D2000436B4FF4C87090FBF3F07047034B10B532
:103D30000446036000F0C0FB204610BD98CA000096
:103D400010B50446FFF7F2FF204604F023F92046A1
:103D500010BDFFFF10B5044600F0CEFB014B20461E
:103D6000236010BD98CA00004B1FB3F5797F4FF058
:103D7000000308D24FF47A724163B2FBF1F1816320
:103D8000C3630120704718467047FFFF112907D809
:103D9000044A4BB29A4003D580F88B10012070473B
:103DA0000020704700C000FE082907D8044A4BB223
:103DB0009A4003D580F88C1001207047002070478E
:103DC000000080FE4B1E632B03D8C0F8901001202A
:103DD000704700207047FFFF08290BD001D829B198
:103DE00017E010290AD0182913D10BE080F894109D
:103DF000094B0AE080F89410084B06E080F8941014
:103E0000074B02E0074B80F89410C0F8983001206F
:103E100070470020704700BFFDB30B39A968923985
:103E2000787D0B3A787D8B3A08290CD001D829B1DE
:103E30001BE010290CD0182917D10EE080F895103E
:103E40004FF062530DE080F895104FF0645308E096
:103E500080F895104FF0665303E080F895104FF00E
:103E60006853C0F89C30012070470020704710B59F
:103E700038210446002290F88900FFF75DFB0028F6
:103E80002DD094F8890023210022FFF755FB30B391
:103E900094F889006A210022FFF74EFBF8B194F8EC
:103EA00089006A210422FFF747FBC0B194F889001A
:103EB0006A216022FFF740FB88B1322002F0B0FB9C
:103EC00094F8890038210122FFF736FB38B194F8C5
:103ED000890023217822BDE81040FFF72DBB002088
:103EE00010BDFFFF70B5514E8AB033880446722171
:103EF00090F889000093022203ABFFF789FA00B91A
:103F000011E09DF80C509DF80D3003EB0525B5F53B
:103F1000806F0AD12046FFF7AAFFE36AA26B562101
:103F200001FB0233E36200207EE0B5F5F07F11D99A
:103F3000338894F88900009374210C2207ABFFF7B3
:103F400067FA0028EFD0E26AA36B0C3DD318E36256
:103F5000772DECE70B2DE6D9344D94F889002B88AA
:103F6000742100930C2207ABFFF752FA0028DAD035
:103F70002B8894F8890000934921082205ABFFF7AC
:103F800047FA0028CFD007A804F11401D4F89C20E8
:103F90000123FFF70DFB0DF1220004F10801D4F815
:103FA00098200123FFF704FB214A0DF1150004F1CD
:103FB00020010023FFF7FCFAE368206AD4F8A01080
:103FC00003F10043E360236903F100432361636964
:103FD00003F10043636107F039F9D4F8A4100546F2
:103FE000606A07F033F9D4F8A8100646A06A07F013
:103FF0002DF905F10045A06226622046656200F0B9
:1040000001FB204600F0A8FB94F8883023B1094B4F
:104010001B680493049B02E0E26AA36BD318E3627B
:10402000002384F8883001200AB070BD6687FF1F26
:104030009A99193F888FFF1F13B5164B04466A21C2
:1040400090F889001B880DF10702FFF74DFA08B9B7
:1040500000201DE09DF8072094F8890022F020023E
:1040600042F002026A218DF80720FFF765FA002866
:10407000EED0322002F0D4FA94F88900372182225F
:10408000FFF75AFA0028E3D0322002F0C9FA0120E3
:104090001CBD00BF6687FF1F13B5144B04466A2181
:1040A00090F889001B880DF10702FFF71DFA08B987
:1040B00000201AE09DF8072094F8890042F02002C1
:1040C0006A218DF80720FFF737FA0028F0D0322058
:1040D00002F0A6FA94F8890037218022FFF72CFA23
:1040E00018B1322002F09CFA01201CBD6687FF1F28
:1040F00038B590F88B5090F89430C5F3C102D218BF
:1041000004461B2190F88900D2B2FFF715FA40B19E
:1041100094F889001A2105F00702BDE83840FFF73E
:104120000BBA38BD10B504461C2190F8890094F8EC
:104130009520FFF701FA40B194F8890094F88C209B
:104140001D21BDE81040FFF7F7B910BD436BB3F573
:104150007A7F0ADC4FF47A7292FBF3F35A1E90F8DE
:1041600089001921D2B2FFF7E7B901207047426BED
:10417000D0F8903090F8890092FBF3F2013A1F2AB0
:10418000A8BF1F223421D2B2FFF7D6B91FB5012331
:1041900080F88830036B1A79044680F88920196901
:1041A000FFF7E2FD236B20465969FFF70BFE236BF7
:1041B0002046197EFFF7EAFD236B2046197FFFF7A3
:1041C000F3FD236B204693F82010FFF705FE236BC9
:1041D000204693F82410FFF727FE204600F0B2F99E
:1041E00094F889006B218022FFF7A6F9002800F0DF
:1041F0001881642002F014FA94F889006B210022DF
:10420000FFF79AF9002800F00F81A74B94F8890076
:104210001B8875210DF10B02FFF766F9002800F0ED
:1042200006819DF80B30712B40F004812046FFF78A
:104230005FFF002800F001812046FFF773FF002890
:1042400000F0FE802046FFF781FF002800F0FB8091
:104250002046FFF7F1FE002800F0F8800C200A212C
:104260000022FFF769F928B92046FFF715FF6FF024
:104270000B0017E10C200A210F22FFF75DF928B986
:104280002046FFF709FF6FF00C000BE1864B1B88FF
:104290000C200093102103220DEB0003FFF7B8F868
:1042A00028B92046FFF7F8FE6FF00D00FAE09DF800
:1042B0000C0006F073FF06F055FB00227B4B06F066
:1042C000F1F900227A4B06F0A1FB0022794B06F0AF
:1042D000EBF906F05DFEC4F8A0009DF80D0006F0B5
:1042E0005DFF06F03FFB0022704B06F0DBF9002279
:1042F0006F4B06F08BFB00226E4B06F0D5F906F0F3
:1043000047FEC4F8A4009DF80E0006F047FF06F033
:1043100029FB0022654B06F0C5F90022644B06F02C
:1043200075FB0022634B06F0BFF906F031FE0A214F
:10433000C4F8A80000220C20FFF7FEF828B9204698
:10434000FFF7AAFE6FF00E00ACE02046FFF7A4FED8
:1043500000287ED094F8890024214022FFF7ECF851
:10436000002879D094F8890025218C22FFF7E4F801
:10437000002874D094F8890026210222FFF7DCF887
:1043800000286FD094F8890027218822FFF7D4F8FD
:1043900000286AD094F8890028210C22FFF7CCF875
:1043A000002865D094F8890029210A22FFF7C4F873
:1043B000002860D094F889002A218122FFF7BCF8F8
:1043C00000285BD094F8890064210122FFF7B4F83B
:1043D000002856D094F8890067210322FFF7ACF833
:1043E000002851D02046FFF7C2FE00284FD094F895
:1043F00089006B210122FFF79FF800284AD094F82A
:1044000089006C210022FFF797F8002845D020464C
:10441000FFF72DFD002843D0204600F0E5F80120ED
:1044200040E04FF0FF303DE06FF003003AE06FF006
:10443000040037E06FF0050034E06FF0060031E073
:104440006FF007002EE06FF008002BE06FF00A001D
:1044500028E06FF00F0025E06FF0100022E06FF011
:1044600011001FE06FF012001CE06FF0130019E064
:104470006FF0140016E06FF0150013E06FF01600F7
:1044800010E06FF017000DE06FF018000AE06FF019
:104490001A0007E06FF01B0004E06FF01C0001E061
:1044A0006FF01D0004B010BD6687FF1F0000604064
:1044B0000000703F0000F03F014B0360704700BFF9
:1044C000C8CA000090F848007047FFFF034B10B5C2
:1044D0000446036003F05EFD204610BDC8CA00001C
:1044E00038B50546B02003F051FD29460446FFF7D4
:1044F00031FC204638BDFFFF38B5114B044640F86B
:10450000083B0D46FFF7B4F804F11400FFF7B0F8CC
:1045100004F12000FFF7ACF804F14C00FFF7A8F815
:1045200004F15800FFF7A4F804F17C00FFF7A0F8AD
:10453000002325632371637184F84830204638BD19
:10454000C8CA00002DE9F043064689B0002070710A
:1045500001A900F0EFFB002841D09DF80630012BA7
:104560003DD1204D6C4603AF60690434616806F0AC
:1045700063FD2946804607F025F800B14546BC4258
:10458000F2D12846002106F0FFFF40BB28464FF03D
:104590007C5106F05BFE35468146002401AA1319C2
:1045A0000434D3F810805F684046394606F044FD75
:1045B0004FF07C5106F04AFE0146484606F0FAFEEE
:1045C00039462867404606F039FD4FF07C5106F029
:1045D0003DFE043528660C2CE0D10123737109B02F
:1045E000BDE8F083000080BF10B50446406B06F0C4
:1045F000D9FD01464FF0804006F0DCFE0023206428
:10460000636410BD2DE9F04300F15805804695E83C
:10461000070085B001AC08F1140684E807003146B4
:104620002046FFF70CF831462846FEF7FFFF2046EC
:10463000FFF7F3F8454906F0A7FF80B108F108003D
:10464000FFF7EBF8424906F09FFF78B907E0013227
:104650009A42C8F8442002D1012388F8483008F172
:10466000080008F14C01FEF7EAFF6CE0D8F8409032
:10467000484606F077F902460B460020354906F019
:1046800011F80446D8F84C000D4606F06BF90246C6
:104690000B462046294606F0B9F906460F4648461D
:1046A000D8F8081006F0D2FD06F05CF902460B4679
:1046B0003046394605F0F8FF06F06AFCC8F84C00B1
:1046C000D8F8500006F04EF902460B46204629461F
:1046D00006F09CF906460F464846D8F80C1006F03E
:1046E000B5FD06F03FF902460B463046394605F067
:1046F000DBFF06F04DFCC8F85000D8F8540006F077
:1047000031F902460B462046294606F07FF9044659
:104710000D464846D8F8101006F098FD06F022F92C
:1047200002460B462046294605F0BEFF06F030FC47
:10473000D8F83430D8F84420C8F8540005214B4349
:104740009A4284DB8BE705B0BDE8F0830BD7233BAF
:104750000BD7233D0000F03F037970B50646CBB977
:104760004379BBB1006A716E06F066FC316F06F0EA
:104770006DFDB16E3062706A06F05EFC716F06F01E
:1047800065FDF16E7062B06A06F056FCB16F06F01E
:104790005DFDB062306A2E4906F058FD06F0E2F881
:1047A0000446F06F0D4606F0DDF827A3D3E9002399
:1047B00006F02CF902460B462046294605F074FF08
:1047C00006F0E6FB2249F067706A06F03FFD06F04E
:1047D000C9F80446D6F880000D4606F0C3F81AA3BF
:1047E000D3E9002306F012F902460B46204629467B
:1047F00005F05AFF06F0CCFB1549C6F88000B06AF8
:1048000006F024FD06F0AEF80446D6F884000D4606
:1048100006F0A8F80CA3D3E9002306F0F7F8024647
:104820000B462046294605F03FFF06F0B1FB06F196
:104830007C01C6F8840006F12000BDE87040FEF758
:10484000F5BE00BFAFF30080000000989999E93FE2
:10485000CDCC4C3EAFF30080704730B5012385B01E
:1048600080F85730044600F1480501A8FEF700FF24
:1048700001A92846FEF7DAFE294604F13800FFF7C1
:104880009BF904F12C0501A8FEF7F2FE01A92846C8
:10489000FEF7CCFE04F11C002946FFF78DF905B0A8
:1048A00030BDFFFF10B504460430FFF79DF804F15A
:1048B0001C00FFF799F804F12C00FEF7D9FE04F173
:1048C0003800FFF791F804F14800FEF7D1FE084BDD
:1048D0006361084BA3610123204684F8543084F8B7
:1048E000553084F85630FFF7B8FF204610BD00BFA2
:1048F0006F12833A6F12033A2DE9F04794B00646DF
:1049000068460C461746FFF76FF804A8FFF76CF8E7
:1049100096F8552006F12C011AB12046FEF73BFF10
:1049200006E0084606F14801FEF780FE00237363A7
:1049300096F85630002B6CD0F06A4FF07C5106F0A0
:1049400085FC06F00FF804460D4603F0E3FC06F084
:104950001FFB29468046204603F026FD06F018FB83
:104960004FF07C518146306B06F070FC05F0FAFF89
:1049700004460D4603F0CEFC06F00AFB29468246AB
:10498000204603F011FD06F003FB51460446404665
:1049900006F05CFC51460490484606F057FC214660
:1049A0000590404606F052FC2146069009F1004071
:1049B00006F04CFC002300933B68079001937B6852
:1049C0000293BB686A4608A804A90393FEF7E2FFB6
:1049D0000CA804A9FFF787F90CAA10A808A9FEF7EC
:1049E000D9FF10A96846FEF733FF029805F0BAFF19
:1049F000044601980D4605F0B5FF02460B462046D9
:104A0000294603F071FD06F0C3FA00F1004070631F
:104A100001E0336D736306F11C0806F12C07404674
:104A20003946FFF7C9F8DFF88C9000244FF0FF35C6
:104A300006F11C03494653F8243023F0004A50463F
:104A400006F0C0FD08B1D14625460134042CEFD153
:104A500006EB85090021D9F81C40204606F094FD9C
:104A600028B1D9F83800002106F0ACFD58B920462D
:104A7000002106F0A7FDD0B106EB85050021A86B4B
:104A800006F082FD98B1F36903F10043F361336AE4
:104A900003F100433362736A03F100437362B36A44
:104AA00003F10043B36240463946FEF7EFFF14B00E
:104AB000BDE8F08700007AC42DE9F04F04468DB0C0
:104AC00002A81E460F469046169DFEF7D1FD94F8AB
:104AD0005730ABB13246A5652046414604F12C055E
:104AE000FFF70AFF04F138002946FFF765F804F1E3
:104AF00048002946FEF79AFD002384F85730FDE070
:104B0000A06D281A06F04AFB7E4906F053FCA56505
:104B10002060002106F042FD002840F0EF80414671
:104B200032462046FFF7E8FE636CD4F838A00193C4
:104B300094F85430D4F83C80266C13B102A839465E
:104B400004E005A8FEF794FD02A805A9FEF76EFD96
:104B500002984FF07C5106F079FB4FF07C510746EC
:104B6000039806F073FB4FF07C518146049806F0E1
:104B70006DFB4146834607F1004006F067FB314676
:104B800003464846009306F061FB009B25680146FA
:104B9000184606F051FA019903465846009306F06C
:104BA00055FB009B0146184606F046FA294606F0DA
:104BB0004DFB0146504606F041FA5146A063384687
:104BC00006F044FB314603465846009306F03EFB90
:104BD000009B0146184606F031FA01990346484603
:104BE000009306F033FB009B0146184606F024FABA
:104BF000294606F02BFB0146404606F01FFA5146B7
:104C0000E063484606F022FB4146034658460093BF
:104C100006F01CFB009B0146184606F00DFA0199B0
:104C200003463846009306F011FB009B01461846E8
:104C300006F004FA294606F009FB0146304606F064
:104C4000FDF951462064584606F000FB4146824675
:104C5000484606F0FBFA0146504606F0EFF93146A9
:104C60008046384606F0F2FA0146404606F0E4F97E
:104C7000294606F0EBFA0146019806F0DFF994F8B0
:104C80005630606408A813B994F8553033B104F174
:104C90001C0104F13802FEF795FE01E0FEF7A4FEC8
:104CA00004F1380508A9201DFEF7D2FD261D2A466D
:104CB00008A804F11C01FEF785FE08A93046FEF79E
:104CC000C7FD2168606906F0C1FAA169074606F0D0
:104CD000B5F90146384606F06DFB3146024608A894
:104CE000FEF764FE08A92846FEF7BDFD2846FEF73C
:104CF00081FE284604F14801FEF7C8FE0DB0BDE86C
:104D0000F08F00BF00007A4470B583004401E41ABC
:104D1000FC230B7015234B7004F11C050E1B214660
:104D2000325D03480134FEF712FCAC42F7D170BD8E
:104D3000B18EFF1F70B583004401E41A00238B700D
:104D40000D460D482146FEF7FFFBFC2812D1611CE1
:104D50000948FEF7F9FB15280CD104F11C062D1BA0
:104D600021460548FEF7F0FB28550134B442F7D13F
:104D7000012070BD002070BDB18EFF1F7047FFFF86
:104D8000034B10B504460360FBF7ECFD204610BD55
:104D9000F8CA000010B50446FFF7F2FF204603F002
:104DA000F9F8204610BDC069C0B201B1012101F07F
:104DB000D1BBC9680029D4BF00210121FFF7F3BF8F
:104DC00037B51D460023009308230446FBF7DAFDA0
:104DD000084B012D236001D1062300E00723E36186
:104DE000207F012101F0E2FB20460121FBF7E2FDDB
:104DF00020463EBDF8CA00007047FFFF034B10B5C8
:104E000004460360FBF7AEFD204610BD10CB00004A
:104E100010B50446FFF7F2FF204603F0BBF820462A
:104E200010BD38B5044603F033FA0546204603F0BA
:104E3000E9F9281838BDFFFFF0B58DB00446FBF73F
:104E4000BDFD002857D07123ADF8003004F11C07D8
:104E500030230025ADF80230384641F20103ADF8A9
:104E60000430ADF8065000F077F9CDE9020138467C
:104E700000F096F984F89550CDE90401D4F89C002F
:104E80001E4E05F05DFD00221D4B05F0E9FED4F835
:104E9000BC3084F8B5500893D4F8AC3084F8A550F1
:104EA000012209930023CDE90A233368CDE90601E5
:104EB00005225B68134930469847DDE90A2352EA28
:104EC0000301304601D0012100E02946FFF7A9FF88
:104ED0000023BDF802101A4604E01DF80300121862
:104EE00092B201338B42F8DBA069ADF8062003686B
:104EF00069461B6998470DB0F0BD00BF0892FF1FBF
:104F00000000594020CB000037B504461D460092F2
:104F100002230022FBF736FD20460F4B40F81C3BD6
:104F200000F02CF815B1C4F8F45003E04FF4165318
:104F3000C4F8F430D4F8F430580800F1B76000F544
:104F40005840B0FBF3F001F0D5FC20460121FBF7FF
:104F500031FD20463EBD00BF10CB000010B5044619
:104F600001F040FE002808DD01F04AFEC1B204F164
:104F70001C00BDE8104000F0D5BA10BD034600216A
:104F800010B502240170417081808160018241610D
:104F9000818301620185C1621973197683F8241037
:104FA00083F8301083F83810C16383F8391083F820
:104FB0004810C16483F8491083F8581001660167EE
:104FC000C0F8801083F8591083F8681083F86910CE
:104FD00083F8781083F8791083F8881083F88910A3
:104FE000C0F8901083F8981083F89910C0F8A010BA
:104FF00080F8B94083F8A81083F8A91083F8BA1094
:1050000083F8BB1083F8BC10C0F8C010C0F8C410FF
:10501000C0F8C810C0F8CC10C0F8D010C0F8D41038
:1050200083F8AA1010BDA1F14103052B02D8A1F10C
:1050300037007047A1F16103052B94BFA1F1570020
:10504000A1F13000704738B50578B5F12D035D4208
:105050005D41044605B1441C204606F0E9FA64238C
:105060004343224614F8011BA1F130000928F8D966
:105070002E2910D15178A1F1300009280BD809B29E
:10508000C800927800EB4101303AA1F5F0715B184D
:10509000092A98BF9B1805B15B42184638BDFFFF2F
:1050A00038B50C46054606F0C3FA6423B0FBF3F2AC
:1050B0001249228003FB12034B432846014610F895
:1050C000012BA2F13005092DF8D92E2A0CD1084662
:1050D0000A4A0A2503E0B2FBF5F202FB013310F89D
:1050E000011F30390929F6D9052253430133032220
:1050F000B3FBF2F363600023237238BD80969800FF
:10510000034682B053F81C2F42605A6882601B7AB3
:105110000373034653F8282F02615A6842611B7AD1
:105120000376054B1B680193019B43630123437086
:10513000037002B0704700BF888FFF1F00F11C038F
:1051400008461946FFF7ACBF00F128030846194688
:10515000FFF7A6BFFFFFFFFF002370B543700646B1
:10516000808805F0EDFB0446B0680D4605F0D8FBDD
:1051700009A3D3E9002305F073FD02460B46204640
:10518000294605F091FA0B46317B024609B103F13D
:1051900000431046194670BD0000000065CDCD41AA
:1051A000002370B543700646008A05F0C9FB04462B
:1051B00070690D4605F0B4FB09A3D3E9002305F09F
:1051C0004FFD02460B462046294605F06DFA0B4678
:1051D000317E024609B103F100431046194670BD05
:1051E0000000000065CDCD4183684360054B82B06F
:1051F0001B680193019BC36001234370037002B0DD
:10520000704700BF888FFF1F83684360054B82B0E3
:105210001B680193019BC36001234370037002B0BC
:10522000704700BF888FFF1F10B504460846FFF780
:105230000AFFA06010BD10B50446084606F0F8F954
:10524000A06010BDC3688360054B82B01B680193EA
:10525000019B436001234370037002B0704700BF9D
:10526000888FFF1F10B504460846FFF7ECFEE0608C
:1052700010BDFFFFC3688360054B82B01B680193BC
:10528000019B436001234370037002B0704700BF6D
:10529000888FFF1F10B50446084606F0C9F9E06084
:1052A00010BDFFFF13B504462146103006F006FF7F
:1052B000054B1B680193019B2362012384F8253071
:1052C00084F824301CBD00BF888FFF1F102206F019
:1052D00053BFFFFF90F8A93070B50446002B62D091
:1052E00090F8AA10FFF79FFE94F8AB1005462046F1
:1052F000FFF799FE94F8A83000EB0510C5B2AB4259
:105300004BD1D4F8D4300133C4F8D43094F8BC3045
:1053100023B1D4F8CC300133C4F8CC3094F8B93090
:10532000B3B1012B2AD104F13800FFF75DFF04F17E
:105330004800FFF769FF94F8BC30FBB12046FFF747
:10534000DFFE04F15800FFF77DFF04F1680013E071
:1053500004F14800FFF758FF94F8BC3033B1204601
:10536000FFF7CEFE04F17800FFF76CFF04F1880030
:10537000FFF780FF04F19800FFF764FFD4F8C450F2
:10538000002D00F0BC80D4F8C430A86A996A06F0F9
:10539000A7FD002800F0B580B1E0D4F8D03001338B
:1053A000C4F8D0301DE090F8BA2042BB00F1AA0545
:1053B00028465A4906F094FD08B9012308E028461A
:1053C000574906F08DFD10B984F8B90002E00223B8
:1053D00084F8B930D4F8C030C4F8C430D4F8C4600C
:1053E0000EB9002070BDB06A294606F079FD00288C
:1053F00080F290808AE00020C4F8C40070BD90F86C
:10540000B910022960D090F8AA30002B5CD042EA93
:105410004112013A282A57D8DFE802F01520252C3E
:105420003142494F5156565656565656565656566E
:10543000565656565656565656565656151B2025EF
:105440002C31383A3C00483004F1AA01FFF7ECFE59
:105450003AE0B3F141004342434125E004F1AA019F
:10546000FFF76CFE30E0B3F153014B424B4180F843
:10547000243029E004F1AA01FFF766FE24E0B3F12D
:1054800057025342534180F830301DE0583017E046
:10549000683015E0383004F1AA01FFF7CCFE13E0C4
:1054A000302B94BF0023012384F8BC300CE08830FB
:1054B00004F1AA01FFF7EEFE06E0983000E0783034
:1054C00004F1AA01FFF7CEFED4F8C45004F1AA06F5
:1054D00004E028463146FFF7F9FE2D6B002D80D001
:1054E000D4F8C430A86A996A06F0FAFC00287FF460
:1054F00078AFEB6A94F8BA20934209DD71E7012096
:1055000070BD2846FFF7CEFE2D6B39E7336B63E79E
:10551000E3D1DEE77FF46FAF63E700BF26CB000087
:105520002CCB000038B5D0F8C8300133242904460C
:105530000D46C0F8C8302CD004D80A290CD00D294B
:1055400036D109E02A2907D02C2931D190F8A8308A
:1055500083F02C0380F8A83094F8BB300E2B4FF06A
:10556000000005D8E31883F8AA002046FFF7B2FE32
:1055700094F8BA30013384F8BA300023B5F12A0C1C
:10558000DCF1000555EB0C0584F8BB3084F8A9501C
:1055900038BD0020022384F8BB0084F8BA0084F8E8
:1055A000A80084F8B93084F8A90084F8BC0038BD9C
:1055B00094F8BB300D2B05D8E218013382F8AA50BD
:1055C00084F8BB3094F8A90028B994F8A8305D405D
:1055D00084F8A85038BD002038BDFFFF2E4B0022B4
:1055E00030B51A6090F8943053B9D0F890305A68BA
:1055F00002F596525A6090F899201A60012347E00C
:10560000012B28D190F8953073B100EB830290F80C
:105610009710526C01338B4288BF0023D0F88C1056
:10562000A2F5965271B913E090F89640011F80F8E8
:1056300097401A4603E051F8045F01324D64A242DC
:10564000F9D9E2E7012B01D10B7001E000240C70C5
:1056500080F8953001E0D0F888204EF660239A4219
:10566000D0F89030596806D88A185A6090F8982077
:105670001A6000230CE001F562419031596090F806
:105680009910A2F56242903A1960C0F8882002236E
:1056900080F8943030BD00BF54800340442380F82C
:1056A0008A307047324B1A684FF6FF739A4230B512
:1056B000304A51D1136803F07F03482B4CD14B1F64
:1056C0000024122B46D8DFE803F00A1F45450D10D1
:1056D0004545454545454545451316191C00264A8F
:1056E000072313E0254A022310E0254A03230DE097
:1056F000244A05230AE0244A062307E0234A00231C
:1057000004E0234A012301E0224A0423C0F8844034
:1057100080F88B4090F88A400260FF2580F888501E
:1057200014601D4A42F823001C4A0120147800FA34
:1057300003F3234313701A4B03EBC10140F24442BD
:105740004B681A60174B20221A70174B4FF080429B
:105750001A6030BD002030BD144C00234FF6FF7599
:1057600013602360656048241460114A1360A6E743
:105770000880034000800340448003401C800340B5
:1057800024800340348003403C8003400C8003406D
:10579000148003402C800340B88EFF1FB78EFF1F7C
:1057A000D0CB00003EE400E004E100E004800340D0
:1057B00054800340036890F88A105A6810B5196045
:1057C000174BB2F5604F1B8803D91649097801B110
:1057D000013B42EA0343D0F88420C0F884309A1A8F
:1057E000114B9A4290F8883011D9FF2B0DD0021F2F
:1057F000002103E004325468013154649942F9DB1A
:1058000080F88930012380F88B30002305E00F2BCE
:1058100005D800EB830101334A6080F8883010BD61
:10582000B48EFF1FB28EFF1F3F9002006E4B1A68AE
:1058300010B5140608D548221A606C4B1A8801323C
:105840001A806B4B01221A706A4B1C78E00703D553
:10585000694B1B68190677D404F00203DBB21BB155
:10586000664B1B681A0674D404F00403DBB21BB148
:10587000634B1B681B0671D404F00803DBB21BB139
:10588000604B1B6818066ED404F01003DBB21BB12A
:105890005D4B1B6819066BD404F02003DBB21BB10F
:1058A0005A4B1B681A0668D404F04003DBB21BB1E4
:1058B000574B1B681B0665D4200603D5554B1B6848
:1058C000190664D4544B1C78E20703D54A4B1B6875
:1058D0001B0661D404F00203DBB21BB1474B1B680B
:1058E00018065ED404F00403DBB21BB1444B1B6802
:1058F00019065BD404F00803DBB21BB1414B1B68F3
:105900001A0658D404F01003DBB21BB13E4B1B68DF
:105910001B0655D404F02003DBB21BB13B4B1B68C4
:10592000180652D404F04003DBB21BB1384B1B689D
:1059300019064FD4220603D5364B1B681B064ED4DE
:105940002B4B00221A7010BD344B1868FFF732FF42
:1059500082E7324B5868FFF72DFF85E72F4B986899
:10596000FFF728FF88E72D4BD868FFF723FF8BE769
:105970002A4B1869FFF71EFF8EE7284B5869FFF77F
:1059800019FF91E7254B9869FFF714FF94E7234B24
:10599000D869FFF70FFF95E7214B1868FFF71EFE48
:1059A00098E71F4B5868FFF719FE9BE71C4B986858
:1059B000FFF714FE9EE71A4BD868FFF70FFEA1E72A
:1059C000174B1869FFF70AFEA4E7154B5869FFF754
:1059D00005FEA7E7124B9869FFF700FEAAE7104BF8
:1059E000D869FFF7FBFDABE700800340B48EFF1FD3
:1059F000B28EFF1FB78EFF1F0C8003401480034040
:105A00001C800340248003402C80034034800340EA
:105A10003C80034044800340B68EFF1FB88EFF1FBA
:105A2000D88EFF1F08B50346A9B1481E72B693F879
:105A3000892090423ABF03EB8100006C0020914224
:105A400002D3002283F88B2062B605F0A7FB03493E
:105A500005F0B0FC08BD002008BD00BF00004042BA
:105A60007047FFFF034B10B504460360FAF77AFF57
:105A7000204610BD60CB000010B50446FFF7F2FFD2
:105A8000204602F087FA204610BD70B58AB0054660
:105A9000FAF794FF002849D0722305F11C04ADF8F1
:105AA000003028230026ADF80230012141F2010325
:105AB0002046ADF80430ADF80660FFF7B3FF0221D1
:105AC00002902046FFF7AEFF032103902046FFF728
:105AD000A9FF042104902046FFF7A4FF05210590AB
