:1000000000800020BD010000AD660000AD6600006C
:10001000AD660000AD660000AD66000079660000C8
:10002000796600007966000079660000AD66000020
:10003000AD66000079660000AD66000069660000EC
:10004000AD660000AD660000AD660000AD66000064
:10005000AD660000AD660000AD660000AD66000054
:10006000AD660000AD660000AD660000AD66000044
:10007000AD660000AD660000AD660000AD66000034
:10008000AD660000AD660000AD660000AD66000024
:10009000AD660000AD660000AD660000AD66000014
:1000A00061340000AD660000AD660000AD66000082
:1000B000AD660000AD660000AD660000AD660000F4
:1000C000AD660000AD660000AD660000AD660000E4
:1000D000AD660000AD660000AD660000AD660000D4
:1000E000AD660000AD660000AD660000AD660000C4
:1000F000AD660000B1790000AD6600003575000006
:10010000AD660000AD7D0000AD660000AD6600008C
:10011000AD660000AD660000AD660000AD66000093
:10012000AD660000AD660000AD660000AD66000083
:10013000AD660000AD660000355B0000AD660000F6
:10014000AD660000AD660000AD660000AD66000063
:10015000AD660000AD660000AD660000AD66000053
:10016000B5060000F57F0000AD660000AD6600003A
:10017000AD660000AD660000AD660000AD66000033
:10018000AD660000AD660000AD660000AD66000023
:10019000AD660000AD660000AD6600008D6B00002E
:1001A000DD6B0000656C0000216D0000A56D000096
:1001B000AD660000AD660000AD660000544B4CF229
:1001C000205210B51A804DF628121A8000BF00BFC9
:1001D00006F070FA4F4B4FF010621A604E4A9A6068
:1001E0004E4ADA604E4B1A6812F4807204D14D49BF
:1001F0000A604FF4A8521A604B4B1A7802F00802BA
:10020000D2B21AB11A7842F008021A70474B484825
:10021000484C2A221A700023474A02E01959995083
:10022000043399188142F9D3444B454A002101E037
:1002300043F8041B9342FBD34249434800231A5816
:100240005A500433B3F5DE7FF9D1404B404A802148
:1002500003F8011B9342FBD13A4A3E4B1A603E4BD6
:100260000A221A703D4B24221A70A02203F8012C96
:100270003B4A137803F00203DBB2002BF9D0384A73
:10028000137803F01003DBB2002BF9D1344A137852
:1002900003F00C03082BFAD1324B03221A704022D0
:1002A0005A702F4A137803F02003DBB2002BF9D0E9
:1002B0002B4A137803F04003DBB2002BF9D02A4B12
:1002C0002A4A1A6002225A60294B20221A70244AB4
:1002D000137803F00C030C2BFAD1264A264B1A6034
:1002E000264B4BF67F321A60072243F8042C62B685
:1002F00006F0FCFD0B4B1B68DC0702D5204806F01E
:1003000069FD0BF0ADFD06F0DBF908F0A5FBFEE79B
:100310000E20054030800440823F04000100002B85
:1003200010D0034014D0034002D0074000E0074043
:100330001C8DFF1FC0DA00006087FF1F1C8DFF1F90
:100340008092FF1F0082FF1F0000000000E400E019
:100350005FE400E008ED00E0005006400140064088
:10036000064006400440064044800440000003115B
:1003700000400640C01005000480044014E000E086
:10038000B90FB555FFFFFFFFFFFFFFFFFFFFFFFFA7
:10039000FFFFFFFFFFFFFFFFFFFFFFFFFFFFFFFF6D
:1003A000FFFFFFFFFFFFFFFFFFFFFFFFFFFFFFFF5D
:1003B000FFFFFFFFFFFFFFFFFFFFFFFFFFFFFFFF4D
:1003C000FFFFFFFFFFFFFFFFFFFFFFFFFFFFFFFF3D
:1003D000FFFFFFFFFFFFFFFFFFFFFFFFFFFFFFFF2D
:1003E000FFFFFFFFFFFFFFFFFFFFFFFFFFFFFFFF1D
:1003F000FFFFFFFFFFFFFFFFFFFFFFFFFFFFFFFF0D
:10040000FFFFFFFFFFFFFFFFFFFFFFFFFEFFFFFFFD
:1004100008B548F61C50074BC1F6FF701B1A062B97
:1004200000D808BD40F20003C0F20003002BF8D052
:100430009847F6E71F8DFF1F08B548F61C5048F691
:100440001C53C1F6FF70C1F6FF731B1A9B1003EB20
:10045000D373591000D108BD40F20002C0F200026F
:10046000002AF8D09047F6E710B548F61C54C1F6BC
:10047000FF74237873B9FFF7CBFF40F20003C0F29B
:1004800000032BB14DF6C020C0F20000AFF3008096
:100490000123237010BD00BF08B540F20003C0F275
:1004A00000034BB14DF6C02048F62051C0F20000C9
:1004B000C1F6FF71AFF3008048F61C50C1F6FF7023
:1004C00003682BB140F20003C0F2000303B1984768
:1004D000BDE80840B0E700BF42F2107007F0FCBA78
:1004E00008B5064800F0D4FA10B9044800F0E5FB5E
:1004F0000248BDE8084000F059BF00BF388DFF1F1B
:1005000010B5054C204600F05BFB0449044A204628
:10051000BDE810400BF086BC388DFF1F551300005E
:100520006087FF1F10B5002303710C4B0C22198844
:1005300001230B4208D1094A19431180084A118846
:1005400021EA0303138010BD04795B000134013AF2
:1005500004719BB2EDD1FF23037110BD948DFF1F79
:10056000908DFF1F2DE9F041984603790B2B04462F
:10057000174634D8CEB23046012106F067FC257903
:10058000184B19485E55194B44F2506223F8152058
:10059000012303FA05F503881D43154B05801A68EE
:1005A0000C214F4301FB08F112F480022780618087
:1005B00011D1196841F4800119600E4B4FF6FF719B
:1005C00019605A609A6042F6A27243F8042C02F550
:1005D000803243F8042C084B4FF480721A60207963
:1005E000BDE8F081AE8DFF1F908DFF1F968DFF1F20
:1005F0003C8004400460034008E100E003790B2BD9
:1006000010D8094A012101FA03F11388C9430B40AC
:100610001380064A1088014011801BB9044B4FF427
:1006200080721A60704700BF908DFF1F948DFF1F6E
:1006300088E100E00C2359430388994203DB438897
:100640009942B8BF0B4602790B2A9CBF014921F899
:1006500012307047968DFF1F13B504790B2C02469C
:1006600016D8B1F5087F04DB02B0BDE81040FFF7F3
:10067000E1BF1388528821EAE1700092B428A8BF34
:10068000B4200021B42208F0BDF9024B23F8140075
:1006900002B010BD968DFF1F03790B2B06D8044ABC
:1006A000108840FA03F000F0010070470020704706
:1006B000908DFF1F70B5334A334C118894F9003088
:1006C00041FA03F111F0010F154606D02F4A00211F
:1006D000D05C06F08FFB0C2323702D4B2C881978EF
:1006E00000234DB223E0581944FA00F6013316F006
:1006F000010F1CD0254B264C185C2270012106F0FE
:1007000079FB2378204A59B21370224A32F811102B
:10071000214A106808181060204A106809181160F2
:10072000013342F6A37142F80C1C237070BD5A18B5
:1007300050B20B28D7DD164B17491A700A68C2F55C
:100740006A3303F5C073B3F5966F05DB4EF6602090
:100750008342A8BF034601E04FF496639A180A60EB
:100760000E4908681B180B600D4B42F6A371196007
:100770000C4B9A4204D9084A00231360044A1370B0
:1007800070BD00BF908DFF1F6487FF1FAE8DFF1FE0
:10079000928DFF1F968DFF1F8C8DFF1F0C600340F5
:1007A000006003407FA9030030B585B0044600F027
:1007B00007F960B366238DF804300B2300258DF80C
:1007C0000530204641F20103ADF80630ADF808507F
:1007D00000F0F4F8216B8DF80A00E06B0BF02CF8B8
:1007E000616B0BF0E7F92B46CDF80B002A469DF81C
:1007F000050003E0C95C521892B20133834201A99B
:10080000F8DBE069ADF8082003681B69984705B07C
:1008100030BDFFFF074B10B504460360806B08B185
:1008200008F008F80023A363204600F09DF8204656
:1008300010BD00BFE0D0000010B50446FFF7EAFF8E
:10084000204607F0F7FF204610BD70B5C56A044684
:100850000E46084629460BF0B5FA30B9A56A30466F
:1008600029460BF091FA00B93546616B28460BF02A
:10087000EDF8216B0AF0E2FFE0630BF0ADFA2034F3
:1008800001462046BDE87040FFF7E6BED1F80710EC
:10089000FFF7DBBF10B504462030FFF7FDFE38B18F
:1008A000A36B2BB119682046BDE81040FFF7CDBF00
:1008B00010BDFFFFF7B50D9D0C9E009504461F4629
:1008C000092300F061F825461C4B45F8203B2846DB
:1008D000FFF728FE012F01D1032300E00423236446
:1008E000089B1749E362099BA3620A9B23630B9B46
:1008F000304663630BF03EFA20B9042007F096FF00
:10090000066000E000200023A063E36328464FF464
:10091000FA63216C4FF47A72FFF724FEA36B204632
:1009200013B1FFF7B7FF02E0E16BFFF78EFF204640
:10093000012100F041F82046FEBD00BFE0D00000DC
:1009400000C0794438B500F1200405462046FFF781
:1009500055FE2846002100F02FF82046FFF79CFEA8
:1009600080F00100C0B238BD014B0360704700BF8A
:10097000F8D00000034B10B50446036007F05AFF9F
:10098000204610BDF8D0000038B50446002523717C
:10099000049B25730648A3600B682060E16108464C
:1009A00065612261DB69214698472576204638BD7E
:1009B000F8D00000007970470173704700697047F4
:1009C000037E73B504460BB900201AE00D4B1B687B
:1009D0000193019D43698068EE1A0AF0DFFF0AF077
:1009E000C1FB02460B46002007490AF039FD0022F0
:1009F000064B0AF00BFC0AF0A3FE8642E4D96561BF
:100A000001207CBD848FFF1F0000F03F00408F401D
:100A100001767047014B0360704700BF10D10000A2
:100A2000034B10B50446036007F004FF204610BDD9
:100A300010D1000037B50C4D2B680093009A8368E5
:100A4000D31A8B4204460DD90D2006F0F3F9D0F1EC
:100A5000010138BF00210D2006F0CCF92B6801936D
:100A6000019BA3603EBD00BF848FFF1F01717047D3
:100A7000064B10B503600023044603718360012117
:100A80000D2006F0E3F9204610BD00BF10D1000094
:100A90000079704703790BB1642101E04FF47A715A
:100AA000FFF7C8BF704708B107F0C4BE704708B170
:100AB00007F0C0BE704708B107F0BCBE704708B170
:100AC00007F0B8BE704708B50368C9B21B689847FD
:100AD00008BDFFFF70B50E4C0D462046FD211646A1
:100AE000FFF7F1FF284606F0D1FF2368C1B21B686B
:100AF00020469847284606F0C9FF23680246294643
:100B00005B682046984720463146FFF7DCFF70BD02
:100B10002892FF1F10B505480C46FE21FFF7D3FFB2
:100B200061782046BDE8104006F074BA2892FF1F95
:100B300038B506480C46FE211546FFF7C4FF20468F
:100B40002946BDE8384006F065BA00BF2892FF1F6D
:100B5000002310B51A4603E0C45C121992B20133A7
:100B60008B42F9DB104610BD30B5144B85B01B68C5
:100B70000193019D836C40F6B832EB1A9342044610
:100B800019D90123072141F201028DF808308DF8AF
:100B90000E3002A800238DF80910ADF80A20ADF838
:100BA0000C30FFF7D5FF2368ADF80C001B69204619
:100BB00002A99847A56405B030BD00BF848FFF1F10
:100BC00070B50446FFF754FF0F4B00252360E56026
:100BD00025616561A561E56125626562A562E562E1
:100BE00025636563A5632565E56365642564182051
:100BF00007F01CFE064600F0B9FD2665A56484F8E2
:100C00004C50204670BD00BF40D100000269C3684F
:100C1000D31A70B505469E10002406E0EB6853F821
:100C2000240003681B6898470134B442F6DB70BDAA
:100C300038B500230C460B714B71084649781546B0
:100C4000FFF786FF2B1AA0805842584138BD826AB0
:100C5000436AD31A70B505469E10002406E06B6AFD
:100C600053F8240003681B6998470134B442F6DB4B
:100C700070BD13B569238DF8003008238DF801305D
:100C800041F20103ADF802300B78672B08BF0B89E6
:100C90008DF806304B7804468DF807300821002384
:100CA0006846ADF80430FFF753FF2368ADF8040041
:100CB0001B692046694698471CBD7FB50446FFF76F
:100CC000E7FE0646002839D1206D00F071FD50B9CD
:100CD00034E020462946AA88FFF7AAFF58B9206DBC
:100CE00000F058FD2AE0206D00F04EFD0378652BE2
:100CF0000546F4D1EDE72046A979FFF7B7FE204677
:100D00002946FFF7B6FF76238DF8043041F2010340
:100D10000A21ADF8063001A84FF080438DF8051088
:100D2000CDF80A30ADF80860FFF712FF2368ADF880
:100D300008001B69204601A99847D0E77FBD2DE92F
:100D4000F047CB889CB005460C460E2B00F2F18193
:100D5000DFE813F007016E0195017B01EF01A901A6
:100D60003B00A0018B010F0058015B019E00BC01FC
:100D70002B01C26983690026D31A4FEAA3083046C3
:100D8000464503DA002840F0D081AAE1002840F06F
:100D9000CC81442007F04AFDD4F816102289009136
:100DA000D4F81210D4F80E300191D4F81A10029130
:100DB000D4F81E100391D4F822100491D4F80A102C
:100DC00005912946FFF776FDAFE1826A436A002666
:100DD000D31A4FEAA3083046464503DA002840F00C
:100DE000A4818CE1002840F0A081B02007F01EFD16
:100DF0008046D4F812002789D4F80A600AF0B2F9C4
:100E0000CDE90001D4F80E000AF08AF9D4F81630C2
:100E10000493D4F81A300593D4F83A300693D4F8F2
:100E20003E30CDE90201D4F81E0007930AF078F9AC
:100E3000CDE90801D4F822000AF094F9CDE90A01BD
:100E4000D4F826000AF08EF9CDE90C01D4F82A0076
:100E50000AF088F9D4F82E301093D4F83230119378
:100E6000D4F836301293D4F842301393D4F8463085
:100E70001493D4F84A301593D4F84E30CDE90E01CE
:100E80001693404629463A46334601F0A1FA4CE112
:100E9000826A436A0026D31A4FEAA30830464645C1
:100EA00003DA002840F0418134E1002840F03D8120
:100EB000B02007F0BBFC8046D4F812002789D4F894
:100EC0000A600AF04FF9CDE90001D4F80E000AF0EB
:100ED00027F9D4F816300493D4F81A300593D4F8CF
:100EE0003A300693D4F83E30CDE90201D4F81E0022
:100EF00007930AF015F9CDE90801D4F822000AF0A9
:100F000031F9CDE90A01D4F826000AF02BF9CDE930
:100F10000C01D4F82A000AF025F9D4F82E301093E9
:100F2000D4F832301193D4F836301293D4F84230DA
:100F30001393D4F846301493D4F84A301593D4F868
:100F40004E301693D4F85230CDE90E011793D4F8F1
:100F500056304046189329463A46334600F0B8FFCB
:100F6000E3E0C36B002B40F0E080436AD1F8162029
:100F700053F82280D1F81A204C2053F8227007F041
:100F800055FCD4F80E1022890091D4F81210D4F830
:100F90000A300191D4F81E10CDF80880049103970F
:100FA0002946064601F0F2FD2AE0436AD1F81620F0
:100FB00053F822A0D1F81A2053F82290D1F81E201D
:100FC00053F82280D1F822205C2053F8227007F0D9
:100FD0002DFCD4F80E1022890091D4F81210D4F808
:100FE0000A300191D4F82610CDF808A00691CDF86A
:100FF0000C90CDF8108005972946064605F032F989
:10100000EE6392E01CAE0A2301E01CAE0B2306F84F
:10101000013D242007F00AFCD4F80A30228900930D
:10102000D4F80E3029460193334601F053FE7CE09C
:10103000242007F0FBFBD4F80E1022890091D4F88D
:101040000A30294601F0B0FE6FE04FF4927007F0CD
:10105000EDFB618AD4F80A2000910646D4F80E30E0
:10106000294602F0A5F86E645FE0242007F0DEFB5D
:1010700029462289D4F80E3004F03EF855E0FC20D1
:1010800007F0D4FB2946D4F80A20D4F80E3004F037
:10109000C1F84AE0AC2007F0C9FB2946D4F80A2081
:1010A00004F0D2FE41E0382007F0C0FBD4F8121063
:1010B00022890091D4F81610D4F80E300191D4F89A
:1010C0001A100291294604F063FF2EE0242007F055
:1010D000ADFB2946D4F80A20D4F80E3004F096FF70
:1010E00023E0AB69278953F82600FFF767FCB7EBCD
:1010F000000EDEF1000050EB0E00013640E66B6A98
:10110000278953F82600FFF759FC391A484248410D
:10111000013661E66B6A278953F82600FFF74EFC1B
:101120003A1A504250410136B9E628462146FFF7A7
:10113000A0FD1CB0BDE8F087F8B590E84800F61AAD
:10114000B61014BF334601239B1904460F466FF0B7
:10115000404603D2B34238BF1E4626B1B00007F066
:1011600065FB054600E0354662682368D31A9B108C
:1011700005EB83013A6809B145F8232094E8820021
:101180007F1ABF1003D02846BA000BF02BFA05EBEC
:1011900087072068FFF793FC0437256005EB860579
:1011A0006760A560F8BD091A38B58C10054613466E
:1011B00005D010462946A2000BF014FA034603EBB3
:1011C000840038BDF8B590E84800F61AB61014BF90
:1011D000334601239B1904460F466FF0404603D265
:1011E000B34238BF1E4626B1B00007F01FFB0546CC
:1011F00000E0354662682368D31A9B1005EB830133
:101200003A6809B145F823202A4694E80300FFF71D
:10121000CAFF07462068FFF74AFC0437256005EB44
:1012200086056760A560F8BD091A38B58C100546BB
:10123000134605D010462946A2000BF0D3F9034609
:1012400003EB840038BDF8B590E84800F61AB610F4
:1012500014BF334601239B1904460F466FF04046E6
:1012600003D2B34238BF1E4626B1B00007F0DEFA03
:10127000054600E0354662682368D31A9B1005EBEB
:1012800083013A6809B145F823202A4694E803000F
:10129000FFF7CAFF07462068FFF70DFC04372560FB
:1012A00005EB86056760A560F8BD38B542688468BF
:1012B000A24203460D4606D0096802B111605A6881
:1012C00004325A6038BDFFF7BEFF38BD091A38B581
:1012D0008C100546134605D010462946A2000BF097
:1012E00081F9034603EB840038BDF8B5C36806698D
:1012F000C269F61A8369D31A0446B6109F100025F6
:1013000004E053F82500FFF71DFB0135BD42A3693A
:10131000F7DBE269934218BFE361A26A636A934212
:1013200018BFA362002506E053F8250010B103683A
:10133000DB6898470135B542E368F5DB22699342E3
:1013400018BF2361002384F84C306364E363236493
:10135000F8BDFFFF0F4B10B504460360006D10B1E0
:1013600003685B689847002323652046FFF7BDFFAD
:10137000206BFFF7A4FB606AFFF79DFBA069FFF7F6
:1013800096FBE068FFF78FFB2046FFF743FB204604
:1013900010BD00BF40D1000010B50446FFF7DAFFD2
:1013A000204607F047FA204610BDFFFF2DE9F04127
:1013B000044688B0FFF76EFB206D00F073FA2046FC
:1013C000FFF766FB002840F02A81206D00F0C0FA8C
:1013D000002840F024812AE1206D00F0D5F905466F
:1013E00029462046AA88FFF723FC002800F0068142
:1013F0002B780C2B73D00ED8072B29D005D8022BB5
:1014000033D0062B40F0FA8045E0082B58D00B2B48
:1014100040F0F4805EE0512B54D005D80F2B74D0EF
:10142000132B40F0EB80C8E0672B19D0752B00F030
:101430008880652B40F0E2802046A979FFF716FBF3
:101440002046FFF725FB30B92046FFF74EFF02E0AC
:10145000AB7984F84C3020462946FFF70AFCCDE0F2
:1014600020462946FFF76BFCC8E0E269A369D31A5E
:101470009F1000260CE0A36953F82600FFF79EFAA0
:10148000AB7998424FEA860801D1A3694EE0013654
:10149000BE42F0DBB2E0A26A636AD31A9F10002654
:1014A0000BE0636A53F82600FFF788FAAB7998429D
:1014B0004FEA860800D138E00136BE42F1DB9DE0FC
:1014C000E06B08E0E06B002800F09880294601F00E
:1014D000B7F993E0606C002800F0908028E0626B20
:1014E000236BD31A9F1000260CE0236B53F82600C1
:1014F000FFF764FAAB7998424FEA860801D1236B73
:1015000014E00136BE42F0DB78E0A26A636AD31AC7
:101510009F10002612E0636A53F82600FFF74EFA88
:10152000AB7998424FEA860807D1636A53F80800FE
:10153000036829465B68984760E00136BE42EADBF3
:101540005CE011238DF804301A238DF8053041F248
:101550000103ADF80630E62100233648ADF8083027
:1015600002F08CF9E721CDF80A00324802F086F942
:10157000E821CDF80E002F4802F080F9E921CDF8DE
:1015800012002C4802F07AF9EA21CDF81600294819
:1015900002F074F99DF80550CDF81A00294601A80B
:1015A000FFF7D6FA2946ADF8080001A805F032FD8C
:1015B0000D212148FFF787FA20E02769E368FF1A29
:1015C000BF10002618E0E36853F82600FFF7F2F991
:1015D000AB7983424FEA860827D1E36853F82600A7
:1015E000FFF7ECF9EB7998421FD1E368297A53F8B9
:1015F0000800FFF70DFA01E0BE42E4DB206D00F0C9
:10160000C9F894F84C3093B12046FFF7FFFA204612
:10161000FFF71DFB206C50B103F026FE07E0206DA4
:1016200000F0C6F80028ECD0D6E60136E4E708B0B2
:10163000BDE8F081AD8EFF1F2892FF1FF8B590E83E
:101640004800F61AB61014BF334601239B1904460E
:101650000F466FF0404603D2B34238BF1E4626B154
:10166000B00007F0E3F8054600E0354662682368FD
:10167000D31A9B1005EB83013A6809B145F8232082
:101680002A4694E80300FFF721FE07462068FFF78B
:101690000AFA0437256005EB86056760A560F8BD8A
:1016A0001FB50369426901919342044605D003B115
:1016B000196023690433236103E00C3001A9FFF7AB
:1016C000BDFF0198FFF776F90238072834D8DFE824
:1016D00000F03133331616331F04E369216A019A8F
:1016E0008B42039205D003B11A60E3690433E361CE
:1016F00022E004F1180003A9FFF764FD1CE004A92F
:10170000019B04F1240041F8043DFFF7CEFD13E0F6
:10171000636BA16B019A8B42039205D003B11A60EF
:10172000636B0433636307E004F1300003A9FFF740
:1017300003FD01E0019B23641FBDFFFF054B10B5B6
:1017400004460360006908B107F076F800232361BE
:10175000204610BD70D1000010B50446FFF7EEFF23
:10176000204607F067F8204610BDFFFF054A0260DB
:10177000002202710261C260826042718271C27194
:10178000704700BF70D1000003790BB1006970474A
:101790001846704710B50446006908B107F04CF8C8
:1017A000002323612371A371E371E360A36010BD83
:1017B000007970470B780F2B2FD00ED8072B36D01F
:1017C00004D8022B29D0062B30D126E00B2B20D0B9
:1017D0000C2B20D0082B29D117E0652B0ED006D872
:1017E000512B14D0642B10D0132B1FD11CE06C2B69
:1017F0000BD0752B13D0672B18D101E0072316E00F
:101800000E23C3600123437112E00E230FE0122365
:101810000DE00A230BE0082309E00B2307E0062371
:10182000C3600123C37103E0092300E00023C36008
:10183000C068704770B50446C0680E4606F0F8FFF1
:101840000023054602E0C25CEA540133B34220693A
:10185000F9DB08B106F0F0FF256170BDCB880E2BD7
:101860001ED8DFE803F00E1919101D170A12190807
:1018700019190C191B00262311E052230FE05A23DB
:101880000DE022230BE0142309E00E23C3600123A3
:10189000037105E01E2302E0122300E02A23C36047
:1018A000C06870472DE9F843044605F0A5FB002801
:1018B0004CD02379002B49D144E005F09DFB002852
:1018C00033D0E368002B11DC05F050FB4146207556
:1018D000A5602046FFF76EFF06F0AAFFA368227DF1
:1018E0002061C254A3680133A3601EE0A6689E4233
:1018F0001BDAD4F8109005F039FB09F80600E3680C
:1019000001369E42A66010D163790BB927710CE0B5
:1019100021692046FFF7A2FF20463146FFF78AFFE4
:10192000657102E0012704F114082579002DC4D067
:10193000BDE8F88305F01AFBFE2807D10123A37147
:10194000BDE8F883A379002BECD1F3E7BDE8F88379
:10195000C0797047034B10B504460360FFF704F8E5
:10196000204610BD80D1000010B50446FFF7F2FFFD
:10197000204606F05FFF204610BDFFFF37B5069DED
:1019800000950446FFF700F8014B204623603EBD5A
:1019900080D10000084B10B504460360D0F8AC00BD
:1019A00008B106F047FF0023C4F8AC30204600F031
:1019B00009FB204610BD00BFA0D1000010B50446B1
:1019C000FFF7E8FF204606F035FF204610BD10B5B2
:1019D0000368017A1C7843681A78437A1A40837A3C
:1019E0000C4203F0030318BF43F004030AB143F0B1
:1019F00008039A10013B82720D2B14D8DFE803F024
:101A0000070A0D0A1310070710130A0D0A07C36807
:101A1000013307E0C368013B04E0C368023301E01F
:101A2000C368023BC36010BD70B5054600F0EFFA15
:101A3000D5F8AC400646237C72B6012B02D820466E
:101A4000FFF7C5FF62B6E368D5F8A800584309F070
:101A5000A9FF0146304609F0F1FE4FF07C5109F034
:101A6000F5FF70BD08B5034BD3F88400FFF7AFFF57
:101A700008BD00BFBC8DFF1F08B5034BD3F8800025
:101A8000FFF7A5FF08BD00BFBC8DFF1F08B5024BC7
:101A9000D86FFFF79CFF08BDBC8DFF1F08B5024B38
:101AA000986FFFF794FF08BDBC8DFF1F08B5024B70
:101AB000586FFFF78CFF08BDBC8DFF1F08B5024BA8
:101AC000186FFFF784FF08BDBC8DFF1F08B5024BE0
:101AD000D86EFFF77CFF08BDBC8DFF1F08B5024B19
:101AE000986EFFF774FF08BDBC8DFF1F08B5024B51
:101AF000586EFFF76CFF08BDBC8DFF1F08B5024B89
:101B0000186EFFF764FF08BDBC8DFF1F08B5024BC0
:101B1000D86DFFF75CFF08BDBC8DFF1F08B5024BF9
:101B2000986DFFF754FF08BDBC8DFF1F08B5024B31
:101B3000586DFFF74CFF08BDBC8DFF1F08B5024B69
:101B4000186DFFF744FF08BDBC8DFF1F08B5024BA1
:101B5000D86CFFF73CFF08BDBC8DFF1F08B5024BDA
:101B6000986CFFF734FF08BDBC8DFF1F08B5024B12
:101B7000586CFFF72CFF08BDBC8DFF1F08B5024B4A
:101B8000186CFFF724FF08BDBC8DFF1F08B5024B82
:101B9000D86BFFF71CFF08BDBC8DFF1F08B5024BBB
:101BA000986BFFF714FF08BDBC8DFF1F08B5024BF3
:101BB000586BFFF70CFF08BDBC8DFF1F08B5024B2B
:101BC000186BFFF704FF08BDBC8DFF1F08B5024B63
:101BD000D86AFFF7FCFE08BDBC8DFF1F08B5024B9D
:101BE000986AFFF7F4FE08BDBC8DFF1F08B5024BD5
:101BF000586AFFF7ECFE08BDBC8DFF1F08B5024B0D
:101C0000186AFFF7E4FE08BDBC8DFF1F08B5024B44
:101C1000D869FFF7DCFE08BDBC8DFF1F08B5024B7D
:101C20009869FFF7D4FE08BDBC8DFF1F08B5024BB5
:101C30005869FFF7CCFE08BDBC8DFF1F08B5024BED
:101C40001869FFF7C4FE08BDBC8DFF1F08B5024B25
:101C5000D868FFF7BCFE08BDBC8DFF1F08B5024B5E
:101C60009868FFF7B4FE08BDBC8DFF1F08B5024B96
:101C70005868FFF7ACFE08BDBC8DFF1F08B5024BCE
:101C80001868FFF7A4FE08BDBC8DFF1F08B521280A
:101C900000F2D580DFE810F0220027002C00310090
:101CA00036003C00410046004B00500055005A00F1
:101CB0005F00640069006E00730078007D008200A0
:101CC00087008C00910096009B00A000A500AA0050
:101CD000AF00B400B900BE00C300CD00594B0020D6
:101CE00019605949A0E0574B0120596057499BE0C2
:101CF000544B02209960564996E0524B0320D9601C
:101D0000544991E04F4B04201961024652498CE03E
:101D10004C4B05205961514986E04A4B0620996198
:101D20004F4981E0474B0720D9614E497CE0454B44
:101D3000082019624C4977E0424B092059624B490F
:101D400072E0404B0A20996249496DE03D4B0B20FF
:101D5000D962484968E03B4B0C201963464963E06F
:101D6000384B0D20596345495EE0364B0E20996390
:101D7000434959E0334B0F20D963424954E0314B7A
:101D80001020196440494FE02E4B112059643F49FF
:101D90004AE02C4B122099643D4945E0294B132021
:101DA000D9643C4940E0274B142019653A493BE08F
:101DB000244B15205965394936E0224B1620996588
:101DC000374931E01F4B1720D96536492CE01D4BB0
:101DD00018201966344927E01A4B192059663349EF
:101DE00022E0184B1A20996631491DE0154B1B2043
:101DF000D966304918E0134B1C2019672E4913E0AF
:101E0000104B1D2059672D490EE00E4B1E2099677F
:101E10002B4909E00B4B1F20D9672A4904E0094BE5
:101E2000C3F8801028492020042204F06DFE012010
:101E300008BD044B2120C3F884102449F4E7002096
:101E400008BD00BFBC8DFF1F7D1C00006D1C000085
:101E50005D1C00004D1C00003D1C00002D1C0000FE
:101E60001D1C00000D1C0000FD1B0000ED1B0000F0
:101E7000DD1B0000CD1B0000BD1B0000AD1B0000E2
:101E80009D1B00008D1B00007D1B00006D1B0000D2
:101E90005D1B00004D1B00003D1B00002D1B0000C2
:101EA0001D1B00000D1B0000FD1A0000ED1A0000B4
:101EB000DD1A0000CD1A0000BD1A0000AD1A0000A6
:101EC0009D1A00008D1A0000791A0000651A0000A2
:101ED000F0B599B0DDE91E45CDE90045DDE92045C5
:101EE000CDE90245229C0494239C0594249C0694ED
:101EF000259C0794DDE92645CDE90845DDE928451F
:101F0000CDE90A45DDE92A45CDE90C45DDE92C4559
:101F1000CDE90E452E9C10942F9C1194309C129468
:101F2000319C1394329C1494339C1594349C064633
:101F3000169400F04DFA214B1420336006F076FC25
:101F40009DF8D4709DF8D85004460221384604F01C
:101F50007DFF2846022104F079FF194A52F83730F4
:101F600003F5007121600121217252F83520617260
:101F700002F500700021E16060604FF4FA41013920
:101F8000FDD193F8003292F8002203F00103D2074A
:101F900044BF43F00203DBB2A37221463846FFF789
:101FA00075FE214620742846FFF770FE237C181822
:101FB0002074C6F8AC40304619B0F0BDA0D1000086
:101FC00070D400000C4B10B504460360806A08B161
:101FD00006F030FC206A10B103689B689847606A7D
:101FE00008B106F027FC002363622362A362204647
:101FF000FFF7B0FC204610BDC0D1000010B504466C
:10200000FFF7E0FF204606F015FC204610BD38B56E
:10201000446A0546237C72B6012B02D82046FFF79E
:10202000D6FC62B6E368D5F8A800584309F0BAFCBC
:1020300038BDFFFFFFFFFFFF2DE9F047444B86B09F
:102040001B6805938246059809F06AF8DAE91423BB
:10205000CDE9000108F026FFDAE9242306460F4601
:1020600000203C4909F0FCF900223B4B09F0CEF876
:1020700002460B463046394609F04EFB00285DD03B
:10208000DAF8003050465B69984709F06BF8DAE9F6
:102090001E23CDE9020108F005FF02460B4608F0B9
:1020A00003FF29A3D3E9002309F0B0F88046DAF84A
:1020B0009800894609F044F802460B4640464946D6
:1020C00009F0CEF900228046894630463946224B37
:1020D00009F0C6F902460B464046494609F0C0F9E8
:1020E000DAE9224502460B462046294609F08EF8D9
:1020F00022462B4606460F460020164908F0D2FE1F
:102100000446DAF848000D4609F02CF802460B4662
:102110002046294609F07AF802460B4630463946F1
:1021200008F0C2FE09F034FBDDE90223CAE91E23F0
:10213000DDE90023CAE91423CAF8480006B0BDE867
:10214000F08700BFAFF30080182D4454FB210940F5
:10215000848FFF1F0000F03F00408F40AFF30080EE
:10216000006A08B503681B68984708BD2DE9F74366
:102170001F4690F830308046164663B9194B846A82
:102180001B680193019808F0CBFF0022164B09F061
:1021900067F9C4E90401D8F86090012388F8303069
:1021A000484608F0DFFF32463B4604460D4609F03C
:1021B0009FFA60B909F1004008F0D4FF32463B466F
:1021C00004460D4609F0B2FA08B934463D46054BBF
:1021D0001B680093009BC8E92045C8F83430BDE86F
:1021E000FE8300BF848FFF1F00408F4010B5044660
:1021F000D1F8070008F0B6FF02460B462046BDE8BE
:102200001040FFF7B3BFFFFF13B5114B1B680193DD
:1022100090F83030019A0446C3B1436BD21A836BF5
:102220009A4213D9002200230021C0E91A2380F822
:1022300030100020A064206AC4E91C23C4E92023D4
:1022400003681B689847A06A00F012FA1CBD00BF23
:10225000848FFF1FFFFFFFFF036870B55B690646B1
:102260009847014609F0EAFA08F07CFF0AA3D3E98F
:10227000002308F0CBFF0446D6F898000D4608F07E
:102280005FFF02460B462046294609F0E9F809F0AF
:102290007FFA306470BD00BF182D4454FB21094003
:1022A0002DE9D343214B1B6801930446019808F0A4
:1022B00037FFD4E916238046894608F0F3FDD4E9B8
:1022C000282306460F460020194909F0C9F80022C4
:1022D000184B08F09BFF02460B463046394609F082
:1022E00025FA08B3E36B012B02D1A06C606403E014
:1022F0002046FFF7B1FF206C08F034FFC4E91A0153
:10230000A06A00F0BBF9E06A08F01AFFD4E91C23C8
:1023100008F07CFFC4E91689C4E91C0109F010FA31
:1023200001462046FFF71CFFBDE8DC83848FFF1FBA
:102330000000F03F00408F4010B50446FFF77CFEE0
:1023400094F8303023B12046BDE81040FFF7A8BF15
:1023500010BD10B50446FFF757FF2046BDE81040FA
:10236000FFF7EABF1FB50446FEF72AFB68B3A36C6C
:1023700063646A238DF800300F238DF80130204606
:1023800041F20103ADF80230FEF718FB8DF80600AC
:102390002046FFF761FF636CCDF80700CDF80B30E6
:1023A0000023ADF804309DF801101A4604E01DF832
:1023B0000300121892B201338B42F8DBE069ADF8EA
:1023C0000420036869461B6998471FBDFFFFFFFF94
:1023D0002DE9F0438DB0074600930623DDF86090A9
:1023E000199EFFF7CBFA624B3B60279BFB630023F0
:1023F00087F83030269BBB63DDE91C23C7E928231F
:10240000DDE91423C7E92223DDE91623C7E92423E4
:10241000259AC7F89820289AFA6240F2E7320024F9
:10242000002500230C209145C7E91A457B643B64D5
:10243000C7E91C45C7E91E45C7E92045984609D1AB
:1024400006F0F4F9314604464A4D04F0A9F83C621E
:1024500000240AE006F0EAF949460446324604F050
:10246000EBF83C6240A5D5E90045434E336809933B
:10247000099B7B6333680A930A9808F051FE33681E
:102480000B93C7E914010B9808F04AFEC7F848807F
:10249000C7E91601582006F0C9F9DDE91E23CDE988
:1024A0000023DDE92023CDE90223DDE92223CDE964
:1024B00004232A9B07F16802064607F17001069380
:1024C00007F1800300F09CF8BE621420C6E90645BF
:1024D00006F0ACF99DF868609DF86C500446022146
:1024E000304604F0B3FC2846022104F0AFFC234A36
:1024F00052F8363003F5007121600121217252F843
:102500003520617202F500700021E16060604FF4D7
:10251000FA410139FDD193F8003292F8002203F01C
:102520000103D20744BF43F00203DBB2A37221468A
:102530003046FFF7ABFB214620742846FFF7A6FB89
:10254000237C1818249B20743B66299B7C623846A8
:10255000C7F8A8300A21FEF72FFA38460DB0BDE8BB
:10256000F08300BFAFF300800000000000C05F40B8
:10257000C0D1000000407F40848FFF1F70D4000056
:10258000014A017042607047F491FF1F70B5044624
:10259000406803680E461B682178154698476068B6
:1025A000036831461B6898476068036829461B68C2
:1025B0009847606822780368B618A9191B6801F06B
:1025C0007F01984770BD7E2AA8BF7E226FF07D03F1
:1025D0009A42B8BF1A46002AB8BF5242D2B2FFF799
:1025E000D5BF10B54C1E012C09D802290CBF0421FF
:1025F000002101EBD271BDE81040FFF7E4BF10BD30
:1026000013B580E80E00DDE90423C0E90A23DDE903
:102610000623C0E90C23DDE90823C0E90E23124B91
:102620001B6801930446019808F07AFD00220F4BC5
:1026300008F016FF00220023C4E91223C4E9102386
:1026400007A3D3E90023C4E90401C4E906230A98D7
:1026500008F088FDC4E9140120461CBDAFF30080DA
:102660000000000000C05F40848FFF1F00408F40CB
:1026700000220023C0E910237047FFFF2DE9F04F2F
:10268000584B89B01B6807938046079808F048FDAF
:102690000022554B08F0E4FED8E90423CDE90401FB
:1026A00008F000FCD8F80820D8F8043082468B46A1
:1026B000D2E90001D3E9002308F0F4FBD8E90623AE
:1026C00004460D46D8E9140108F0A0FD52468146A3
:1026D0000E465B462046294608F098FDD8E91023AF
:1026E00008F0E2FB4A463346CDE9020109F01EF844
:1026F00010B14A46334611E006F1004C6346DDE96D
:1027000002014A46CDF804C008F0F2FFDDF804C02B
:1027100010B9DDE9022301E04A466346C8E9102307
:102720002046D8E90A23294608F070FDD8E910238D
:1027300006460F46D8E90C0108F068FD02460B4634
:102740003046394608F0B0FBD8E9122306460F465A
:102750002046294608F0A6FB52465B4608F080FE5C
:10276000D8E90E2308F052FD02460B4630463946A2
:1027700008F09AFBD8F800900B460246C9E90023FE
:10278000D8F818B0D8F81CA05A4653460E4607464B
:1027900008F0CCFF002818BF5F4618BF56463A46DF
:1027A0003346C9E90023D8F81C30D8F818B003F133
:1027B000004A5A4653463846314608F099FF0028E9
:1027C0000CBF3A465A460CBF33465346C9E900236C
:1027D000DDE90423C8E91245C8E9042309B0BDE8CE
:1027E000F08F00BF848FFF1F00408F40034B10B558
:1027F00004460360FEF7B8F8204610BDE0D10000A3
:1028000010B50446FFF7F2FF204606F013F8204605
:1028100010BDFFFF37B5069D1B7800950446FEF7F7
:10282000B3F8064B2360079B63639DF8243084F85C
:102830002030089B204623633EBD00BFE0D100004E
:1028400090F8203043B1D1F806308362D1F80A30D5
:10285000C362D1F80E304362704713B5D1F8063029
:102860000193D1F80A2002AB43F8082D026854699D
:1028700093E80600A0471CBD10B50446C06BFFF7E7
:10288000C3FCE06BFFF758FDA06BFFF7BDFCA06B2E
:10289000BDE81040FFF750BD2DE9F74302AB03E957
:1028A0000600476B009E019D04463946304609F0FC
:1028B00081F9216B8046284609F0C8F839468146DF
:1028C000384608F0BBFF0146484609F073F9014657
:1028D000404608F0B3FF08F045FC02460B46E06BAB
:1028E000FFF744FC676B3046394609F063F9216B0A
:1028F0000646284609F0AAF839460546384608F043
:102900009DFF0146284609F055F90146304608F07A
:1029100093FF08F027FC0246A06B0B4603B0BDE80E
:10292000F043FFF723BCFFFF034B10B504460360E1
:10293000FFF75CFF204610BD00D2000010B5044632
:10294000FFF7F2FF204605F075FF204610BDFFFFA0
:10295000F8B51046194614A3D3E9002308F0A4FAE9
:1029600013A3D3E9002306460F4606F0BFF9002261
:1029700004460D4630463946002308F0B9FE40B102
:10298000204629460AA3D3E9002308F08DFA04461D
:102990000D462046294604A3D3E9002308F082FA15
:1029A000F8BD00BFAFF30080182D4454FB2109404F
:1029B000182D4454FB21194038B50446C06BFFF76D
:1029C0004BFC616C054608F037FF616B09F03EF87F
:1029D000656438BD38B50446806BFFF73DFC216C5B
:1029E000054608F029FF616B09F030F8256438BD11
:1029F000002170B50646016041601046194600226C
:102A0000094B08F003FC04460D4606F0CDF808F02B
:102A1000BFFE2946B060204606F07CF808F0B8FEFC
:102A2000F060304670BD00BF0000E03F2DE9F04F80
:102A300091B08246FDF7C4FF002800F0A380504605
:102A4000FFF7BAFF04465046FFF7C4FF0546294684
:102A5000204608F0F1FEDAF8301009F0ABF8DAF8A9
:102A6000481008F0F3FFDAF8241008F0E7FECAF87F
:102A7000240008F077FB02460B465046FFF768FF3C
:102A800008F086FE29468346CAF82400204608F04E
:102A9000D5FE4FF07C5108F0D9FF08F063FB0646E5
:102AA00058460F4608F05EFB04460D4606F032F825
:102AB0000246DAF828000392029108F053FB039AC9
:102AC000029B804689463046394608F09FFB0B46FC
:102AD00002464946404608F0E7F908F059FE294603
:102AE0008446CAF828002046CDF804C006F05CF8F9
:102AF0000246DAF82C000392029108F033FB039AA5
:102B0000029B804689463046394608F07FFB0246E4
:102B10000B464046494608F0C7F908F039FE224600
:102B20000646CAF82C002B4605A85146FFF760FF61
:102B30006C23079A8DF824301A238DF82530DDF8A0
:102B400004C0CDF8362041F20103089AADF82630D2
:102B50000023CDF83A20ADF82830CDF82AC0CDF8C2
:102B60002E60CDF832B01A4609A9505C01321B180C
:102B70001A2A9BB2F8D1DAF81C00ADF828300368A5
:102B80001B69984711B0BDE8F08FFFFF70B586B0A4
:102B900006AD002605F8016D00930A9B01930B9B7F
:102BA0000293012303932B460446FFF733FE084BA1
:102BB00023600C9BA3630D9BE36300232364636486
:102BC0006362A362E3620E9B2046A36406B070BDFD
:102BD00000D200007047FFFF034B10B504460360AE
:102BE000FDF7C2FE204610BD20D2000010B50446FD
:102BF000FFF7F2FF204605F01DFE204610BDFFFF47
:102C000038B5054690F8200003F080FE04462846BB
:102C1000FDF7D0FE0A28204606D108F0C3FE08F0D2
:102C2000A1FA0022104B06E008F0BCFE08F09AFA68
:102C300009A3D3E9002308F0E9FA09A3D3E90023A3
:102C400008F00EFC0022094B08F00AFC08F0A0FD79
:102C500038BD00BFAFF30080666666666666C94031
:102C600000000000E0FFEF400000B44000408F4053
:102C700030B585B00446FDF7A3FE40B36D238DF853
:102C800004300B2300258DF80530204641F2010366
:102C9000ADF80630ADF80850FDF790FE8DF80A004B
:102CA0002046FFF7ADFF2B46CDF80B002A469DF8D6
:102CB000050003E0C95C521892B20133834201A9B6
:102CC000F8DBE069ADF8082003681B69984705B098
:102CD00030BDFFFF73B5069E1B78079D0096044626
:102CE000FDF752FE0A4B012D236001D10E2304E0B3
:102CF000022D01D10F2300E01023236294F820005D
:102D0000002104F0A3F8102003F0D6FD20467CBD7E
:102D100020D20000704737B50446FDF751FE68B376
:102D20006E238DF80030082300258DF801302046F1
:102D300041F20103ADF80230ADF80450FDF73EFE5C
:102D40008DF8060094F8200004F074F8431B5842F4
:102D500058418DF807009DF801102B462A4604E0E3
:102D60001DF80300121892B201338B42F8DBE069C0
:102D7000ADF80420036869461B6998473EBDFFFF14
:102D8000034B10B504460360FDF7EEFD204610BD71
:102D900038D2000010B50446FFF7F2FF204605F0D8
:102DA00049FD204610BDFFFF13B5009301230446E3
:102DB000FDF7EAFD094B2360049B012B01D10B2396
:102DC00000E00C23236294F82000022104F03EF876
:102DD000102003F071FD20461CBD00BF38D200005A
:102DE000054B10B5044640F8743B01F0D1FE204677
:102DF000FDF7BAFD204610BD50D2000010B50446C4
:102E0000FFF7EEFF204605F015FD204610BDFFFF41
:102E100010B50446D03001F0FDFC036820671B6943
:102E20009847002812DD236FE0691A79E2B95B79CF
:102E3000D3B115E00121002384F8C83084F8C9100B
:102E400084F8CA1084F81411204605E0002384F8A1
:102E5000143120466FF00101BDE81040FDF7ACBD14
:102E6000036804495B6903E0036803495B69002266
:102E70009847DFE760D200007AD20000F8B5114829
:102E8000069D16461F460C4600F072FB31460D4863
:102E900000F014FA00210B4800F07AFB21460948A3
:102EA0003A4600F043FC002405E0064800F02EFA04
:102EB00028550134E4B2034800F01EFA0028F4D18A
:102EC000F8BD00BF988EFF1F1FB503AB00936821AC
:102ED00002234122FFF7D2FF9DF80C009DF80D3030
:102EE00043EA002000B205B000BDFFFFFFFFFFFF77
:102EF0002DE9F0417A4B94B01B680393DDF80C8008
:102F0000C36E0446B0F82001C3EB080508F046FD87
:102F100008F028F902460B460020724908F0A0FA92
:102F20000022714B08F072F908F00AFC854240F269
:102F3000CA80206F03689B699847002800F0C18011
:102F400094F81531002B40F08A8004A800F02AFD87
:102F500007A800F027FD0AA800F024FD216F04A8AF
:102F6000143100F0FDFC216F07A8083100F0F8FCD7
:102F7000216F0AA8203100F0F3FC236FDB6A04AA5A
:102F800007A9009304F174000AAB01F031FF206F30
:102F900003681B6A984710A800F0C0FE0DA800F057
:102FA00001FD04F1BC010DA800F0DAFC04F1AC0154
:102FB00010A800F0E7FD049B2362059B6362069B5B
:102FC000A362079BE362089B2363099B63630A9BDD
:102FD000A3630B9BE3630C9B2364109B6364119BB3
:102FE000A364129BE364139B20462365FFF76CFFE9
:102FF00008F0D8FC08F0B6F835A3D3E9002308F0B0
:103000002FFA0022394B07F04FFF08F0C1FB606533
:103010000E980F9E0D9D08F0A5F82FA3D3E900236D
:1030200008F0F4F808F0B4FBA065304608F09AF810
:1030300029A3D3E9002308F0E9F808F0A9FB616EA1
:1030400008F0FAFBE065284608F08CF822A3D3E9E3
:10305000002308F0DBF808F09BFB206631E094F8D1
:103060001661FEB90DA800F09DFC216F0DA820315E
:1030700000F076FC25460DABD5F8FC10F758384625
:1030800008F082FE08B1C5F8FC703846D5F8081182
:1030900008F098FE08B1C5F80871043604350C2E06
:1030A000E9D10EE00025012384F8FA3084F81551A7
:1030B00084F81651284604F1F80101F0C1FF236F8E
:1030C0001D71C4F86C8014B0BDE8F081AFF30080CE
:1030D00052B81E85EBDD7440F8C1631ADCA54C4084
:1030E000848FFF1F0000F03F00408F4000003540FC
:1030F00010B5044690B0FFF7FBFE2046FDF760FCDC
:10310000002841D0E26ACDF80A20226BCDF80E20CB
:10311000626BCDF81220226ACDF81620626ACDF8D3
:103120001A20A26ACDF81E20A26BCDF82220E26BF5
:10313000CDF82620226CCDF82A20626CCDF82E2006
:10314000A26C6F23CDF83220E26C8DF804303A2364
:103150008DF80530CDF8362041F20103226DADF82F
:1031600006300023CDF83A20ADF808301A4601A900
:10317000505C01321B183A2A9BB2F8D1E069ADF8D5
:10318000083003681B69984710B010BD0023036224
:10319000C3628363836443620363C363C364836200
:1031A0004363036403654FF07E5343647047FFFF3E
:1031B00037B504461D46009203230022FDF7E4FBC9
:1031C000194B204640F8743B01F008FD04F1D00093
:1031D00000F05DFB154800F01FF92046FFF7D6FF11
:1031E00020460021FDF7E8FB0023A3662366A365C4
:1031F000E3656365BDF8183065660025A4F82031E5
:10320000C4F81C51C4F8185184F8145184F81551AD
:10321000E5662046FFF7FCFD94F814310BB184F805
:10322000165120463EBD00BF50D20000988EFF1FB1
:1032300010B5044604F1F801002001F017FF002347
:1032400084F8FA30084B094AC4F80831C4F80C3144
:10325000C4F81031236FC4F8FC20C4F80021C4F86E
:10326000042101221A7110BD809618CB8096184B4C
:1032700010B590F81531D1F8062004460BB112B103
:1032800010BD22B910BD012380F8163110BD80F8A1
:103290001631FFF7CDFF012384F8153110BDFFFF74
:1032A000054A137803F00203DBB2002BF9D0024B7E
:1032B00002221A70704700BF03600640094B1B785A
:1032C00013B9094B1B782BB1084A1378202B03D96B
:1032D00001230371002070470548C1540133137066
:1032E00001207047AA8EFF1F6D8EFF1FAB8EFF1F40
:1032F0004C8EFF1F7047FFFF024B1878024B1B7864
:10330000C01A7047A98EFF1FA88EFF1F064A0749E3
:1033100013780978994204D90549C85C01331370C0
:1033200070474FF0FF307047A88EFF1FA98EFF1F18
:103330006E8EFF1F054B064A1B7812789A4202D9FF
:10334000044AD05C70474FF0FF307047A88EFF1FD3
:10335000A98EFF1F6E8EFF1F38B50E4B1B781446CB
:1033600013B90D4B1B788BB10C4B1D78C5F12103A4
:103370009C4202D9012202711C460948224640198A
:1033800009F076F8054B2D191D7000E01C4620460B
:1033900038BD00BFAA8EFF1F6D8EFF1FAB8EFF1FB3
:1033A0004C8EFF1F10B5104B1B7813F020040BD16F
:1033B000122003F0D3FB0D4B1B68A3B10C4A147011
:1033C0000C4A1078984710BD0B4A13780133DBB2D2
:1033D000012B137002D8094B1B7823B91220BDE8CA
:1033E000104003F0BBBB10BD03600640488EFF1FBA
:1033F000A88EFF1FA98EFF1F948EFF1F6D8EFF1FCB
:10340000002202710273034A4FF47A7181600260F4
:10341000704700BFA8D200000C4B00221A700C4B62
:10342000196841F0400119600A4B0B491A704FF4BA
:1034300019720A6041F8042C084A272111700421EE
:1034400051712021117180221A7070476D8EFF1FFB
:1034500034800440026006400CA004400160064035
:1034600010B5374A137803F01001C9B221B903F03F
:103470004002D2B242B92EE01021117003F0400296
:10348000D2B2002AF3D110BD13F004032D4A18D094
:10349000002313702C4A13702C4B1B68144603B185
:1034A000984722782A4B1AB927491A7001200870C8
:1034B000284AD02111701A78274B1A700122274B05
:1034C00021E001211170264A1370224BC0221A708C
:1034D00002331B7830E01F4A1F4C117811F01001A5
:1034E00017D013F0010310D11C4917480A7800784F
:1034F000904205D9164B9B5C013223700A7000E0A4
:103500002370144BD0221A7016E0C0231370237856
:1035100012E0144B122019700322134903F0F4FA3D
:103520000F4A207813781F2B06D80649097819B15D
:103530000E49C85401331370014B02221A7010BD9A
:1035400003600640448EFF1FAB8EFF1F908EFF1F4F
:103550004C8EFF1F0260064004600640AC8EFF1FC9
:10356000A98EFF1F948EFF1FA53300006E8EFF1FD4
:10357000044B054A4900197001231370034A137064
:10358000704700BF4C8EFF1FAA8EFF1FAB8EFF1F20
:103590002DE9F041204B12221A70204A0D46117875
:1035A00001F02001C9B211B1B42313700BE0194628
:1035B0000A7802F02002D3B2002BF9D1184A137016
:1035C000164BB0221A700024164E174FDFF8608099
:1035D00013E03B5D88F80030FFF762FE0E4B1B786E
:1035E000DA0704D5002C14BF032002200BE003F0FF
:1035F0001003DBB233B90134E4B23378A342E8D824
:10360000002000E0042015B1044B80221A70074B03
:1036100000221A70BDE8F081036006400260064097
:103620006D8EFF1FAB8EFF1F4C8EFF1FAA8EFF1FDC
:10363000046006402DE9F0471446344A1E46002334
:103640001370334A1370334B12221A70324A1078B7
:1036500000F02000C0B210B1B42313700BE0184684
:10366000027802F02002D3B2002BF9D12B4A13705A
:10367000294BB0221A704900294D41F001012970EF
:10368000FFF70EFE234B244A1B7813F0110F04D0D2
:10369000802313700020BDE8F0872CB9002E0CBFEA
:1036A000A02680261670F5E7012C01D1A82300E0A2
:1036B000A02313702B781B4FDFF86480DFF858903D
:1036C00025464FF0A80A0BE0013DEDB2FFF7E8FDFB
:1036D000012D08BF89F800A098F8003007F8013FD5
:1036E000012DF1D1FFF7DCFD0B4B0F49B0221A7011
:1036F0000B4A1078621ED2B2885420460EB1802246
:103700001A70034B1C70BDE8F08700BFA88EFF1F26
:10371000A98EFF1F03600640026006406D8EFF1FEA
:10372000046006406D8EFF1F6E8EFF1F0123FFF7A2
:1037300081BF0121FFF72CBF0148FFF761BE00BF29
:10374000988EFF1F2DE9F04F1546324A89B09A46F0
:1037500013680291059300240746BDF84860DDF820
:103760001480A1462FE02C483946FFF701FF02994B
:103770002948FFF7A3FD2848FFF7DBFF2648394615
:10378000FFF7F6FE2A1B202AA8BF2022224839462E
:10379000D2B2FFF7CBFF4AFA89F34FF0000B039345
:1037A0000BEB0901C9B21C480191FFF7A5FD019976
:1037B000E8B11EB3174B186806900698C8EB0000D6
:1037C000B0421BD313E0AC42CDD36EB1114A1268A4
:1037D0000792079AC8EB0208B04505D34FFA89F261
:1037E000AA42B8BF4FF0FF094FFA89F00FE0202D31
:1037F00094BF64192034E4B28946E4E70648FFF731
:1038000085FD039B03F80B000BF1010BC8E709B022
:10381000BDE8F08F848FFF1F988EFF1F13B51446ED
:10382000009301222346FFF78DFF1CBDF8B5074624
:103830000C460D48394615461E46FFF799FE2146AF
:103840000948FFF73BFD002403E0315DFFF736FD3B
:103850000134E3B2AB420448F7D3FFF76AFFD0F17B
:10386000010038BF0020F8BD988EFF1F07B502ABDE
:1038700003F8012D0122FFF7D9FF0EBD084603F022
:1038800001B90846114603F011B903F0BFB84FF073
:10389000FF320260502202612822426103228261CB
:1038A000C261102202624262682202717047FFFF09
:1038B00010B50B4C4FF07C51A4EB600408F0C6F837
:1038C000214608F0C3F8214608F0C0F801464FF041
:1038D0007F5007F0B1FF0146204608F0B7F810BD51
:1038E000DF59375F70B5044616460D4602784078BA
:1038F000B3B140EA022000B208F054F8314608F0B3
:10390000A5F82860E378A07843EA002000B208F028
:1039100049F8314608F09AF868602079637915E033
:1039200042EA002000B208F03DF8314608F08EF877
:103930002860A378E07843EA002000B208F032F86B
:10394000314608F083F868606079237943EA002003
:1039500000B208F027F8314608F078F8A86070BD8A
:10396000884205D00B6803604B6843608B688360B6
:10397000704738B504460D460068096807F05CFFDB
:1039800020606968606807F057FF6060A968A068F8
:1039900007F052FFA060204638BD0023036043605B
:1039A0008360704710B50446FFF7F7FF204610BD4F
:1039B00070B505460C460068096808F047F861686C
:1039C0000646686808F042F80146304607F036FFC0
:1039D000A1680646A86808F039F80146304607F0A5
:1039E0002DFF70BD2DE9F047D1F808A0D0F8088070
:1039F00005460C4650466968164608F027F8616887
:103A00000746404608F022F80146384607F014FF02
:103A10003060D4F800902F684046494608F016F808
:103A200051468046384608F011F80146404607F0F6
:103A300003FF70606168384608F008F8696804465A
:103A4000484608F003F80146204607F0F5FEB0604E
:103A5000BDE8F0872DE9F041D0F80080476886681E
:103A600041460446404607F0F1FF394605463846D0
:103A700007F0ECFF0146284607F0E0FE3146054618
:103A8000304607F0E3FF0146284607F0D7FEFFF770
:103A90000FFF0021054608F06DF9A0B928464FF048
:103AA0007E5108F067F970B92946404607F0CEFF0D
:103AB00029462060384607F0C9FF29466060304635
:103AC00007F0C4FFA060BDE8F0812DE9FF410E467C
:103AD00007C801AB83E807001846FFF7BBFF029851
:103AE00007F040FB044603980D4607F03BFB0246F7
:103AF0000B462046294605F0F7F807F049FE3060EE
:103B0000019807F02FFB04460298DDF80C800D4663
:103B1000014607F09BFF41460746404607F096FFE7
:103B20000146384607F08AFE07F01CFB05F03AF91B
:103B30000B4602462946204605F0D6F807F028FE37
:103B4000002300F100407060B360BDE8FF810346D0
:103B5000006870B501465E689D6807F077FF3146E2
:103B60000446304607F072FF0146204607F066FE25
:103B700029460446284607F069FF0146204607F01B
:103B80005DFE70BD884207D00B6803604B684360E0
:103B90008B688360CB68C360704770B505460E467E
:103BA00000242859315907F049FE28510434102CBB
:103BB000F7D1284670BD70B505460E460024285939
:103BC000315907F039FE28510434102CF7D128461A
:103BD00070BDF0B58BB0044601A80D46FFF7DDFEC1
:103BE00004A8FFF7DAFE07A8FFF7D7FE6368019382
:103BF000A3680293E36803936B680493AB6805932F
:103C0000EB6804A901A80693FFF7D2FE07AA0746AE
:103C100004A901A8FFF7E6FE26682968304607F0E8
:103C200015FF394607F008FE04992060304607F07A
:103C30000DFF2D6801990746284607F007FF01464A
:103C4000384607F0FBFD079907F0F8FD059960601D
:103C5000304607F0FBFE02990746284607F0F6FEBD
:103C60000146384607F0EAFD089907F0E7FD069996
:103C7000A060304607F0EAFE03990646284607F0A2
:103C8000E5FE0146304607F0D9FD099907F0D6FD5B
:103C9000E06020460BB0F0BD38B5044600680D4624
:103CA00007F0D4FE29462060606807F0CFFE294661
:103CB0006060A06807F0CAFE2946A060E06807F0CF
:103CC000C5FEE060204638BD38B5044615460FC92C
:103CD00084E80F0020462946FFF77BFF204638BDC9
:103CE00038B5044615460FC984E80F00204629461A
:103CF000FFF7D2FF204638BD38B5044615460FC938
:103D000084E80F0020462946FFF755FF204638BDBE
:103D10000023036043608360C360704710B50446AE
:103D2000FFF7F6FF204610BD2DE9F843D0F80090CC
:103D3000D0F804808768C66849460446484607F0BC
:103D400085FE41460546404607F080FE014628466E
:103D500007F074FD39460546384607F077FE014600
:103D6000284607F06BFD31460546304607F06EFEEB
:103D70000146284607F062FDFFF79AFD002105463F
:103D800007F0F8FFC8B928464FF07E5107F0F2FF60
:103D900098B92946484607F059FE29462060404612
:103DA00007F054FE29466060384607F04FFE29466A
:103DB000A060304607F04AFEE060BDE8F883FFFFF0
:103DC0002DE9F8430746D0F80890D0F804800E4655
:103DD0004846F96807F03AFE39680446404607F05D
:103DE00035FE0146204607F029FD07F0BBF90246E3
:103DF0000B4607F059F804460D464046414607F089
:103E000025FE49468046484607F020FE01464046CA
:103E100007F014FD07F0A6F902460B4607F044F838
:103E200002460B460020304907F03CF802460B469C
:103E30002046294604F058FF07F0AAFCB968306014
:103E4000386807F003FEF9680446786807F0FEFD5D
:103E50000146204607F0F0FC07F084F902460B46C5
:103E600007F022F804F0ECFE07F092FCD7F8089077
:103E700079687060484607F0E9FDD7F80C8039682A
:103E80000446404607F0E2FD0146204607F0D6FC16
:103E900007F068F902460B4607F006F804460D469F
:103EA0004846494607F0D2FD41460746404607F0DE
:103EB000CDFD0146384607F0C1FC07F053F9024634
:103EC0000B4606F0F1FF02460B460020064906F0BD
:103ED000E9FF02460B462046294604F005FF07F09D
:103EE00057FCB060BDE8F8830000F03F2DE9F74FC4
:103EF00004460D4608684FF07C5107F0A7FD07F017
:103F000031F906460F4604F005FE07F041FC39463C
:103F10008146304604F048FE07F03AFC4FF07C51F1
:103F20008346686807F092FD07F01CF906460F46C5
:103F300004F0F0FD07F02CFC39468246304604F0D0
:103F400033FE07F025FC4FF07C510190A86807F084
:103F50007DFD07F007F906460F4604F0DBFD07F08C
:103F600017FC39460546304604F01EFE07F010FCEB
:103F700051460646484607F069FD01998046584675
:103F800007F064FD29460746404607F05FFD3146CD
:103F900003463846009307F059FD009B014618463A
:103FA00007F04CFC51462060584607F04FFD019940
:103FB0008246484607F04AFD29468146504607F0AA
:103FC00045FD31468346484607F040FD01465846C8
:103FD00007F032FC29466060484607F037FD31465D
:103FE0008146504607F032FD0146484607F026FC60
:103FF0003146A060404607F029FD2946064638466E
:1040000007F024FD0146304607F016FCE06020462C
:1040100003B0BDE8F04FFFF787BE38B50D46044644
:10402000FFF776FE2B6823606B6803F10043636043
:10403000AB6803F10043A360EB6803F10043E36066
:10404000204638BD4079704700487047C0D2000014
:1040500005207047436B4FF4C87090FBF3F0704736
:10406000034B10B50446036000F0C0FB204610BDB2
:10407000D8D2000010B50446FFF7F2FF204604F046
:10408000D9FB204610BDFFFF10B5044600F0CEFB63
:10409000014B2046236010BDD8D200004B1FB3F562
:1040A000797F4FF0000308D24FF47A724163B2FB7C
:1040B000F1F18163C3630120704718467047FFFF29
:1040C000112907D8044A4BB29A4003D580F88B10C7
:1040D000012070470020704700C000FE082907D863
:1040E000044A4BB29A4003D580F88C1001207047E7
:1040F00000207047000080FE4B1E632B03D8C0F8E1
:1041000090100120704700207047FFFF08290BD056
:1041100001D829B117E010290AD0182913D10BE0D2
:1041200080F89410094B0AE080F89410084B06E0E0
:1041300080F89410074B02E0074B80F89410C0F809
:104140009830012070470020704700BFFDB30B3945
:10415000A9689239787D0B3A787D8B3A08290CD082
:1041600001D829B11BE010290CD0182917D10EE075
:1041700080F895104FF062530DE080F895104FF0E5
:10418000645308E080F895104FF0665303E080F820
:1041900095104FF06853C0F89C3001207047002004
:1041A000704710B538210446002290F88900FFF7C7
:1041B0005DFB00282DD094F8890023210022FFF711
:1041C00055FB30B394F889006A210022FFF74EFBBB
:1041D000F8B194F889006A210422FFF747FBC0B1C7
:1041E00094F889006A216022FFF740FB88B13220F1
:1041F00002F066FE94F8890038210122FFF736FBB1
:1042000038B194F8890023217822BDE81040FFF7E7
:104210002DBB002010BDFFFF70B5514E8AB0338812
:104220000446722190F889000093022203ABFFF745
:1042300089FA00B911E09DF80C509DF80D3003EBA0
:104240000525B5F5806F0AD12046FFF7AAFFE36A7E
:10425000A26B562101FB0233E36200207EE0B5F53C
:10426000F07F11D9338894F88900009374210C22CF
:1042700007ABFFF767FA0028EFD0E26AA36B0C3DAB
:10428000D318E362772DECE70B2DE6D9344D94F883
:1042900089002B88742100930C2207ABFFF752FA98
:1042A0000028DAD02B8894F889000093492108224D
:1042B00005ABFFF747FA0028CFD007A804F1140197
:1042C000D4F89C200123FFF70DFB0DF1220004F12F
:1042D0000801D4F898200123FFF704FB214A0DF1CF
:1042E000150004F120010023FFF7FCFAE368206ABF
:1042F000D4F8A01003F10043E360236903F1004305
:104300002361636903F10043636107F09FFBD4F805
:10431000A4100546606A07F099FBD4F8A810064679
:10432000A06A07F093FB05F10045A06226622046D3
:10433000656200F001FB204600F0AAFB94F888308B
:1043400023B1094B1B680493049B02E0E26AA36B50
:10435000D318E362002384F8883001200AB070BDCE
:104360006687FF1F9A99193F848FFF1F13B5164B5D
:1043700004466A2190F889001B880DF10702FFF7B7
:104380004DFA08B900201DE09DF8072094F8890037
:1043900022F0200242F002026A218DF80720FFF786
:1043A00065FA0028EED0322002F08AFD94F88900E8
:1043B00037218222FFF75AFA0028E3D0322002F098
:1043C0007FFD01201CBD00BF6687FF1F13B5144B86
:1043D00004466A2190F889001B880DF10702FFF757
:1043E0001DFA08B900201AE09DF8072094F889000A
:1043F00042F020026A218DF80720FFF737FA0028E3
:10440000F0D0322002F05CFD94F889003721802240
:10441000FFF72CFA18B1322002F052FD01201CBD2A
:104420006687FF1F38B590F88B5090F89430C5F32D
:10443000C102D21804461B2190F88900D2B2FFF7BE
:1044400015FA40B194F889001A2105F00702BDE879
:104450003840FFF70BBA38BD10B504461C2190F860
:10446000890094F89520FFF701FA40B194F889008B
:1044700094F88C201D21BDE81040FFF7F7B910BD5E
:10448000436BB3F57A7F0ADC4FF47A7292FBF3F355
:104490005A1E90F889001921D2B2FFF7E7B901201E
:1044A0007047426BD0F8903090F8890092FBF3F29D
:1044B000013A1F2AA8BF1F223421D2B2FFF7D6B972
:1044C0001FB5012380F88830036B1A79044680F801
:1044D00089201969FFF7E2FD236B20465969FFF730
:1044E0000BFE236B2046197EFFF7EAFD236B204667
:1044F000197FFFF7F3FD236B204693F82010FFF799
:1045000005FE236B204693F82410FFF727FE204674
:1045100000F0B2F994F889006B218022FFF7A6F928
:10452000002800F01881642002F0CAFC94F8890089
:104530006B210022FFF79AF9002800F00F81A74BAA
:1045400094F889001B8875210DF10B02FFF766F9BD
:10455000002800F006819DF80B30712B40F004819B
:104560002046FFF75FFF002800F001812046FFF79B
:1045700073FF002800F0FE802046FFF781FF00282F
:1045800000F0FB802046FFF7F1FE002800F0F880E5
:104590000C200A210022FFF769F928B92046FFF70D
:1045A00015FF6FF00B0017E10C200A210F22FFF717
:1045B0005DF928B92046FFF709FF6FF00C000BE109
:1045C000864B1B880C200093102103220DEB000367
:1045D000FFF7B8F828B92046FFF7F8FE6FF00D0096
:1045E000FAE09DF80C0007F0D9F906F0BBFD0022B7
:1045F0007B4B06F057FC00227A4B06F007FE0022A8
:10460000794B06F051FC07F0C3F8C4F8A0009DF800
:104610000D0007F0C3F906F0A5FD0022704B06F06F
:1046200041FC00226F4B06F0F1FD00226E4B06F0BC
:104630003BFC07F0ADF8C4F8A4009DF80E0007F0AD
:10464000ADF906F08FFD0022654B06F02BFC002231
:10465000644B06F0DBFD0022634B06F025FC07F0FF
:1046600097F80A21C4F8A80000220C20FFF7FEF8F2
:1046700028B92046FFF7AAFE6FF00E00ACE02046F6
:10468000FFF7A4FE00287ED094F889002421402260
:10469000FFF7ECF8002879D094F8890025218C22C6
:1046A000FFF7E4F8002874D094F88900262102224C
:1046B000FFF7DCF800286FD094F8890027218822C2
:1046C000FFF7D4F800286AD094F8890028210C223A
:1046D000FFF7CCF8002865D094F8890029210A2238
:1046E000FFF7C4F8002860D094F889002A218122BD
:1046F000FFF7BCF800285BD094F889006421012200
:10470000FFF7B4F8002856D094F8890067210322F7
:10471000FFF7ACF8002851D02046FFF7C2FE002872
:104720004FD094F889006B210122FFF79FF80028F1
:104730004AD094F889006C210022FFF797F80028EE
:1047400045D02046FFF72DFD002843D0204600F03D
:10475000E5F8012040E04FF0FF303DE06FF003004E
:104760003AE06FF0040037E06FF0050034E06FF0DE
:10477000060031E06FF007002EE06FF008002BE03C
:104780006FF00A0028E06FF00F0025E06FF01000D6
:1047900022E06FF011001FE06FF012001CE06FF0DC
:1047A000130019E06FF0140016E06FF0150013E02D
:1047B0006FF0160010E06FF017000DE06FF01800BA
:1047C0000AE06FF01A0007E06FF01B0004E06FF0E2
:1047D0001C0001E06FF01D0004B010BD6687FF1FD4
:1047E000000060400000703F0000F03F014B03609C
:1047F000704700BF08D3000090F848007047FFFFE3
:10480000034B10B50446036004F014F8204610BDB5
:1048100008D3000038B50546B02004F007F8294653
:104820000446FFF731FC204638BDFFFF38B5114B79
:10483000044640F8083B0D46FFF7B4F804F11400B5
:10484000FFF7B0F804F12000FFF7ACF804F14C00DA
:10485000FFF7A8F804F15800FFF7A4F804F17C0072
:10486000FFF7A0F8002325632371637184F84830B3
:10487000204638BD08D300002DE9F043064689B034
:104880000020707101A900F0F1FB002841D09DF8D3
:104890000630012B3DD1204D6C4603AF60690434D6
:1048A000616806F0C9FF2946804607F08BFA00B11F
:1048B0004546BC42F2D12846002107F065FA40BBCC
:1048C00028464FF07C5107F0C1F835468146002458
:1048D00001AA13190434D3F810805F6840463946A2
:1048E00006F0AAFF4FF07C5107F0B0F801464846A9
:1048F00007F060F939462867404606F09FFF4FF001
:104900007C5107F0A3F8043528660C2CE0D1012374
:10491000737109B0BDE8F083000080BF10B5044694
:10492000406B07F03FF801464FF0804007F042F936
:1049300000232064636410BD2DE9F04300F15805A5
:10494000804695E8070085B001AC08F1140684E8BC
:10495000070031462046FFF70CF831462846FEF79F
:10496000FFFF2046FFF7F3F8454907F00DFA80B145
:1049700008F10800FFF7EBF8424907F005FA78B9AB
:1049800007E001329A42C8F8442002D1012388F896
:10499000483008F1080008F14C01FEF7EAFF6CE02E
:1049A000D8F84090484606F0DDFB02460B46002052
:1049B000354906F077FA0446D8F84C000D4606F063
:1049C000D1FB02460B462046294606F01FFC064650
:1049D0000F464846D8F8081007F038F806F0C2FB32
:1049E00002460B463046394606F05EFA06F0D0FE27
:1049F000C8F84C00D8F8500006F0B4FB02460B464D
:104A00002046294606F002FC06460F464846D8F8DE
:104A10000C1007F01BF806F0A5FB02460B463046CB
:104A2000394606F041FA06F0B3FEC8F85000D8F84F
:104A3000540006F097FB02460B462046294606F036
:104A4000E5FB04460D464846D8F8101006F0FEFF78
:104A500006F088FB02460B462046294606F024FA5B
:104A600006F096FED8F83430D8F84420C8F8540040
:104A700005214B439A4284DB8BE705B0BDE8F08308
:104A80000BD7233B0BD7233D0000F03FFFFFFFFF79
:104A9000037970B50646CBB94379BBB1006A716E34
:104AA00006F0CAFE316F06F0D1FFB16E3062706A57
:104AB00006F0C2FE716F06F0C9FFF16E7062B06A57
:104AC00006F0BAFEB16F06F0C1FFB062306A2E493F
:104AD00006F0BCFF06F046FB0446F06F0D4606F0FC
:104AE00041FB27A3D3E9002306F090FB02460B46C7
:104AF0002046294606F0D8F906F04AFE2249F0671A
:104B0000706A06F0A3FF06F02DFB0446D6F880007D
:104B10000D4606F027FB1AA3D3E9002306F076FB27
:104B200002460B462046294606F0BEF906F030FE46
:104B30001549C6F88000B06A06F088FF06F012FB3F
:104B40000446D6F884000D4606F00CFB0CA3D3E90E
:104B5000002306F05BFB02460B462046294606F082
:104B6000A3F906F015FE06F17C01C6F8840006F1F3
:104B70002000BDE87040FEF7F3BE00BFAFF3008039
:104B8000000000989999E93FCDCC4C3EAFF30080EE
:104B9000704730B5012385B080F85730044600F1E6
:104BA000480501A8FEF7FEFE01A92846FEF7D8FE3B
:104BB000294604F13800FFF799F904F12C0501A802
:104BC000FEF7F0FE01A92846FEF7CAFE04F11C001C
:104BD0002946FFF78BF905B030BDFFFF10B504463D
:104BE0000430FFF79BF804F11C00FFF797F804F17D
:104BF0002C00FEF7D7FE04F13800FFF78FF804F120
:104C00004800FEF7CFFE084B6361084BA361012308
:104C1000204684F8543084F8553084F85630FFF735
:104C2000B8FF204610BD00BF6F12833A6F12033ADF
:104C30002DE9F04794B0064668460C461746FFF744
:104C40006DF804A8FFF76AF896F8552006F12C01D4
:104C50001AB12046FEF739FF06E0084606F1480182
:104C6000FEF77EFE0023736396F85630002B6CD05F
:104C7000F06A4FF07C5106F0E9FE06F073FA044644
:104C80000D4603F047FF06F083FD29468046204687
:104C900003F08AFF06F07CFD4FF07C518146306BBB
:104CA00006F0D4FE06F05EFA04460D4603F032FF2D
:104CB00006F06EFD29468246204603F075FF06F099
:104CC00067FD51460446404606F0C0FE514604903A
:104CD000484606F0BBFE21460590404606F0B6FE6B
:104CE0002146069009F1004006F0B0FE0023009333
:104CF0003B68079001937B680293BB686A4608A8EB
:104D000004A90393FEF7E0FF0CA804A9FFF785F9B7
:104D10000CAA10A808A9FEF7D7FF10A96846FEF74D
:104D200031FF029806F01EFA044601980D4606F07F
:104D300019FA02460B462046294603F0D5FF06F035
:104D400027FD00F10040706301E0336D736306F1ED
:104D50001C0806F12C0740463946FFF7C7F8DFF874
:104D60008C9000244FF0FF3506F11C03494653F8A0
:104D7000243023F0004A504607F024F808B1D14609
:104D800025460134042CEFD106EB85090021D9F822
:104D90001C40204606F0F8FF28B1D9F83800002161
:104DA00007F010F858B92046002107F00BF8D0B1F1
:104DB00006EB85050021A86B06F0E6FF98B1F369C4
:104DC00003F10043F361336A03F100433362736A12
:104DD00003F100437362B36A03F10043B3624046D8
:104DE0003946FEF7EDFF14B0BDE8F08700007AC445
:104DF0002DE9F04F04468DB002A81E460F4690469E
:104E0000169DFEF7CFFD94F85730ABB13246A5653D
:104E10002046414604F12C05FFF70AFF04F1380053
:104E20002946FFF763F804F148002946FEF798FD8C
:104E3000002384F85730FDE0A06D281A06F0AEFD7F
:104E40007E4906F0B7FEA5652060002106F0A6FFAA
:104E5000002840F0EF80414632462046FFF7E8FE4A
:104E6000636CD4F838A0019394F85430D4F83C80A3
:104E7000266C13B102A8394604E005A8FEF792FD9E
:104E800002A805A9FEF76CFD02984FF07C5106F0D0
:104E9000DDFD4FF07C510746039806F0D7FD4FF03B
:104EA0007C518146049806F0D1FD4146834607F1C6
:104EB000004006F0CBFD314603464846009306F01D
:104EC000C5FD009B25680146184606F0B5FC019912
:104ED00003465846009306F0B9FD009B014618466C
:104EE00006F0AAFC294606F0B1FD0146504606F040
:104EF000A5FC5146A063384606F0A8FD314603469E
:104F00005846009306F0A2FD009B0146184606F0A5
:104F100095FC019903464846009306F097FD009BD7
:104F20000146184606F088FC294606F08FFD01462A
:104F3000404606F083FC5146E063484606F086FD95
:104F4000414603465846009306F080FD009B01460B
:104F5000184606F071FC019903463846009306F0A6
:104F600075FD009B0146184606F068FC294606F0D0
:104F70006DFD0146304606F061FC514620645846FE
:104F800006F064FD41468246484606F05FFD014654
:104F9000504606F053FC31468046384606F056FD32
:104FA0000146404606F048FC294606F04FFD014602
:104FB000019806F043FC94F85630606408A813B9D1
:104FC00094F8553033B104F11C0104F13802FEF7B6
:104FD00093FE01E0FEF7A2FE04F1380508A9201DAA
:104FE000FEF7D0FD261D2A4608A804F11C01FEF795
:104FF00083FE08A93046FEF7C5FD2168606906F00A
:1050000025FDA169074606F019FC0146384606F061
:10501000D1FD3146024608A8FEF762FE08A92846DF
:10502000FEF7BBFD2846FEF77FFE284604F1480147
:10503000FEF7C6FE0DB0BDE8F08F00BF00007A4459
:1050400070B583004401E41AFC230B7015234B70E8
:1050500004F11C050E1B2146325D03480134FEF7A6
:1050600010FCAC42F7D170BDAD8EFF1F70B5830050
:105070004401E41A00238B700D460D482146FEF7CB
:10508000FDFBFC2812D1611C0948FEF7F7FB15282F
:105090000CD104F11C062D1B21460548FEF7EEFB42
:1050A00028550134B442F7D1012070BD002070BDF5
:1050B000AD8EFF1F7047FFFF034B10B50446036022
:1050C000FBF752FC204610BD38D3000010B5044653
:1050D000FFF7F2FF204603F0ADFB204610BD006A4B
:1050E000C0B201B1012101F085BEC979003118BFFC
:1050F0000121FFF7F4BFFFFF37B51D4600230093E2
:1051000008230446FBF740FC094B012D236001D125
:10511000062300E00723236294F82000012101F018
:1051200095FE20460121FBF747FC20463EBD00BF0F
:1051300038D300007047FFFF034B10B504460360EF
:10514000FBF712FC204610BD50D3000010B50446FA
:10515000FFF7F2FF204603F06DFB204610BDFFFF76
:10516000F0B587B00446FBF72BFC00284DD0712327
:105170008DF8003004F12007172300258DF8013049
:10518000384641F20103ADF80230ADF8045000F0AA
:1051900067F906F0FDFACDF80600384600F084F90C
:1051A00006F0F6FA84F89950CDF80A00D4F8A00079
:1051B00005F0C6FF0022164B06F052F906F0E8FA99
:1051C000D4F8C030CDF80E00ADF81230D4F8B030BD
:1051D00084F8B950ADF8143001238DF816302E46FE
:1051E00084F8A9509DF801102B462A4604E01DF8CA
:1051F0000300121892B201338B42F8DBE069ADF87C
:105200000420036869461B69984707B0F0BD00BFDA
:105210000000594037B504461D4600920223002283
:10522000FBF7B2FB20460F4B40F8203B00F02CF878
:1052300015B1C4F8F85003E04FF41653C4F8F83031
:10524000D4F8F830580800F1B76000F55840B0FBCA
:10525000F3F001F09FFF20460121FBF7ADFB204654
:105260003EBD00BF50D3000010B5044602F00AF95D
:10527000002808DD02F014F9C1B204F12000BDE8F5
:10528000104000F0D3BA10BD0346002110B502242F
:10529000017041708180816001824161818301627E
:1052A0000185C1621973197683F8241083F83010D0
:1052B00083F83810C16383F8391083F84810C1644B
:1052C00083F8491083F8581001660167C0F8801010
:1052D00083F8591083F8681083F8691083F8781000
:1052E00083F8791083F8881083F88910C0F890103B
:1052F00083F8981083F89910C0F8A01080F8B9408E
:1053000083F8A81083F8A91083F8BA1083F8BB10AB
:1053100083F8BC10C0F8C010C0F8C410C0F8C810A2
:10532000C0F8CC10C0F8D010C0F8D41083F8AA1080
:1053300010BDA1F14103052B02D8A1F13700704740
:10534000A1F16103052B94BFA1F15700A1F1300039
:10535000704738B50578B5F12D035D425D410446CF
:1053600005B1441C204606F063FD642343432246F6
:1053700014F8011BA1F130000928F8D92E2910D109
:105380005178A1F1300009280BD809B2C8009278F1
:1053900000EB4101303AA1F5F0715B18092A98BF82
:1053A0009B1805B15B42184638BDFFFF38B50C4667
:1053B000054606F03DFD6423B0FBF3F2124922805E
:1053C00003FB12034B432846014610F8012BA2F1C0
:1053D0003005092DF8D92E2A0CD108460A4A0A258B
:1053E00003E0B2FBF5F202FB013310F8011F303984
:1053F0000929F6D90522534301330322B3FBF2F303
:1054000063600023237238BD80969800034682B003
:1054100053F81C2F42605A6882601B7A037303465C
:1054200053F8282F02615A6842611B7A0376054BB4
:105430001B680193019B436301234370037002B017
:10544000704700BF848FFF1F00F11C0308461946F8
:10545000FFF7ACBF00F1280308461946FFF7A6BFC7
:10546000002370B543700646808805F069FE044647
:10547000B0680D4605F054FE09A3D3E9002305F0FA
:10548000EFFF02460B462046294605F00DFD0B4670
:10549000317B024609B103F100431046194670BD45
:1054A0000000000065CDCD41002370B54370064675
:1054B000008A05F045FE044670690D4605F030FE91
:1054C00009A3D3E9002305F0CBFF02460B46204693
:1054D000294605F0E9FC0B46317E024609B103F18D
:1054E00000431046194670BD0000000065CDCD4157
:1054F00083684360054B82B01B680193019BC360C6
:1055000001234370037002B0704700BF848FFF1FF8
:1055100083684360054B82B01B680193019BC360A5
:1055200001234370037002B0704700BF848FFF1FD8
:1055300010B504460846FFF70CFFA06010BD10B57B
:105540000446084606F074FCA06010BDC368836082
:10555000054B82B01B680193019B4360012343709C
:10556000037002B0704700BF848FFF1F10B5044660
:105570000846FFF7EEFEE06010BDFFFFC3688360E2
:10558000054B82B01B680193019B4360012343706C
:10559000037002B0704700BF848FFF1F10B5044630
:1055A000084606F045FCE06010BDFFFF13B5044659
:1055B0002146103007F082F9054B1B680193019BCF
:1055C0002362012384F8253084F824301CBD00BFF9
:1055D000848FFF1F102207F0CFB9FFFF90F8A9308A
:1055E00070B50446002B62D090F8AA10FFF7A1FE18
:1055F00094F8AB1005462046FFF79BFE94F8A830C0
:1056000000EB0510C5B2AB424BD1D4F8D430013316
:10561000C4F8D43094F8BC3023B1D4F8CC30013382
:10562000C4F8CC3094F8B930B3B1012B2AD104F1CD
:105630003800FFF75DFF04F14800FFF769FF94F8B9
:10564000BC30FBB12046FFF7E1FE04F15800FFF744
:105650007DFF04F1680013E004F14800FFF758FFF4
:1056600094F8BC3033B12046FFF7D0FE04F1780047
:10567000FFF76CFF04F18800FFF780FF04F198004A
:10568000FFF764FFD4F8C450002D00F0BC80D4F8BC
:10569000C430A86A996A07F023F8002800F0B580A2
:1056A000B1E0D4F8D0300133C4F8D0301DE090F828
:1056B000BA2042BB00F1AA0528465A4907F010F863
:1056C00008B9012308E02846574907F009F810B93E
:1056D00084F8B90002E0022384F8B930D4F8C0306D
:1056E000C4F8C430D4F8C4600EB9002070BDB06AEC
:1056F000294606F0F5FF002880F290808AE000201D
:10570000C4F8C40070BD90F8B910022960D090F8B8
:10571000AA30002B5CD042EA4112013A282A57D81D
:10572000DFE802F01520252C3142494F51565656DC
:105730005656565656565656565656565656565609
:1057400056565656151B20252C31383A3C00483009
:1057500004F1AA01FFF7ECFE3AE0B3F14100434245
:10576000434125E004F1AA01FFF76EFE30E0B3F1FA
:1057700053014B424B4180F8243029E004F1AA0147
:10578000FFF768FE24E0B3F157025342534180F81B
:1057900030301DE0583017E0683015E0383004F143
:1057A000AA01FFF7CCFE13E0302B94BF00230123A6
:1057B00084F8BC300CE0883004F1AA01FFF7EEFE5B
:1057C00006E0983000E0783004F1AA01FFF7CEFE41
:1057D000D4F8C45004F1AA0604E028463146FFF785
:1057E000F9FE2D6B002D80D0D4F8C430A86A996AD8
:1057F00006F076FF00287FF478AFEB6A94F8BA20C1
:10580000934209DD71E7012070BD2846FFF7CEFE07
:105810002D6B39E7336B63E7E3D1DEE77FF46FAFDE
:1058200063E700BF60D3000066D3000038B5D0F84E
:10583000C8300133242904460D46C0F8C8302CD0A6
:1058400004D80A290CD00D2936D109E02A2907D01D
:105850002C2931D190F8A83083F02C0380F8A8309F
:1058600094F8BB300E2B4FF0000005D8E31883F8F6
:10587000AA002046FFF7B2FE94F8BA30013384F84C
:10588000BA300023B5F12A0CDCF1000555EB0C050C
:1058900084F8BB3084F8A95038BD0020022384F876
:1058A000BB0084F8BA0084F8A80084F8B93084F802
:1058B000A90084F8BC0038BD94F8BB300D2B05D886
:1058C000E218013382F8AA5084F8BB3094F8A9009A
:1058D00028B994F8A8305D4084F8A85038BD00205D
:1058E00038BDFFFF2E4B002230B51A6090F894307F
:1058F00053B9D0F890305A6802F596525A6090F831
:1059000099201A60012347E0012B28D190F89530A7
:1059100073B100EB830290F89710526C01338B4205
:1059200088BF0023D0F88C10A2F5965271B913E00D
:1059300090F89640011F80F897401A4603E051F80E
:10594000045F01324D64A242F9D9E2E7012B01D193
:105950000B7001E000240C7080F8953001E0D0F865
:1059600088204EF660239A42D0F89030596806D8C5
:105970008A185A6090F898201A6000230CE001F50C
:1059800062419031596090F89910A2F56242903AC4
:105990001960C0F88820022380F8943030BD00BF21
:1059A00054800340442380F88A307047324B1A6891
:1059B0004FF6FF739A4230B5304A51D1136803F065
:1059C0007F03482B4CD14B1F0024122B46D8DFE815
:1059D00003F00A1F45450D104545454545454545DC
:1059E000451316191C00264A072313E0254A0223F3
:1059F00010E0254A03230DE0244A05230AE0244A47
:105A0000062307E0234A002304E0234A012301E0A0
:105A1000224A0423C0F8844080F88B4090F88A40E2
:105A20000260FF2580F8885014601D4A42F8230068
:105A30001C4A0120147800FA03F3234313701A4B15
:105A400003EBC10140F244424B681A60174B20221D
:105A50001A70174B4FF080421A6030BD002030BDE5
:105A6000144C00234FF6FF751360236065604824D3
:105A70001460114A1360A6E70880034000800340C9
:105A8000448003401C800340248003403480034052
:105A90003C8003400C800340148003402C80034072
:105AA000B48EFF1FB38EFF1F70D400003EE400E0F1
:105AB00004E100E00480034054800340036890F850
:105AC0008A105A6810B51960174BB2F5604F1B88E1
:105AD00003D91649097801B1013B42EA0343D0F8E2
