:1000000000800020BD0100000D6600000D660000AC
:100010000D6600000D6600000D660000D965000049
:10002000D9650000D9650000D96500000D660000A3
:100030000D660000D96500000D660000C96500006E
:100040000D6600000D6600000D6600000D660000E4
:100050000D6600000D6600000D6600000D660000D4
:100060000D6600000D6600000D6600000D660000C4
:100070000D6600000D6600000D6600000D660000B4
:100080000D6600000D6600000D6600000D660000A4
:100090000D6600000D6600000D6600000D66000094
:1000A000953300000D6600000D6600000D6600002F
:1000B0000D6600000D6600000D6600000D66000074
:1000C0000D6600000D6600000D6600000D66000064
:1000D0000D6600000D6600000D6600000D66000054
:1000E0000D6600000D6600000D6600000D66000044
:1000F0000D660000117900000D6600009574000087
:100100000D6600000D7D00000D6600000D6600000C
:100110000D6600000D6600000D6600000D66000013
:100120000D6600000D6600000D6600000D66000003
:100130000D6600000D660000955A00000D66000077
:100140000D6600000D6600000D6600000D660000E3
:100150000D6600000D6600000D6600000D660000D3
:10016000B5060000557F00000D6600000D6600001A
:100170000D6600000D6600000D6600000D660000B3
:100180000D6600000D6600000D6600000D660000A3
:100190000D6600000D6600000D660000ED6A0000AF
:1001A0003D6B0000C56B0000816C0000056D000018
:1001B0000D6600000D6600000D660000544B4CF209
:1001C000205210B51A804DF628121A8000BF00BFC9
:1001D00006F020FA4F4B4FF010621A604E4A9A60B8
:1001E0004E4ADA604E4B1A6812F4807204D14D49BF
:1001F0000A604FF4A8521A604B4B1A7802F00802BA
:10020000D2B21AB11A7842F008021A70474B484825
:10021000484C2A221A700023474A02E01959995083
:10022000043399188142F9D3444B454A002101E037
:1002300043F8041B9342FBD34249434800231A5816
:100240005A500433B3F5DE7FF9D1404B404A802148
:1002500003F8011B9342FBD13A4A3E4B1A603E4BD6
:100260000A221A703D4B24221A70A02203F8012C96
:100270003B4A137803F00203DBB2002BF9D0384A73
:10028000137803F01003DBB2002BF9D1344A137852
:1002900003F00C03082BFAD1324B03221A704022D0
:1002A0005A702F4A137803F02003DBB2002BF9D0E9
:1002B0002B4A137803F04003DBB2002BF9D02A4B12
:1002C0002A4A1A6002225A60294B20221A70244AB4
:1002D000137803F00C030C2BFAD1264A264B1A6034
:1002E000264B4BF67F321A60072243F8042C62B685
:1002F00006F0ACFD0B4B1B68DC0702D5204806F06E
:1003000019FD0BF0ADFD06F08BF908F055FBFEE78B
:100310000E20054030800440823F04000100002B85
:1003200010D0034014D0034002D0074000E0074043
:100330001C8DFF1FD0DA00006087FF1F1C8DFF1F80
:100340008092FF1F0082FF1F0000000000E400E019
:100350005FE400E008ED00E0005006400140064088
:10036000064006400440064044800440000003115B
:1003700000400640C01005000480044014E000E086
:100380000955A655FFFFFFFFFFFFFFFFFFFFFFFF20
:10039000FFFFFFFFFFFFFFFFFFFFFFFFFFFFFFFF6D
:1003A000FFFFFFFFFFFFFFFFFFFFFFFFFFFFFFFF5D
:1003B000FFFFFFFFFFFFFFFFFFFFFFFFFFFFFFFF4D
:1003C000FFFFFFFFFFFFFFFFFFFFFFFFFFFFFFFF3D
:1003D000FFFFFFFFFFFFFFFFFFFFFFFFFFFFFFFF2D
:1003E000FFFFFFFFFFFFFFFFFFFFFFFFFFFFFFFF1D
:1003F000FFFFFFFFFFFFFFFFFFFFFFFFFFFFFFFF0D
:10040000FFFFFFFFFFFFFFFFFFFFFFFFFEFFFFFFFD
:1004100008B548F61C50074BC1F6FF701B1A062B97
:1004200000D808BD40F20003C0F20003002BF8D052
:100430009847F6E71F8DFF1F08B548F61C5048F691
:100440001C53C1F6FF70C1F6FF731B1A9B1003EB20
:10045000D373591000D108BD40F20002C0F200026F
:10046000002AF8D09047F6E710B548F61C54C1F6BC
:10047000FF74237873B9FFF7CBFF40F20003C0F29B
:1004800000032BB14DF6D020C0F20000AFF3008086
:100490000123237010BD00BF08B540F20003C0F275
:1004A00000034BB14DF6D02048F62051C0F20000B9
:1004B000C1F6FF71AFF3008048F61C50C1F6FF7023
:1004C00003682BB140F20003C0F2000303B1984768
:1004D000BDE80840B0E700BF42F2107007F0ACBAC8
:1004E00008B5064800F0D0FA10B9044800F0E1FB66
:1004F0000248BDE8084000F053BF00BF388DFF1F21
:1005000010B5054C204600F057FB0449044A20462C
:10051000BDE810400BF086BC388DFF1F491300006A
:100520006087FF1F10B5002303710C4B0C22198844
:1005300001230B4208D1094A19431180084A118846
:1005400021EA0303138010BD04795B000134013AF2
:1005500004719BB2EDD1FF23037110BD948DFF1F79
:10056000908DFF1F2DE9F041984603790B2B04462F
:10057000174634D8CEB23046012106F017FC257953
:10058000184B19485E55194B44F2506223F8152058
:10059000012303FA05F503881D43154B05801A68EE
:1005A0000C214F4301FB08F112F480022780618087
:1005B00011D1196841F4800119600E4B4FF6FF719B
:1005C00019605A609A6042F6A27243F8042C02F550
:1005D000803243F8042C084B4FF480721A60207963
:1005E000BDE8F081AE8DFF1F908DFF1F968DFF1F20
:1005F0003C8004400460034008E100E003790B2BD9
:1006000010D8094A012101FA03F11388C9430B40AC
:100610001380064A1088014011801BB9044B4FF427
:1006200080721A60704700BF908DFF1F948DFF1F6E
:1006300088E100E00C2359430388994203DB438897
:100640009942B8BF0B4602790B2A9CBF014921F899
:1006500012307047968DFF1F13B504790B2C02469C
:1006600016D8B1F5087F04DB02B0BDE81040FFF7F3
:10067000E1BF1388528821EAE1700092B428A8BF34
:10068000B4200021B42208F06DF9024B23F81400C5
:1006900002B010BD968DFF1F03790B2B06D8044ABC
:1006A000108840FA03F000F0010070470020704706
:1006B000908DFF1F70B5334A334C118894F9003088
:1006C00041FA03F111F0010F154606D02F4A00211F
:1006D000D05C06F03FFB0C2323702D4B2C8819783F
:1006E00000234DB223E0581944FA00F6013316F006
:1006F000010F1CD0254B264C185C2270012106F0FE
:1007000029FB2378204A59B21370224A32F811107B
:10071000214A106808181060204A106809181160F2
:10072000013342F6A37142F80C1C237070BD5A18B5
:1007300050B20B28D7DD164B17491A700A68C2F55C
:100740006A3303F5C073B3F5966F05DB4EF6602090
:100750008342A8BF034601E04FF496639A180A60EB
:100760000E4908681B180B600D4B42F6A371196007
:100770000C4B9A4204D9084A00231360044A1370B0
:1007800070BD00BF908DFF1F6487FF1FAE8DFF1FE0
:10079000928DFF1F968DFF1F8C8DFF1F0C600340F5
:1007A000006003407FA9030030B585B0044600F027
:1007B00007F960B366238DF804300B2300258DF80C
:1007C0000530204641F20103ADF80630ADF808507F
:1007D00000F0F4F8E16A8DF80A00A06B0BF02CF839
:1007E000216B0BF0E7F92B46CDF80B002A469DF85C
:1007F000050003E0C95C521892B20133834201A99B
:10080000F8DBA069ADF8082003681B69984705B0BC
:1008100030BDFFFF074B10B504460360406B08B1C5
:1008200007F0B8FF00236363204600F09DF82046E0
:1008300010BD00BFE0D0000010B50446FFF7EAFF8E
:10084000204607F0A7FF204610BD70B5856A044614
:100850000E46084629460BF0B5FA30B9656A3046AF
:1008600029460BF091FA00B93546216B28460BF06A
:10087000EDF8E16A0AF0E2FFA0630BF0ADFA1C3478
:1008800001462046BDE87040FFF7E6BED1F80710EC
:10089000FFF7DBBF10B504461C30FFF7FDFE38B193
:1008A000636B2BB119682046BDE81040FFF7CDBF40
:1008B00010BDFFFFF7B50D9D0C9E009504461F4629
:1008C000092300F061F825461C4B45F81C3B2846DF
:1008D000FFF728FE012F01D1032300E00423E36387
:1008E000089B1749A362099B63620A9BE3620B9B07
:1008F000304623630BF03EFA20B9042007F046FF90
:10090000066000E0002000236063A36328464FF4E4
:10091000FA63E16B4FF47A72FFF724FE636B2046B3
:1009200013B1FFF7B7FF02E0A16BFFF78EFF204680
:10093000012100F041F82046FEBD00BFE0D00000DC
:1009400000C0794438B500F11C0405462046FFF785
:1009500055FE2846002100F02FF82046FFF79CFEA8
:1009600080F00100C0B238BD014B0360704700BF8A
:10097000F8D00000034B10B50446036007F00AFFEF
:10098000204610BDF8D0000010B504460848237179
:10099000002323742060A36002980B68A161E060CB
:1009A00062610846DB6921469847204610BD00BFBA
:1009B000F8D00000007970470174704740697047B3
:1009C00073B50F4B1B680193019D83680446C06893
:1009D000EE1A0AF0E3FF0AF0C5FB02460B460020C0
:1009E00008490AF03DFD0022074B0AF00FFC0AF00F
:1009F000A7FE864202D9A560012000E000207CBD50
:100A0000848FFF1F0000F03F00408F40014B0360C8
:100A1000704700BF10D10000034B10B504460360BF
:100A200007F0B8FE204610BD10D1000037B50C4DC0
:100A30002B680093009A8368D31A8B4204460DD921
:100A40000D2006F0A7F9D0F1010138BF00210D20DB
:100A500006F080F92B680193019BA3603EBD00BFA7
:100A6000848FFF1F01717047064B10B50360002390
:100A700004460371836001210D2006F097F920469A
:100A800010BD00BF10D100000079704703790BB191
:100A9000642101E04FF47A71FFF7C8BF704708B1D5
:100AA00007F078BE704708B107F074BE704708B110
:100AB00007F070BE704708B107F06CBE704708B50C
:100AC0000368C9B21B68984708BDFFFF70B50E4C9C
:100AD0000D462046FD211646FFF7F1FF284606F099
:100AE00085FF2368C1B21B6820469847284606F058
:100AF0007DFF2368024629465B68204698472046CA
:100B00003146FFF7DCFF70BD2892FF1F10B5054886
:100B10000C46FE21FFF7D3FF61782046BDE8104068
:100B200006F028BA2892FF1F38B506480C46FE2169
:100B30001546FFF7C4FF20462946BDE8384006F0B9
:100B400019BA00BF2892FF1F002310B51A4603E010
:100B5000C45C121992B201338B42F9DB104610BD0E
:100B600030B5144B85B01B680193019D836C40F632
:100B7000B832EB1A9342044619D90123072141F2F6
:100B800001028DF808308DF80E3002A800238DF890
:100B90000910ADF80A20ADF80C30FFF7D5FF236837
:100BA000ADF80C001B69204602A99847A56405B062
:100BB00030BD00BF848FFF1F70B50446FFF754FFA0
:100BC0000F4B00252360E56025616561A561E56146
:100BD00025626562A562E56225636563A563256597
:100BE000E56365642564182007F0D0FD064600F033
:100BF0008FFD2665A56484F84C50204670BD00BF6B
:100C000040D100000269C368D31A70B505469E1032
:100C1000002406E0EB6853F8240003681B6898473B
:100C20000134B442F6DB70BD38B500230C460B71BD
:100C30004B71084649781546FFF786FF2B1AA080AE
:100C40005842584138BD826A436AD31A70B5054686
:100C50009E10002406E06B6A53F8240003681B69A9
:100C600098470134B442F6DB70BD13B569238DF8A3
:100C7000003008238DF8013041F20103ADF8023055
:100C80000B78672B08BF0B898DF806304B7804462C
:100C90008DF80730082100236846ADF80430FFF7CF
:100CA00053FF2368ADF804001B6920466946984746
:100CB0001CBD7FB50446FFF7E7FE0646002839D184
:100CC000206D00F047FD50B934E020462946AA883F
:100CD000FFF7AAFF58B9206D00F02EFD2AE0206D25
:100CE00000F024FD0378652B0546F4D1EDE720469E
:100CF000A979FFF7B7FE20462946FFF7B6FF76230E
:100D00008DF8043041F201030A21ADF8063001A844
:100D10004FF07E538DF80510CDF80A30ADF808601D
:100D2000FFF712FF2368ADF808001B69204601A9F0
:100D30009847D0E77FBD2DE9F047CB889CB00546AA
:100D40000C460E2B00F2EF81DFE813F007016E0175
:100D500093017B01ED01A7013B009E0189010F007A
:100D600058015B019E00BA012B01C269836900260C
:100D7000D31A4FEAA3083046464503DA002840F06C
:100D8000CE81A8E1002840F0CA81402007F0FEFC97
:100D9000D4F8161022890091D4F81210D4F80E302D
:100DA0000191D4F81A100291D4F81E100391D4F8CE
:100DB00022100491D4F80A1005912946FFF77AFD14
:100DC000ADE1826A436A0026D31A4FEAA30830468F
:100DD000464503DA002840F0A2818AE1002840F06D
:100DE0009E81A82007F0D2FC8046D4F81200278903
:100DF000D4F80A600AF0B6F9CDE90001D4F80E0083
:100E00000AF08EF9D4F816300493D4F81A3005930A
:100E1000D4F83A300693D4F83E30CDE90201D4F844
:100E20001E0007930AF07CF9CDE90801D4F82200EE
:100E30000AF098F9CDE90A01D4F826000AF092F9EF
:100E4000CDE90C01D4F82A000AF08CF9D4F82E3040
:100E50001093D4F832301193D4F836301293D4F87A
:100E600042301393D4F846301493D4F84A30159393
:100E7000D4F84E30CDE90E011693404629463A4645
:100E8000334601F071FA4AE1826A436A0026D31AB6
:100E90004FEAA3083046464503DA002840F03F8178
:100EA00032E1002840F03B81A82007F06FFC80462B
:100EB000D4F812002789D4F80A600AF053F9CDE972
:100EC0000001D4F80E000AF02BF9D4F81630049380
:100ED000D4F81A300593D4F83A300693D4F83E305B
:100EE000CDE90201D4F81E0007930AF019F9CDE903
:100EF0000801D4F822000AF035F9CDE90A01D4F846
:100F000026000AF02FF9CDE90C01D4F82A000AF0E6
:100F100029F9D4F82E301093D4F832301193D4F844
:100F200036301293D4F842301393D4F846301493E9
:100F3000D4F84A301593D4F84E301693D4F8523082
:100F4000CDE90E011793D4F8563040461893294640
:100F50003A46334600F088FFE1E0C36B002B40F0D7
:100F6000DE80436AD1F8162053F82280D1F81A2087
:100F7000482053F8227007F009FCD4F80E1022899B
:100F80000091D4F81210D4F80A300191D4F81E1050
:100F9000CDF80880049103972946064601F0BEFD6E
:100FA0002AE0436AD1F8162053F822A0D1F81A207B
:100FB00053F82290D1F81E2053F82280D1F8222035
:100FC000582053F8227007F0E1FBD4F80E10228964
:100FD0000091D4F81210D4F80A300191D4F82610F8
:100FE000CDF808A00691CDF80C90CDF810800597AB
:100FF0002946064605F0E6F8EE6390E01CAE0A23AB
:1010000001E01CAE0B2306F8013D202007F0BEFBDB
:10101000D4F80A3022890093D4F80E30294601937F
:10102000334601F01BFE7AE0202007F0AFFBD4F836
:101030000E1022890091D4F80A30294601F076FE7C
:101040006DE04FF48C7007F0A1FB29460646D4F8FA
:101050000A20D4F80E3002F04BF86E645FE02020D6
:1010600007F094FB29462289D4F80E3003F0DCFF08
:1010700055E0F82007F08AFB2946D4F80A20D4F876
:101080000E3004F077F84AE0A82007F07FFB2946ED
:10109000D4F80A2004F088FE41E0342007F076FB03
:1010A000D4F8121022890091D4F81610D4F80E301A
:1010B0000191D4F81A100291294604F019FF2EE08C
:1010C000202007F063FB2946D4F80A20D4F80E301C
:1010D00004F04CFF23E0AB69278953F82600FFF7A3
:1010E0006DFCB7EB000EDEF1000050EB0E00013698
:1010F00042E66B6A278953F82600FFF75FFC391A2E
:1011000048424841013663E66B6A278953F8260056
:10111000FFF754FC3A1A504250410136BBE62846CC
:101120002146FFF7A2FD1CB0BDE8F087F8B590E8B6
:101130004800F61AB61014BF334601239B19044623
:101140000F466FF0404603D2B34238BF1E4626B169
:10115000B00007F01BFB054600E0354662682368D7
:10116000D31A9B1005EB83013A6809B145F8232097
:1011700094E882007F1ABF1003D02846BA000BF013
:1011800031FA05EB87072068FFF795FC04372560E7
:1011900005EB86056760A560F8BD091A38B58C10A7
:1011A0000546134605D010462946A2000BF01AFA50
:1011B000034603EB840038BDF8B590E84800F61A02
:1011C000B61014BF334601239B1904460F466FF037
:1011D000404603D2B34238BF1E4626B1B00007F0E6
:1011E000D5FA054600E0354662682368D31A9B109D
:1011F00005EB83013A6809B145F823202A4694E8B3
:101200000300FFF7CAFF07462068FFF74CFC0437CE
:10121000256005EB86056760A560F8BD091A38B53D
:101220008C100546134605D010462946A2000BF047
:10123000D9F9034603EB840038BDF8B590E84800BF
:10124000F61AB61014BF334601239B1904460F4605
:101250006FF0404603D2B34238BF1E4626B1B000FD
:1012600007F094FA054600E0354662682368D31A11
:101270009B1005EB83013A6809B145F823202A4603
:1012800094E80300FFF7CAFF07462068FFF70FFC4A
:101290000437256005EB86056760A560F8BD38B5A5
:1012A00042688468A24203460D4606D0096802B12E
:1012B00011605A6804325A6038BDFFF7BEFF38BD6E
:1012C000091A38B58C100546134605D01046294634
:1012D000A2000BF087F9034603EB840038BDF8B594
:1012E000C3680669C269F61A8369D31A0446B61040
:1012F0009F10002504E053F82500FFF723FB01357C
:10130000BD42A369F7DBE269934218BFE361A26AB9
:10131000636A934218BFA362002506E053F82500D4
:1013200010B10368DB6898470135B542E368F5DB27
:101330002269934218BF2361002384F84C30636410
:10134000E3632364F8BDFFFF0F4B10B50446036051
:10135000006D10B103685B68984700232365204641
:10136000FFF7BDFF206BFFF7A6FB606AFFF79FFB4F
:10137000A069FFF798FBE068FFF791FB2046FFF7B5
:1013800045FB204610BD00BF40D1000010B504460B
:10139000FFF7DAFF204607F0FDF9204610BDFFFFFA
:1013A0002DE9F041044688B0FFF770FB206D00F096
:1013B00044FA2046FFF768FB002840F00481206DC6
:1013C00000F091FA002840F0FE8002E1206D00F06C
:1013D000ADF9054629462046AA88FFF725FC0028D6
:1013E00000F0E0802B780C2B6FD00ED8072B27D085
:1013F00005D8022B31D0062B40F0D48043E0082BD7
:1014000056D00B2B40F0CE805BE0652B0CD005D87E
:101410000F2B70D0512B40F0C5804BE0672B17D0BD
:10142000752B40F0BF8082E02046A979FFF71AFBB8
:101430002046FFF729FB30B92046FFF750FF02E0B6
:10144000AB7984F84C3020462946FFF70EFCA9E022
:1014500020462946FFF76FFCA4E0E269A369D31A8E
:101460009F1000260CE0A36953F82600FFF7A6FAA8
:10147000AB7998424FEA860801D1A3694CE0013666
:10148000BE42F0DB8EE0A26A636AD31A9F10002688
:101490000BE0636A53F82600FFF790FAAB799842A5
:1014A0004FEA860800D136E00136BE42F1DB79E032
:1014B000E06B07E0E06B002874D0294601F08AF960
:1014C00070E0606C00286DD028E0626B236BD31A4B
:1014D0009F1000260CE0236B53F82600FFF76EFAEE
:1014E000AB7998424FEA860801D1236B14E00136AC
:1014F000BE42F0DB56E0A26A636AD31A9F10002650
:1015000012E0636A53F82600FFF758FAAB79984265
:101510004FEA860807D1636A53F808000368294632
:101520005B6898473EE00136BE42EADB3AE01123B1
:101530008DF804301A238DF8053041F20103ADF81F
:101540000630E62100232448ADF8083002F030F9D7
:10155000E721CDF80A00204802F02AF9E821CDF869
:101560000E001D4802F024F9E921CDF812001A48B6
:1015700002F01EF9EA21CDF81600174802F018F91A
:101580009DF80550CDF81A00294601A8FFF7DCFAAE
:101590002946ADF8080001A805F0ECFC0F480D2124
:1015A000FFF78DFA206D00F0C7F894F84C3083B146
:1015B0002046FFF727FB2046FFF745FB206C40B194
:1015C00003F002FE05E0206D00F0C4F80028ECD026
:1015D000FCE608B0BDE8F081AD8EFF1F2892FF1F2A
:1015E000F8B590E84800F61AB61014BF3346012348
:1015F0009B1904460F466FF0404603D2B34238BFF2
:101600001E4626B1B00007F0C1F8054600E0354699
:1016100062682368D31A9B1005EB83013A6809B10D
:1016200045F823202A4694E80300FFF749FE0746C1
:101630002068FFF734FA0437256005EB86056760FC
:10164000A560F8BD1FB50369426901919342044644
:1016500005D003B1196023690433236103E00C3022
:1016600001A9FFF7BDFF0198FFF7A4F90238072889
:1016700034D8DFE800F03133331616331F04E36942
:10168000216A019A8B42039205D003B11A60E36983
:101690000433E36122E004F1180003A9FFF78CFD95
:1016A0001CE004A9019B04F1240041F8043DFFF76C
:1016B000F6FD13E0636BA16B019A8B42039205D098
:1016C00003B11A60636B0433636307E004F1300015
:1016D00003A9FFF72BFD01E0019B23641FBDFFFF62
:1016E000054B10B504460360006908B107F054F8D3
:1016F00000232361204610BD70D1000010B50446C0
:10170000FFF7EEFF204607F045F8204610BDFFFF2B
:10171000054A0260002202710261C2608260427169
:101720008271C271704700BF70D1000003790BB1A4
:10173000006970471846704710B50446006908B143
:1017400007F02AF8002323612371A371E371E3609A
:10175000A36010BD007970470B780F2B2CD00DD8EB
:10176000072B31D004D8022B26D0062B2BD123E017
:101770000B2B1DD00C2B1DD0082B05E0652B0CD09E
:1017800004D8512B12D0642B1DD10DE06C2B0BD043
:10179000752B13D0672B16D101E0072314E00E231D
:1017A000C3600123437110E00E230DE012230BE010
:1017B0000A2309E0082307E00B2305E00623C360A2
:1017C0000123C37101E00023C360C068704770B596
:1017D0000446C0680E4606F0DBFF0023054602E023
:1017E000C25CEA540133B3422069F9DB08B106F068
:1017F000D3FF256170BDCB880E2B1CD8DFE803F02A
:101800000E1717171B150A10170817170C171900B2
:1018100026230FE052230DE05A230BE0222309E098
:101820000E23C3600123037105E01E2302E012238F
:1018300000E02A23C360C06870472DE9F8430446DE
:1018400005F08AFB00284CD02379002B49D144E0D5
:1018500005F082FB002833D0E368002B11DC05F093
:1018600035FB41462075A5602046FFF775FF06F061
:101870008FFFA368227D2061C254A3680133A36057
:101880001EE0A6689E421BDAD4F8109005F01EFBFD
:1018900009F80600E36801369E42A66010D163791C
:1018A0000BB927710CE021692046FFF7A4FF204601
:1018B0003146FFF78CFF657102E0012704F114083F
:1018C0002579002DC4D0BDE8F88305F0FFFAFE2885
:1018D00007D10123A371BDE8F883A379002BECD1D4
:1018E000F3E7BDE8F883C0797047FFFF034B10B5FD
:1018F00004460360FFF738F8204610BD80D1000091
:1019000010B50446FFF7F2FF204606F043FF2046DD
:1019100010BDFFFF37B5069D00950446FFF734F86C
:10192000014B204623603EBD80D10000084B10B51E
:1019300004460360D0F8A40008B106F02BFF002392
:10194000C4F8A430204600F009FB204610BD00BFBB
:10195000A0D1000010B50446FFF7E8FF204606F0CE
:1019600019FF204610BD10B50368017A1C78436842
:101970001A78437A1A40837A0C4203F0030318BFA3
:1019800043F004030AB143F008039A10013B82724A
:101990000D2B14D8DFE803F0070A0D0A1310070710
:1019A00010130A0D0A07C368013307E0C368013B3F
:1019B00004E0C368023301E0C368023BC36010BDAA
:1019C00070B5054600F0EFFAD5F8A4400646237C32
:1019D00072B6012B02D82046FFF7C5FF62B6E36856
:1019E000D5F8A000584309F0DDFF0146304609F064
:1019F00025FF4FF07C510AF029F870BD08B5034B64
:101A0000D3F88400FFF7AFFF08BD00BFBC8DFF1FF8
:101A100008B5034BD3F88000FFF7A5FF08BD00BF52
:101A2000BC8DFF1F08B5024BD86FFFF79CFF08BDA8
:101A3000BC8DFF1F08B5024B986FFFF794FF08BDE0
:101A4000BC8DFF1F08B5024B586FFFF78CFF08BD18
:101A5000BC8DFF1F08B5024B186FFFF784FF08BD50
:101A6000BC8DFF1F08B5024BD86EFFF77CFF08BD89
:101A7000BC8DFF1F08B5024B986EFFF774FF08BDC1
:101A8000BC8DFF1F08B5024B586EFFF76CFF08BDF9
:101A9000BC8DFF1F08B5024B186EFFF764FF08BD31
:101AA000BC8DFF1F08B5024BD86DFFF75CFF08BD6A
:101AB000BC8DFF1F08B5024B986DFFF754FF08BDA2
:101AC000BC8DFF1F08B5024B586DFFF74CFF08BDDA
:101AD000BC8DFF1F08B5024B186DFFF744FF08BD12
:101AE000BC8DFF1F08B5024BD86CFFF73CFF08BD4B
:101AF000BC8DFF1F08B5024B986CFFF734FF08BD83
:101B0000BC8DFF1F08B5024B586CFFF72CFF08BDBA
:101B1000BC8DFF1F08B5024B186CFFF724FF08BDF2
:101B2000BC8DFF1F08B5024BD86BFFF71CFF08BD2B
:101B3000BC8DFF1F08B5024B986BFFF714FF08BD63
:101B4000BC8DFF1F08B5024B586BFFF70CFF08BD9B
:101B5000BC8DFF1F08B5024B186BFFF704FF08BDD3
:101B6000BC8DFF1F08B5024BD86AFFF7FCFE08BD0D
:101B7000BC8DFF1F08B5024B986AFFF7F4FE08BD45
:101B8000BC8DFF1F08B5024B586AFFF7ECFE08BD7D
:101B9000BC8DFF1F08B5024B186AFFF7E4FE08BDB5
:101BA000BC8DFF1F08B5024BD869FFF7DCFE08BDEE
:101BB000BC8DFF1F08B5024B9869FFF7D4FE08BD26
:101BC000BC8DFF1F08B5024B5869FFF7CCFE08BD5E
:101BD000BC8DFF1F08B5024B1869FFF7C4FE08BD96
:101BE000BC8DFF1F08B5024BD868FFF7BCFE08BDCF
:101BF000BC8DFF1F08B5024B9868FFF7B4FE08BD07
:101C0000BC8DFF1F08B5024B5868FFF7ACFE08BD3E
:101C1000BC8DFF1F08B5024B1868FFF7A4FE08BD76
:101C2000BC8DFF1F08B5212800F2D580DFE810F039
:101C3000220027002C00310036003C004100460005
:101C40004B00500055005A005F00640069006E00B0
:101C5000730078007D00820087008C009100960060
:101C60009B00A000A500AA00AF00B400B900BE0010
:101C7000C300CD00594B002019605949A0E0574BD3
:101C80000120596057499BE0544B02209960564906
:101C900096E0524B0320D960544991E04F4B042009
:101CA0001961024652498CE04C4B0520596151495B
:101CB00086E04A4B062099614F4981E0474B072057
:101CC000D9614E497CE0454B082019624C4977E0C8
:101CD000424B092059624B4972E0404B0A209962FD
:101CE00049496DE03D4B0B20D962484968E03B4BC8
:101CF0000C201963464963E0384B0D205963454970
:101D00005EE0364B0E209963434959E0334B0F2078
:101D1000D963424954E0314B1020196440494FE0E7
:101D20002E4B112059643F494AE02C4B12209964F4
:101D30003D4945E0294B1320D9643C4940E0274BFD
:101D4000142019653A493BE0244B1520596539495F
:101D500036E0224B16209965374931E01F4B17209A
:101D6000D96536492CE01D4B18201966344927E007
:101D70001A4B19205966334922E0184B1A209966EC
:101D800031491DE0154B1B20D966304918E0134B33
:101D90001C2019672E4913E0104B1D2059672D494F
:101DA0000EE00E4B1E2099672B4909E00B4B1F20BC
:101DB000D9672A4904E0094BC3F88010284920203C
:101DC000042204F051FE012008BD044B2120C3F879
:101DD00084102449F4E7002008BD00BFBC8DFF1F1C
:101DE000151C0000051C0000F51B0000E51B000091
:101DF000D51B0000C51B0000B51B0000A51B000083
:101E0000951B0000851B0000751B0000651B000072
:101E1000551B0000451B0000351B0000251B000062
:101E2000151B0000051B0000F51A0000E51A000054
:101E3000D51A0000C51A0000B51A0000A51A000046
:101E4000951A0000851A0000751A0000651A000036
:101E5000551A0000451A0000351A0000251A000026
:101E6000111A0000FD190000F0B599B0DDE91E451A
:101E7000CDE90045DDE92045CDE90245229C0494E9
:101E8000239C0594249C0694259C0794DDE9264513
:101E9000CDE90845DDE92845CDE90A45DDE92A45D2
:101EA000CDE90C45DDE92C45CDE90E452E9C10947D
:101EB0002F9C1194309C1294319C1394329C149456
:101EC000339C1594349C0646169400F04DFA214B31
:101ED0001420336006F05AFC9DF8D4709DF8D85059
:101EE00004460221384604F061FF2846022104F02E
:101EF0005DFF194A52F8373003F500712160012166
:101F0000217252F83520617202F500700021E16003
:101F100060604FF4FA410139FDD193F8003292F834
:101F2000002203F00103D20744BF43F00203DBB2F7
:101F3000A37221463846FFF775FE214620742846D5
:101F4000FFF770FE237C18182074C6F8A4403046B2
:101F500019B0F0BDA0D1000078D400000C4B10B532
:101F600004460360406A08B106F014FCE06910B151
:101F700003689B689847206A08B106F00BFC0023B1
:101F80002362E36163622046FFF7B0FC204610BD88
:101F9000C0D1000010B50446FFF7E0FF204606F070
:101FA000F9FB204610BD38B5046A0546237C72B69D
:101FB000012B02D82046FFF7D6FC62B6E368D5F8BD
:101FC000A000584309F0EEFC38BDFFFFFFFFFFFF04
:101FD0002DE9F047444B86B01B680593824605986F
:101FE00009F09EF8DAE91223CDE9000108F05AFF62
:101FF000DAE9222306460F4600203C4909F030FA70
:1020000000223B4B09F002F902460B4630463946A6
:1020100009F082FB00285DD0DAF8003050465B6999
:10202000984709F09FF8DAE91C23CDE9020108F08E
:1020300039FF02460B4608F037FF29A3D3E90023F6
:1020400009F0E4F88046DAF89000894609F078F85B
:1020500002460B464046494609F002FA00228046F5
:10206000894630463946224B09F0FAF902460B46BA
:102070004046494609F0F4F9DAE9204502460B46A4
:102080002046294609F0C2F822462B4606460F464E
:102090000020164908F006FF0446DAF844000D4611
:1020A00009F060F802460B462046294609F0AEF8D2
:1020B00002460B463046394608F0F6FE09F068FB4A
:1020C000DDE90223CAE91C23DDE90023CAE9122362
:1020D000CAF8440006B0BDE8F08700BFAFF3008047
:1020E000182D4454FB210940848FFF1F0000F03F4E
:1020F00000408F40AFF30080C06908B503681B68DB
:10210000984708BD2DE9F7431F4690F82C308046CC
:10211000164663B9194B446A1B680193019808F08D
:10212000FFFF0022164B09F09BF9C4E90401D8F81F
:102130005890012388F82C30484609F013F83246AD
:102140003B4604460D4609F0D3FA60B909F1004058
:1021500009F008F832463B4604460D4609F0E6FA17
:1021600008B934463D46054B1B680093009BC8E9FF
:102170001E45C8F83030BDE8FE8300BF848FFF1FC6
:1021800000408F4010B50446D1F8070008F0EAFF80
:1021900002460B462046BDE81040FFF7B3BFFFFFE5
:1021A00013B5114B1B68019390F82C30019A04462B
:1021B000C3B1036BD21A436B9A4213D90022002396
:1021C0000021C0E9182380F82C1000206064E06929
:1021D000C4E91A23C4E91E2303681B689847606A90
:1021E00000F012FA1CBD00BF848FFF1FFFFFFFFF2E
:1021F000036870B55B6906469847014609F01EFB07
:1022000008F0B0FF0AA3D3E9002308F0FFFF04465B
:10221000D6F890000D4608F093FF02460B46204684
:10222000294609F01DF909F0B3FAF06370BD00BF4B
:10223000182D4454FB2109402DE9D343214B1B6841
:1022400001930446019808F06BFFD4E914238046FB
:10225000894608F027FED4E9262306460F460020CB
:10226000194909F0FDF80022184B08F0CFFF02468B
:102270000B463046394609F059FA08B3A36B012BD7
:1022800002D1606C206403E02046FFF7B1FFE06BF1
:1022900008F068FFC4E91801606A00F0BBF9A06AA1
:1022A00008F04EFFD4E91A2308F0B0FFC4E91489FE
:1022B000C4E91A0109F044FA01462046FFF71CFF61
:1022C000BDE8DC83848FFF1F0000F03F00408F409B
:1022D00010B50446FFF77CFE94F82C3023B120465D
:1022E000BDE81040FFF7A8BF10BD10B50446FFF7CA
:1022F00057FF2046BDE81040FFF7EABF1FB5044670
:10230000FEF75EFB68B3636C23646A238DF80030CC
:102310000F238DF80130204641F20103ADF8023061
:10232000FEF74CFB8DF806002046FFF761FF236C9B
:10233000CDF80700CDF80B300023ADF804309DF840
:1023400001101A4604E01DF80300121892B201337E
:102350008B42F8DBA069ADF80420036869461B696D
:1023600098471FBDFFFFFFFF2DE9F0438DB00746E3
:1023700000930623DDF86090199EFFF7CBFA624BBD
:102380003B60279BBB63002387F82C30269B7B6335
:10239000DDE91C23C7E92623DDE91423C7E920234F
:1023A000DDE91623C7E92223259AC7F89020289A49
:1023B000BA6240F2E7320024002500230C20914548
:1023C000C7E918453B64FB63C7E91A45C7E91C45E3
:1023D000C7E91E45984609D106F0D8F931460446AA
:1023E0004A4D04F08DF8FC6100240AE006F0CEF9B5
:1023F00049460446324604F0CFF8FC6140A5D5E9D1
:102400000045434E33680993099B3B6333680A9345
:102410000A9808F085FE33680B93C7E912010B9800
:1024200008F07EFEC7F84480C7E91401582006F082
:10243000ADF9DDE91E23CDE90023DDE92023CDE957
:102440000223DDE92223CDE904232A9B07F1600260
:10245000064607F16801069307F1780300F09CF83F
:102460007E621420C6E9064506F090F99DF8686082
:102470009DF86C5004460221304604F097FC284633
:10248000022104F093FC234A52F8363003F5007120
:1024900021600121217252F83520617202F500702D
:1024A0000021E16060604FF4FA410139FDD193F8F9
:1024B000003292F8002203F00103D20744BF43F038
:1024C0000203DBB2A37221463046FFF7ABFB214685
:1024D00020742846FFF7A6FB237C1818249B207441
:1024E000BB65299B3C623846C7F8A0300A21FEF73D
:1024F00063FA38460DB0BDE8F08300BFAFF300804B
:102500000000000000C05F40C0D1000000407F40DC
:10251000848FFF1F78D40000014A01704260704729
:10252000F491FF1F70B50446406803680E461B68AF
:102530002178154698476068036831461B689847BC
:102540006068036829461B689847606822780368BA
:10255000B618A9191B6801F07F01984770BD7E2A43
:10256000A8BF7E226FF07D039A42B8BF1A46002AA8
:10257000B8BF5242D2B2FFF7D5BF10B54C1E012CE6
:1025800009D802290CBF0421002101EBD271BDE85A
:102590001040FFF7E4BF10BD13B580E80E00DDE981
:1025A0000423C0E90A23DDE90623C0E90C23DDE9A1
:1025B0000823C0E90E23124B1B68019304460198BF
:1025C00008F0AEFD00220F4B08F04AFF0022002366
:1025D000C4E91223C4E9102307A3D3E90023C4E903
:1025E0000401C4E906230A9808F0BCFDC4E91401FB
:1025F00020461CBDAFF300800000000000C05F401B
:10260000848FFF1F00408F4000220023C0E9102369
:102610007047FFFF2DE9F04F584B89B01B680793B7
:102620008046079808F07CFD0022554B08F018FF03
:10263000D8E90423CDE9040108F034FCD8F80820D7
:10264000D8F8043082468B46D2E90001D3E9002352
:1026500008F028FCD8E9062304460D46D8E9140101
:1026600008F0D4FD524681460E465B462046294678
:1026700008F0CCFDD8E9102308F016FC4A46334692
:10268000CDE9020109F052F810B14A46334611E093
:1026900006F1004C6346DDE902014A46CDF804C06C
:1026A00009F026F8DDF804C010B9DDE9022301E0E5
:1026B0004A466346C8E910232046D8E90A2329463A
:1026C00008F0A4FDD8E9102306460F46D8E90C010E
:1026D00008F09CFD02460B463046394608F0E4FB04
:1026E000D8E9122306460F462046294608F0DAFBB1
:1026F00052465B4608F0B4FED8E90E2308F086FD8A
:1027000002460B463046394608F0CEFBD8F800901A
:102710000B460246C9E90023D8F818B0D8F81CA027
:102720005A4653460E46074609F000F8002818BFDF
:102730005F4618BF56463A463346C9E90023D8F8E3
:102740001C30D8F818B003F1004A5A4653463846B0
:10275000314608F0CDFF00280CBF3A465A460CBF60
:1027600033465346C9E90023DDE90423C8E912458D
:10277000C8E9042309B0BDE8F08F00BF848FFF1FB4
:1027800000408F40034B10B504460360FEF7ECF8A1
:10279000204610BDE0D1000010B50446FFF7F2FF5F
:1027A000204605F0F7FF204610BDFFFF37B5069D18
:1027B0001B7800950446FEF7E7F8054B2360079B5E
:1027C00023639DF824302377089B2046E3623EBDB7
:1027D000E0D10000037F43B1D1F806304362D1F865
:1027E0000A308362D1F80E300362704713B5D1F816
:1027F00006300193D1F80A2002AB43F8082D026895
:10280000546993E80600A0471CBD10B50446806BD0
:10281000FFF7C6FCA06BFFF75BFD606BFFF7C0FC2A
:10282000606BBDE81040FFF753BD2DE9F74302ABE5
:1028300003E90600076B009E019D044639463046B9
:1028400009F0B8F9E16A8046284609F0FFF83946F0
:102850008146384608F0F2FF0146484609F0AAF9D9
:102860000146404608F0EAFF08F07CFC02460B46B1
:10287000A06BFFF747FC276B3046394609F09AF901
:10288000E16A0646284609F0E1F839460546384629
:1028900008F0D4FF0146284609F08CF9014630467D
:1028A00008F0CAFF08F05EFC0246606B0B4603B0FE
:1028B000BDE8F043FFF726BC034B10B504460360A8
:1028C000FFF760FF204610BD00D2000010B504469F
:1028D000FFF7F2FF204605F05DFF204610BDFFFF29
:1028E000F8B51046194614A3D3E9002308F0DCFA22
:1028F00013A3D3E9002306460F4606F0F7F900229A
:1029000004460D4630463946002308F0F1FE40B13A
:10291000204629460AA3D3E9002308F0C5FA044655
:102920000D462046294604A3D3E9002308F0BAFA4D
:10293000F8BD00BFAFF30080182D4454FB210940BF
:10294000182D4454FB21194038B50446806BFFF71D
:102950004FFC216C054608F06FFF216B09F076F8FB
:10296000256438BD38B50446406BFFF741FCE16B88
:10297000054608F061FF216B09F068F8E56338BD92
:10298000002170B5064601604160104619460022DC
:10299000094B08F03BFC04460D4606F005F908F02B
:1029A000F7FE2946B060204606F0B4F808F0F0FEC5
:1029B000F060304670BD00BF0000E03F2DE9F04FF1
:1029C00091B08246FDF7FCFF002800F0A38050463E
:1029D000FFF7BAFF04465046FFF7C4FF05462946F5
:1029E000204608F029FFDAF82C1009F0E3F8DAF8AD
:1029F000441009F02BF8DAF8201008F01FFFCAF88D
:102A0000200008F0AFFB02460B465046FFF768FF78
:102A100008F0BEFE29468346CAF82000204608F08A
:102A20000DFF4FF07C5109F011F808F09BFB0646B2
:102A300058460F4608F096FB04460D4606F06AF825
:102A40000246DAF824000392029108F08BFB039A05
:102A5000029B804689463046394608F0D7FB0B4634
:102A600002464946404608F01FFA08F091FE294602
:102A70008446CAF824002046CDF804C006F094F835
:102A80000246DAF828000392029108F06BFB039AE1
:102A9000029B804689463046394608F0B7FB02461D
:102AA0000B464046494608F0FFF908F071FE224601
:102AB0000646CAF828002B4605A85146FFF760FFD6
:102AC0006C23079A8DF824301A238DF82530DDF811
:102AD00004C0CDF8362041F20103089AADF8263043
:102AE0000023CDF83A20ADF82830CDF82AC0CDF833
:102AF0002E60CDF832B01A4609A9505C01321B187D
:102B00001A2A9BB2F8D1DAF81800ADF82830036819
:102B10001B69984711B0BDE8F08FFFFF70B586B014
:102B200006AD002605F8016D00930A9B01930B9BEF
:102B30000293012303932B460446FFF737FE084B0D
:102B400023600C9B63630D9BA3630023E3632364F7
:102B500023626362A3620E9B2046636406B070BD6D
:102B600000D200007047FFFF034B10B5044603601E
:102B7000FDF7FAFE204610BD20D2000010B5044635
:102B8000FFF7F2FF204605F005FE204610BDFFFFCF
:102B900038B50546007F03F069FE04462846FDF778
:102BA00009FF0A28204606D108F0FCFE08F0DAFAF0
:102BB00000220F4B06E008F0F5FE08F0D3FA08A358
:102BC000D3E9002308F022FB07A3D3E9002308F090
:102BD00047FC0022074B08F043FC08F0D9FD38BD44
:102BE000666666666666C94000000000E0FFEF406A
:102BF0000000B44000408F4030B585B00446FDF77A
:102C0000DFFE40B36D238DF804300B2300258DF8D3
:102C10000530204641F20103ADF80630ADF808500A
:102C2000FDF7CCFE8DF80A002046FFF7B1FF2B46DA
:102C3000CDF80B002A469DF8050003E0C95C521848
:102C400092B20133834201A9F8DBA069ADF80820F4
:102C500003681B69984705B030BDFFFF73B5069E3A
:102C60001B78079D00960446FDF78EFE0A4B012D4A
:102C7000236001D10E2304E0022D01D10F2300E0D7
:102C80001023E361207F002104F090F8102003F06E
:102C9000C3FD20467CBD00BF20D20000704737B581
:102CA0000446FDF78DFE60B36E238DF800300823D7
:102CB00000258DF80130204641F20103ADF80230C5
:102CC000ADF80450FDF77AFE8DF80600207F04F081
:102CD00061F8431B584258418DF807009DF80110D8
:102CE0002B462A4604E01DF80300121892B2013365
:102CF0008B42F8DBA069ADF80420036869461B69C4
:102D000098473EBD034B10B504460360FDF72CFE0B
:102D1000204610BD38D2000010B50446FFF7F2FF80
:102D2000204605F037FD204610BDFFFF13B5009388
:102D300001230446FDF728FE084B2360049B012B6A
:102D400001D10B2300E00C23E361207F022104F07A
:102D50002DF8102003F060FD20461CBD38D2000085
:102D6000054B10B5044640F86C3B01F0A9FE204627
:102D7000FDF7FAFD204610BD50D2000010B5044604
:102D8000FFF7EEFF204605F005FD204610BDFFFFD2
:102D900010B50446C83001F0D7FC0368A0661B6973
:102DA0009847002812DDA36EA0691A79E2B95B7911
:102DB000D3B115E00121002384F8C03084F8C1109C
:102DC00084F8C21084F80C11204605E0002384F832
:102DD0000C3120466FF00101BDE81040FDF7ECBD5D
:102DE000036804495B6903E0036803495B690022E7
:102DF0009847DFE760D200007AD20000F8B51148AA
:102E0000069D16461F460C4600F04CFB31460D4809
:102E100000F0EEF900210B4800F054FB2146094870
:102E20003A4600F01DFC002405E0064800F008FAD0
:102E300028550134E4B2034800F0F8F90028F4D131
:102E4000F8BD00BF988EFF1F1FB503AB009368212C
:102E500002234122FFF7D2FF9DF80C009DF80D30B0
:102E600043EA002000B205B000BDFFFFFFFFFFFFF7
:102E700070B590F80C3192B00446002B00F0C7807A
:102E8000806E03689B699847002800F0C08094F822
:102E90000D31002B40F08A8002A800F01DFD05A82E
:102EA00000F01AFD08A800F017FDA16E02A8143169
:102EB00000F0F0FCA16E05A8083100F0EBFCA16E5B
:102EC00008A8203100F0E6FCA36EDB6A02AA05A97F
:102ED000009304F16C0008AB01F022FFA06E0368C0
:102EE0001B6A98470EA800F0B3FE0BA800F0F4FC94
:102EF00004F1B4010BA800F0CDFC04F1A4010EA86C
:102F000000F0DAFD029BE361039B2362049B636292
:102F1000059BA362069BE362079B2363089B636395
:102F2000099BA3630A9BE3630E9B23640F9B63646B
:102F3000109BA364119B2046E364FFF785FF08F014
:102F400031FD08F00FF934A3D3E9002308F088FA23
:102F50000022354B07F0A8FF08F01AFC20650C98FA
:102F60000D9E0B9D08F0FEF82DA3D3E9002308F079
:102F70004DF908F00DFC6065304608F0F3F828A321
:102F8000D3E9002308F042F908F002FC216E08F0B2
:102F900053FCA065284608F0E5F821A3D3E90023F7
:102FA00008F034F908F0F4FBE06530E094F80E51D5
:102FB000F5B90BA800F090FCA16E0BA8203100F031
:102FC00069FC0BABD4F8F410EE58304608F0DCFE88
:102FD00008B1C4F8F4603046D4F8001108F0F2FEED
:102FE00008B1C4F80061043504340C2DE9D10EE0B9
:102FF0000025012384F8F23084F80D5184F80E5135
:10300000284604F1F00101F0B3FFA36E1D7112B068
:1030100070BD00BFAFF3008052B81E85EBDD744079
:10302000F8C1631ADCA54C4000003540AFF30080C6
:1030300010B590B00446FDF7C3FC002844D02046EC
:10304000FFF716FFA26ACDF80A20E26ACDF80E203B
:10305000226BCDF81220E269CDF81620226ACDF855
:103060001A20626ACDF81E20626BCDF82220A26B76
:10307000CDF82620E26BCDF82A20226CCDF82E2048
:10308000626C6F23CDF83220A26C8DF804303A23A5
:103090008DF80530CDF8362041F20103E26CADF831
:1030A00006300023CDF83A20ADF808301A4601A9C1
:1030B000505C01321B183A2A9BB2F8D1A069ADF8D6
:1030C000083003681B69984710B010BD0023C36126
:1030D0008362436343640362C362836383644362C2
:1030E0000363C363C3644FF07E5303647047FFFF01
:1030F00037B504461D46009203230022FDF744FC29
:10310000164B204640F86C3B01F000FD04F1C8006E
:1031100000F057FB124800F019F92046FFF7D6FFE0
:1031200020460021FDF748FC002325660025636644
:10313000E3656365A3652365C4F81451C4F81051B1
:1031400084F80C5184F80D512046FFF721FE94F8C5
:103150000C310BB184F80E5120463EBD50D2000018
:10316000988EFF1F10B5044604F1F001002001F015
:1031700015FF002384F8F230084B094AC4F80031E7
:10318000C4F80431C4F80831A36EC4F8F420C4F8BC
:10319000F820C4F8FC2001221A7110BD809618CBCB
:1031A0008096184B10B590F80D31D1F806200446E2
:1031B0000BB112B110BD22B910BD012380F80E3140
:1031C00010BD80F80E31FFF7CDFF012384F80D31DB
:1031D00010BDFFFF054A137803F00203DBB2002B9A
:1031E000F9D0024B02221A70704700BF03600640FC
:1031F000094B1B7813B9094B1B782BB1084A13787C
:10320000202B03D901230371002070470548C154C6
:103210000133137001207047AA8EFF1F6D8EFF1FB0
:10322000AB8EFF1F4C8EFF1F7047FFFF024B1878BD
:10323000024B1B78C01A7047A98EFF1FA88EFF1F74
:10324000064A074913780978994204D90549C85CA8
:103250000133137070474FF0FF307047A88EFF1F87
:10326000A98EFF1F6E8EFF1F054B064A1B78127832
:103270009A4202D9044AD05C70474FF0FF30704741
:10328000A88EFF1FA98EFF1F6E8EFF1F38B50E4B35
:103290001B78144613B90D4B1B788BB10C4B1D7862
:1032A000C5F121039C4202D9012202711C46094842
:1032B0002246401909F0DCF8054B2D191D7000E07D
:1032C0001C46204638BD00BFAA8EFF1F6D8EFF1F13
:1032D000AB8EFF1F4C8EFF1F10B5104B1B7813F0E9
:1032E00020040BD1122003F0E9FB0D4B1B68A3B1A6
:1032F0000C4A14700C4A1078984710BD0B4A13788A
:103300000133DBB2012B137002D8094B1B7823B9B0
:103310001220BDE8104003F0D1BB10BD0360064091
:10332000488EFF1FA88EFF1FA98EFF1F948EFF1FC0
:103330006D8EFF1F002202710273034A4FF47A71EF
:1033400081600260704700BFA8D200000C4B0022D1
:103350001A700C4B196841F0400119600A4B0B4977
:103360001A704FF419720A6041F8042C084A272198
:103370001170042151712021117180221A7070473F
:103380006D8EFF1F34800440026006400CA0044094
:103390000160064010B5374A137803F01001C9B236
:1033A00021B903F04002D2B242B92EE010211170CF
:1033B00003F04002D2B2002AF3D110BD13F004038F
:1033C0002D4A18D0002313702C4A13702C4B1B6805
:1033D000144603B1984722782A4B1AB927491A7024
:1033E00001200870284AD02111701A78274B1A70D2
:1033F0000122274B21E001211170264A1370224B34
:10340000C0221A7002331B7830E01F4A1F4C11781B
:1034100011F0100117D013F0010310D11C49174807
:103420000A780078904205D9164B9B5C01322370D4
:103430000A7000E02370144BD0221A7016E0C023EB
:103440001370237812E0144B1220197003221349D1
:1034500003F00AFB0F4A207813781F2B06D8064981
:10346000097819B10E49C85401331370014B022277
:103470001A7010BD03600640448EFF1FAB8EFF1F05
:10348000908EFF1F4C8EFF1F0260064004600640B6
:10349000AC8EFF1FA98EFF1F948EFF1FD932000034
:1034A0006E8EFF1F044B054A4900197001231370EB
:1034B000034A1370704700BF4C8EFF1FAA8EFF1F78
:1034C000AB8EFF1F2DE9F041204B12221A70204ACB
:1034D0000D46117801F02001C9B211B1B423137067
:1034E0000BE019460A7802F02002D3B2002BF9D182
:1034F000184A1370164BB0221A700024164E174F3C
:10350000DFF8608013E03B5D88F80030FFF762FE73
:103510000E4B1B78DA0704D5002C14BF03200220C1
:103520000BE003F01003DBB233B90134E4B23378BB
:10353000A342E8D8002000E0042015B1044B80220B
:103540001A70074B00221A70BDE8F0810360064034
:10355000026006406D8EFF1FAB8EFF1F4C8EFF1F5B
:10356000AA8EFF1F046006402DE9F0471446344A36
:103570001E4600231370334A1370334B12221A7005
:10358000324A107800F02000C0B210B1B42313709A
:103590000BE01846027802F02002D3B2002BF9D1DA
:1035A0002B4A1370294BB0221A704900294D41F063
:1035B00001012970FFF70EFE234B244A1B7813F0FC
:1035C000110F04D0802313700020BDE8F0872CB9C0
:1035D000002E0CBFA02680261670F5E7012C01D125
:1035E000A82300E0A02313702B781B4FDFF8648022
:1035F000DFF8589025464FF0A80A0BE0013DEDB2E8
:10360000FFF7E8FD012D08BF89F800A098F8003009
:1036100007F8013F012DF1D1FFF7DCFD0B4B0F49FE
:10362000B0221A700B4A1078621ED2B2885420461B
:103630000EB180221A70034B1C70BDE8F08700BFEA
:10364000A88EFF1FA98EFF1F036006400260064080
:103650006D8EFF1F046006406D8EFF1F6E8EFF1F74
:103660000123FFF781BF0121FFF72CBF0148FFF7BE
:1036700061BE00BF988EFF1F2DE9F04F1546324AFC
:1036800089B09A4613680291059300240746BDF855
:103690004860DDF81480A1462FE02C483946FFF73A
:1036A00001FF02992948FFF7A3FD2848FFF7DBFF38
:1036B00026483946FFF7F6FE2A1B202AA8BF2022FB
:1036C00022483946D2B2FFF7CBFF4AFA89F34FF0CE
:1036D000000B03930BEB0901C9B21C480191FFF7E2
:1036E000A5FD0199E8B11EB3174B1868069006981E
:1036F000C8EB0000B0421BD313E0AC42CDD36EB197
:10370000114A12680792079AC8EB0208B04505D320
:103710004FFA89F2AA42B8BF4FF0FF094FFA89F079
:103720000FE0202D94BF64192034E4B28946E4E709
:103730000648FFF785FD039B03F80B000BF1010B17
:10374000C8E709B0BDE8F08F848FFF1F988EFF1F78
:1037500013B51446009301222346FFF78DFF1CBDCD
:10376000F8B507460C460D48394615461E46FFF784
:1037700099FE21460948FFF73BFD002403E0315D37
:10378000FFF736FD0134E3B2AB420448F7D3FFF74D
:103790006AFFD0F1010038BF0020F8BD988EFF1FEE
:1037A00007B502AB03F8012D0122FFF7D9FF0EBDCB
:1037B000084603F017B90846114603F027B903F08D
:1037C000D5B84FF0FF3202605022026128224261D8
:1037D00003228261C2611022026242626822027187
:1037E0007047FFFF10B50B4C4FF07C51A4EB600409
:1037F00008F02CF9214608F029F9214608F026F9AD
:1038000001464FF07F5008F017F80146204608F0B7
:103810001DF910BDDF59375F70B5044616460D46D9
:1038200002784078B3B140EA022000B208F0BAF85A
:10383000314608F00BF92860E378A07843EA0020CD
:1038400000B208F0AFF8314608F000F9686020795E
:10385000637915E042EA002000B208F0A3F831468F
:1038600008F0F4F82860A378E07843EA002000B27A
:1038700008F098F8314608F0E9F868606079237933
:1038800043EA002000B208F08DF8314608F0DEF877
:10389000A86070BD884205D00B6803604B68436028
:1038A0008B688360704738B504460D460068096828
:1038B00007F0C2FF20606968606807F0BDFF6060C4
:1038C000A968A06807F0B8FFA060204638BD0023B3
:1038D000036043608360704710B50446FFF7F7FF4D
:1038E000204610BD70B505460C460068096808F012
:1038F000ADF861680646686808F0A8F801463046E9
:1039000007F09CFFA1680646A86808F09FF80146EA
:10391000304607F093FF70BD2DE9F047D1F808A0BD
:10392000D0F8088005460C4650466968164608F0EF
:103930008DF861680746404608F088F80146384629
:1039400007F07AFF3060D4F800902F68404649466F
:1039500008F07CF851468046384608F077F8014672
:10396000404607F069FF70606168384608F06EF8FD
:1039700069680446484608F069F80146204607F0A1
:103980005BFFB060BDE8F0872DE9F041D0F8008022
:103990004768866841460446404608F057F839466D
:1039A0000546384608F052F80146284607F046FF1B
:1039B00031460546304608F049F80146284607F0EA
:1039C0003DFFFFF70FFF0021054608F0D3F9A0B92E
:1039D00028464FF07E5108F0CDF970B9294640468F
:1039E00008F034F829462060384608F02FF82946B8
:1039F0006060304608F02AF8A060BDE8F0812DE94B
:103A0000FF410E4607C801AB83E807001846FFF7E1
:103A1000BBFF029807F0A6FB044603980D4607F08B
:103A2000A1FB02460B462046294605F05DF907F04A
:103A3000AFFE3060019807F095FB04460298DDF870
:103A40000C800D46014608F001F841460746404605
:103A500007F0FCFF0146384607F0F0FE07F082FB56
:103A600005F0A0F90B4602462946204605F03CF930
:103A700007F08EFE002300F100407060B360BDE8E7
:103A8000FF810346006870B501465E689D6807F0D7
:103A9000DDFF31460446304607F0D8FF0146204698
:103AA00007F0CCFE29460446284607F0CFFF014622
:103AB000204607F0C3FE70BD884207D00B68036044
:103AC0004B6843608B688360CB68C360704770B598
:103AD00005460E4600242859315907F0AFFE2851FB
:103AE0000434102CF7D1284670BD70B505460E463B
:103AF00000242859315907F09FFE28510434102C16
:103B0000F7D1284670BDF0B58BB0044601A80D462C
:103B1000FFF7DDFE04A8FFF7DAFE07A8FFF7D7FEE0
:103B200063680193A3680293E36803936B6804934B
:103B3000AB680593EB6804A901A80693FFF7D2FED2
:103B400007AA074604A901A8FFF7E6FE2668296828
:103B5000304607F07BFF394607F06EFE049920607F
:103B6000304607F073FF2D6801990746284607F095
:103B70006DFF0146384607F061FE079907F05EFECB
:103B800005996060304607F061FF029907462846B4
:103B900007F05CFF0146384607F050FE089907F031
:103BA0004DFE0699A060304607F050FF0399064687
:103BB000284607F04BFF0146304607F03FFE0999C3
:103BC00007F03CFEE06020460BB0F0BD38B504467F
:103BD00000680D4607F03AFF29462060606807F04C
:103BE00035FF29466060A06807F030FF2946A060D5
:103BF000E06807F02BFFE060204638BD38B504468A
:103C000015460FC984E80F0020462946FFF77BFFC1
:103C1000204638BD38B5044615460FC984E80F0064
:103C200020462946FFF7D2FF204638BD38B5044666
:103C300015460FC984E80F0020462946FFF755FFB7
:103C4000204638BD0023036043608360C360704733
:103C500010B50446FFF7F6FF204610BD2DE9F843E6
:103C6000D0F80090D0F804808768C66849460446BA
:103C7000484607F0EBFE41460546404607F0E6FEA3
:103C80000146284607F0DAFD39460546384607F072
:103C9000DDFE0146284607F0D1FD31460546304697
:103CA00007F0D4FE0146284607F0C8FDFFF79AFD4D
:103CB0000021054608F05EF8C8B928464FF07E514D
:103CC00008F058F898B92946484607F0BFFE29463B
:103CD0002060404607F0BAFE29466060384607F08B
:103CE000B5FE2946A060304607F0B0FEE060BDE8B2
:103CF000F883FFFF2DE9F8430746D0F80890D0F885
:103D000004800E464846F96807F0A0FE396804466C
:103D1000404607F09BFE0146204607F08FFD07F066
:103D200021FA02460B4607F0BFF804460D4640460E
:103D3000414607F08BFE49468046484607F086FE1E
:103D40000146404607F07AFD07F00CFA02460B46A2
:103D500007F0AAF802460B460020304907F0A2F807
:103D600002460B462046294604F0BEFF07F010FD30
:103D7000B9683060386807F069FEF9680446786809
:103D800007F064FE0146204607F056FD07F0EAF909
:103D900002460B4607F088F804F052FF07F0F8FCE3
:103DA000D7F8089079687060484607F04FFED7F85A
:103DB0000C8039680446404607F048FE014620461C
:103DC00007F03CFD07F0CEF902460B4607F06CF811
:103DD00004460D464846494607F038FE4146074628
:103DE000404607F033FE0146384607F027FD07F04E
:103DF000B9F902460B4607F057F802460B46002079
:103E0000064907F04FF802460B462046294604F0C3
:103E10006BFF07F0BDFCB060BDE8F8830000F03F29
:103E20002DE9F74F04460D4608684FF07C5107F026
:103E30000DFE07F097F906460F4604F06BFE07F0FB
:103E4000A7FC39468146304604F0AEFE07F0A0FCE0
:103E50004FF07C518346686807F0F8FD07F082F95F
:103E600006460F4604F056FE07F092FC394682469D
:103E7000304604F099FE07F08BFC4FF07C51019026
:103E8000A86807F0E3FD07F06DF906460F4604F059
:103E900041FE07F07DFC39460546304604F084FEBD
:103EA00007F076FC51460646484607F0CFFD0199DB
:103EB0008046584607F0CAFD29460746404607F0A7
:103EC000C5FD314603463846009307F0BFFD009B11
:103ED0000146184607F0B2FC51462060584607F0EC
:103EE000B5FD01998246484607F0B0FD2946814656
:103EF000504607F0ABFD31468346484607F0A6FD25
:103F00000146584607F098FC29466060484607F08D
:103F10009DFD31468146504607F098FD01464846D2
:103F200007F08CFC3146A060404607F08FFD294623
:103F30000646384607F08AFD0146304607F07CFC0D
:103F4000E060204603B0BDE8F04FFFF787BE38B50C
:103F50000D460446FFF776FE2B6823606B6803F17D
:103F600000436360AB6803F10043A360EB6803F1B7
:103F70000043E360204638BD4079704700487047F1
:103F8000C0D2000005207047436B4FF4C87090FB0F
:103F9000F3F07047034B10B50446036000F0C0FB1C
:103FA000204610BDD8D2000010B50446FFF7F2FF3E
:103FB000204604F0EFFB204610BDFFFF10B504467D
:103FC00000F0CEFB014B2046236010BDD8D200008C
:103FD0004B1FB3F5797F4FF0000308D24FF47A728C
:103FE0004163B2FBF1F18163C3630120704718465E
:103FF0007047FFFF112907D8044A4BB29A4003D5F6
:1040000080F88B10012070470020704700C000FE30
:10401000082907D8044A4BB29A4003D580F88C107F
:104020000120704700207047000080FE4B1E632B6C
:1040300003D8C0F890100120704700207047FFFFA0
:1040400008290BD001D829B117E010290AD0182966
:1040500013D10BE080F89410094B0AE080F894101B
:10406000084B06E080F89410074B02E0074B80F8FD
:104070009410C0F89830012070470020704700BFAE
:10408000FDB30B39A9689239787D0B3A787D8B3A6C
:1040900008290CD001D829B11BE010290CD018290F
:1040A00017D10EE080F895104FF062530DE080F8C4
:1040B00095104FF0645308E080F895104FF0665368
:1040C00003E080F895104FF06853C0F89C30012051
:1040D00070470020704710B538210446002290F840
:1040E0008900FFF75DFB00282DD094F8890023217B
:1040F0000022FFF755FB30B394F889006A210022B3
:10410000FFF74EFBF8B194F889006A210422FFF70B
:1041100047FBC0B194F889006A216022FFF740FB99
:1041200088B1322002F07CFE94F889003821012207
:10413000FFF736FB38B194F8890023217822BDE8D7
:104140001040FFF72DBB002010BDFFFF70B5514E92
:104150008AB033880446722190F8890000930222C5
:1041600003ABFFF789FA00B911E09DF80C509DF8F8
:104170000D3003EB0525B5F5806F0AD12046FFF71A
:10418000AAFFE36AA26B562101FB0233E36200201F
:104190007EE0B5F5F07F11D9338894F8890000935B
:1041A00074210C2207ABFFF767FA0028EFD0E26A10
:1041B000A36B0C3DD318E362772DECE70B2DE6D90A
:1041C000344D94F889002B88742100930C2207AB9E
:1041D000FFF752FA0028DAD02B8894F88900009370
:1041E0004921082205ABFFF747FA0028CFD007A8DE
:1041F00004F11401D4F89C200123FFF70DFB0DF10D
:10420000220004F10801D4F898200123FFF704FBF1
:10421000214A0DF1150004F120010023FFF7FCFAFB
:10422000E368206AD4F8A01003F10043E360236937
:1042300003F100432361636903F10043636107F005
:1042400005FCD4F8A4100546606A07F0FFFBD4F81B
:10425000A8100646A06A07F0F9FB05F10045A06228
:1042600026622046656200F001FB204600F0A8FBB4
:1042700094F8883023B1094B1B680493049B02E037
:10428000E26AA36BD318E362002384F8883001202C
:104290000AB070BD6687FF1F9A99193F848FFF1F70
:1042A00013B5164B04466A2190F889001B880DF15E
:1042B0000702FFF74DFA08B900201DE09DF807201E
:1042C00094F8890022F0200242F002026A218DF85F
:1042D0000720FFF765FA0028EED0322002F0A0FD9B
:1042E00094F8890037218222FFF75AFA0028E3D098
:1042F000322002F095FD01201CBD00BF6687FF1F24
:1043000013B5144B04466A2190F889001B880DF1FF
:104310000702FFF71DFA08B900201AE09DF80720F0
:1043200094F8890042F020026A218DF80720FFF7F7
:1043300037FA0028F0D0322002F072FD94F889009C
:1043400037218022FFF72CFA18B1322002F068FDE5
:1043500001201CBD6687FF1F38B590F88B5090F880
:104360009430C5F3C102D21804461B2190F889008D
:10437000D2B2FFF715FA40B194F889001A2105F07E
:104380000702BDE83840FFF70BBA38BD10B5044648
:104390001C2190F8890094F89520FFF701FA40B1AC
:1043A00094F8890094F88C201D21BDE81040FFF797
:1043B000F7B910BD436BB3F57A7F0ADC4FF47A721C
:1043C00092FBF3F35A1E90F889001921D2B2FFF73D
:1043D000E7B901207047426BD0F8903090F889001F
:1043E00092FBF3F2013A1F2AA8BF1F223421D2B256
:1043F000FFF7D6B91FB5012380F88830036B1A790F
:10440000044680F889201969FFF7E2FD236B2046F6
:104410005969FFF70BFE236B2046197EFFF7EAFD73
:10442000236B2046197FFFF7F3FD236B204693F89B
:104430002010FFF705FE236B204693F82410FFF7AA
:1044400027FE204600F0B2F994F889006B21802203
:10445000FFF7A6F9002800F01881642002F0E0FCC4
:1044600094F889006B210022FFF79AF9002800F0E8
:104470000F81A74B94F889001B8875210DF10B0261
:10448000FFF766F9002800F006819DF80B30712BCC
:1044900040F004812046FFF75FFF002800F0018113
:1044A0002046FFF773FF002800F0FE802046FFF74C
:1044B00081FF002800F0FB802046FFF7F1FE002876
:1044C00000F0F8800C200A210022FFF769F928B9D2
:1044D0002046FFF715FF6FF00B0017E10C200A21B3
:1044E0000F22FFF75DF928B92046FFF709FF6FF0AB
:1044F0000C000BE1864B1B880C200093102103223B
:104500000DEB0003FFF7B8F828B92046FFF7F8FED7
:104510006FF00D00FAE09DF80C0007F03FFA06F08E
:1045200021FE00227B4B06F0BDFC00227A4B06F0F8
:104530006DFE0022794B06F0B7FC07F029F9C4F8AC
:10454000A0009DF80D0007F029FA06F00BFE0022EE
:10455000704B06F0A7FC00226F4B06F057FE0022BE
:104560006E4B06F0A1FC07F013F9C4F8A4009DF807
:104570000E0007F013FA06F0F5FD0022654B06F079
:1045800091FC0022644B06F041FE0022634B06F0D2
:104590008BFC07F0FDF80A21C4F8A80000220C20CB
:1045A000FFF7FEF828B92046FFF7AAFE6FF00E00CD
:1045B000ACE02046FFF7A4FE00287ED094F88900E6
:1045C00024214022FFF7ECF8002879D094F88900E4
:1045D00025218C22FFF7E4F8002874D094F8890094
:1045E00026210222FFF7DCF800286FD094F889001A
:1045F00027218822FFF7D4F800286AD094F8890090
:1046000028210C22FFF7CCF8002865D094F8890007
:1046100029210A22FFF7C4F8002860D094F8890005
:104620002A218122FFF7BCF800285BD094F889008A
:1046300064210122FFF7B4F8002856D094F88900CD
:1046400067210322FFF7ACF8002851D02046FFF77E
:10465000C2FE00284FD094F889006B210122FFF799
:104660009FF800284AD094F889006C210022FFF7B7
:1046700097F8002845D02046FFF72DFD002843D0AD
:10468000204600F0E5F8012040E04FF0FF303DE02B
:104690006FF003003AE06FF0040037E06FF00500C0
:1046A00034E06FF0060031E06FF007002EE06FF0AD
:1046B00008002BE06FF00A0028E06FF00F0025E003
:1046C0006FF0100022E06FF011001FE06FF0120099
:1046D0001CE06FF0130019E06FF0140016E06FF0AB
:1046E000150013E06FF0160010E06FF017000DE0FA
:1046F0006FF018000AE06FF01A0007E06FF01B007F
:1047000004E06FF01C0001E06FF01D0004B010BD6C
:104710006687FF1F000060400000703F0000F03F10
:10472000014B0360704700BF08D3000090F84800B9
:104730007047FFFF034B10B50446036004F02AF8EE
:10474000204610BD08D3000038B50546B02004F05F
:104750001DF829460446FFF731FC204638BDFFFF0F
:1047600038B5114B044640F8083B0D46FFF7B4F846
:1047700004F11400FFF7B0F804F12000FFF7ACF8E3
:1047800004F14C00FFF7A8F804F15800FFF7A4F873
:1047900004F17C00FFF7A0F8002325632371637107
:1047A00084F84830204638BD08D300002DE9F04396
:1047B000064689B00020707101A900F0EFFB0028C7
:1047C00041D09DF80630012B3DD1204D6C4603AF02
:1047D00060690434616807F02FF82946804607F0C5
:1047E000F1FA00B14546BC42F2D12846002107F05B
:1047F000CBFA40BB28464FF07C5107F027F93546ED
:104800008146002401AA13190434D3F810805F688C
:104810004046394607F010F84FF07C5107F016F982
:104820000146484607F0C6F939462867404607F072
:1048300005F84FF07C5107F009F9043528660C2C77
:10484000E0D10123737109B0BDE8F083000080BF9F
:1048500010B50446406B07F0A5F801464FF08040C4
:1048600007F0A8F900232064636410BD2DE9F0432C
:1048700000F15805804695E8070085B001AC08F1C5
:10488000140684E8070031462046FFF70CF831464D
:104890002846FEF7FFFF2046FFF7F3F8454907F0EB
:1048A00073FA80B108F10800FFF7EBF8424907F00E
:1048B0006BFA78B907E001329A42C8F8442002D175
:1048C000012388F8483008F1080008F14C01FEF790
:1048D000EAFF6CE0D8F84090484606F043FC0246F8
:1048E0000B460020354906F0DDFA0446D8F84C00A6
:1048F0000D4606F037FC02460B462046294606F0D8
:1049000085FC06460F464846D8F8081007F09EF882
:1049100006F028FC02460B463046394606F0C4FA3B
:1049200006F036FFC8F84C00D8F8500006F01AFC24
:1049300002460B462046294606F068FC06460F460E
:104940004846D8F80C1007F081F806F00BFC024638
:104950000B463046394606F0A7FA06F019FFC8F8AC
:104960005000D8F8540006F0FDFB02460B462046E6
:10497000294606F04BFC04460D464846D8F8101070
:1049800007F064F806F0EEFB02460B462046294687
:1049900006F08AFA06F0FCFED8F83430D8F8442045
:1049A000C8F8540005214B439A4284DB8BE705B0DD
:1049B000BDE8F0830BD7233B0BD7233D0000F03F2E
:1049C000037970B50646CBB94379BBB1006A716E05
:1049D00006F032FF316F07F039F8B16E3062706A5D
:1049E00006F02AFF716F07F031F8F16E7062B06A5D
:1049F00006F022FFB16F07F029F8B062306A2E4945
:104A000007F024F806F0AEFB0446F06F0D4606F002
:104A1000A9FB27A3D3E9002306F0F8FB02460B46C7
:104A20002046294606F040FA06F0B2FE2249F06719
:104A3000706A07F00BF806F095FB0446D6F8800084
:104A40000D4606F08FFB1AA3D3E9002306F0DEFB28
:104A500002460B462046294606F026FA06F098FE46
:104A60001549C6F88000B06A06F0F0FF06F07AFB40
:104A70000446D6F884000D4606F074FB0CA3D3E977
:104A8000002306F0C3FB02460B462046294606F0EB
:104A90000BFA06F07DFE06F17C01C6F8840006F1F3
:104AA0002000BDE87040FEF7F5BE00BFAFF3008008
:104AB000000000989999E93FCDCC4C3EAFF30080BF
:104AC000704730B5012385B080F85730044600F1B7
:104AD000480501A8FEF700FF01A92846FEF7DAFE07
:104AE000294604F13800FFF79BF904F12C0501A8D1
:104AF000FEF7F2FE01A92846FEF7CCFE04F11C00E9
:104B00002946FFF78DF905B030BDFFFF10B504460B
:104B10000430FFF79DF804F11C00FFF799F804F149
:104B20002C00FEF7D9FE04F13800FFF791F804F1EC
:104B30004800FEF7D1FE084B6361084BA3610123D7
:104B4000204684F8543084F8553084F85630FFF706
:104B5000B8FF204610BD00BF6F12833A6F12033AB0
:104B60002DE9F04794B0064668460C461746FFF715
:104B70006FF804A8FFF76CF896F8552006F12C01A1
:104B80001AB12046FEF73BFF06E0084606F1480151
:104B9000FEF780FE0023736396F85630002B6CD02E
:104BA000F06A4FF07C5106F051FF06F0DBFA044644
:104BB0000D4603F0AFFF06F0EBFD29468046204688
:104BC00003F0F2FF06F0E4FD4FF07C518146306BBC
:104BD00006F03CFF06F0C6FA04460D4603F09AFFC5
:104BE00006F0D6FD29468246204603F0DDFF06F09A
:104BF000CFFD51460446404606F028FF514604903A
:104C0000484606F023FF21460590404606F01EFF69
:104C10002146069009F1004006F018FF002300939A
:104C20003B68079001937B680293BB686A4608A8BB
:104C300004A90393FEF7E2FF0CA804A9FFF787F984
:104C40000CAA10A808A9FEF7D9FF10A96846FEF71C
:104C500033FF029806F086FA044601980D4606F0E6
:104C600081FA02460B462046294604F03DF806F03C
:104C70008FFD00F10040706301E0336D736306F156
:104C80001C0806F12C0740463946FFF7C9F8DFF843
:104C90008C9000244FF0FF3506F11C03494653F871
:104CA000243023F0004A504607F08CF808B1D14672
:104CB00025460134042CEFD106EB85090021D9F8F3
:104CC0001C40204607F060F828B1D9F838000021D0
:104CD00007F078F858B92046002107F073F8D0B1F2
:104CE00006EB85050021A86B07F04EF898B1F36933
:104CF00003F10043F361336A03F100433362736AE3
:104D000003F100437362B36A03F10043B3624046A8
:104D10003946FEF7EFFF14B0BDE8F08700007AC413
:104D20002DE9F04F04468DB002A81E460F4690466E
:104D3000169DFEF7D1FD94F85730ABB13246A5650C
:104D40002046414604F12C05FFF70AFF04F1380024
:104D50002946FFF765F804F148002946FEF79AFD59
:104D6000002384F85730FDE0A06D281A06F016FEE7
:104D70007E4906F01FFFA5652060002107F00EF8B0
:104D8000002840F0EF80414632462046FFF7E8FE1B
:104D9000636CD4F838A0019394F85430D4F83C8074
:104DA000266C13B102A8394604E005A8FEF794FD6D
:104DB00002A805A9FEF76EFD02984FF07C5106F09F
:104DC00045FE4FF07C510746039806F03FFE4FF03A
:104DD0007C518146049806F039FE4146834607F12E
:104DE000004006F033FE314603464846009306F085
:104DF0002DFE009B25680146184606F01DFD019911
:104E000003465846009306F021FE009B01461846D3
:104E100006F012FD294606F019FE0146504606F03E
:104E20000DFD5146A063384606F010FE314603469C
:104E30005846009306F00AFE009B0146184606F00D
:104E4000FDFC019903464846009306F0FFFD009BD8
:104E50000146184606F0F0FC294606F0F7FD01462B
:104E6000404606F0EBFC5146E063484606F0EEFD96
:104E7000414603465846009306F0E8FD009B014674
:104E8000184606F0D9FC019903463846009306F00F
:104E9000DDFD009B0146184606F0D0FC294606F0D1
:104EA000D5FD0146304606F0C9FC514620645846FF
:104EB00006F0CCFD41468246484606F0C7FD014655
:104EC000504606F0BBFC31468046384606F0BEFD33
:104ED0000146404606F0B0FC294606F0B7FD014603
:104EE000019806F0ABFC94F85630606408A813B93A
:104EF00094F8553033B104F11C0104F13802FEF787
:104F000095FE01E0FEF7A4FE04F1380508A9201D76
:104F1000FEF7D2FD261D2A4608A804F11C01FEF763
:104F200085FE08A93046FEF7C7FD2168606906F0D6
:104F30008DFDA169074606F081FC0146384606F062
:104F400039FE3146024608A8FEF764FE08A9284645
:104F5000FEF7BDFD2846FEF781FE284604F1480114
:104F6000FEF7C8FE0DB0BDE8F08F00BF00007A4428
:104F700070B583004401E41AFC230B7015234B70B9
:104F800004F11C050E1B2146325D03480134FEF777
:104F900012FCAC42F7D170BDAD8EFF1F70B583001F
:104FA0004401E41A00238B700D460D482146FEF79C
:104FB000FFFBFC2812D1611C0948FEF7F9FB1528FC
:104FC0000CD104F11C062D1B21460548FEF7F0FB11
:104FD00028550134B442F7D1012070BD002070BDC6
:104FE000AD8EFF1F7047FFFF034B10B504460360F3
:104FF000FBF7BAFC204610BD38D3000010B50446BC
:10500000FFF7F2FF204603F0C5FB204610BDC06944
:10501000C0B201B1012101F09DBEC979003118BFB4
:105020000121FFF7F4BFFFFF37B51D4600230093B2
:1050300008230446FBF7A8FC084B012D236001D18F
:10504000062300E00723E361207F012101F0AEFE8B
:1050500020460121FBF7B0FC20463EBD38D30000BE
:105060007047FFFF034B10B504460360FBF77CFC61
:10507000204610BD50D3000010B50446FFF7F2FFE4
:10508000204603F087FB204610BD38B5044603F0E8
:10509000FFFC0546204603F0B5FC281838BDFFFF8D
:1050A000F0B587B00446FBF78BFC00285AD071237B
:1050B0008DF8003004F11C07172300258DF801300E
:1050C000384641F20103ADF80230ADF8045000F06B
:1050D00077F906F05DFBCDF80600384600F094F94C
:1050E00006F056FB84F89550CDF80A00D4F89C00E1
:1050F00006F026F800221C4B06F0B2F906F048FB39
:10510000D4F8BC3084F8B550ADF8123084F8A5500E
:10511000D4F8AC30154DCDF80E00ADF814300126A2
:105120002B688DF8166012495B682846052298475F
:105130009DF91610284601B13146FFF7A6FF00235E
:105140009DF801101A4604E01DF80300121892B2EF
:1051500001338B42F8DBA069ADF80420036869468F
:105160001B69984707B0F0BD000059400492FF1F2B
:1051700060D3000037B504461D460092022300228A
:10518000FBF702FC20460F4B40F81C3B00F02CF8CC
:1051900015B1C4F8F45003E04FF41653C4F8F430DA
:1051A000D4F8F430580800F1B76000F55840B0FB6F
:1051B000F3F001F09FFF20460121FBF7FDFB2046A5
:1051C0003EBD00BF50D3000010B5044602F00AF9FE
:1051D000002808DD02F014F9C1B204F11C00BDE89A
:1051E000104000F0D3BA10BD0346002110B50224D0
:1051F000017041708180816001824161818301621F
:105200000185C1621973197683F8241083F8301070
:1052100083F83810C16383F8391083F84810C164EB
:1052200083F8491083F8581001660167C0F88010B0
:1052300083F8591083F8681083F8691083F87810A0
:1052400083F8791083F8881083F88910C0F89010DB
:1052500083F8981083F89910C0F8A01080F8B9402E
:1052600083F8A81083F8A91083F8BA1083F8BB104C
:1052700083F8BC10C0F8C010C0F8C410C0F8C81043
:10528000C0F8CC10C0F8D010C0F8D41083F8AA1021
:1052900010BDA1F14103052B02D8A1F137007047E1
:1052A000A1F16103052B94BFA1F15700A1F13000DA
:1052B000704738B50578B5F12D035D425D41044670
:1052C00005B1441C204606F0B3FD64234343224647
:1052D00014F8011BA1F130000928F8D92E2910D1AA
:1052E0005178A1F1300009280BD809B2C800927892
:1052F00000EB4101303AA1F5F0715B18092A98BF23
:105300009B1805B15B42184638BDFFFF38B50C4607
:10531000054606F08DFD6423B0FBF3F212492280AE
:1053200003FB12034B432846014610F8012BA2F160
:105330003005092DF8D92E2A0CD108460A4A0A252B
:1053400003E0B2FBF5F202FB013310F8011F303924
:105350000929F6D90522534301330322B3FBF2F3A3
:1053600063600023237238BD80969800034682B0A4
:1053700053F81C2F42605A6882601B7A03730346FD
:1053800053F8282F02615A6842611B7A0376054B55
:105390001B680193019B436301234370037002B0B8
:1053A000704700BF848FFF1F00F11C030846194699
:1053B000FFF7ACBF00F1280308461946FFF7A6BF68
:1053C000002370B543700646808805F0B9FE044698
:1053D000B0680D4605F0A4FE09A3D3E9002306F04A
:1053E0003FF802460B462046294605F05DFD0B4678
:1053F000317B024609B103F100431046194670BDE6
:105400000000000065CDCD41002370B54370064615
:10541000008A05F095FE044670690D4605F080FE91
:1054200009A3D3E9002306F01BF802460B462046E9
:10543000294605F039FD0B46317E024609B103F1DC
:1054400000431046194670BD0000000065CDCD41F7
:1054500083684360054B82B01B680193019BC36066
:1054600001234370037002B0704700BF848FFF1F99
:1054700083684360054B82B01B680193019BC36046
:1054800001234370037002B0704700BF848FFF1F79
:1054900010B504460846FFF70CFFA06010BD10B51C
:1054A0000446084606F0C4FCA06010BDC3688360D3
:1054B000054B82B01B680193019B4360012343703D
:1054C000037002B0704700BF848FFF1F10B5044601
:1054D0000846FFF7EEFEE06010BDFFFFC368836083
:1054E000054B82B01B680193019B4360012343700D
:1054F000037002B0704700BF848FFF1F10B50446D1
:10550000084606F095FCE06010BDFFFF13B50446A9
:105510002146103007F0D2F9054B1B680193019B1F
:105520002362012384F8253084F824301CBD00BF99
:10553000848FFF1F102207F01FBAFFFF90F8A930D9
:1055400070B50446002B62D090F8AA10FFF7A1FEB8
:1055500094F8AB1005462046FFF79BFE94F8A83060
:1055600000EB0510C5B2AB424BD1D4F8D4300133B7
:10557000C4F8D43094F8BC3023B1D4F8CC30013323
:10558000C4F8CC3094F8B930B3B1012B2AD104F16E
:105590003800FFF75DFF04F14800FFF769FF94F85A
:1055A000BC30FBB12046FFF7E1FE04F15800FFF7E5
:1055B0007DFF04F1680013E004F14800FFF758FF95
:1055C00094F8BC3033B12046FFF7D0FE04F17800E8
:1055D000FFF76CFF04F18800FFF780FF04F19800EB
:1055E000FFF764FFD4F8C450002D00F0BC80D4F85D
:1055F000C430A86A996A07F073F8002800F0B580F3
:10560000B1E0D4F8D0300133C4F8D0301DE090F8C8
:10561000BA2042BB00F1AA0528465A4907F060F8B3
:1056200008B9012308E02846574907F059F810B98E
:1056300084F8B90002E0022384F8B930D4F8C0300D
:10564000C4F8C430D4F8C4600EB9002070BDB06A8C
:10565000294607F045F8002880F290808AE0002073
:10566000C4F8C40070BD90F8B910022960D090F859
:10567000AA30002B5CD042EA4112013A282A57D8BE
:10568000DFE802F01520252C3142494F515656567D
:1056900056565656565656565656565656565656AA
:1056A00056565656151B20252C31383A3C004830AA
:1056B00004F1AA01FFF7ECFE3AE0B3F141004342E6
:1056C000434125E004F1AA01FFF76EFE30E0B3F19B
:1056D00053014B424B4180F8243029E004F1AA01E8
:1056E000FFF768FE24E0B3F157025342534180F8BC
:1056F00030301DE0583017E0683015E0383004F1E4
:10570000AA01FFF7CCFE13E0302B94BF0023012346
:1057100084F8BC300CE0883004F1AA01FFF7EEFEFB
:1057200006E0983000E0783004F1AA01FFF7CEFEE1
:10573000D4F8C45004F1AA0604E028463146FFF725
:10574000F9FE2D6B002D80D0D4F8C430A86A996A78
:1057500006F0C6FF00287FF478AFEB6A94F8BA2011
:10576000934209DD71E7012070BD2846FFF7CEFEA8
:105770002D6B39E7336B63E7E3D1DEE77FF46FAF7F
:1057800063E700BF66D300006CD3000038B5D0F8E3
:10579000C8300133242904460D46C0F8C8302CD047
:1057A00004D80A290CD00D2936D109E02A2907D0BE
:1057B0002C2931D190F8A83083F02C0380F8A83040
:1057C00094F8BB300E2B4FF0000005D8E31883F897
:1057D000AA002046FFF7B2FE94F8BA30013384F8ED
:1057E000BA300023B5F12A0CDCF1000555EB0C05AD
:1057F00084F8BB3084F8A95038BD0020022384F817
:10580000BB0084F8BA0084F8A80084F8B93084F8A2
:10581000A90084F8BC0038BD94F8BB300D2B05D826
:10582000E218013382F8AA5084F8BB3094F8A9003A
:1058300028B994F8A8305D4084F8A85038BD0020FD
:1058400038BDFFFF2E4B002230B51A6090F894301F
:1058500053B9D0F890305A6802F596525A6090F8D1
:1058600099201A60012347E0012B28D190F8953048
:1058700073B100EB830290F89710526C01338B42A6
:1058800088BF0023D0F88C10A2F5965271B913E0AE
:1058900090F89640011F80F897401A4603E051F8AF
:1058A000045F01324D64A242F9D9E2E7012B01D134
:1058B0000B7001E000240C7080F8953001E0D0F806
:1058C00088204EF660239A42D0F89030596806D866
:1058D0008A185A6090F898201A6000230CE001F5AD
:1058E00062419031596090F89910A2F56242903A65
:1058F0001960C0F88820022380F8943030BD00BFC2
:1059000054800340442380F88A307047324B1A6831
:105910004FF6FF739A4230B5304A51D1136803F005
:105920007F03482B4CD14B1F0024122B46D8DFE8B5
:1059300003F00A1F45450D1045454545454545457C
:10594000451316191C00264A072313E0254A022393
:1059500010E0254A03230DE0244A05230AE0244AE7
:10596000062307E0234A002304E0234A012301E041
:10597000224A0423C0F8844080F88B4090F88A4083
:105980000260FF2580F8885014601D4A42F8230009
:105990001C4A0120147800FA03F3234313701A4BB6
:1059A00003EBC10140F244424B681A60174B2022BE
:1059B0001A70174B4FF080421A6030BD002030BD86
:1059C000144C00234FF6FF75136023606560482474
:1059D0001460114A1360A6E708800340008003406A
:1059E000448003401C8003402480034034800340F3
:1059F0003C8003400C800340148003402C80034013
:105A0000B48EFF1FB38EFF1F78D400003EE400E089
:105A100004E100E00480034054800340036890F8F0
:105A20008A105A6810B51960174BB2F5604F1B8881
:105A300003D91649097801B1013B42EA0343D0F882
:105A40008420C0F884309A1A114B9A4290F888301A
:105A500011D9FF2B0DD0021F002103E0043254683E
:105A6000013154649942F9DB80F88930012380F8D0
:105A70008B30002305E00F2B05D800EB83010133A9
:105A80004A6080F8883010BDB08EFF1FAE8EFF1FB9
:105A90003F9002006E4B1A6810B5140608D54822D4
:105AA0001A606C4B1A8801321A806B4B01221A70F3
:105AB0006A4B1C78E00703D5694B1B68190677D43D
:105AC00004F00203DBB21BB1664B1B681A0674D4E8
:105AD00004F00403DBB21BB1634B1B681B0671D4DB
