:1000000000800020BD0100004D5C00004D5C000040
:100010004D5C00004D5C00004D5C0000195C000070
:10002000195C0000195C0000195C00004D5C0000C8
:100030004D5C0000195C00004D5C0000095C000094
:100040004D5C00004D5C00004D5C00004D5C00000C
:100050004D5C00004D5C00004D5C00004D5C0000FC
:100060004D5C00004D5C00004D5C00004D5C0000EC
:100070004D5C00004D5C00004D5C00004D5C0000DC
:100080004D5C00004D5C00004D5C00004D5C0000CC
:100090004D5C00004D5C00004D5C00004D5C0000BC
:1000A000153100004D5C00004D5C00004D5C00000F
:1000B0004D5C00004D5C00004D5C00004D5C00009C
:1000C0004D5C00004D5C00004D5C00004D5C00008C
:1000D0004D5C00004D5C00004D5C00004D5C00007C
:1000E0004D5C00004D5C00004D5C00004D5C00006C
:1000F0004D5C0000516F00004D5C0000D56A0000AF
:100100004D5C0000798000004D5C00004D5C0000FB
:100110004D5C00004D5C00004D5C00004D5C00003B
:100120004D5C00004D5C00004D5C00004D5C00002B
:100130004D5C00004D5C0000BD5600004D5C0000B1
:100140004D5C00004D5C00004D5C00004D5C00000B
:100150004D5C00004D5C00004D5C00004D5C0000FB
:10016000BD060000157200004D5C00004D5C0000F3
:100170004D5C00004D5C00004D5C00004D5C0000DB
:100180004D5C00004D5C00004D5C00004D5C0000CB
:100190004D5C00004D5C00004D5C00002D610000D6
:1001A0007D61000005620000C1620000456300003F
:1001B0004D5C00004D5C00004D5C0000544B4CF267
:1001C000205210B51A804DF628121A8000BF00BFC9
:1001D00005F040FD4F4B4FF010621A604E4A9A6096
:1001E0004E4ADA604E4B1A6812F4807204D14D49BF
:1001F0000A604FF4A8521A604B4B1A7802F00802BA
:10020000D2B21AB11A7842F008021A70474B484825
:10021000484C2A221A700023474A02E01959995083
:10022000043399188142F9D3444B454A002101E037
:1002300043F8041B9342FBD34249434800231A5816
:100240005A500433B3F5DE7FF9D1404B404A802148
:1002500003F8011B9342FBD13A4A3E4B1A603E4BD6
:100260000A221A703D4B24221A70A02203F8012C96
:100270003B4A137803F00203DBB2002BF9D0384A73
:10028000137803F01003DBB2002BF9D1344A137852
:1002900003F00C03082BFAD1324B03221A704022D0
:1002A0005A702F4A137803F02003DBB2002BF9D0E9
:1002B0002B4A137803F04003DBB2002BF9D02A4B12
:1002C0002A4A1A6002225A60294B20221A70244AB4
:1002D000137803F00C030C2BFAD1264A264B1A6034
:1002E000264B4BF67F321A60072243F8042C62B685
:1002F00006F0CCF80B4B1B68DC0702D5204806F053
:1003000039F80BF0B5F805F0ABFC07F0B5FCFEE7EB
:100310000E20054030800440823F04000100002B85
:1003200010D0034014D0034002D0074000E0074043
:100330001C8DFF1F28D000006087FF1F1C8DFF1F32
:100340008092FF1F0082FF1F0000000000E400E019
:100350005FE400E008ED00E0005006400140064088
:10036000064006400440064044800440000003115B
:1003700000400640C01005000480044014E000E086
:10038000681D5255FFFFFFFFFFFFFFFFFFFFFFFF4D
:10039000FFFFFFFFFFFFFFFFFFFFFFFFFFFFFFFF6D
:1003A000FFFFFFFFFFFFFFFFFFFFFFFFFFFFFFFF5D
:1003B000FFFFFFFFFFFFFFFFFFFFFFFFFFFFFFFF4D
:1003C000FFFFFFFFFFFFFFFFFFFFFFFFFFFFFFFF3D
:1003D000FFFFFFFFFFFFFFFFFFFFFFFFFFFFFFFF2D
:1003E000FFFFFFFFFFFFFFFFFFFFFFFFFFFFFFFF1D
:1003F000FFFFFFFFFFFFFFFFFFFFFFFFFFFFFFFF0D
:10040000FFFFFFFFFFFFFFFFFFFFFFFFFEFFFFFFFD
:1004100008B548F61C50074BC1F6FF701B1A062B97
:1004200000D808BD40F20003C0F20003002BF8D052
:100430009847F6E71F8DFF1F08B548F61C5048F691
:100440001C53C1F6FF70C1F6FF731B1A9B1003EB20
:10045000D373591000D108BD40F20002C0F200026F
:10046000002AF8D09047F6E710B548F61C54C1F6BC
:10047000FF74237873B9FFF7CBFF40F20003C0F29B
:1004800000032BB14DF22800C0F20000AFF3008052
:100490000123237010BD00BF08B540F20003C0F275
:1004A00000034BB14DF2280048F62051C0F2000085
:1004B000C1F6FF71AFF3008048F61C50C1F6FF7023
:1004C00003682BB140F20003C0F2000303B1984768
:1004D000BDE80840B0E700BF7047FFFF08B5064819
:1004E00000F0CEFA10B9044800F0C0FB0248BDE8A5
:1004F000084000F0A6BE00BF388DFF1F10B5054CA8
:10050000204600F035FB0449044A2046BDE810406F
:100510000AF090BF388DFF1FED1100006087FF1FAC
:1005200010B5002303710C4B0C22198801230B42D8
:1005300008D1094A19431180084A118821EA0303A6
:10054000138010BD04795B000134013A04719BB241
:10055000EDD1FF23037110BD908DFF1F8C8DFF1F08
:100560002DE9F041984603790B2B0446174634D801
:10057000CEB23046012105F039FF2579184B1948D4
:100580005E55194B44F2506223F81520012303FAFB
:1005900005F503881D43154B05801A680C214F4350
:1005A00001FB08F112F480022780618011D11968E3
:1005B00041F4800119600E4B4FF6FF7119605A60CB
:1005C0009A6042F6A27243F8042C02F5803243F896
:1005D000042C084B4FF480721A602079BDE8F0813A
:1005E000AA8DFF1F8C8DFF1F928DFF1F3C80044042
:1005F0000460034008E100E04FF408724FF4166312
:10060000FFF7AEBF03790B2B10D8094A012101FA7D
:1006100003F11388C9430B401380064A1088014038
:1006200011801BB9044B4FF480721A60704700BFF1
:100630008C8DFF1F908DFF1F88E100E00C23594334
:100640000388994203DB43889942B8BF0B4602797D
:100650000B2A9CBF014921F812307047928DFF1F71
:1006600013B504790B2C024616D8B1F5087F04DBCC
:1006700002B0BDE81040FFF7E1BF1388528821EABD
:10068000E1700092B428A8BFB4200021B42207F082
:10069000C9FA024B23F8140002B010BD928DFF1F5F
:1006A00003790B2B06D8044A108840FA03F000F0B7
:1006B00001007047002070478C8DFF1F70B5334AD2
:1006C000334C118894F9003041FA03F111F0010F15
:1006D000154606D02F4A0021D05C05F05BFE0C23A6
:1006E00023702D4B2C88197800234DB223E0581924
:1006F00044FA00F6013316F0010F1CD0254B264CAE
:10070000185C2270012105F045FE2378204A59B279
:100710001370224A32F81110214A1068081810602C
:10072000204A106809181160013342F6A37142F89B
:100730000C1C237070BD5A1850B20B28D7DD164B15
:1007400017491A700A68C2F56A3303F5C073B3F526
:10075000966F05DB4EF660208342A8BF034601E09A
:100760004FF496639A180A600E4908681B180B60CC
:100770000D4B42F6A37119600C4B9A4204D9084AFA
:1007800000231360044A137070BD00BF8C8DFF1FDF
:100790006487FF1FAA8DFF1F8E8DFF1F928DFF1F85
:1007A000888DFF1F0C600340006003407FA9030099
:1007B00030B585B0044600F0FFF858B36623ADF8B5
:1007C000003010230025ADF80230204641F201032D
:1007D000ADF80430ADF8065000F0ECF8E16A029094
:1007E000A06B0AF031FB216B0AF0ECFCBDF80210A3
:1007F00003902B462A4604E01DF80300121892B21B
:1008000001338B42F8DBA069ADF806200368694626
:100810001B69984705B030BD074B10B5044603600F
:10082000406B08B107F016F900236363204600F01F
:1008300097F8204610BD00BFF0C6000010B5044672
:10084000FFF7EAFF204607F005F9204610BD70B516
:10085000856A04460E46084629460AF0BBFD30B9B3
:10086000656A304629460AF097FD00B93546216B86
:1008700028460AF0F3FBE16A0AF0E8FAA0630AF0FE
:10088000B3FD1C3401462046BDE87040FFF7E8BECA
:10089000C968FFF7DCBF10B504461C30FFF700FF46
:1008A00038B1636B2BB119682046BDE81040FFF7E3
:1008B000CEBF10BDF7B50D9D0C9E009504461F469A
:1008C000092300F05DF825461A4B45F81C3B2846E5
:1008D000FFF726FE012F01D1032300E00423E36389
:1008E000089B1549A362099B63620A9BE3620B9B09
:1008F000304623630AF046FD20B9042007F0A6F82D
:10090000066000E0002000236063A3632846E16BDB
:10091000FFF772FE636B204613B1FFF7BCFF02E0E6
:10092000A16BFFF794FF2046012100F041F820461B
:10093000FEBD00BFF0C6000000C0794438B500F12C
:100940001C0405462046FFF75DFE2846002100F006
:100950002FF82046FFF7A4FE80F00100C0B238BD9A
:10096000014B0360704700BF08C70000034B10B580
:100970000446036007F06EF8204610BD08C700006B
:1009800010B5044608482371002323742060A36037
:1009900002980B68A161E060626108469B6921468C
:1009A0009847204610BD00BF08C700000079704777
:1009B000017470474069704773B50F4B1B68019312
:1009C000019D83680446C068EE1A0AF0EFFA09F048
:1009D000D1FE02460B46002008490AF049F80022E1
:1009E000074B09F01BFF0AF0B3F9864202D9A56054
:1009F000012000E000207CBD848FFF1F0000F03F3D
:100A000000408F40014B0360704700BF20C70000CB
:100A1000034B10B50446036007F01CF8204610BDD8
:100A200020C7000037B50C4D2B680093009A8368EF
:100A3000D31A8B4204460DD90D2005F0CBFCD0F122
:100A4000010138BF00210D2005F0A4FC2B680193A3
:100A5000019BA3603EBD00BF848FFF1F01717047E3
:100A6000064B10B503600023044603718360012127
:100A70000D2005F0BBFC204610BD00BF20C70000C4
:100A80000079704703790BB1642101E04FF47A716A
:100A9000FFF7C8BF7047FFFF30B5164B85B01B6826
:100AA0000093009D436C40F6B832EB1A9342044623
:100AB0001DD90A23ADF80630012341F20102ADF839
:100AC0000430ADF80C300023ADF80820ADF80A3042
:100AD0001A4601A9505C01321B180A2A9BB2F8D1B0
:100AE000ADF80A30236820461B699847656405B055
:100AF00030BD00BF848FFF1F08B106F0ABBF704749
:100B000008B106F0A7BF704708B106F0A3BF704751
:100B100008B106F09FBF704708B50368C9B21B68EB
:100B2000984708BD38B509480D46FE21FFF7F4FF88
:100B3000002406E00022295D0448134607F0C2F8AD
:100B400001346B889C42F5DB38BD00BFB491FF1FB8
:100B500038B506480C46FE211546FFF7DDFF204656
:100B60002946BDE8384005F025BD00BFB491FF1F00
:100B700070B50446FFF774FF0E4B00252360E56057
:100B800025616561A561E56125626562A562E56231
:100B900025636563A563E564E5632564182006F0B5
:100BA00055FF064600F0BCFCE664656484F84850D6
:100BB000204670BD50C700000269C368D31A70B5E3
:100BC00005469E10002406E0EB6853F824000368F5
:100BD0001B6898470134B442F6DB70BD002330B582
:100BE000CB804C88184603E0CD5C401980B20133BD
:100BF000A342F9DB131AC8805842584130BD826ABB
:100C0000436AD31A70B505469E10002406E06B6A4D
:100C100053F8240003681B6998470134B442F6DB9B
:100C200070BD1FB56923ADF800301023ADF8023058
:100C300041F20103ADF804300B88672B08BF4B89E4
:100C400002934B8803930023ADF806301A461DF833
:100C5000021001325B18102A9BB2F8D1ADF80630B1
:100C6000036869461B69984705B000BD38B504465E
:100C7000FFF706FF002823D1E06C00F070FC58B9A4
:100C800038BD20462946EA88FFF7A8FF60B9E06C26
:100C9000BDE8384000F056BCE06C00F04DFC038825
:100CA000652B0546F3D1ECE729890031204618BFB2
:100CB0000121FFF7D3FE20462946FFF7B2FFE6E702
:100CC00038BD2DE9F0410B899CB005460C460D2B33
:100CD00000F27D81DFE813F0D7000A012A01150137
:100CE0007B013B013300330121010E00F600F900C6
:100CF00083004A01C26983690026D31A4FEAA30818
:100D00003046464503DA002840F05D8137E100288F
:100D100040F05981402006F099FEA3696289009352
:100D200063690193E3690293236A0393636A0493FB
:100D3000E368294605932369FFF7BCFD43E1826A16
:100D4000436A0026D31A4FEAA3083046464503DA21
:100D5000002840F0388120E1002840F03481B020A4
:100D600006F074FE07466069668909F003FDCDE967
:100D70000001206909F0DCFCA3690493E369059391
:100D8000E36B0693236CCDE90201206A079309F017
:100D9000CFFCCDE90801606A09F0ECFCCDE90A015D
:100DA000A06A09F0E7FCCDE90C01E06A09F0E2FC79
:100DB000236B1093636B1193A36B1293636C139368
:100DC000A36C1493E36C1593236DCDE90E01169378
:100DD000384629463246E36801F0BAF9F3E0826A00
:100DE000436A0026D31A4FEAA3083046464503DA81
:100DF000002840F0E880DBE0002840F0E480B020EC
:100E000006F024FE07466069668909F0B3FCCDE967
:100E10000001206909F08CFCA3690493E369059340
:100E2000E36B0693236CCDE90201206A079309F076
:100E30007FFCCDE90801606A09F09CFCCDE90A015C
:100E4000A06A09F097FCCDE90C01E06A09F092FC78
:100E5000236B1093636B1193A36B1293636C1393C7
:100E6000A36C1493E36C1593236D1693636DCDE916
:100E70000E011793A36D3846189329463246E3684E
:100E800000F0E8FE9FE0C36B002B40F09C80436ABB
:100E90008A6953F82280CA69482053F8227006F004
:100EA000D5FD2369628900936369CDF808800193B9
:100EB000236A0397064604932946E36801F010FD70
:100EC000EE6380E01CAE0A2301E01CAE0B2306F8A3
:100ED000013D202006F0BAFDE36862890093236992
:100EE00029460193334601F09BFD6CE0202006F07B
:100EF000ADFD2369628900932946E36801F0F8FD9E
:100F000061E04FF48C7006F0A1FD29460646E268C8
:100F1000236901F0AFFF2E6455E0202006F096FD16
:100F200029466289236903F03FFF4CE0F82006F070
:100F30008DFD2946E268236903F0C8FF43E0A8203D
:100F400006F084FD2946E26804F03AFD3BE03420D7
:100F500006F07CFD636962890093A3690193E369EC
:100F600029460293236904F0A7FD2CE0202006F017
:100F70006DFD2946E268236904F0DCFD23E0AB69DE
:100F8000678953F82600FFF715FDB7EB000EDEF179
:100F9000000050EB0E000136B3E66B6A678953F828
:100FA0002600FFF707FD391A484248410136CDE6D1
:100FB0006B6A678953F82600FFF7FCFC3A1A504227
:100FC0005041013612E728462146FFF72AFE1CB0A1
:100FD000BDE8F081F8B590E84800F61AB61014BFE5
:100FE000334601239B1904460F466FF0404603D257
:100FF000B34238BF1E4626B1B00006F027FD0546B5
:1010000000E0354662682368D31A9B1005EB830124
:101010003A6809B145F8232094E882007F1ABF108E
:1010200003D02846BA000AF0E5FD05EB87072068E3
:10103000FFF76EFD0437256005EB86056760A56048
:10104000F8BD091A38B58C100546134605D0104670
:101050002946A2000AF0CEFD034603EB840038BD0A
:10106000F8B590E84800F61AB61014BF33460123CD
:101070009B1904460F466FF0404603D2B34238BF77
:101080001E4626B1B00006F0E1FC054600E03546FC
:1010900062682368D31A9B1005EB83013A6809B193
:1010A00045F823202A4694E80300FFF7CAFF0746C5
:1010B0002068FFF725FD0437256005EB860567608E
:1010C000A560F8BD091A38B58C100546134605D041
:1010D00010462946A2000AF08DFD034603EB84006A
:1010E00038BDF8B590E84800F61AB61014BF33467C
:1010F00001239B1904460F466FF0404603D2B342CA
:1011000038BF1E4626B1B00006F0A0FC054600E040
:10111000354662682368D31A9B1005EB83013A6851
:1011200009B145F823202A4694E80300FFF7CAFFD7
:1011300007462068FFF7E8FC0437256005EB8605C5
:101140006760A560F8BD38B542688468A24203466E
:101150000D4606D0096802B111605A6804325A601F
:1011600038BDFFF7BEFF38BD091A38B58C100546EB
:10117000134605D010462946A2000AF03BFD03465F
:1011800003EB840038BDF8B5C3680669C269F61A76
:101190008369D31A0446B6109F10002504E053F863
:1011A0002500FFF7CBFB0135BD42A369F7DBE26900
:1011B000934218BFE361A26A636A934218BFA362B5
:1011C000002506E053F8250010B10368DB68984756
:1011D0000135B542E368F5DB2269934218BF23610C
:1011E000002384F848302364E363F8BD0F4B10B547
:1011F00004460360C06C10B103685B689847002325
:10120000E3642046FFF7BFFF206BFFF781FC606AB5
:10121000FFF77AFCA069FFF773FCE068FFF76CFC4E
:101220002046FFF7EFFB204610BD00BF50C700006F
:1012300010B50446FFF7DAFF204606F00BFC204607
:1012400010BD2DE9F0410446FFF71CFCE06C00F0F6
:10125000EBF92046FFF714FC002800F0CB80E06C8F
:1012600000F07DF9002800F0B680E06C00F064F931
:10127000054629462046EA88FFF7B0FC002800F022
:10128000A7802B880B2B6FD00CD8062B4ED003D801
:10129000022B40F09D8033E0072B21D0082B40F03B
:1012A000978058E0512B58D005D80C2B5FD00F2BCE
:1012B00040F08E8071E0652B03D0672B40F0888072
:1012C00019E029890031204618BF0121FFF7C6FB2C
:1012D0002046FFF7D5FB48B92046FFF754FF05E04D
:1012E0002B89003318BF012384F848302046294653
:1012F000FFF797FC6CE020462946FFF7E2FC67E029
:10130000E269A369D31A9F1000260CE0A36953F881
:101310002600FFF74FFBAB6898424FEA860801D1E1
:10132000A3694BE00136BE42F0DB51E0A26A636A7A
:10133000D31A9F1000260BE0636A53F82600FFF7CC
:1013400039FBAB6898424FEA860800D135E0013698
:10135000BE42F1DB3CE0E06B07E0E06B002837D0F9
:10136000294601F01BF933E0206C88B328E0626B5A
:10137000236BD31A9F1000260CE0236B53F8260032
:10138000FFF718FBAB6898424FEA860801D1236B40
:1013900014E00136BE42F0DB1AE0A26A636AD31A97
:1013A0009F10002612E0636A53F82600FFF702FB45
:1013B000AB6898424FEA860807D1636A53F8080081
:1013C000036829465B68984702E00136BE42EADBC3
:1013D000E06C00F0B7F894F848305BB12046FFF7B6
:1013E000EBFB2046FFF70BFC206C18B1BDE8F04189
:1013F00001F04EBCBDE8F081F8B590E84800F61A5F
:10140000B61014BF334601239B1904460F466FF0F4
:10141000404603D2B34238BF1E4626B1B00006F0A4
:1014200015FB054600E0354662682368D31A9B1019
:1014300005EB83013A6809B145F823202A4694E870
:101440000300FFF791FE07462068FFF755FB0437BE
:10145000256005EB86056760A560F8BD1FB50369CB
:10146000426901919342044605D003B11960236992
:101470000433236103E00C3001A9FFF7BDFF01989D
:10148000FFF794FA0538042830D8DFE800F0151586
:101490002F1E0300E369216A019A8B42039205D053
:1014A00003B11A60E3690433E3611FE004F118003B
:1014B00003A9FFF7D5FD19E004A9019B04F124005D
:1014C00041F8043DFFF73FFE10E0636BA16B019A0A
:1014D0008B42039205D003B11A60636B04336363DC
:1014E00004E004F1300003A9FFF774FD1FBDFFFF06
:1014F000054B10B504460360006908B106F0ACFA6C
:1015000000232361204610BD80C7000010B50446AB
:10151000FFF7EEFF204606F09DFA204610BDFFFFC4
:10152000044A0260002202710261C260826042715C
:101530008271704780C7000003790BB10069704762
:101540001846704710B50446006908B106F084FAE1
:10155000002323612371A371E360A36010BD0079B0
:1015600070470B880C2B26D00CD8072B18D004D82A
:10157000022B20D0062B20D11DE0082B1BD00B2BDB
:101580001BD116E0642B16D004D80F2B13D0512B8F
:1015900013D10CE0672B05D06C2B0CD0652B0CD134
:1015A0000A230BE01023C3600123437107E01423D7
:1015B00004E00C2302E0102300E00023C360C068B5
:1015C000704770B50446C0680E4606F041FA002325
:1015D000054602E0C25CEA540133B3422069F9DBFC
:1015E00008B106F039FA256170BD0B890D2B19D8A9
:1015F000DFE803F00D1616161814090F1607161655
:101600000B1628230DE054230BE05C2309E0242370
:1016100007E01023C3600123037103E0202300E0EF
:101620001423C360C0687047F8B5044604F0B4FFE3
:1016300000284ED02779002F4BD146E0E368A568FB
:10164000002B1DDC04F062FF04F114067055013517
:10165000012DA5603DD93146A7602046FFF781FFE7
:1016600006F0F6F9A3682061F25CC254A36822690F
:101670000133A360F15CD154A3680133A360F8BDCA
:101680009D4226DA266904F041FF7055E368013572
:101690009D42A5601DD1637933B90E4B1A680132A2
:1016A0001A6001232371F8BD21692046FFF79DFFD1
:1016B00020462946FFF785FF6771F8BD04F026FF35
:1016C000FE2806D10123A371F8BDA379002BB5D163
:1016D000F4E7F8BDB88DFF1F034B10B50446036057
:1016E000FFF73EF9204610BD90C7000010B5044634
:1016F000FFF7F2FF204606F0ADF9204610BDFFFFD0
:1017000037B5069D00950446FFF73AF9014B204690
:1017100023603EBD90C70000084B10B5044603602F
:10172000D0F8AC0008B106F095F90023C4F8AC304D
:10173000204600F0B9FB204610BD00BFB0C7000036
:1017400010B50446FFF7E8FF204606F083F920466F
:1017500010BD10B50368017A1C7843681A78437A83
:101760001A40837A0C4203F0030318BF43F00403CA
:101770000AB143F008039A10013B82720D2B14D872
:10178000DFE803F0070A0D0A1310070710130A0D0C
:101790000A07C368013307E0C368013B04E0C3687C
:1017A000023301E0C368023BC36010BD70B505465B
:1017B00000F0CAFAD5F8AC400646237C72B6012B7D
:1017C00002D82046FFF7C5FF62B6E368D5F8A80047
:1017D000584309F0EFFB0146304609F037FB4FF064
:1017E0007C5109F03BFC70BD08B5034BD3F8840075
:1017F000FFF7AFFF08BD00BFBC8DFF1F08B5034B4F
:10180000D3F88000FFF7A5FF08BD00BFBC8DFF1F08
:1018100008B5024BD86FFFF79CFF08BDBC8DFF1FBA
:1018200008B5024B986FFFF794FF08BDBC8DFF1FF2
:1018300008B5024B586FFFF78CFF08BDBC8DFF1F2A
:1018400008B5024B186FFFF784FF08BDBC8DFF1F62
:1018500008B5024BD86EFFF77CFF08BDBC8DFF1F9B
:1018600008B5024B986EFFF774FF08BDBC8DFF1FD3
:1018700008B5024B586EFFF76CFF08BDBC8DFF1F0B
:1018800008B5024B186EFFF764FF08BDBC8DFF1F43
:1018900008B5024BD86DFFF75CFF08BDBC8DFF1F7C
:1018A00008B5024B986DFFF754FF08BDBC8DFF1FB4
:1018B00008B5024B586DFFF74CFF08BDBC8DFF1FEC
:1018C00008B5024B186DFFF744FF08BDBC8DFF1F24
:1018D00008B5024BD86CFFF73CFF08BDBC8DFF1F5D
:1018E00008B5024B986CFFF734FF08BDBC8DFF1F95
:1018F00008B5024B586CFFF72CFF08BDBC8DFF1FCD
:1019000008B5024B186CFFF724FF08BDBC8DFF1F04
:1019100008B5024BD86BFFF71CFF08BDBC8DFF1F3D
:1019200008B5024B986BFFF714FF08BDBC8DFF1F75
:1019300008B5024B586BFFF70CFF08BDBC8DFF1FAD
:1019400008B5024B186BFFF704FF08BDBC8DFF1FE5
:1019500008B5024BD86AFFF7FCFE08BDBC8DFF1F1F
:1019600008B5024B986AFFF7F4FE08BDBC8DFF1F57
:1019700008B5024B586AFFF7ECFE08BDBC8DFF1F8F
:1019800008B5024B186AFFF7E4FE08BDBC8DFF1FC7
:1019900008B5024BD869FFF7DCFE08BDBC8DFF1F00
:1019A00008B5024B9869FFF7D4FE08BDBC8DFF1F38
:1019B00008B5024B5869FFF7CCFE08BDBC8DFF1F70
:1019C00008B5024B1869FFF7C4FE08BDBC8DFF1FA8
:1019D00008B5024BD868FFF7BCFE08BDBC8DFF1FE1
:1019E00008B5024B9868FFF7B4FE08BDBC8DFF1F19
:1019F00008B5024B5868FFF7ACFE08BDBC8DFF1F51
:101A000008B5024B1868FFF7A4FE08BDBC8DFF1F88
:101A100008B5212800F2D580DFE810F02200270069
:101A20002C00310036003C00410046004B005000C5
:101A300055005A005F00640069006E007300780072
:101A40007D00820087008C00910096009B00A00022
:101A5000A500AA00AF00B400B900BE00C300CD00CD
:101A6000594B002019605949A0E0574B012059609B
:101A700057499BE0544B02209960564996E0524BDF
:101A80000320D960544991E04F4B0420196102466C
:101A900052498CE04C4B05205961514986E04A4B34
:101AA000062099614F4981E0474B0720D9614E4993
:101AB0007CE0454B082019624C4977E0424B0920F5
:101AC00059624B4972E0404B0A20996249496DE0E6
:101AD0003D4B0B20D962484968E03B4B0C20196311
:101AE000464963E0384B0D20596345495EE0364B6B
:101AF0000E209963434959E0334B0F20D963424983
:101B000054E0314B1020196440494FE02E4B112016
:101B100059643F494AE02C4B122099643D4945E005
:101B2000294B1320D9643C4940E0274B1420196508
:101B30003A493BE0244B15205965394936E0224BA0
:101B400016209965374931E01F4B1720D965364972
:101B50002CE01D4B18201966344927E01A4B192038
:101B60005966334922E0184B1A20996631491DE025
:101B7000154B1B20D966304918E0134B1C20196700
:101B80002E4913E0104B1D2059672D490EE00E4BD6
:101B90001E2099672B4909E00B4B1F20D9672A4962
:101BA00004E0094BC3F8801028492020042204F0E7
:101BB0007BFA012008BD044B2120C3F8841024497E
:101BC000F4E7002008BD00BFBC8DFF1F011A000014
:101BD000F1190000E1190000D1190000C11900003D
:101BE000B1190000A119000091190000811900002D
:101BF000711900006119000051190000411900001D
:101C0000311900002119000011190000011900000C
:101C1000F1180000E1180000D1180000C118000000
:101C2000B1180000A11800009118000081180000F0
:101C300071180000611800005118000041180000E0
:101C4000311800002118000011180000FD170000D5
:101C5000E9170000F0B599B0DDE91E45CDE9004572
:101C6000DDE92045CDE90245229C0494239C05949E
:101C7000249C0694259C0794DDE92645CDE908457A
:101C8000DDE92845CDE90A45DDE92A45CDE90C45E0
:101C9000DDE92C45CDE90E452E9C10942F9C119426
:101CA000309C1294319C1394329C1494339C159460
:101CB000349C0646169400F04BFA214B14203360F6
:101CC00005F0C4FE9DF8D4709DF8D850044602215A
:101CD000384604F08BFB2846022104F087FB194AA2
:101CE00052F8373003F5007121600121217252F85A
:101CF0003520617202F500700021E16060604FF4F0
:101D0000FA410139FDD193F8003292F8002203F034
:101D10000103D20744BF43F00203DBB2A3722146A2
:101D20003846FFF775FE214620742846FFF770FEFF
:101D3000237C18182074C6F8AC40304619B0F0BDAA
:101D4000B0C70000D8C9000038B5046A0546237C36
:101D500072B6012B02D82046FFF7FBFC62B6E3689F
:101D6000D5F8A800584309F025F938BDFFFFFFFF5B
:101D70002DE9F047444B86B01B68059382460598D1
:101D800008F0D6FCDAE91223CDE9000108F092FB55
:101D9000DAE9242306460F4600203C4908F068FE95
:101DA00000223B4B08F03AFD02460B4630463946CE
:101DB00008F0BAFF00285DD0DAF8003050465B69C1
:101DC000984708F0D7FCDAE91C23CDE9020108F0B6
:101DD00071FB02460B4608F06FFB29A3D3E90023F1
:101DE00008F01CFD8046DAF89800894608F0B0FC3F
:101DF00002460B464046494608F03AFE002280461D
:101E0000894630463946224B08F032FE02460B46E0
:101E10004046494608F02CFEDAE9204502460B46CA
:101E20002046294608F0FAFC22462B4606460F4675
:101E30000020164908F03EFB0446DAF844000D463F
:101E400008F098FC02460B462046294608F0E6FCBE
:101E500002460B463046394608F02EFB08F0A0FF3C
:101E6000DDE90223CAE91C23DDE90023CAE91223C4
:101E7000CAF8440006B0BDE8F08700BFAFF30080A9
:101E8000182D4454FB210940848FFF1F0000F03FB0
:101E900000408F40AFF3008003460A46C06993F8C4
:101EA000881000F04EBAFFFF0D4B10B504460360DA
:101EB0000021FFF7F1FF606A08B105F0CBFDE06992
:101EC00008B105F0C7FD206A08B105F0C3FD002385
:101ED0002362E36163622046FFF7FEFB204610BDEC
:101EE000D0C7000010B50446FFF7DEFF204605F01E
:101EF000B1FD204610BDFFFF2DE9F7431F4690F8C6
:101F00002C308046164663B9194B446A1B6801930E
:101F1000019808F00DFC0022164B08F0A9FDC4E959
:101F20000401D8F85890012388F82C30484608F06E
:101F300021FC32463B4604460D4608F0E1FE60B9FE
:101F400009F1004008F016FC32463B4604460D46B7
:101F500008F0F4FE08B934463D46054B1B68009373
:101F6000009BC8E91E45C8F83030BDE8FE8300BFBD
:101F7000848FFF1F00408F4010B50446C86808F0EA
:101F8000F9FB02460B462046BDE81040FFF7B4BF00
:101F900073B5114B1B68019390F82C30019A0646DB
:101FA000CBB1036BD21A436B9A4214D9002400259B
:101FB0000022002380F82C20C0E918454364C0E9C2
:101FC0001A45C0E91E4596F88810C06900F0B9F9B5
:101FD000706A00F0FDF97CBD848FFF1FFFFFFFFFDB
:101FE000036870B55B6906469847014608F02EFF06
:101FF00008F0C0FB0AA3D3E9002308F00FFC044655
:10200000D6F898000D4608F0A3FB02460B46204682
:10201000294608F02DFD08F0C3FEF06370BD00BF37
:10202000182D4454FB2109402DE9D343214B1B6853
:1020300001930446019808F07BFBD4E91423804601
:10204000894608F037FAD4E9282306460F460020CF
:10205000194908F00DFD0022184B08F0DFFB02467D
:102060000B463046394608F069FE08B3A36B012BD6
:1020700002D1606C206403E02046FFF7B1FFE06B03
:1020800008F078FBC4E91801606A00F0A7F9A06ABB
:1020900008F05EFBD4E91A2308F0C0FBC4E91489F8
:1020A000C4E91A0108F054FE01462046FFF7F4FE89
:1020B000BDE8DC83848FFF1F0000F03F00408F40AD
:1020C00010B50446FFF754FE94F82C3023B1204697
:1020D000BDE81040FFF7A8BF10BD10B50446FFF7DC
:1020E00057FF2046BDE81040FFF7EABF10B586B0A5
:1020F0000446FEF761FC48B3636C23646A23ADF8C1
:1021000004301423ADF80630204641F20103ADF847
:102110000830FEF74FFC03902046FFF761FF236C69
:10212000049005930023ADF80A30BDF806001A4666
:1021300003E0C95C521892B20133834201A9F8DB73
:10214000A069ADF80A2003681B69984706B010BD66
:102150002DE9F0418CB0064600930623FFF7D0FA34
:1021600025995B4BB16324993360DDE91A457163AE
:10217000DDE91401C6E92845C6E92401DDE9124577
:102180002399C6F89810269900220023C6E9204515
:1021900000270024C6E91823C6E91A23C6E91C2330
:1021A000C6E91E233464F463B16286F82C700820FB
:1021B00005F04CFC9DF85810054600F091F8179B6F
:1021C000F561444DC6F8883042F2107004F0F0FC1E
:1021D0002B680993099B33632B680A930A9808F0CC
:1021E000A7FA2B680B93C6E912010B9808F0A0FA26
:1021F0007464C6E91401582005F028FCDDE91C23AD
:10220000CDE90023DDE91E23CDE90223DDE920230A
:10221000CDE90423289B06F16801069306F16002CC
:1022200006F17803044600F09BF827A3D3E90023C6
:1022300074621420C4E9062305F008FC9DF8608050
:102240009DF8645004460221404604F0CFF8284629
:10225000022104F0CBF8204A52F8383003F500711F
:1022600021600121217252F83520617202F500705F
:102270006060E7604FF4FA410139FDD193F8003214
:1022800092F8002203F00103D20744BF43F0020397
:10229000DBB2A37221464046FFF7BAFB2146207409
:1022A0002846FFF7B5FB237C1818229B2074B365E2
:1022B000279B34623046C6F8A8300A21FEF778FB27
:1022C00030460CB0BDE8F0810000000000C05F4067
:1022D000D0C70000848FFF1FD8C90000AFF3008073
:1022E000014A0170426070478091FF1F70B504463B
:1022F000406803680E461B68217815469847606859
:10230000036831461B6898476068036829461B6864
:102310009847606822780368B618A9191B6801F00D
:102320007F01984770BD7E2AA8BF7E226FF07D0393
:102330009A42B8BF1A46002AB8BF5242D2B2FFF73B
:10234000D5BF10B54C1E012C09D802290CBF0421A1
:10235000002101EBD271BDE81040FFF7E4BF10BDD2
:1023600013B580E80E00DDE90423C0E90A23DDE9A6
:102370000623C0E90C23DDE90823C0E90E23124B34
:102380001B6801930446019808F0D2F900220F4B14
:1023900008F06EFB00220023C4E91223C4E91023D5
:1023A00007A3D3E90023C4E90401C4E906230A987A
:1023B00008F0E0F9C4E9140120461CBDAFF3008029
:1023C0000000000000C05F40848FFF1F00408F406E
:1023D00000220023C0E910237047FFFF2DE9F04FD2
:1023E000584B89B01B6807938046079808F0A0F9FE
:1023F0000022554B08F03CFBD8E90423CDE9040149
:1024000008F058F8D8F80820D8F8043082468B46EF
:10241000D2E90001D3E9002308F04CF8D8E90623FB
:1024200004460D46D8E9140108F0F8F952468146F1
:102430000E465B462046294608F0F0F9D8E91023FD
:1024400008F03AF84A463346CDE9020108F076FC36
:1024500010B14A46334611E006F1004C6346DDE90F
:1024600002014A46CDF804C008F04AFCDDF804C079
:1024700010B9DDE9022301E04A466346C8E91023AA
:102480002046D8E90A23294608F0C8F9D8E91023DC
:1024900006460F46D8E90C0108F0C0F902460B4683
:1024A0003046394608F008F8D8E9122306460F46A8
:1024B0002046294607F0FEFF52465B4608F0D8FA50
:1024C000D8E90E2308F0AAF902460B4630463946F1
:1024D00007F0F2FFD8F800900B460246C9E9002346
:1024E000D8F818B0D8F81CA05A4653460E460746EE
:1024F00008F024FC002818BF5F4618BF56463A462D
:102500003346C9E90023D8F81C30D8F818B003F1D5
:10251000004A5A4653463846314608F0F1FB002837
:102520000CBF3A465A460CBF33465346C9E900230E
:10253000DDE90423C8E91245C8E9042309B0BDE870
:10254000F08F00BF848FFF1F00408F40034B10B5FA
:1025500004460360FEF704FA204610BDF0C70000F1
:1025600010B50446FFF7F2FF204605F073FA204647
:1025700010BDFFFF37B5069D1B7800950446FEF79A
:10258000FFF9054B2360079B23639DF824302377D5
:10259000089B2046E3623EBDF0C70000037F2BB1DD
:1025A0008B684362CB6883620B690362704713B523
:1025B0008B68CA68019302AB43F8082D026854691E
:1025C00093E80600A0471CBD10B50446806BFFF7DA
:1025D000DFFCA06BFFF774FD606BFFF7D9FC606B4D
:1025E000BDE81040FFF76CBD2DE9F74302AB03E9EE
:1025F0000600076B009E019D04463946304608F0F0
:10260000E1FDE16A8046284608F028FD394681460A
:10261000384608F01BFC0146484608F0D3FD014649
:10262000404608F013FC08F0A5F802460B46A06BE4
:10263000FFF762FC276B3046394608F0C3FDE16ABC
:102640000646284608F00AFD39460546384608F091
:10265000FDFB0146284608F0B5FD0146304608F06E
:10266000F3FB08F087F80246606B0B4603B0BDE849
:10267000F043FFF741BCFFFF034B10B50446036076
:10268000FFF764FF204610BD10C8000010B50446D7
:10269000FFF7F2FF204605F0DDF9204610BDFFFFF1
:1026A000F8B51046194614A3D3E9002307F004FF38
:1026B00013A3D3E9002306460F4605F01FFE0022B0
:1026C00004460D4630463946002308F019FB40B158
:1026D000204629460AA3D3E9002307F0EDFE04466D
:1026E0000D462046294604A3D3E9002307F0E2FE65
:1026F000F8BD00BFAFF30080182D4454FB21094002
:10270000182D4454FB21194038B50446806BFFF75F
:1027100067FC216C054608F097FB216B08F09EFCD6
:10272000256438BD38B50446406BFFF759FCE16BB2
:10273000054608F089FB216B08F090FCE56338BD85
:10274000002170B50646016041601046194600221E
:10275000094B08F063F804460D4605F02DFD08F01E
:102760001FFB2946B060204605F0DCFC08F018FB92
:10277000F060304670BD00BF0000E03F2DE9F04F33
:1027800093B08246FEF718F9002800F0A580504665
:10279000FFF7BAFF04465046FFF7C4FF0546294637
:1027A000204608F051FBDAF82C1008F00BFDDAF89F
:1027B000441008F053FCDAF8201008F047FBCAF880
:1027C000200007F0D7FF02460B465046FFF768FF90
:1027D00008F0E6FA29468346CAF82000204608F0A9
:1027E00035FB4FF07C5108F039FC07F0C3FF06467B
:1027F00058460F4607F0BEFF04460D4605F092FC12
:102800000246DAF824000392029107F0B3FF039A1C
:10281000029B804689463046394607F0FFFF0B464B
:1028200002464946404607F047FE08F0B9FA2946F5
:102830008446CAF824002046CDF804C005F0BCFC4C
:102840000246DAF828000392029107F093FF039AF8
:10285000029B804689463046394607F0DFFF024634
:102860000B464046494607F027FE08F099FA2246F3
:102870000646CAF828002B4604A85146FFF760FF19
:1028800000226C230F92069AADF820302823DDF841
:1028900004C0ADF82230109241F20103079AADF85E
:1028A000243000231192ADF82630CDF828C00B96C5
:1028B000CDF830B0CDF834C00E961A4608A9505C59
:1028C00001321B18282A9BB2F8D1DAF81800ADF8AB
:1028D000263003681B69984713B0BDE8F08FFFFFEF
:1028E00070B586B006AD002605F8016D00930A9B11
:1028F00001930B9B0293012303932B460446FFF79E
:1029000039FE084B23600C9B63630D9BA36300237C
:10291000E363236423626362A3620E9B20466364C5
:1029200006B070BD10C800007047FFFF034B10B524
:1029300004460360FEF714F8204610BD30C80000BE
:1029400010B50446FFF7F2FF204605F083F8204655
:1029500010BDFFFFFFFFFFFF38B50546007F03F006
:10296000A5FA04462846FEF721F80A28204606D193
:1029700008F020FB07F0FEFE00220F4B06E008F0F7
:1029800019FB07F0F7FE08A3D3E9002307F046FF81
:1029900007A3D3E9002308F06BF80022074B08F0E7
:1029A00067F808F0FDF938BD666666666666C94078
:1029B00000000000E0FFEF400000B44000408F4006
:1029C00030B585B00446FDF7F7FF38B36D23ADF899
:1029D000003010230025ADF80230204641F20103FB
:1029E000ADF80430ADF80650FDF7E4FF0290204644
:1029F000FFF7B2FFBDF8021003902B462A4604E011
:102A00001DF80300121892B201338B42F8DBA06963
:102A1000ADF80620036869461B69984705B030BDCC
:102A200073B5069E1B78079D00960446FDF7A8FF28
:102A30000A4B012D236001D10E2304E0022D01D1A8
:102A40000F2300E01023E361207F002103F0CEFC80
:102A5000102003F001FA20467CBD00BF30C8000002
:102A6000704730B585B00446FDF7A6FF50B36E231E
:102A7000ADF8003010230025ADF80230204641F2B9
:102A80000103ADF80430ADF80650FDF793FF029056
:102A9000207F03F09FFC431B584258410390BDF830
:102AA00002102B462A4604E01DF80300121892B2C9
:102AB00001338B42F8DBA069ADF806200368694654
:102AC0001B69984705B030BD034B10B50446036041
:102AD000FDF746FF204610BD48C8000010B504466B
:102AE000FFF7F2FF204604F0B5FF204610BDFFFFC0
:102AF00013B5009301230446FDF742FF084B236002
:102B0000049B012B01D10B2300E00C23E361207F08
:102B1000022103F06BFC102003F09EF920461CBD3F
:102B200048C80000054B10B5044640F86C3B01F066
:102B300087FE2046FDF714FF204610BD60C8000048
:102B400010B50446FFF7EEFF204604F083FF204651
:102B500010BD10B594B00446FDF72EFF00283CD000
:102B6000A26A0392E26A0492226B0592E2690692DB
:102B7000226A0792626A0892626B0992A26B0A92B9
:102B8000E26B0B92226C0C92626C0D92A26C0E9214
:102B9000E26C6F230F92E26DADF804304C23ADF878
:102BA0000630109241F20103626DADF80830002347
:102BB000ADF80A301192A26D1292226D13921A464C
:102BC00001A9505C01321B184C2A9BB2F8D1A069B4
:102BD000ADF80A3003681B69984714B010BD10B5F2
:102BE0000446C83001F070FC0368A0661B69984772
:102BF00000280ADD012184F8C01084F8C11084F88F
:102C0000C21084F80C11204605E0002384F80C3132
:102C100020466FF00101BDE81040FDF7C9BEFFFF7F
:102C2000F8B51148069D16461F460C4600F0FAFA04
:102C300031460D4800F09CF900210B4800F002FBE2
:102C4000214609483A4600F0CBFB002405E006483F
:102C500000F0B6F928550134E4B2034800F0A6F9B3
:102C60000028F4D1F8BD00BF988EFF1F1FB503AB3D
:102C70000093682102234122FFF7D2FF9DF80C0048
:102C80009DF80D3043EA002000B205B000BDFFFF03
:102C900070B590F80C3192B00446002B00F0C7805C
:102CA000806E03689B699847002800F0C08094F804
:102CB0000D31002B40F08A8002A800F0CDFC05A861
:102CC00000F0CAFC08A800F0C7FCA16E02A81431ED
:102CD00000F0A0FCA16E05A8083100F09BFCA16EDD
:102CE00008A8203100F096FCA36EDB6A02AA05A9B1
:102CF000009304F16C0008AB01F0D2FEA06E0368F3
:102D00001B6A98470EA800F063FE0BA800F0A4FC15
:102D100004F1B4010BA800F07DFC04F1A4010EA89D
:102D200000F08AFD029BE361039B2362049B6362C4
:102D3000059BA362069BE362079B2363089B636377
:102D4000099BA3630A9BE3630E9B23640F9B63644D
:102D5000109BA364119B2046E364FFF787FF08F0F4
:102D600029F907F007FD34A3D3E9002307F080FE1B
:102D70000022354B07F0A0FB08F012F820650C98F4
:102D80000D9E0B9D07F0F6FC2DA3D3E9002307F061
:102D900045FD08F005F86065304607F0EBFC28A318
:102DA000D3E9002307F03AFD07F0FAFF216E08F09F
:102DB0004BF8A065284607F0DDFC21A3D3E90023EA
:102DC00007F02CFD07F0ECFFE06530E094F80E51C1
:102DD000F5B90BA800F040FCA16E0BA8203100F063
:102DE00019FC0BABD4F8F410EE58304608F0D4FAC6
:102DF00008B1C4F8F4603046D4F8001108F0EAFADB
:102E000008B1C4F80061043504340C2DE9D10EE09A
:102E10000025012384F8F23084F80D5184F80E5116
:102E2000284604F1F00101F063FFA36E1D7112B09A
:102E300070BD00BFAFF3008052B81E85EBDD74405B
:102E4000F8C1631ADCA54C4000003540AFF30080A8
:102E50000023C3618362436343640362C362836389
:102E6000836443620363C363C3644FF07E530364AC
:102E70007047FFFF37B504461D460092032300222A
:102E8000FDF77EFD164B204640F86C3B01F0FEFC42
:102E900004F1C80000F055FB124800F017F9204675
:102EA000FFF7D6FF20460021FDF782FD00232566AF
:102EB00000256366E3656365A3652365C4F8145163
:102EC000C4F8105184F80C5184F80D512046FFF7D6
:102ED00086FE94F80C310BB184F80E5120463EBDAD
:102EE00060C80000988EFF1F10B5044604F1F00181
:102EF000002001F013FF002384F8F230084B094A48
:102F0000C4F80031C4F80431C4F80831A36EC4F821
:102F1000F420C4F8F820C4F8FC2001221A7110BD76
:102F2000809618CB8096184B90F80D318A6810B5B2
:102F300004460BB112B110BD22B910BD012380F8B7
:102F40000E3110BD80F80E31FFF7CEFF012384F85B
:102F50000D3110BD054A137803F00203DBB2002BDC
:102F6000F9D0024B02221A70704700BF036006407E
:102F7000094B1B7813B9094B1B782BB1084A1378FE
:102F8000202B03D901230371002070470548C15449
:102F90000133137001207047AA8EFF1F6D8EFF1F33
:102FA000AB8EFF1F4C8EFF1F7047FFFF024B187840
:102FB000024B1B78C01A7047A98EFF1FA88EFF1FF7
:102FC000064A074913780978994204D90549C85C2B
:102FD0000133137070474FF0FF307047A88EFF1F0A
:102FE000A98EFF1F6E8EFF1F054B064A1B781278B5
:102FF0009A4202D9044AD05C70474FF0FF307047C4
:10300000A88EFF1FA98EFF1F6E8EFF1F38B50E4BB7
:103010001B78144613B90D4B1B788BB10C4B1D78E4
:10302000C5F121039C4202D9012202711C460948C4
:103030002246401908F024FD054B2D191D7000E0B3
:103040001C46204638BD00BFAA8EFF1F6D8EFF1F95
:10305000AB8EFF1F4C8EFF1F10B5104B1B7813F06B
:1030600020040BD1122003F049F80D4B1B68A3B1CB
:103070000C4A14700C4A1078984710BD0B4A13780C
:103080000133DBB2012B137002D8094B1B7823B933
:103090001220BDE8104003F031B810BD03600640B7
:1030A000488EFF1FA88EFF1FA98EFF1F948EFF1F43
:1030B0006D8EFF1F002202710273034A4FF47A7172
:1030C00081600260704700BF78C800000C4B00228E
:1030D0001A700C4B196841F0400119600A4B0B49FA
:1030E0001A704FF419720A6041F8042C084A27211B
:1030F0001170042151712021117180221A707047C2
:103100006D8EFF1F34800440026006400CA0044016
:103110000160064010B5374A137803F01001C9B2B8
:1031200021B903F04002D2B242B92EE01021117051
:1031300003F04002D2B2002AF3D110BD13F0040311
:103140002D4A18D0002313702C4A13702C4B1B6887
:10315000144603B1984722782A4B1AB927491A70A6
:1031600001200870284AD02111701A78274B1A7054
:103170000122274B21E001211170264A1370224BB6
:10318000C0221A7002331B7830E01F4A1F4C11789E
:1031900011F0100117D013F0010310D11C4917488A
:1031A0000A780078904205D9164B9B5C0132237057
:1031B0000A7000E02370144BD0221A7016E0C0236E
:1031C0001370237812E0144B122019700322134954
:1031D00002F06AFF0F4A207813781F2B06D80649A1
:1031E000097819B10E49C85401331370014B0222FA
:1031F0001A7010BD03600640448EFF1FAB8EFF1F88
:10320000908EFF1F4C8EFF1F026006400460064038
:10321000AC8EFF1FA98EFF1F948EFF1F5930000038
:103220006E8EFF1F044B054A49001970012313706D
:10323000034A1370704700BF4C8EFF1FAA8EFF1FFA
:10324000AB8EFF1F2DE9F041204B12221A70204A4D
:103250000D46117801F02001C9B211B1B4231370E9
:103260000BE019460A7802F02002D3B2002BF9D104
:10327000184A1370164BB0221A700024164E174FBE
:10328000DFF8608013E03B5D88F80030FFF762FEF6
:103290000E4B1B78DA0704D5002C14BF0320022044
:1032A0000BE003F01003DBB233B90134E4B233783E
:1032B000A342E8D8002000E0042015B1044B80228E
:1032C0001A70074B00221A70BDE8F08103600640B7
:1032D000026006406D8EFF1FAB8EFF1F4C8EFF1FDE
:1032E000AA8EFF1F046006402DE9F0471446344AB9
:1032F0001E4600231370334A1370334B12221A7088
:10330000324A107800F02000C0B210B1B42313701C
:103310000BE01846027802F02002D3B2002BF9D15C
:103320002B4A1370294BB0221A704900294D41F0E5
:1033300001012970FFF70EFE234B244A1B7813F07E
:10334000110F04D0802313700020BDE8F0872CB942
:10335000002E0CBFA02680261670F5E7012C01D1A7
:10336000A82300E0A02313702B781B4FDFF86480A4
:10337000DFF8589025464FF0A80A0BE0013DEDB26A
:10338000FFF7E8FD012D08BF89F800A098F800308C
:1033900007F8013F012DF1D1FFF7DCFD0B4B0F4981
:1033A000B0221A700B4A1078621ED2B2885420469E
:1033B0000EB180221A70034B1C70BDE8F08700BF6D
:1033C000A88EFF1FA98EFF1F036006400260064003
:1033D0006D8EFF1F046006406D8EFF1F6E8EFF1FF7
:1033E0000123FFF781BF0121FFF72CBF0148FFF741
:1033F00061BE00BF988EFF1F2DE9F04F1546324A7F
:1034000089B09A4613680291059300240746BDF8D7
:103410004860DDF81480A1462FE02C483946FFF7BC
:1034200001FF02992948FFF7A3FD2848FFF7DBFFBA
:1034300026483946FFF7F6FE2A1B202AA8BF20227D
:1034400022483946D2B2FFF7CBFF4AFA89F34FF050
:10345000000B03930BEB0901C9B21C480191FFF764
:10346000A5FD0199E8B11EB3174B186806900698A0
:10347000C8EB0000B0421BD313E0AC42CDD36EB119
:10348000114A12680792079AC8EB0208B04505D3A3
:103490004FFA89F2AA42B8BF4FF0FF094FFA89F0FC
:1034A0000FE0202D94BF64192034E4B28946E4E78C
:1034B0000648FFF785FD039B03F80B000BF1010B9A
:1034C000C8E709B0BDE8F08F848FFF1F988EFF1FFB
:1034D00013B51446009301222346FFF78DFF1CBD50
:1034E000F8B507460C460D48394615461E46FFF707
:1034F00099FE21460948FFF73BFD002403E0315DBA
:10350000FFF736FD0134E3B2AB420448F7D3FFF7CF
:103510006AFFD0F1010038BF0020F8BD988EFF1F70
:1035200007B502AB03F8012D0122FFF7D9FF0EBD4D
:10353000084602F077BD0846114602F087BD02F04A
:1035400035BD4FF0FF3202605022026128224261F5
:1035500003228261C2611022026242626822027109
:103560007047FFFF10B50B4C4FF07C51A4EB60048B
:1035700007F074FD214607F071FD214607F06EFD4E
:1035800001464FF07F5007F05FFC0146204607F0F0
:1035900065FD10BDDF59375F70B5044616460D4610
:1035A00002784078B3B140EA022000B207F002FD91
:1035B000314607F053FD2860E378A07843EA002005
:1035C00000B207F0F7FC314607F048FD686020794B
:1035D000637915E042EA002000B207F0EBFC3146C7
:1035E00007F03CFD2860A378E07843EA002000B2B1
:1035F00007F0E0FC314607F031FD6860607923791F
:1036000043EA002000B207F0D5FC314607F026FD62
:10361000A86070BD884205D00B6803604B684360AA
:103620008B688360704738B504460D4600680968AA
:1036300007F00AFC20606968606807F005FC6060BC
:10364000A968A06807F000FCA060204638BD0023F0
:10365000036043608360704710B50446FFF7F7FFCF
:10366000204610BD70B505460C460068096807F095
:10367000F5FC61680646686807F0F0FC01463046D4
:1036800007F0E4FBA1680646A86807F0E7FC0146DE
:10369000304607F0DBFB70BD2DE9F047D1F808A0FC
:1036A000D0F8088005460C4650466968164607F073
:1036B000D5FC61680746404607F0D0FC0146384615
:1036C00007F0C2FB3060D4F800902F6840464946AE
:1036D00007F0C4FC51468046384607F0BFFC01465F
:1036E000404607F0B1FB70606168384607F0B6FCF1
:1036F00069680446484607F0B1FC0146204607F0D9
:10370000A3FBB060BDE8F0872DE9F041D0F8008060
:103710004768866841460446404607F09FFC3946A4
:103720000546384607F09AFC0146284607F08EFB0E
:1037300031460546304607F091FC0146284607F021
:1037400085FBFFF70FFF0021054607F01BFEA0B920
:1037500028464FF07E5107F015FE70B929464046C5
:1037600007F07CFC29462060384607F077FC2946A4
:103770006060304607F072FCA060BDE8F0812DE982
:10378000FF410E4607C801AB83E807001846FFF764
:10379000BBFF029806F0EEFF044603980D4606F0C4
:1037A000E9FF02460B462046294604F0A5FD07F036
:1037B000F7FA3060019806F0DDFF04460298DDF864
:1037C0000C800D46014607F049FC4146074640463D
:1037D00007F044FC0146384607F038FB06F0CAFF04
:1037E00004F0E8FD0B4602462946204604F084FD1D
:1037F00007F0D6FA002300F100407060B360BDE826
:10380000FF810346006870B501465E689D6807F059
:1038100025FC31460446304607F020FC0146204690
:1038200007F014FB29460446284607F017FC01461A
:10383000204607F00BFB70BD884207D00B68036081
:103840004B6843608B688360CB68C360704770B51A
:1038500005460E4600242859315907F0F7FA285139
:103860000434102CF7D1284670BD70B505460E46BD
:1038700000242859315907F0E7FA28510434102C54
:10388000F7D1284670BDF0B58BB0044601A80D46AF
:10389000FFF7DDFE04A8FFF7DAFE07A8FFF7D7FE63
:1038A00063680193A3680293E36803936B680493CE
:1038B000AB680593EB6804A901A80693FFF7D2FE55
:1038C00007AA074604A901A8FFF7E6FE26682968AB
:1038D000304607F0C3FB394607F0B6FA049920607A
:1038E000304607F0BBFB2D6801990746284607F0D4
:1038F000B5FB0146384607F0A9FA079907F0A6FA82
:1039000005996060304607F0A9FB029907462846F2
:1039100007F0A4FB0146384607F098FA089907F02B
:1039200095FA0699A060304607F098FB0399064681
:10393000284607F093FB0146304607F087FA0999BD
:1039400007F084FAE06020460BB0F0BD38B50446BD
:1039500000680D4607F082FB29462060606807F08A
:103960007DFB29466060A06807F078FB2946A060CF
:10397000E06807F073FBE060204638BD38B50446C8
:1039800015460FC984E80F0020462946FFF77BFF44
:10399000204638BD38B5044615460FC984E80F00E7
:1039A00020462946FFF7D2FF204638BD38B50446E9
:1039B00015460FC984E80F0020462946FFF755FF3A
:1039C000204638BD0023036043608360C3607047B6
:1039D00010B50446FFF7F6FF204610BD2DE9F84369
:1039E000D0F80090D0F804808768C668494604463D
:1039F000484607F033FB41460546404607F02EFB9C
:103A00000146284607F022FA39460546384607F0AF
:103A100025FB0146284607F019FA3146054630468F
:103A200007F01CFB0146284607F010FAFFF79AFD45
:103A30000021054607F0A6FCC8B928464FF07E5184
:103A400007F0A0FC98B92946484607F007FB29462D
:103A50002060404607F002FB29466060384607F0C8
:103A6000FDFA2946A060304607F0F8FAE060BDE8AC
:103A7000F883FFFF2DE9F8430746D0F80890D0F807
:103A800004800E464846F96807F0E8FA39680446AB
:103A9000404607F0E3FA0146204607F0D7F906F062
:103AA00069FE02460B4606F007FD04460D464046F9
:103AB000414607F0D3FA49468046484607F0CEFA19
:103AC0000146404607F0C2F906F054FE02460B4696
:103AD00006F0F2FC02460B460020304906F0EAFCF4
:103AE00002460B462046294604F006FC07F058F92A
:103AF000B9683060386807F0B1FAF9680446786848
:103B000007F0ACFA0146204607F09EF906F032FEB7
:103B100002460B4606F0D0FC04F09AFB07F040F991
:103B2000D7F8089079687060484607F097FAD7F898
:103B30000C8039680446404607F090FA014620465A
:103B400007F084F906F016FE02460B4606F0B4FCB8
:103B500004460D464846494607F080FA4146074666
:103B6000404607F07BFA0146384607F06FF906F049
:103B700001FE02460B4606F09FFC02460B46002063
:103B8000064906F097FC02460B462046294604F0FB
:103B9000B3FB07F005F9B060BDE8F8830000F03F23
:103BA0002DE9F74F04460D4608684FF07C5107F0A9
:103BB00055FA06F0DFFD06460F4604F0B3FA07F0AB
:103BC000EFF839468146304604F0F6FA07F0E8F897
:103BD0004FF07C518346686807F040FA06F0CAFD52
:103BE00006460F4604F09EFA07F0DAF83946824698
:103BF000304604F0E1FA07F0D3F84FF07C51019021
:103C0000A86807F02BFA06F0B5FD06460F4604F04B
:103C100089FA07F0C5F839460546304604F0CCFA73
:103C200007F0BEF851460646484607F017FA0199D4
:103C30008046584607F012FA29460746404607F0E4
:103C40000DFA314603463846009307F007FA009B09
:103C50000146184607F0FAF851462060584607F02A
:103C6000FDF901998246484607F0F8F92946814650
:103C7000504607F0F3F931468346484607F0EEF91F
:103C80000146584607F0E0F829466060484607F0CC
:103C9000E5F931468146504607F0E0F901464846CD
:103CA00007F0D4F83146A060404607F0D7F929461E
:103CB0000646384607F0D2F90146304607F0C4F808
:103CC000E060204603B0BDE8F04FFFF787BE38B58F
:103CD0000D460446FFF776FE2B6823606B6803F100
:103CE00000436360AB6803F10043A360EB6803F13A
:103CF0000043E360204638BD407970470048704774
:103D000090C8000005207047436B4FF4C87090FBCB
:103D1000F3F07047034B10B50446036000F0C0FB9E
:103D2000204610BDA8C8000010B50446FFF7F2FFFA
:103D3000204603F08FFE204610BDFFFF10B504465D
:103D400000F0CEFB014B2046236010BDA8C8000048
:103D50004B1FB3F5797F4FF0000308D24FF47A720E
:103D60004163B2FBF1F18163C363012070471846E0
:103D70007047FFFF112907D8044A4BB29A4003D578
:103D800080F88B10012070470020704700C000FEB3
:103D9000082907D8044A4BB29A4003D580F88C1002
:103DA0000120704700207047000080FE4B1E632BEF
:103DB00003D8C0F890100120704700207047FFFF23
:103DC00008290BD001D829B117E010290AD01829E9
:103DD00013D10BE080F89410094B0AE080F894109E
:103DE000084B06E080F89410074B02E0074B80F880
:103DF0009410C0F89830012070470020704700BF31
:103E0000FDB30B39A9689239787D0B3A787D8B3AEE
:103E100008290CD001D829B11BE010290CD0182991
:103E200017D10EE080F895104FF062530DE080F846
:103E300095104FF0645308E080F895104FF06653EA
:103E400003E080F895104FF06853C0F89C300120D3
:103E500070470020704710B538210446002290F8C2
:103E60008900FFF75DFB00282DD094F889002321FD
:103E70000022FFF755FB30B394F889006A21002235
:103E8000FFF74EFBF8B194F889006A210422FFF78E
:103E900047FBC0B194F889006A216022FFF740FB1C
:103EA00088B1322002F0DCFA94F88900382101222E
:103EB000FFF736FB38B194F8890023217822BDE85A
:103EC0001040FFF72DBB002010BDFFFF70B5514E15
:103ED0008AB033880446722190F889000093022248
:103EE00003ABFFF789FA00B911E09DF80C509DF87B
:103EF0000D3003EB0525B5F5806F0AD12046FFF79D
:103F0000AAFFE36AA26B562101FB0233E3620020A1
:103F10007EE0B5F5F07F11D9338894F889000093DD
:103F200074210C2207ABFFF767FA0028EFD0E26A92
:103F3000A36B0C3DD318E362772DECE70B2DE6D98C
:103F4000344D94F889002B88742100930C2207AB20
:103F5000FFF752FA0028DAD02B8894F889000093F2
:103F60004921082205ABFFF747FA0028CFD007A860
:103F700004F11401D4F89C200123FFF70DFB0DF18F
:103F8000220004F10801D4F898200123FFF704FB74
:103F9000214A0DF1150004F120010023FFF7FCFA7E
:103FA000E368206AD4F8A01003F10043E3602369BA
:103FB00003F100432361636903F10043636107F088
:103FC0004DF8D4F8A4100546606A07F047F8D4F815
:103FD000A8100646A06A07F041F805F10045A06266
:103FE00026622046656200F001FB204600F0A8FB37
:103FF00094F8883023B1094B1B680493049B02E0BA
:10400000E26AA36BD318E362002384F888300120AE
:104010000AB070BD6687FF1F9A99193F848FFF1FF2
:1040200013B5164B04466A2190F889001B880DF1E0
:104030000702FFF74DFA08B900201DE09DF80720A0
:1040400094F8890022F0200242F002026A218DF8E1
:104050000720FFF765FA0028EED0322002F000FAC0
:1040600094F8890037218222FFF75AFA0028E3D01A
:10407000322002F0F5F901201CBD00BF6687FF1F4A
:1040800013B5144B04466A2190F889001B880DF182
:104090000702FFF71DFA08B900201AE09DF8072073
:1040A00094F8890042F020026A218DF80720FFF77A
:1040B00037FA0028F0D0322002F0D2F994F88900C3
:1040C00037218022FFF72CFA18B1322002F0C8F90C
:1040D00001201CBD6687FF1F38B590F88B5090F803
:1040E0009430C5F3C102D21804461B2190F8890010
:1040F000D2B2FFF715FA40B194F889001A2105F001
:104100000702BDE83840FFF70BBA38BD10B50446CA
:104110001C2190F8890094F89520FFF701FA40B12E
:1041200094F8890094F88C201D21BDE81040FFF719
:10413000F7B910BD436BB3F57A7F0ADC4FF47A729E
:1041400092FBF3F35A1E90F889001921D2B2FFF7BF
:10415000E7B901207047426BD0F8903090F88900A1
:1041600092FBF3F2013A1F2AA8BF1F223421D2B2D8
:10417000FFF7D6B91FB5012380F88830036B1A7991
:10418000044680F889201969FFF7E2FD236B204679
:104190005969FFF70BFE236B2046197EFFF7EAFDF6
:1041A000236B2046197FFFF7F3FD236B204693F81E
:1041B0002010FFF705FE236B204693F82410FFF72D
:1041C00027FE204600F0B2F994F889006B21802286
:1041D000FFF7A6F9002800F01881642002F040F9EA
:1041E00094F889006B210022FFF79AF9002800F06B
:1041F0000F81A74B94F889001B8875210DF10B02E4
:10420000FFF766F9002800F006819DF80B30712B4E
:1042100040F004812046FFF75FFF002800F0018195
:104220002046FFF773FF002800F0FE802046FFF7CE
:1042300081FF002800F0FB802046FFF7F1FE0028F8
:1042400000F0F8800C200A210022FFF769F928B954
:104250002046FFF715FF6FF00B0017E10C200A2135
:104260000F22FFF75DF928B92046FFF709FF6FF02D
:104270000C000BE1864B1B880C20009310210322BD
:104280000DEB0003FFF7B8F828B92046FFF7F8FE5A
:104290006FF00D00FAE09DF80C0006F087FE06F0C6
:1042A00069FA00227B4B06F005F900227A4B06F0F2
:1042B000B5FA0022794B06F0FFF806F071FDC4F85C
:1042C000A0009DF80D0006F071FE06F053FA0022E2
:1042D000704B06F0EFF800226F4B06F09FFA0022B9
:1042E0006E4B06F0E9F806F05BFDC4F8A4009DF8FB
:1042F0000E0006F05BFE06F03DFA0022654B06F06C
:10430000D9F80022644B06F089FA0022634B06F0CC
:10431000D3F806F045FD0A21C4F8A80000220C20BD
:10432000FFF7FEF828B92046FFF7AAFE6FF00E004F
:10433000ACE02046FFF7A4FE00287ED094F8890068
:1043400024214022FFF7ECF8002879D094F8890066
:1043500025218C22FFF7E4F8002874D094F8890016
:1043600026210222FFF7DCF800286FD094F889009C
:1043700027218822FFF7D4F800286AD094F8890012
:1043800028210C22FFF7CCF8002865D094F889008A
:1043900029210A22FFF7C4F8002860D094F8890088
:1043A0002A218122FFF7BCF800285BD094F889000D
:1043B00064210122FFF7B4F8002856D094F8890050
:1043C00067210322FFF7ACF8002851D02046FFF701
:1043D000C2FE00284FD094F889006B210122FFF71C
:1043E0009FF800284AD094F889006C210022FFF73A
:1043F00097F8002845D02046FFF72DFD002843D030
:10440000204600F0E5F8012040E04FF0FF303DE0AD
:104410006FF003003AE06FF0040037E06FF0050042
:1044200034E06FF0060031E06FF007002EE06FF02F
:1044300008002BE06FF00A0028E06FF00F0025E085
:104440006FF0100022E06FF011001FE06FF012001B
:104450001CE06FF0130019E06FF0140016E06FF02D
:10446000150013E06FF0160010E06FF017000DE07C
:104470006FF018000AE06FF01A0007E06FF01B0001
:1044800004E06FF01C0001E06FF01D0004B010BDEF
:104490006687FF1F000060400000703F0000F03F93
:1044A000014B0360704700BFD8C8000090F8480077
:1044B0007047FFFF034B10B50446036003F0CAFAD0
:1044C000204610BDD8C8000038B50546B02003F01E
:1044D000BDFA29460446FFF731FC204638BDFFFFF0
:1044E00038B5114B044640F8083B0D46FFF7B4F8C9
:1044F00004F11400FFF7B0F804F12000FFF7ACF866
:1045000004F14C00FFF7A8F804F15800FFF7A4F8F5
:1045100004F17C00FFF7A0F8002325632371637189
:1045200084F84830204638BDD8C800002DE9F04353
:10453000064689B00020707101A900F0EFFB002849
:1045400041D09DF80630012B3DD1204D6C4603AF84
:1045500060690434616806F077FC2946804606F0FD
:1045600039FF00B14546BC42F2D12846002106F091
:1045700013FF40BB28464FF07C5106F06FFD3546D7
:104580008146002401AA13190434D3F810805F680F
:104590004046394606F058FC4FF07C5106F05EFD6F
:1045A0000146484606F00EFE39462867404606F0AA
:1045B0004DFC4FF07C5106F051FD043528660C2C63
:1045C000E0D10123737109B0BDE8F083000080BF22
:1045D00010B50446406B06F0EDFC01464FF08040FC
:1045E00006F0F0FD00232064636410BD2DE9F04364
:1045F00000F15805804695E8070085B001AC08F148
:10460000140684E8070031462046FFF70CF83146CF
:104610002846FEF7FFFF2046FFF7F3F8454906F06E
:10462000BBFE80B108F10800FFF7EBF8424906F045
:10463000B3FE78B907E001329A42C8F8442002D1AB
:10464000012388F8483008F1080008F14C01FEF712
:10465000EAFF6CE0D8F84090484606F08BF8024636
:104660000B460020354905F025FF0446D8F84C00DC
:104670000D4606F07FF802460B462046294606F016
:10468000CDF806460F464846D8F8081006F0E6FC76
:1046900006F070F802460B463046394605F00CFF2E
:1046A00006F07EFBC8F84C00D8F8500006F062F81F
:1046B00002460B462046294606F0B0F806460F464D
:1046C0004846D8F80C1006F0C9FC06F053F802462C
:1046D0000B463046394605F0EFFE06F061FBC8F8A0
:1046E0005000D8F8540006F045F802460B46204624
:1046F000294606F093F804460D464846D8F81010AF
:1047000006F0ACFC06F036F802460B462046294679
:1047100005F0D2FE06F044FBD8F83430D8F8442037
:10472000C8F8540005214B439A4284DB8BE705B05F
:10473000BDE8F0830BD7233B0BD7233D0000F03FB0
:10474000037970B50646CBB94379BBB1006A716E87
:1047500006F07AFB316F06F081FCB16E3062706A50
:1047600006F072FB716F06F079FCF16E7062B06A50
:1047700006F06AFBB16F06F071FCB062306A2E4938
:1047800006F06CFC05F0F6FF0446F06F0D4605F0F0
:10479000F1FF27A3D3E9002306F040F802460B46B9
:1047A0002046294605F088FE06F0FAFA2249F0670D
:1047B000706A06F053FC05F0DDFF0446D6F8800071
:1047C0000D4605F0D7FF1AA3D3E9002306F026F81B
:1047D00002460B462046294605F06EFE06F0E0FA3A
:1047E0001549C6F88000B06A06F038FC05F0C2FF33
:1047F0000446D6F884000D4605F0BCFF0CA3D3E9AF
:10480000002306F00BF802460B462046294605F029
:1048100053FE06F0C5FA06F17C01C6F8840006F1E5
:104820002000BDE87040FEF7F5BE00BFAFF300808A
:10483000000000989999E93FCDCC4C3EAFF3008041
:10484000704730B5012385B080F85730044600F139
:10485000480501A8FEF700FF01A92846FEF7DAFE89
:10486000294604F13800FFF79BF904F12C0501A853
:10487000FEF7F2FE01A92846FEF7CCFE04F11C006B
:104880002946FFF78DF905B030BDFFFF10B504468E
:104890000430FFF79DF804F11C00FFF799F804F1CC
:1048A0002C00FEF7D9FE04F13800FFF791F804F16F
:1048B0004800FEF7D1FE084B6361084BA36101235A
:1048C000204684F8543084F8553084F85630FFF789
:1048D000B8FF204610BD00BF6F12833A6F12033A33
:1048E0002DE9F04794B0064668460C461746FFF798
:1048F0006FF804A8FFF76CF896F8552006F12C0124
:104900001AB12046FEF73BFF06E0084606F14801D3
:10491000FEF780FE0023736396F85630002B6CD0B0
:10492000F06A4FF07C5106F099FB05F023FF044636
:104930000D4603F0F7FB06F033FA29468046204681
:1049400003F03AFC06F02CFA4FF07C518146306BB4
:1049500006F084FB05F00EFF04460D4603F0E2FB73
:1049600006F01EFA29468246204603F025FC06F092
:1049700017FA51460446404606F070FB5146049033
:10498000484606F06BFB21460590404606F066FB64
:104990002146069009F1004006F060FB00230093D9
:1049A0003B68079001937B680293BB686A4608A83E
:1049B00004A90393FEF7E2FF0CA804A9FFF787F907
:1049C0000CAA10A808A9FEF7D9FF10A96846FEF79F
:1049D00033FF029805F0CEFE044601980D4605F01F
:1049E000C9FE02460B462046294603F085FC06F028
:1049F000D7F900F10040706301E0336D736306F195
:104A00001C0806F12C0740463946FFF7C9F8DFF8C5
:104A10008C9000244FF0FF3506F11C03494653F8F3
:104A2000243023F0004A504606F0D4FC08B1D146A9
:104A300025460134042CEFD106EB85090021D9F875
:104A40001C40204606F0A8FC28B1D9F83800002107
:104A500006F0C0FC58B92046002106F0BBFCD0B1DE
:104A600006EB85050021A86B06F096FC98B1F3696A
:104A700003F10043F361336A03F100433362736A65
:104A800003F100437362B36A03F10043B36240462B
:104A90003946FEF7EFFF14B0BDE8F08700007AC496
:104AA0002DE9F04F04468DB002A81E460F469046F1
:104AB000169DFEF7D1FD94F85730ABB13246A5658F
:104AC0002046414604F12C05FFF70AFF04F13800A7
:104AD0002946FFF765F804F148002946FEF79AFDDC
:104AE000002384F85730FDE0A06D281A06F05EFA26
:104AF0007E4906F067FBA5652060002106F056FCA4
:104B0000002840F0EF80414632462046FFF7E8FE9D
:104B1000636CD4F838A0019394F85430D4F83C80F6
:104B2000266C13B102A8394604E005A8FEF794FDEF
:104B300002A805A9FEF76EFD02984FF07C5106F021
:104B40008DFA4FF07C510746039806F087FA4FF034
:104B50007C518146049806F081FA4146834607F16C
:104B6000004006F07BFA314603464846009306F0C3
:104B700075FA009B25680146184606F065F901990B
:104B800003465846009306F069FA009B0146184612
:104B900006F05AF9294606F061FA0146504606F039
:104BA00055F95146A063384606F058FA3146034697
:104BB0005846009306F052FA009B0146184606F04C
:104BC00045F9019903464846009306F047FA009BD1
:104BD0000146184606F038F9294606F03FFA014624
:104BE000404606F033F95146E063484606F036FA8F
:104BF000414603465846009306F030FA009B0146B2
:104C0000184606F021F9019903463846009306F04C
:104C100025FA009B0146184606F018F9294606F0C9
:104C20001DFA0146304606F011F9514620645846F7
:104C300006F014FA41468246484606F00FFA01464D
:104C4000504606F003F931468046384606F006FA2B
:104C50000146404606F0F8F8294606F0FFF90146FD
:104C6000019806F0F3F894F85630606408A813B978
:104C700094F8553033B104F11C0104F13802FEF709
:104C800095FE01E0FEF7A4FE04F1380508A9201DF9
:104C9000FEF7D2FD261D2A4608A804F11C01FEF7E6
:104CA00085FE08A93046FEF7C7FD2168606906F059
:104CB000D5F9A169074606F0C9F80146384606F05D
:104CC00081FA3146024608A8FEF764FE08A9284684
:104CD000FEF7BDFD2846FEF781FE284604F1480197
:104CE000FEF7C8FE0DB0BDE8F08F00BF00007A44AB
:104CF00070B583004401E41AFC230B7015234B703C
:104D000004F11C050E1B2146325D03480134FEF7F9
:104D100012FCAC42F7D170BDAD8EFF1F70B58300A1
:104D20004401E41A00238B700D460D482146FEF71E
:104D3000FFFBFC2812D1611C0948FEF7F9FB15287E
:104D40000CD104F11C062D1B21460548FEF7F0FB93
:104D500028550134B442F7D1012070BD002070BD48
:104D6000AD8EFF1F7047FFFF034B10B50446036075
:104D7000FBF7F6FD204610BD08C9000010B504463B
:104D8000FFF7F2FF204602F065FE204610BDC06925
:104D9000C0B201B1012101F0FDBAC9680029D4BF38
:104DA00000210121FFF7F3BF37B51D460023009313
:104DB00008230446FBF7E4FD084B012D236001D1D5
:104DC000062300E00723E361207F012101F00EFBB1
:104DD00020460121FBF7ECFD20463EBD08C900003E
:104DE0007047FFFF034B10B504460360FBF7B8FDA7
:104DF000204610BD20C9000010B50446FFF7F2FFA1
:104E0000204602F027FE204610BDFFFFF0B58BB014
:104E10000446FBF7D1FD002854D001F003FE002822
:104E200017DD01F00DFE04F11C06C1B2304600F0A2
:104E300049FBA0B90DE01DF80300121892B201332E
:104E40008B42F8DBA069ADF80620036869461B6950
:104E5000984720464FF0FF31FBF7AAFD32E071235F
:104E6000ADF8003028230025ADF80230304641F27D
:104E70000103ADF80430ADF8065000F03DF9CDE97E
:104E80000201304600F05CF984F89550CDE9040148
:104E9000D4F89C0005F05CFC00220B4B05F0E8FD0B
:104EA000D4F8BC3084F8B5500893D4F8AC3084F80A
:104EB000A550CDE9060109932F46BDF802102B46F7
:104EC0002A46BDE70BB0F0BD0000594037B5044697
:104ED0001D46009202230022FBF752FD20460F4B95
:104EE00040F81C3B00F01CF815B1C4F8F45003E086
:104EF0004FF41653C4F8F430D4F8F430580800F1E5
:104F0000B76000F55840B0FBF3F001F013FC204609
:104F10000121FBF74DFD20463EBD00BF20C900002A
:104F20000346002110B50224017041708180816028
:104F300001824161818301620185C1621973197621
:104F400083F8241083F8301083F83810C16383F895
:104F5000391083F84810C16483F8491083F8581059
:104F600001660167C0F8801083F8591083F8681053
:104F700083F8691083F8781083F8791083F8881023
:104F800083F88910C0F8901083F8981083F899106E
:104F9000C0F8A01080F8B94083F8A81083F8A910D1
:104FA00083F8BA1083F8BB1083F8BC10C0F8C010A7
:104FB000C0F8C410C0F8C810C0F8CC10C0F8D010A9
:104FC000C0F8D41083F8AA1010BDA1F14103052B3D
:104FD00002D8A1F137007047A1F16103052B94BFFE
:104FE000A1F15700A1F13000704738B50578B5F14F
:104FF0002D035D425D41044605B1441C204606F088
:105000001FFA64234343224614F8011BA1F1300028
:105010000928F8D92E2910D15178A1F1300009289A
:105020000BD809B2C800927800EB4101303AA1F5E3
:10503000F0715B18092A98BF9B1805B15B421846AE
:1050400038BDFFFF38B50C46054606F0F9F9642374
:10505000B0FBF3F21249228003FB12034B432846B4
:10506000014610F8012BA2F13005092DF8D92E2A9E
:105070000CD108460A4A0A2503E0B2FBF5F202FB0E
:10508000013310F8011F30390929F6D9052253439D
:1050900001330322B3FBF2F363600023237238BDB4
:1050A00080969800034682B053F81C2F42605A68DD
:1050B00082601B7A0373034653F8282F02615A68F3
:1050C00042611B7A0376054B1B680193019B436386
:1050D00001234370037002B0704700BF848FFF1F2D
:1050E00000F11C0308461946FFF7ACBF00F1280386
:1050F00008461946FFF7A6BF002370B54370064661
:10510000808805F025FB0446B0680D4605F010FBCD
:1051100009A3D3E9002305F0ABFC02460B46204669
:10512000294605F0C9F90B46317B024609B103F166
:1051300000431046194670BD0000000065CDCD410A
:10514000002370B543700646008A05F001FB044653
:1051500070690D4605F0ECFA09A3D3E9002305F0C8
:1051600087FC02460B462046294605F0A5F90B466A
:10517000317E024609B103F100431046194670BD65
:105180000000000065CDCD4183684360054B82B0CF
:105190001B680193019BC36001234370037002B03D
:1051A000704700BF848FFF1F83684360054B82B048
:1051B0001B680193019BC36001234370037002B01D
:1051C000704700BF848FFF1F10B504460846FFF7E5
:1051D0000CFFA06010BD10B50446084606F030F97B
:1051E000A06010BDC3688360054B82B01B6801934B
:1051F000019B436001234370037002B0704700BFFE
:10520000848FFF1F10B504460846FFF7EEFEE060EE
:1052100010BDFFFFC3688360054B82B01B6801931C
:10522000019B436001234370037002B0704700BFCD
:10523000848FFF1F10B50446084606F001F9E060B0
:1052400010BDFFFF13B504462146103006F03EFEA8
:10525000054B1B680193019B2362012384F82530D1
:1052600084F824301CBD00BF848FFF1F102206F07D
:105270008BBEFFFF90F8A93070B50446002B62D0BA
:1052800090F8AA10FFF7A1FE94F8AB10054620464F
:10529000FFF79BFE94F8A83000EB0510C5B2AB42B7
:1052A0004BD1D4F8D4300133C4F8D43094F8BC30A6
:1052B00023B1D4F8CC300133C4F8CC3094F8B930F1
:1052C000B3B1012B2AD104F13800FFF75DFF04F1DF
:1052D0004800FFF769FF94F8BC30FBB12046FFF7A8
:1052E000E1FE04F15800FFF77DFF04F1680013E0D0
:1052F00004F14800FFF758FF94F8BC3033B1204662
:10530000FFF7D0FE04F17800FFF76CFF04F188008E
:10531000FFF780FF04F19800FFF764FFD4F8C45052
:10532000002D00F0BC80D4F8C430A86A996A06F059
:10533000DFFC002800F0B580B1E0D4F8D0300133B4
:10534000C4F8D0301DE090F8BA2042BB00F1AA05A5
:1053500028465A4906F0CCFC08B9012308E0284643
:10536000574906F0C5FC10B984F8B90002E00223E1
:1053700084F8B930D4F8C030C4F8C430D4F8C4606C
:105380000EB9002070BDB06A294606F0B1FC0028B5
:1053900080F290808AE00020C4F8C40070BD90F8CC
:1053A000B910022960D090F8AA30002B5CD042EAF4
:1053B0004112013A282A57D8DFE802F01520252C9F
:1053C0003142494F515656565656565656565656CF
:1053D000565656565656565656565656151B202550
:1053E0002C31383A3C00483004F1AA01FFF7ECFEBA
:1053F0003AE0B3F141004342434125E004F1AA0100
:10540000FFF76EFE30E0B3F153014B424B4180F8A1
:10541000243029E004F1AA01FFF768FE24E0B3F18B
:1054200057025342534180F830301DE0583017E0A6
:10543000683015E0383004F1AA01FFF7CCFE13E024
:10544000302B94BF0023012384F8BC300CE088305B
:1054500004F1AA01FFF7EEFE06E0983000E0783094
:1054600004F1AA01FFF7CEFED4F8C45004F1AA0655
:1054700004E028463146FFF7F9FE2D6B002D80D061
:10548000D4F8C430A86A996A06F032FC00287FF488
:1054900078AFEB6A94F8BA20934209DD71E70120F6
:1054A00070BD2846FFF7CEFE2D6B39E7336B63E7FF
:1054B000E3D1DEE77FF46FAF63E700BF30C90000E0
:1054C00036C9000038B5D0F8C83001332429044665
:1054D0000D46C0F8C8302CD004D80A290CD00D29AC
:1054E00036D109E02A2907D02C2931D190F8A830EB
:1054F00083F02C0380F8A83094F8BB300E2B4FF0CB
:10550000000005D8E31883F8AA002046FFF7B2FE92
:1055100094F8BA30013384F8BA300023B5F12A0C7C
:10552000DCF1000555EB0C0584F8BB3084F8A9507C
:1055300038BD0020022384F8BB0084F8BA0084F848
:10554000A80084F8B93084F8A90084F8BC0038BDFC
:1055500094F8BB300D2B05D8E218013382F8AA501D
:1055600084F8BB3094F8A90028B994F8A8305D40BD
:1055700084F8A85038BD002038BDFFFF2E4B002214
:1055800030B51A6090F8943053B9D0F890305A681A
:1055900002F596525A6090F899201A60012347E06C
:1055A000012B28D190F8953073B100EB830290F86D
:1055B0009710526C01338B4288BF0023D0F88C10B7
:1055C000A2F5965271B913E090F89640011F80F849
:1055D00097401A4603E051F8045F01324D64A2423D
:1055E000F9D9E2E7012B01D10B7001E000240C7026
:1055F00080F8953001E0D0F888204EF660239A427A
:10560000D0F89030596806D88A185A6090F89820D7
:105610001A6000230CE001F562419031596090F866
:105620009910A2F56242903A1960C0F888200223CE
:1056300080F8943030BD00BF54800340442380F88C
:105640008A307047036890F88A105A6810B519605C
:10565000174BB2F5604F1B8803D91649097801B181
:10566000013B42EA0343D0F88420C0F884309A1A00
:10567000114B9A4290F8883011D9FF2B0DD0021FA0
:10568000002103E004325468013154649942F9DB8B
:1056900080F88930012380F88B30002305E00F2B40
:1056A00005D800EB830101334A6080F8883010BDD3
:1056B000B08EFF1FAE8EFF1F3F9002006E4B1A6828
:1056C00010B5140608D548221A606C4B1A880132AE
:1056D0001A806B4B01221A706A4B1C78E00703D5C5
:1056E000694B1B68190677D404F00203DBB21BB1C7
:1056F000664B1B681A0674D404F00403DBB21BB1BA
:10570000634B1B681B0671D404F00803DBB21BB1AA
:10571000604B1B6818066ED404F01003DBB21BB19B
:105720005D4B1B6819066BD404F02003DBB21BB180
:105730005A4B1B681A0668D404F04003DBB21BB155
:10574000574B1B681B0665D4200603D5554B1B68B9
:10575000190664D4544B1C78E20703D54A4B1B68E6
:105760001B0661D404F00203DBB21BB1474B1B687C
:1057700018065ED404F00403DBB21BB1444B1B6873
:1057800019065BD404F00803DBB21BB1414B1B6864
:105790001A0658D404F01003DBB21BB13E4B1B6851
:1057A0001B0655D404F02003DBB21BB13B4B1B6836
:1057B000180652D404F04003DBB21BB1384B1B680F
:1057C00019064FD4220603D5364B1B681B064ED450
:1057D0002B4B00221A7010BD344B1868FFF732FFB4
:1057E00082E7324B5868FFF72DFF85E72F4B98680B
:1057F000FFF728FF88E72D4BD868FFF723FF8BE7DB
:105800002A4B1869FFF71EFF8EE7284B5869FFF7F0
:1058100019FF91E7254B9869FFF714FF94E7234B95
:10582000D869FFF70FFF95E7214B1868FFF7A6FE31
:1058300098E71F4B5868FFF7A1FE9BE71C4B986841
:10584000FFF79CFE9EE71A4BD868FFF797FEA1E78B
:10585000174B1869FFF792FEA4E7154B5869FFF73D
:105860008DFEA7E7124B9869FFF788FEAAE7104B59
:10587000D869FFF783FEABE700800340B08EFF1FBF
:10588000AE8EFF1FB38EFF1F0C80034014800340B9
:105890001C800340248003402C800340348003405C
:1058A0003C80034044800340B28EFF1FB48EFF1F34
:1058B000D48EFF1F08B50346A9B1481E72B693F8EF
:1058C000892090423ABF03EB8100006C0020914296
:1058D00002D3002283F88B2062B605F067FB0349F0
:1058E00005F070FC08BD002008BD00BF000040426C
:1058F0007047FFFF034B10B504460360FBF730F819
:10590000204610BD68C9000010B50446FFF7F2FF3D
:10591000204602F09FF8204610BD70B58AB00646BA
:10592000FBF74AF8002849D0722306F11C04002531
:10593000ADF800302823ADF80230294641F20103CA
:105940002046ADF80430ADF80650FFF7B3FF012153
:1059500002902046FFF7AEFF022103902046FFF79A
:10596000A9FF032104902046FFF7A4FF042105901E
:105970002046FFF79FFF052106902046FFF79AFF7C
:10598000062107902046FFF795FF07210890204643
:10599000FFF790FFBDF80220099029462B4604E04E
:1059A0001DF801001B189BB201319142F8DBB06970
:1059B000ADF80630036869461B6998470AB070BDA8
:1059C00013B50723044600920022FAF7D9FF2046B8
:1059D000034A40F81C2BFFF731FE20461CBD00BFD8
:1059E00068C900007047FFFF074B10B5044603600D
:1059F000806A08B102F02EF80023A3622046FBF76C
:105A00006BFE204610BD00BF80C9000010B50446E3
:105A1000FFF7EAFF204602F01DF8204610BDFFFF09
:105A2000F7B5076B012380F824300546384605F0AA
:105A3000C1FA04462146002005F010FB2146064627
:105A400005F0C8FC48B9784205F0B4FA044621468E
:105A5000304605F0A1FC00B93446204605F0C4FCF0
:105A600095F82C6002463146A86AFCF76AFC034BA5
:105A70001B680193019BEB61FEBD00BF848FFF1F7C
:105A8000C968FFF7CDBFFFFF07B5094A1268019249
:105A900090F82420019952B1C269891A026A914290
:105AA00005D9002280F824200021FFF7B9FF0EBDA0
:105AB000848FFF1FFFF7E8BF7FB51D4600230093CB
:105AC00005230446FBF71CFE0D4B089A23600D4B83
:105AD000E262099A1B6822620A9A03932263039A7C
