:1000000000800020BD010000315500003155000086
:10001000315500003155000031550000FD540000FD
:10002000FD540000FD540000FD5400003155000057
:1000300031550000FD54000031550000ED54000022
:100040003155000031550000315500003155000098
:100050003155000031550000315500003155000088
:100060003155000031550000315500003155000078
:100070003155000031550000315500003155000068
:100080003155000031550000315500003155000058
:100090003155000031550000315500003155000048
:1000A0007D30000031550000315500003155000011
:1000B0003155000031550000315500003155000028
:1000C0003155000031550000315500003155000018
:1000D0003155000031550000315500003155000008
:1000E00031550000315500003155000031550000F8
:1000F000315500003568000031550000B96300003B
:10010000315500005D790000315500003155000087
:1001100031550000315500003155000031550000C7
:1001200031550000315500003155000031550000B7
:1001300031550000315500003155000031550000A7
:100140003155000031550000315500003155000097
:100150003155000031550000315500003155000087
:10016000BD060000F96A000031550000315500005D
:100170003155000031550000315500003155000067
:100180003155000031550000315500003155000057
:10019000315500003155000031550000115A000062
:1001A000615A0000E95A0000A55B0000295C0000CC
:1001B000315500003155000031550000544B4CF2D0
:1001C000205210B51A804DF628121A8000BF00BFC9
:1001D00005F0B2F94F4B4FF010621A604E4A9A6028
:1001E0004E4ADA604E4B1A6812F4807204D14D49BF
:1001F0000A604FF4A8521A604B4B1A7802F00802BA
:10020000D2B21AB11A7842F008021A70474B484825
:10021000484C2A221A700023474A02E01959995083
:10022000043399188142F9D3444B454A002101E037
:1002300043F8041B9342FBD34249434800231A5816
:100240005A500433B3F5DE7FF9D1404B404A802148
:1002500003F8011B9342FBD13A4A3E4B1A603E4BD6
:100260000A221A703D4B24221A70A02203F8012C96
:100270003B4A137803F00203DBB2002BF9D0384A73
:10028000137803F01003DBB2002BF9D1344A137852
:1002900003F00C03082BFAD1324B03221A704022D0
:1002A0005A702F4A137803F02003DBB2002BF9D0E9
:1002B0002B4A137803F04003DBB2002BF9D02A4B12
:1002C0002A4A1A6002225A60294B20221A70244AB4
:1002D000137803F00C030C2BFAD1264A264B1A6034
:1002E000264B4BF67F321A60072243F8042C62B685
:1002F00005F03EFD0B4B1B68DC0702D5204805F0DE
:10030000ABFC0AF029FD05F01DF907F027F9FEE71F
:100310000E20054030800440823F04000100002B85
:1003200010D0034014D0034002D0074000E0074043
:100330001C8DFF1FC0C800006087FF1F1C8DFF1FA2
:100340003892FF1F0082FF1F0000000000E400E061
:100350005FE400E008ED00E0005006400140064088
:10036000064006400440064044800440000003115B
:1003700000400640C01005000480044014E000E086
:10038000857C4B55FFFFFFFFFFFFFFFFFFFFFFFFD8
:10039000FFFFFFFFFFFFFFFFFFFFFFFFFFFFFFFF6D
:1003A000FFFFFFFFFFFFFFFFFFFFFFFFFFFFFFFF5D
:1003B000FFFFFFFFFFFFFFFFFFFFFFFFFFFFFFFF4D
:1003C000FFFFFFFFFFFFFFFFFFFFFFFFFFFFFFFF3D
:1003D000FFFFFFFFFFFFFFFFFFFFFFFFFFFFFFFF2D
:1003E000FFFFFFFFFFFFFFFFFFFFFFFFFFFFFFFF1D
:1003F000FFFFFFFFFFFFFFFFFFFFFFFFFFFFFFFF0D
:10040000FFFFFFFFFFFFFFFFFFFFFFFFFEFFFFFFFD
:1004100008B548F61C50074BC1F6FF701B1A062B97
:1004200000D808BD40F20003C0F20003002BF8D052
:100430009847F6E71F8DFF1F08B548F61C5048F691
:100440001C53C1F6FF70C1F6FF731B1A9B1003EB20
:10045000D373591000D108BD40F20002C0F200026F
:10046000002AF8D09047F6E710B548F61C54C1F6BC
:10047000FF74237873B9FFF7CBFF40F20003C0F29B
:1004800000032BB14CF6C000C0F20000AFF30080B7
:100490000123237010BD00BF08B540F20003C0F275
:1004A00000034BB14CF6C00048F62051C0F20000EA
:1004B000C1F6FF71AFF3008048F61C50C1F6FF7023
:1004C00003682BB140F20003C0F2000303B1984768
:1004D000BDE80840B0E700BF7047FFFF08B5064819
:1004E00000F0CEFA10B9044800F0C0FB0248BDE8A5
:1004F000084000F078BE00BF388DFF1F10B5054CD6
:10050000204600F035FB0449044A2046BDE810406F
:100510000AF004BC388DFF1F911100006087FF1F97
:1005200010B5002303710C4B0C22198801230B42D8
:1005300008D1094A19431180084A118821EA0303A6
:10054000138010BD04795B000134013A04719BB241
:10055000EDD1FF23037110BD908DFF1F8C8DFF1F08
:100560002DE9F041984603790B2B0446174634D801
:10057000CEB23046012105F0ABFB2579184B194866
:100580005E55194B44F2506223F81520012303FAFB
:1005900005F503881D43154B05801A680C214F4350
:1005A00001FB08F112F480022780618011D11968E3
:1005B00041F4800119600E4B4FF6FF7119605A60CB
:1005C0009A6042F6A27243F8042C02F5803243F896
:1005D000042C084B4FF480721A602079BDE8F0813A
:1005E000AA8DFF1F8C8DFF1F928DFF1F3C80044042
:1005F0000460034008E100E04FF408724FF4166312
:10060000FFF7AEBF03790B2B10D8094A012101FA7D
:1006100003F11388C9430B401380064A1088014038
:1006200011801BB9044B4FF480721A60704700BFF1
:100630008C8DFF1F908DFF1F88E100E00C23594334
:100640000388994203DB43889942B8BF0B4602797D
:100650000B2A9CBF014921F812307047928DFF1F71
:1006600013B504790B2C024616D8B1F5087F04DBCC
:1006700002B0BDE81040FFF7E1BF1388528821EABD
:10068000E1700092B428A8BFB4200021B42206F083
:100690003BFF024B23F8140002B010BD928DFF1FE8
:1006A00003790B2B06D8044A108840FA03F000F0B7
:1006B00001007047002070478C8DFF1F70B5334AD2
:1006C000334C118894F9003041FA03F111F0010F15
:1006D000154606D02F4A0021D05C05F0CDFA0C2338
:1006E00023702D4B2C88197800234DB223E0581924
:1006F00044FA00F6013316F0010F1CD0254B264CAE
:10070000185C2270012105F0B7FA2378204A59B20B
:100710001370224A32F81110214A1068081810602C
:10072000204A106809181160013342F6A37142F89B
:100730000C1C237070BD5A1850B20B28D7DD164B15
:1007400017491A700A68C2F56A3303F5C073B3F526
:10075000966F05DB4EF660208342A8BF034601E09A
:100760004FF496639A180A600E4908681B180B60CC
:100770000D4B42F6A37119600C4B9A4204D9084AFA
:1007800000231360044A137070BD00BF8C8DFF1FDF
:100790006487FF1FAA8DFF1F8E8DFF1F928DFF1F85
:1007A000888DFF1F0C600340006003407FA9030099
:1007B00030B585B0044600F0FFF858B36623ADF8B5
:1007C000003010230025ADF80230204641F201032D
:1007D000ADF80430ADF8065000F0ECF8E16A029094
:1007E000A06B09F0A5FF216B0AF060F9BDF80210BB
:1007F00003902B462A4604E01DF80300121892B21B
:1008000001338B42F8DBA069ADF806200368694626
:100810001B69984705B030BD074B10B5044603600F
:10082000406B08B106F088FD00236363204600F0AA
:1008300097F8204610BD00BFD8BF000010B5044691
:10084000FFF7EAFF204606F077FD204610BD70B5A1
:10085000856A04460E46084629460AF02FFA30B942
:10086000656A304629460AF00BFA00B93546216B15
:1008700028460AF067F8E16A09F05CFFA0630AF015
:1008800027FA1C3401462046BDE87040FFF7E8BE59
:10089000C968FFF7DCBF10B504461C30FFF700FF46
:1008A00038B1636B2BB119682046BDE81040FFF7E3
:1008B000CEBF10BDF7B50D9D0C9E009504461F469A
:1008C000092300F05DF825461A4B45F81C3B2846E5
:1008D000FFF726FE012F01D1032300E00423E36389
:1008E000089B1549A362099B63620A9BE3620B9B09
:1008F000304623630AF0BAF920B9042006F018FD47
:10090000066000E0002000236063A3632846E16BDB
:10091000FFF772FE636B204613B1FFF7BCFF02E0E6
:10092000A16BFFF794FF2046012100F041F820461B
:10093000FEBD00BFD8BF000000C0794438B500F14B
:100940001C0405462046FFF75DFE2846002100F006
:100950002FF82046FFF7A4FE80F00100C0B238BD9A
:10096000014B0360704700BFF0BF0000034B10B5A0
:100970000446036006F0E0FC204610BDF0BF000016
:1009800010B5044608482371002323742060A36037
:1009900002980B68A161E060626108469B6921468C
:1009A0009847204610BD00BFF0BF00000079704797
:1009B000017470474069704773B50F4B1B68019312
:1009C000019D83680446C068EE1A09F063FF09F0D0
:1009D00045FB02460B460020084909F0BDFC0022F9
:1009E000074B09F08FFB09F027FE864202D9A5606C
:1009F000012000E000207CBD3C8FFF1F0000F03F85
:100A000000408F40014B0360704700BF08C00000EA
:100A1000034B10B50446036006F08EFC204610BD63
:100A200008C0000037B50C4D2B680093009A83680E
:100A3000D31A8B4204460DD90D2005F03DF9D0F1B3
:100A4000010138BF00210D2005F016F92B68019334
:100A5000019BA3603EBD00BF3C8FFF1F017170472B
:100A6000064B10B503600023044603718360012127
:100A70000D2005F02DF9204610BD00BF08C0000074
:100A80000079704703790BB1642101E04FF47A716A
:100A9000FFF7C8BF7047FFFF30B5164B85B01B6826
:100AA0000093009D436C40F6B832EB1A9342044623
:100AB0001DD90A23ADF80630012341F20102ADF839
:100AC0000430ADF80C300023ADF80820ADF80A3042
:100AD0001A4601A9505C01321B180A2A9BB2F8D1B0
:100AE000ADF80A30236820461B699847656405B055
:100AF00030BD00BF3C8FFF1F08B106F01DBC704722
:100B000008B106F019BC704708B106F015BC704773
:100B100008B106F011BC704708B50368C9B21B687C
:100B2000984708BD38B509480D46FE21FFF7F4FF88
:100B3000002406E00022295D0448134606F034FD37
:100B400001346B889C42F5DB38BD00BF6C91FF1F00
:100B500038B506480C46FE211546FFF7DDFF204656
:100B60002946BDE8384005F097B900BF6C91FF1FDA
:100B700070B50446FFF774FF0E4B00252360E56057
:100B800025616561A561E56125626562A562E56231
:100B900025636563A563E564E5632564182006F0B5
:100BA000C7FB064600F07AFCE664656484F84850AA
:100BB000204670BD38C000000269C368D31A70B502
:100BC00005469E10002406E0EB6853F824000368F5
:100BD0001B6898470134B442F6DB70BD002330B582
:100BE000CB804C88184603E0CD5C401980B20133BD
:100BF000A342F9DB131AC8805842584130BD826ABB
:100C0000436AD31A70B505469E10002406E06B6A4D
:100C100053F8240003681B6998470134B442F6DB9B
:100C200070BD1FB56923ADF800301023ADF8023058
:100C300041F20103ADF804300B88672B08BF4B89E4
:100C400002934B8803930023ADF806301A461DF833
:100C5000021001325B18102A9BB2F8D1ADF80630B1
:100C6000036869461B69984705B000BD38B503683D
:100C700004461B6898472046FFF702FF002823D14F
:100C8000E06C00F02AFC58B938BD20462946EA88B5
:100C9000FFF7A4FF60B9E06CBDE8384000F010BC7D
:100CA000E06C00F007FC0388652B0546F3D1ECE708
:100CB00029890031204618BF0121FFF7CFFE2046C9
:100CC0002946FFF7AEFFE6E738BD2DE9F0410B8975
:100CD0009CB005460C460C2B00F25B81DFE813F05C
:100CE000D6000801280113015901590132005901A8
:100CF0001F010D00F400F7008200C269836900261D
:100D0000D31A4FEAA3083046464503DA002840F0DC
:100D10003C8116E1002840F03881402006F008FBB5
:100D2000A3696289009363690193E3690293236A6B
:100D30000393636A0493E368294605932369FFF7E5
:100D4000B9FD22E1826A436A0026D31A4FEAA3085A
:100D50003046464503DA002840F01781FFE00028BE
:100D600040F01381B02006F0E3FA07466069668917
:100D700009F074F9CDE90001206909F04DF9A36982
:100D80000493E3690593E36B0693236CCDE90201B9
:100D9000206A079309F040F9CDE90801606A09F07B
:100DA0005DF9CDE90A01A06A09F058F9CDE90C0115
:100DB000E06A09F053F9236B1093636B1193A36BF3
:100DC0001293636C1393A36C1493E36C1593236DCC
:100DD000CDE90E011693384629463246E36801F004
:100DE0006BF9D2E0826A436A0026D31A4FEAA3085D
:100DF0003046464503DA002840F0C780BAE00028B4
:100E000040F0C380B02006F093FA07466069668917
:100E100009F024F9CDE90001206909F0FDF8A36982
:100E20000493E3690593E36B0693236CCDE9020118
:100E3000206A079309F0F0F8CDE90801606A09F02B
:100E40000DF9CDE90A01A06A09F008F9CDE90C0114
:100E5000E06A09F003F9236B1093636B1193A36BA2
:100E60001293636C1393A36C1493E36C1593236D2B
:100E70001693636DCDE90E011793A36D3846189351
:100E800029463246E36800F099FE7EE0C36B002BF2
:100E90007BD1436A8A6953F82280CA69482053F893
:100EA000227006F045FA2369628900936369CDF8E0
:100EB00008800193236A0397064604932946E36852
:100EC00001F0C2FCEE6360E01CAE0A2301E01CAE40
:100ED0000B2306F8013D202006F02AFAE368628918
:100EE0000093236929460193334601F04DFD4CE000
:100EF000202006F01DFA2369628900932946E368E1
:100F000001F0AAFD41E04FF48C7006F011FA294679
:100F10000646E268236901F061FF2E6435E0202077
:100F200006F006FA29466289236903F0F1FE2CE0F7
:100F3000F82006F0FDF92946E268236903F07CFFFA
:100F400023E0AB69678953F82600FFF733FDB7EB61
:100F5000000EDEF1000050EB0E000136D4E66B6AA5
:100F6000678953F82600FFF725FD391A48424841A2
:100F70000136EEE66B6A678953F82600FFF71AFD23
:100F80003A1A50425041013633E728462146FFF7CE
:100F900048FE1CB0BDE8F081F8B590E84800F61AAC
:100FA000B61014BF334601239B1904460F466FF059
:100FB000404603D2B34238BF1E4626B1B00006F009
:100FC000B7F9054600E0354662682368D31A9B10DE
:100FD00005EB83013A6809B145F8232094E88200C3
:100FE0007F1ABF1003D02846BA000AF077FA05EB43
:100FF00087072068FFF78CFD0437256005EB860521
:101000006760A560F8BD091A38B58C10054613460F
:1010100005D010462946A2000AF060FA034603EB09
:10102000840038BDF8B590E84800F61AB61014BF31
:10103000334601239B1904460F466FF0404603D206
:10104000B34238BF1E4626B1B00006F071F905461E
:1010500000E0354662682368D31A9B1005EB8301D4
:101060003A6809B145F823202A4694E80300FFF7BF
:10107000CAFF07462068FFF743FD0437256005EBEC
:1010800086056760A560F8BD091A38B58C1005465D
:10109000134605D010462946A2000AF01FFA03465F
:1010A00003EB840038BDF8B590E84800F61AB61096
:1010B00014BF334601239B1904460F466FF0404688
:1010C00003D2B34238BF1E4626B1B00006F030F955
:1010D000054600E0354662682368D31A9B1005EB8D
:1010E00083013A6809B145F823202A4694E80300B1
:1010F000FFF7CAFF07462068FFF706FD04372560A3
:1011000005EB86056760A560F8BD091A38B58C1037
:101110000546134605D010462946A2000AF0DEF91E
:10112000034603EB840038BDF8B5C3680669C2699D
:10113000F61A8369D31A0446B6109F10002504E0FE
:1011400053F82500FFF7FAFB0135BD42A369F7DB31
:10115000E269934218BFE361A26A636A934218BFCF
:10116000A362002506E053F8250010B10368DB6890
:1011700098470135B542E368F5DB2269934218BF11
:101180002361002384F848302364E363F8BDFFFF44
:101190000F4B10B504460360C06C10B103685B6868
:1011A00098470023E3642046FFF7BEFF206BFFF75C
:1011B000AFFC606AFFF7A8FCA069FFF7A1FCE0683C
:1011C000FFF79AFC2046FFF71DFC204610BD00BF2C
:1011D00038C0000010B50446FFF7DAFF204606F0DD
:1011E000ABF8204610BD2DE9F0410446FFF74AFC5C
:1011F000E06C00F0CDF92046FFF742FC002800F03B
:10120000B080E06C00F069F9002800F09B80E06C91
:1012100000F050F9054629462046EA88FFF7DEFC33
:10122000002800F08C802B880B2B6AD00BD8062B63
:1012300049D003D8022B40F082802EE0072B1CD02F
:10124000082B7CD155E0512B55D002D80C2B76D1F0
:101250005AE0652B02D0672B71D119E02989003142
:10126000204618BF0121FFF7F9FB2046FFF708FCD5
:1012700048B92046FFF758FF05E02B89003318BF17
:10128000012384F8483020462946FFF7CAFC56E07F
:1012900020462946FFF719FD51E0E269A369D31AF8
:1012A0009F1000260CE0A36953F82600FFF782FB8D
:1012B000AB6898424FEA860801D1A36935E0013650
:1012C000BE42F0DB3BE0A26A636AD31A9F1000269D
:1012D0000CE0636A53F82600FFF76CFBAB6898429A
:1012E0004FEA860801D1636A1FE00136BE42F0DB97
:1012F00025E0E06B06E0E06B08B3294601F002F957
:101300001DE0206CD8B112E0626B236BD31A9F10E2
:10131000002612E0236B53F82600FFF74BFBAB6867
:1013200098424FEA860807D1236B53F808000368F8
:1013300029465B68984702E00136BE42EADBE06C72
:1013400000F0BEF894F848305BB12046FFF734FC5B
:101350002046FFF754FC206C18B1BDE8F04101F0C5
:101360004BBCBDE8F081F8B590E84800F61AB6101D
:1013700014BF334601239B1904460F466FF04046C5
:1013800003D2B34238BF1E4626B1B00005F0D0FFED
:10139000054600E0354662682368D31A9B1005EBCA
:1013A00083013A6809B145F823202A4694E80300EE
:1013B000FFF7ABFE07462068FFF79EFB043725606A
:1013C00005EB86056760A560F8BD1FB50369426936
:1013D00001919342044605D003B119602369043397
:1013E000236103E00C3001A9FFF7BDFF0198FFF76F
:1013F000DDFA082828D0092802D0062835D111E0C6
:10140000E369216A019A8B42039205D003B11A6005
:10141000E3690433E36128E004F1180003A9FFF74E
:1014200001FE22E0A36AE16A019A8B42039205D091
:1014300003B11A60A36A0433A36216E004F1240026
:1014400003A9FFF730FE10E0636BA16B019A8B429A
:10145000039205D003B11A60636B0433636304E045
:1014600004F1300003A9FFF797FD1FBD054B10B530
:1014700004460360006908B105F060FF00232361A2
:10148000204610BD68C0000010B50446FFF7EEFF0F
:10149000204605F051FF204610BDFFFF044A0260C0
:1014A000002202710261C2608260427182717047E3
:1014B00068C0000003790BB1006970471846704797
:1014C00010B50446006908B105F038FF0023236118
:1014D0002371A371E360A36010BD007970470B888E
:1014E0000C2B23D00BD8072B15D003D8022B1DD0E3
:1014F000062B0EE0082B19D00B2B19D114E0652B0D
:1015000009D003D8512B0DD0642B02E0672B04D0F7
:101510006C2B0DD10AE00A230BE01023C3600123DA
:10152000437107E0142304E00C2302E0102300E0E1
:101530000023C360C068704770B50446C0680E469B
:1015400005F0F8FE0023054602E0C25CEA540133D0
:10155000B3422069F9DB08B105F0F0FE256170BDEA
:101560000B890C2B12D8DFE803F00D0F0F0F1111B0
:1015700009110F070F0F0B00282306E0542304E086
:101580005C2302E0242300E01423C360C06870479A
:10159000F8B5044604F072FC00284ED02779002FDD
:1015A0004BD146E0E368A568002B1DDC04F020FC6D
:1015B00004F1140670550135012DA5603DD9314661
:1015C000A7602046FFF78BFF05F0B4FEA3682061FB
:1015D000F25CC254A36822690133A360F15CD15468
:1015E000A3680133A360F8BD9D4226DA266904F0A2
:1015F000FFFB7055E36801359D42A5601DD16379FD
:1016000033B90E4B1A6801321A6001232371F8BDF9
:1016100021692046FFF7A4FF20462946FFF78CFFEB
:101620006771F8BD04F0E4FBFE2806D10123A37125
:10163000F8BDA379002BB5D1F4E7F8BDB88DFF1F35
:10164000034B10B504460360FFF78AF9204610BD2E
:1016500078C0000010B50446FFF7F2FF204605F001
:101660006BFE204610BDFFFF37B5069D0095044672
:10167000FFF786F9014B204623603EBD78C000008D
:10168000084B10B504460360D0F8AC0008B105F073
:1016900053FE0023C4F8AC30204600F0B9FB2046CE
:1016A00010BD00BF98C0000010B50446FFF7E8FF6A
:1016B000204605F041FE204610BD10B50368017AB2
:1016C0001C7843681A78437A1A40837A0C4203F0F4
:1016D000030318BF43F004030AB143F008039A1050
:1016E000013B82720D2B14D8DFE803F0070A0D0AC4
:1016F0001310070710130A0D0A07C368013307E028
:10170000C368013B04E0C368023301E0C368023BE5
:10171000C36010BD70B5054600F0CAFAD5F8AC40FC
:101720000646237C72B6012B02D82046FFF7C5FF80
:1017300062B6E368D5F8A800584309F0AFF801464F
:10174000304608F0F7FF4FF07C5109F0FBF870BD10
:1017500008B5034BD3F88400FFF7AFFF08BD00BF07
:10176000BC8DFF1F08B5034BD3F88000FFF7A5FF22
:1017700008BD00BFBC8DFF1F08B5024BD86FFFF737
:101780009CFF08BDBC8DFF1F08B5024B986FFFF78B
:1017900094FF08BDBC8DFF1F08B5024B586FFFF7C3
:1017A0008CFF08BDBC8DFF1F08B5024B186FFFF7FB
:1017B00084FF08BDBC8DFF1F08B5024BD86EFFF734
:1017C0007CFF08BDBC8DFF1F08B5024B986EFFF76C
:1017D00074FF08BDBC8DFF1F08B5024B586EFFF7A4
:1017E0006CFF08BDBC8DFF1F08B5024B186EFFF7DC
:1017F00064FF08BDBC8DFF1F08B5024BD86DFFF715
:101800005CFF08BDBC8DFF1F08B5024B986DFFF74C
:1018100054FF08BDBC8DFF1F08B5024B586DFFF784
:101820004CFF08BDBC8DFF1F08B5024B186DFFF7BC
:1018300044FF08BDBC8DFF1F08B5024BD86CFFF7F5
:101840003CFF08BDBC8DFF1F08B5024B986CFFF72D
:1018500034FF08BDBC8DFF1F08B5024B586CFFF765
:101860002CFF08BDBC8DFF1F08B5024B186CFFF79D
:1018700024FF08BDBC8DFF1F08B5024BD86BFFF7D6
:101880001CFF08BDBC8DFF1F08B5024B986BFFF70E
:1018900014FF08BDBC8DFF1F08B5024B586BFFF746
:1018A0000CFF08BDBC8DFF1F08B5024B186BFFF77E
:1018B00004FF08BDBC8DFF1F08B5024BD86AFFF7B7
:1018C000FCFE08BDBC8DFF1F08B5024B986AFFF7F0
:1018D000F4FE08BDBC8DFF1F08B5024B586AFFF728
:1018E000ECFE08BDBC8DFF1F08B5024B186AFFF760
:1018F000E4FE08BDBC8DFF1F08B5024BD869FFF799
:10190000DCFE08BDBC8DFF1F08B5024B9869FFF7D0
:10191000D4FE08BDBC8DFF1F08B5024B5869FFF708
:10192000CCFE08BDBC8DFF1F08B5024B1869FFF740
:10193000C4FE08BDBC8DFF1F08B5024BD868FFF779
:10194000BCFE08BDBC8DFF1F08B5024B9868FFF7B1
:10195000B4FE08BDBC8DFF1F08B5024B5868FFF7E9
:10196000ACFE08BDBC8DFF1F08B5024B1868FFF721
:10197000A4FE08BDBC8DFF1F08B5212800F2D5804C
:10198000DFE810F0220027002C00310036003C0078
:10199000410046004B00500055005A005F006400B3
:1019A00069006E00730078007D00820087008C0063
:1019B000910096009B00A000A500AA00AF00B40013
:1019C000B900BE00C300CD00594B00201960594931
:1019D000A0E0574B0120596057499BE0544B02202F
:1019E0009960564996E0524B0320D960544991E0E2
:1019F0004F4B04201961024652498CE04C4B0520A4
:101A00005961514986E04A4B062099614F4981E06E
:101A1000474B0720D9614E497CE0454B08201962AD
:101A20004C4977E0424B092059624B4972E0404BE8
:101A30000A20996249496DE03D4B0B20D962484923
:101A400068E03B4B0C201963464963E0384B0D209E
:101A5000596345495EE0364B0E209963434959E08E
:101A6000334B0F20D963424954E0314B10201964A5
:101A700040494FE02E4B112059643F494AE02C4B1E
:101A8000122099643D4945E0294B1320D9643C4913
:101A900040E0274B142019653A493BE0244B1520C0
:101AA0005965394936E0224B16209965374931E0AE
:101AB0001F4B1720D96536492CE01D4B182019669D
:101AC000344927E01A4B19205966334922E0184B54
:101AD0001A20996631491DE0154B1B20D966304903
:101AE00018E0134B1C2019672E4913E0104B1D20E2
:101AF00059672D490EE00E4B1E2099672B4909E0CE
:101B00000B4B1F20D9672A4904E0094BC3F880100A
:101B100028492020042203F039FF012008BD044B8E
:101B20002120C3F884102449F4E7002008BD00BF39
:101B3000BC8DFF1F691900005919000049190000E8
:101B400039190000291900001919000009190000AD
:101B5000F9180000E9180000D9180000C9180000A1
:101B6000B9180000A9180000991800008918000091
:101B70007918000069180000591800004918000081
:101B80003918000029180000191800000918000071
:101B9000F9170000E9170000D9170000C917000065
:101BA000B9170000A9170000991700008917000055
:101BB000791700006517000051170000F0B599B0C3
:101BC000DDE91E45CDE90045DDE92045CDE90245C9
:101BD000229C0494239C0594249C0694259C0794A1
:101BE000DDE92645CDE90845DDE92845CDE90A4589
:101BF000DDE92A45CDE90C45DDE92C45CDE90E4569
:101C00002E9C10942F9C1194309C1294319C139410
:101C1000329C1494339C1594349C0646169400F020
:101C20004BFA214B1420336005F082FB9DF8D470F1
:101C30009DF8D85004460221384604F049F8284659
:101C4000022104F045F8194A52F8373003F50071C3
:101C500021600121217252F83520617202F5007075
:101C60000021E16060604FF4FA410139FDD193F841
:101C7000003292F8002203F00103D20744BF43F080
:101C80000203DBB2A37221463846FFF775FE2146F8
:101C900020742846FFF770FE237C18182074C6F8BD
:101CA000AC40304619B0F0BD98C0000070C20000D2
:101CB00038B5046A0546237C72B6012B02D820464B
:101CC000FFF7FBFC62B6E368D5F8A800584308F0BC
:101CD000E5FD38BDFFFFFFFF2DE9F047444B86B01F
:101CE0001B6805938246059808F096F9DAE91223F5
:101CF000CDE9000108F052F8DAE9242306460F4640
:101D000000203C4908F028FB00223B4B08F0FAF980
:101D100002460B463046394608F07AFC00285DD072
:101D2000DAF8003050465B69984708F097F9DAE92D
:101D30001C23CDE9020108F031F802460B4608F0F9
:101D40002FF829A3D3E9002308F0DCF98046DAF85C
:101D50009800894608F070F902460B46404649460D
:101D600008F0FAFA00228046894630463946224B6E
:101D700008F0F2FA02460B464046494608F0ECFAF3
:101D8000DAE9204502460B462046294608F0BAF912
:101D900022462B4606460F460020164907F0FEFF56
:101DA0000446DAF844000D4608F058F902460B469E
:101DB0002046294608F0A6F902460B463046394629
:101DC00007F0EEFF08F060FCDDE90223CAE91C23FE
:101DD000DDE90023CAE91223CAF8440006B0BDE8D1
:101DE000F08700BFAFF30080182D4454FB21094059
:101DF0003C8FFF1F0000F03F00408F40AFF300809A
:101E000003460A46C06993F8881000F04EBAFFFFF7
:101E10000D4B10B5044603600021FFF7F1FF606A27
:101E200008B105F089FAE06908B105F085FA206A81
:101E300008B105F081FA00232362E3616362204662
:101E4000FFF7FEFB204610BDB8C0000010B50446E9
:101E5000FFF7DEFF204605F06FFA204610BDFFFFBA
:101E60002DE9F7431F4690F82C308046164663B99B
:101E7000194B446A1B680193019808F0CDF80022C1
:101E8000164B08F069FAC4E90401D8F85890012308
:101E900088F82C30484608F0E1F832463B460446C4
:101EA0000D4608F0A1FB60B909F1004008F0D6F832
:101EB00032463B4604460D4608F0B4FB08B93446AA
:101EC0003D46054B1B680093009BC8E91E45C8F8BA
:101ED0003030BDE8FE8300BF3C8FFF1F00408F40C5
:101EE00010B50446C86808F0B9F802460B4620460B
:101EF000BDE81040FFF7B4BF73B5114B1B680193E9
:101F000090F82C30019A0646CBB1036BD21A436B82
:101F10009A4214D9002400250022002380F82C20A6
:101F2000C0E918454364C0E91A45C0E91E4596F862
:101F30008810C06900F0B9F9706A00F0FDF97CBD45
:101F40003C8FFF1FFFFFFFFF036870B55B6906460C
:101F50009847014608F0EEFB08F080F80AA3D3E9A1
:101F6000002308F0CFF80446D6F898000D4608F094
:101F700063F802460B462046294608F0EDF908F0C2
:101F800083FBF06370BD00BF182D4454FB21094052
:101F90002DE9D343214B1B6801930446019808F0B7
:101FA0003BF8D4E914238046894607F0F7FED4E9CC
:101FB000282306460F460020194908F0CDF90022D3
:101FC000184B08F09FF802460B463046394608F099
:101FD00029FB08B3A36B012B02D1606C206403E0E2
:101FE0002046FFF7B1FFE06B08F038F8C4E91801AC
:101FF000606A00F0A7F9A06A08F01EF8D4E91A2375
:1020000008F080F8C4E91489C4E91A0108F014FB47
:1020100001462046FFF7F4FEBDE8DC833C8FFF1F3E
:102020000000F03F00408F4010B50446FFF754FE1B
:1020300094F82C3023B12046BDE81040FFF7A8BF2C
:1020400010BD10B50446FFF757FF2046BDE810400D
:10205000FFF7EABF10B586B00446FEF7ADFC48B303
:10206000636C23646A23ADF804301423ADF80630A2
:10207000204641F20103ADF80830FEF79BFC0390C7
:102080002046FFF761FF236C049005930023ADF811
:102090000A30BDF806001A4603E0C95C521892B235
:1020A0000133834201A9F8DBA069ADF80A20036877
:1020B0001B69984706B010BD2DE9F0418CB006466B
:1020C00000930623FFF7D0FA25995B4BB16324995F
:1020D0003360DDE91A457163DDE91401C6E928457D
:1020E000C6E92401DDE912452399C6F8981026991E
:1020F00000220023C6E9204500270024C6E9182352
:10210000C6E91A23C6E91C23C6E91E233464F46316
:10211000B16286F82C70082005F00AF99DF8581075
:10212000054600F091F8179BF561444DC6F88830DC
:1021300042F2107004F0AEF92B680993099B3363E7
:102140002B680A930A9807F067FF2B680B93C6E980
:1021500012010B9807F060FF7464C6E9140158205F
:1021600005F0E6F8DDE91C23CDE90023DDE91E23B7
:10217000CDE90223DDE92023CDE90423289B06F1E4
:102180006801069306F1600206F17803044600F048
:102190009BF827A3D3E9002374621420C4E9062323
:1021A00005F0C6F89DF860809DF864500446022151
:1021B000404603F08DFD2846022103F089FD204AA8
:1021C00052F8383003F5007121600121217252F874
:1021D0003520617202F500706060E7604FF4FA41EB
:1021E0000139FDD193F8003292F8002203F0010387
:1021F000D20744BF43F00203DBB2A372214640463C
:10220000FFF7BAFB214620742846FFF7B5FB237C75
:102210001818229B2074B365279B34623046C6F899
:10222000A8300A21FEF7C4FB30460CB0BDE8F081AF
:102230000000000000C05F40B8C000003C8FFF1FDE
:1022400070C20000AFF30080014A01704260704725
:102250003891FF1F70B50446406803680E461B683E
:102260002178154698476068036831461B6898478F
:102270006068036829461B6898476068227803688D
:10228000B618A9191B6801F07F01984770BD7E2A16
:10229000A8BF7E226FF07D039A42B8BF1A46002A7B
:1022A000B8BF5242D2B2FFF7D5BF10B54C1E012CB9
:1022B00009D802290CBF0421002101EBD271BDE82D
:1022C0001040FFF7E4BF10BD13B580E80E00DDE954
:1022D0000423C0E90A23DDE90623C0E90C23DDE974
:1022E0000823C0E90E23124B1B6801930446019892
:1022F00007F092FE00220F4B08F02EF80022002378
:10230000C4E91223C4E9102307A3D3E90023C4E9D5
:102310000401C4E906230A9807F0A0FEC4E91401E9
:1023200020461CBDAFF300800000000000C05F40ED
:102330003C8FFF1F00408F4000220023C0E9102384
:102340007047FFFF2DE9F04F584B89B01B6807938A
:102350008046079807F060FE0022554B07F0FCFF0F
:10236000D8E90423CDE9040107F018FDD8F80820C6
:10237000D8F8043082468B46D2E90001D3E9002325
:1023800007F00CFDD8E9062304460D46D8E91401F0
:1023900007F0B8FE524681460E465B462046294667
:1023A00007F0B0FED8E9102307F0FAFC4A4633469E
:1023B000CDE9020108F036F910B14A46334611E082
:1023C00006F1004C6346DDE902014A46CDF804C03F
:1023D00008F00AF9DDF804C010B9DDE9022301E0D4
:1023E0004A466346C8E910232046D8E90A2329460D
:1023F00007F088FED8E9102306460F46D8E90C01FD
:1024000007F080FE02460B463046394607F0C8FC0E
:10241000D8E9122306460F462046294607F0BEFC9F
:1024200052465B4607F098FFD8E90E2307F06AFE94
:1024300002460B463046394607F0B2FCD8F8009009
:102440000B460246C9E90023D8F818B0D8F81CA0FA
:102450005A4653460E46074608F0E4F8002818BFCF
:102460005F4618BF56463A463346C9E90023D8F8B6
:102470001C30D8F818B003F1004A5A465346384683
:10248000314608F0B1F800280CBF3A465A460CBF56
:1024900033465346C9E90023DDE90423C8E9124560
:1024A000C8E9042309B0BDE8F08F00BF3C8FFF1FCF
:1024B00000408F40034B10B504460360FEF750FA0E
:1024C000204610BDD8C0000010B50446FFF7F2FF4B
:1024D000204604F031FF204610BDFFFF37B5069DB2
:1024E0001B7800950446FEF74BFA054B2360079BCB
:1024F00023639DF824302377089B2046E3623EBD8A
:10250000D8C00000037F2BB18B684362CB68836225
:102510000B690362704713B58B68CA68019302ABFD
:1025200043F8082D0268546993E80600A0471CBDD3
:1025300010B50446806BFFF7DFFCA06BFFF774FD5E
:10254000606BFFF7D9FC606BBDE81040FFF76CBD16
:102550002DE9F74302AB03E90600076B009E019DDE
:1025600004463946304608F0A1FAE16A804628461A
:1025700008F0E8F939468146384608F0DBF80146AC
:10258000484608F093FA0146404608F0D3F807F0B1
:1025900065FD02460B46A06BFFF762FC276B3046D9
:1025A000394608F083FAE16A0646284608F0CAF977
:1025B00039460546384608F0BDF80146284608F079
:1025C00075FA0146304608F0B3F807F047FD0246B9
:1025D000606B0B4603B0BDE8F043FFF741BCFFFF63
:1025E000034B10B504460360FFF764FF204610BD9F
:1025F000F8C0000010B50446FFF7F2FF204604F0D3
:102600009BFE204610BDFFFFF8B51046194614A3E7
:10261000D3E9002307F0C4FB13A3D3E90023064644
:102620000F4605F0DDFA002204460D4630463946D5
:10263000002307F0D9FF40B1204629460AA3D3E979
:10264000002307F0ADFB04460D462046294604A3AF
:10265000D3E9002307F0A2FBF8BD00BFAFF3008071
:10266000182D4454FB210940182D4454FB211940D6
:1026700038B50446806BFFF767FC216C054608F00F
:1026800057F8216B08F05EF9256438BD38B504466B
:10269000406BFFF759FCE16B054608F049F8216BE8
:1026A00008F050F9E56338BD002170B506460160B9
:1026B0004160104619460022094B07F023FD0446ED
:1026C0000D4605F0EBF907F0DFFF2946B060204624
:1026D00005F09AF907F0D8FFF060304670BD00BFF2
:1026E0000000E03F2DE9F04F93B08246FEF764F919
:1026F000002800F0A5805046FFF7BAFF0446504678
:10270000FFF7C4FF05462946204608F011F8DAF81D
:102710002C1008F0CBF9DAF8441008F013F9DAF8C5
:10272000201008F007F8CAF8200007F097FC0246CE
:102730000B465046FFF768FF07F0A6FF2946834681
:10274000CAF82000204607F0F5FF4FF07C5108F052
:10275000F9F807F083FC064658460F4607F07EFC62
:1027600004460D4605F050F90246DAF824000392BB
:10277000029107F073FC039A029B8046894630461B
:10278000394607F0BFFC0B4602464946404607F073
:1027900007FB07F079FF29468446CAF82400204643
:1027A000CDF804C005F07AF90246DAF82800039261
:1027B000029107F053FC039A029B804689463046FB
:1027C000394607F09FFC02460B464046494607F053
:1027D000E7FA07F059FF22460646CAF828002B46BA
:1027E00004A85146FFF760FF00226C230F92069A5F
:1027F000ADF820302823DDF804C0ADF82230109267
:1028000041F20103079AADF8243000231192ADF88C
:102810002630CDF828C00B96CDF830B0CDF834C0B6
:102820000E961A4608A9505C01321B18282A9BB242
:10283000F8D1DAF81800ADF8263003681B6998471C
:1028400013B0BDE8F08FFFFF70B586B006AD00266F
:1028500005F8016D00930A9B01930B9B02930123E2
:1028600003932B460446FFF739FE084B23600C9B6D
:1028700063630D9BA3630023E363236423626362AA
:10288000A3620E9B2046636406B070BDF8C00000D2
:102890007047FFFF034B10B504460360FEF760F876
:1028A000204610BD18C1000010B50446FFF7F2FF26
:1028B000204604F041FD204610BDFFFFFFFFFFFF53
:1028C00038B50546007F02F063FF04462846FEF750
:1028D0006DF80A28204606D107F0E0FF07F0BEFB9E
:1028E00000220F4B06E007F0D9FF07F0B7FB08A363
:1028F000D3E9002307F006FC07A3D3E9002307F080
:102900002BFD0022074B07F027FD07F0BDFE38BD69
:10291000666666666666C94000000000E0FFEF403C
:102920000000B44000408F4030B585B00446FEF74B
:1029300043F838B36D23ADF8003010230025ADF80F
:102940000230204641F20103ADF80430ADF80650E4
:10295000FEF730F802902046FFF7B2FFBDF80210F4
:1029600003902B462A4604E01DF80300121892B289
:1029700001338B42F8DBA069ADF806200368694695
:102980001B69984705B030BD73B5069E1B78079D3F
:1029900000960446FDF7F4FF0A4B012D236001D198
:1029A0000E2304E0022D01D10F2300E01023E36188
:1029B000207F002103F08CF9102002F0BFFE20469A
:1029C0007CBD00BF18C10000704730B585B004461B
:1029D000FDF7F2FF50B36E23ADF800301023002551
:1029E000ADF80230204641F20103ADF80430ADF8F5
:1029F0000650FDF7DFFF0290207F03F05DF9431BD7
:102A0000584258410390BDF802102B462A4604E074
:102A10001DF80300121892B201338B42F8DBA06953
:102A2000ADF80620036869461B69984705B030BDBC
:102A3000034B10B504460360FDF792FF204610BD1E
:102A400030C1000010B50446FFF7F2FF204604F045
:102A500073FC204610BDFFFF13B50093012304460D
:102A6000FDF78EFF084B2360049B012B01D10B2344
:102A700000E00C23E361207F022103F029F91020FC
:102A800002F05CFE20461CBD30C10000054B10B5B5
:102A9000044640F86C3B01F087FE2046FDF760FFDE
:102AA000204610BD48C1000010B50446FFF7EEFFF8
:102AB000204604F041FC204610BD10B594B00446F9
:102AC000FDF77AFF00283CD0A26A0392E26A0492E2
:102AD000226B0592E2690692226A0792626A089264
:102AE000626B0992A26B0A92E26B0B92226C0C92BF
:102AF000626C0D92A26C0E92E26C6F230F92E26DEB
:102B0000ADF804304C23ADF80630109241F20103C9
:102B1000626DADF808300023ADF80A301192A26D55
:102B20001292226D13921A4601A9505C01321B18B1
:102B30004C2A9BB2F8D1A069ADF80A3003681B6932
:102B4000984714B010BD10B50446C83001F070FCB1
:102B50000368A0661B69984700280ADD012184F8F4
:102B6000C01084F8C11084F8C21084F80C112046FB
:102B700005E0002384F80C3120466FF00101BDE828
:102B80001040FDF715BFFFFFF8B51148069D16462A
:102B90001F460C4600F0FAFA31460D4800F09CF949
:102BA00000210B4800F002FB214609483A4600F09C
:102BB000CBFB002405E0064800F0B6F928550134A7
:102BC000E4B2034800F0A6F90028F4D1F8BD00BF34
:102BD000988EFF1F1FB503AB00936821022341228B
:102BE000FFF7D2FF9DF80C009DF80D3043EA00205E
:102BF00000B205B000BDFFFF70B590F80C3192B087
:102C00000446002B00F0C780806E03689B699847DC
:102C1000002800F0C08094F80D31002B40F08A802D
:102C200002A800F0CDFC05A800F0CAFC08A800F03E
:102C3000C7FCA16E02A8143100F0A0FCA16E05A88B
:102C4000083100F09BFCA16E08A8203100F096FC32
:102C5000A36EDB6A02AA05A9009304F16C0008AB1D
:102C600001F0D2FEA06E03681B6A98470EA800F020
:102C700063FE0BA800F0A4FC04F1B4010BA800F063
:102C80007DFC04F1A4010EA800F08AFD029BE36123
:102C9000039B2362049B6362059BA362069BE36222
:102CA000079B2363089B6363099BA3630A9BE363FE
:102CB0000E9B23640F9B6364109BA364119B2046AF
:102CC000E364FFF787FF07F0E9FD07F0C7F934A3D6
:102CD000D3E9002307F040FB0022354B07F060F8F2
:102CE00007F0D2FC20650C980D9E0B9D07F0B6F9FD
:102CF0002DA3D3E9002307F005FA07F0C5FC6065B2
:102D0000304607F0ABF928A3D3E9002307F0FAF91E
:102D100007F0BAFC216E07F00BFDA065284607F00E
:102D20009DF921A3D3E9002307F0ECF907F0ACFCEF
:102D3000E06530E094F80E51F5B90BA800F040FCC6
:102D4000A16E0BA8203100F019FC0BABD4F8F410E5
:102D5000EE58304607F094FF08B1C4F8F4603046EE
:102D6000D4F8001107F0AAFF08B1C4F800610435D7
:102D700004340C2DE9D10EE00025012384F8F23053
:102D800084F80D5184F80E51284604F1F00101F049
:102D900063FFA36E1D7112B070BD00BFAFF3008062
:102DA00052B81E85EBDD7440F8C1631ADCA54C40B7
:102DB00000003540AFF300800023C36183624363AA
:102DC00043640362C3628363836443620363C363D4
:102DD000C3644FF07E5303647047FFFF37B504466A
:102DE0001D46009203230022FDF7CAFD164B204624
:102DF00040F86C3B01F0FEFC04F1C80000F055FB0C
:102E0000124800F017F92046FFF7D6FF20460021B0
:102E1000FDF7CEFD0023256600256366E365636547
:102E2000A3652365C4F81451C4F8105184F80C51FB
:102E300084F80D512046FFF786FE94F80C310BB153
:102E400084F80E5120463EBD48C10000988EFF1FF9
:102E500010B5044604F1F001002001F013FF002337
:102E600084F8F230084B094AC4F80031C4F8043140
:102E7000C4F80831A36EC4F8F420C4F8F820C4F8EC
:102E8000FC2001221A7110BD809618CB8096184B39
:102E900090F80D318A6810B504460BB112B110BD1F
:102EA00022B910BD012380F80E3110BD80F80E311B
:102EB000FFF7CEFF012384F80D3110BD054A1378CA
:102EC00003F00203DBB2002BF9D0024B02221A708E
:102ED000704700BF03600640094B1B7813B9094BCC
:102EE0001B782BB1084A1378202B03D901230371D7
:102EF000002070470548C15401331370012070470A
:102F0000AA8EFF1F6D8EFF1FAB8EFF1F4C8EFF1F03
:102F10007047FFFF024B1878024B1B78C01A7047AE
:102F2000A98EFF1FA88EFF1F064A0749137809784C
:102F3000994204D90549C85C0133137070474FF0BA
:102F4000FF307047A88EFF1FA98EFF1F6E8EFF1FD8
:102F5000054B064A1B7812789A4202D9044AD05C83
:102F600070474FF0FF307047A88EFF1FA98EFF1FDC
:102F70006E8EFF1F38B50E4B1B78144613B90D4BE0
:102F80001B788BB10C4B1D78C5F121039C4202D9F3
:102F9000012202711C4609482246401908F0E4F952
:102FA000054B2D191D7000E01C46204638BD00BFA2
:102FB000AA8EFF1F6D8EFF1FAB8EFF1F4C8EFF1F53
:102FC00010B5104B1B7813F020040BD1122002F027
:102FD00007FD0D4B1B68A3B10C4A14700C4A107806
:102FE000984710BD0B4A13780133DBB2012B1370E5
:102FF00002D8094B1B7823B91220BDE8104002F01B
:10300000EFBC10BD03600640488EFF1FA88EFF1F57
:10301000A98EFF1F948EFF1F6D8EFF1F002202716D
:103020000273034A4FF47A7181600260704700BFF7
:1030300060C100000C4B00221A700C4B196841F063
:10304000400119600A4B0B491A704FF419720A605B
:1030500041F8042C084A27211170042151712021C4
:10306000117180221A7070476D8EFF1F34800440EA
:10307000026006400CA004400160064010B5374ACB
:10308000137803F01001C9B221B903F04002D2B2A3
:1030900042B92EE01021117003F04002D2B2002A92
:1030A000F3D110BD13F004032D4A18D00023137080
:1030B0002C4A13702C4B1B68144603B19847227896
:1030C0002A4B1AB927491A7001200870284AD021C2
:1030D00011701A78274B1A700122274B21E0012129
:1030E0001170264A1370224BC0221A7002331B78CB
:1030F00030E01F4A1F4C117811F0100117D013F067
:10310000010310D11C4917480A780078904205D96C
:10311000164B9B5C013223700A7000E02370144B45
:10312000D0221A7016E0C0231370237812E0144BDB
:10313000122019700322134902F028FC0F4A20784C
:1031400013781F2B06D80649097819B10E49C854BF
:1031500001331370014B02221A7010BD0360064048
:10316000448EFF1FAB8EFF1F908EFF1F4C8EFF1FE4
:103170000260064004600640AC8EFF1FA98EFF1F50
:10318000948EFF1FC12F00006E8EFF1F044B054A57
:103190004900197001231370034A1370704700BF70
:1031A0004C8EFF1FAA8EFF1FAB8EFF1F2DE9F04133
:1031B000204B12221A70204A0D46117801F020018E
:1031C000C9B211B1B42313700BE019460A7802F0AA
:1031D0002002D3B2002BF9D1184A1370164BB0223B
:1031E0001A700024164E174FDFF8608013E03B5D25
:1031F00088F80030FFF762FE0E4B1B78DA0704D523
:10320000002C14BF032002200BE003F01003DBB2FC
:1032100033B90134E4B23378A342E8D8002000E0A7
:10322000042015B1044B80221A70074B00221A703B
:10323000BDE8F08103600640026006406D8EFF1F0E
:10324000AB8EFF1F4C8EFF1FAA8EFF1F046006402F
:103250002DE9F0471446344A1E4600231370334AC2
:103260001370334B12221A70324A107800F020008B
:10327000C0B210B1B42313700BE01846027802F00C
:103280002002D3B2002BF9D12B4A1370294BB02264
:103290001A704900294D41F001012970FFF70EFE17
:1032A000234B244A1B7813F0110F04D08023137092
:1032B0000020BDE8F0872CB9002E0CBFA026802688
:1032C0001670F5E7012C01D1A82300E0A0231370AC
:1032D0002B781B4FDFF86480DFF8589025464FF0BD
:1032E000A80A0BE0013DEDB2FFF7E8FD012D08BF94
:1032F00089F800A098F8003007F8013F012DF1D1BE
:10330000FFF7DCFD0B4B0F49B0221A700B4A107807
:10331000621ED2B2885420460EB180221A70034B2E
:103320001C70BDE8F08700BFA88EFF1FA98EFF1F8D
:1033300003600640026006406D8EFF1F0460064079
:103340006D8EFF1F6E8EFF1F0123FFF781BF0121CE
:10335000FFF72CBF0148FFF761BE00BF988EFF1F2B
:103360002DE9F04F1546324A89B09A46136802910A
:10337000059300240746BDF84860DDF81480A14697
:103380002FE02C483946FFF701FF02992948FFF743
:10339000A3FD2848FFF7DBFF26483946FFF7F6FE76
:1033A0002A1B202AA8BF202222483946D2B2FFF782
:1033B000CBFF4AFA89F34FF0000B03930BEB0901A3
:1033C000C9B21C480191FFF7A5FD0199E8B11EB3F0
:1033D000174B186806900698C8EB0000B0421BD344
:1033E00013E0AC42CDD36EB1114A12680792079A2E
:1033F000C8EB0208B04505D34FFA89F2AA42B8BF1C
:103400004FF0FF094FFA89F00FE0202D94BF6419A7
:103410002034E4B28946E4E70648FFF785FD039BC4
:1034200003F80B000BF1010BC8E709B0BDE8F08F02
:103430003C8FFF1F988EFF1F13B514460093012287
:103440002346FFF78DFF1CBDF8B507460C460D4817
:10345000394615461E46FFF799FE21460948FFF7F3
:103460003BFD002403E0315DFFF736FD0134E3B29C
:10347000AB420448F7D3FFF76AFFD0F1010038BF31
:103480000020F8BD988EFF1F07B502AB03F8012D91
:103490000122FFF7D9FF0EBD084602F035BA0846F3
:1034A000114602F045BA02F0F3B94FF0FF32026064
:1034B000502202612822426103228261C2611022ED
:1034C00002624262682202717047FFFF10B50B4C26
:1034D0004FF07C51A4EB600407F034FA214607F06A
:1034E00031FA214607F02EFA01464FF07F5007F0DF
:1034F0001FF90146204607F025FA10BDDF59375F56
:1035000070B5044616460D4602784078B3B140EADD
:10351000022000B207F0C2F9314607F013FA286022
:10352000E378A07843EA002000B207F0B7F931460B
:1035300007F008FA68602079637915E042EA002014
:1035400000B207F0ABF9314607F0FCF92860A37828
:10355000E07843EA002000B207F0A0F9314607F016
:10356000F1F968606079237943EA002000B207F03E
:1035700095F9314607F0E6F9A86070BD884205D09C
:103580000B6803604B6843608B688360704738B595
:1035900004460D460068096807F0CAF820606968AB
:1035A000606807F0C5F86060A968A06807F0C0F817
:1035B000A060204638BD00230360436083607047ED
:1035C00010B50446FFF7F7FF204610BD70B505465D
:1035D0000C460068096807F0B5F961680646686836
:1035E00007F0B0F90146304607F0A4F8A168064696
:1035F000A86807F0A7F90146304607F09BF870BDB0
:103600002DE9F047D1F808A0D0F8088005460C460F
:1036100050466968164607F095F9616807464046C6
:1036200007F090F90146384607F082F83060D4F888
:1036300000902F684046494607F084F9514680467D
:10364000384607F07FF90146404607F071F8706090
:103650006168384607F076F969680446484607F01D
:1036600071F90146204607F063F8B060BDE8F087C5
:103670002DE9F041D0F8008047688668414604464D
:10368000404607F05FF939460546384607F05AF9D3
:103690000146284607F04EF831460546304607F009
:1036A00051F90146284607F045F8FFF70FFF0021C2
:1036B000054607F0DBFAA0B928464FF07E5107F027
:1036C000D5FA70B92946404607F03CF929462060F2
:1036D000384607F037F929466060304607F032F97E
:1036E000A060BDE8F0812DE9FF410E4607C801AB9F
:1036F00083E807001846FFF7BBFF029806F0AEFC10
:10370000044603980D4606F0A9FC02460B462046E7
:10371000294604F063FA06F0B7FF3060019806F01E
:103720009DFC04460298DDF80C800D46014607F02A
:1037300009F941460746404607F004F90146384674
:1037400006F0F8FF06F08AFC04F0A6FA0B460246E3
:103750002946204604F042FA06F096FF002300F1C5
:1037600000407060B360BDE8FF810346006870B53B
:1037700001465E689D6807F0E5F83146044630462C
:1037800007F0E0F80146204606F0D4FF294604463B
:10379000284607F0D7F80146204606F0CBFF70BD5B
:1037A000884207D00B6803604B6843608B68836076
:1037B000CB68C360704770B505460E460024285993
:1037C000315906F0B7FF28510434102CF7D12846A0
:1037D00070BD70B505460E4600242859315906F0D3
:1037E000A7FF28510434102CF7D1284670BDF0B53E
:1037F0008BB0044601A80D46FFF7DDFE04A8FFF7D5
:10380000DAFE07A8FFF7D7FE63680193A368029367
:10381000E36803936B680493AB680593EB6804A9B2
:1038200001A80693FFF7D2FE07AA074604A901A83C
:10383000FFF7E6FE26682968304607F083F8394628
:1038400006F076FF04992060304607F07BF82D687B
:1038500001990746284607F075F80146384606F0F4
:1038600069FF079906F066FF05996060304607F02A
:1038700069F802990746284607F064F80146384679
:1038800006F058FF089906F055FF0699A0603046EB
:1038900007F058F803990646284607F053F8014602
:1038A000304606F047FF099906F044FFE0602046E5
:1038B0000BB0F0BD38B5044600680D4607F042F87D
:1038C00029462060606807F03DF829466060A068DE
:1038D00007F038F82946A060E06807F033F8E060A8
:1038E000204638BD38B5044615460FC984E80F0098
:1038F00020462946FFF77BFF204638BD38B50446F1
:1039000015460FC984E80F0020462946FFF7D2FF6D
:10391000204638BD38B5044615460FC984E80F0067
:1039200020462946FFF755FF204638BD0023036097
:1039300043608360C360704710B50446FFF7F6FF2D
:10394000204610BD2DE9F843D0F80090D0F804804F
:103950008768C66849460446484606F0F3FF414674
:103960000546404606F0EEFF0146284606F0E2FE18
:1039700039460546384606F0E5FF0146284606F07A
:10398000D9FE31460546304606F0DCFF01462846A2
:1039900006F0D0FEFFF79AFD0021054607F066F914
:1039A000C8B928464FF07E5107F060F998B929460A
:1039B000484606F0C7FF29462060404606F0C2FF91
:1039C00029466060384606F0BDFF2946A0603046B3
:1039D00006F0B8FFE060BDE8F883FFFF2DE9F8438B
:1039E0000746D0F80890D0F804800E464846F9689B
:1039F00006F0A8FF39680446404606F0A3FF0146DA
:103A0000204606F097FE06F029FB02460B4606F01C
:103A1000C7F904460D464046414606F093FF494625
:103A20008046484606F08EFF0146404606F082FE7C
:103A300006F014FB02460B4606F0B2F902460B46AE
:103A40000020304906F0AAF902460B4620462946D6
:103A500004F0C4F806F018FEB9683060386806F063
:103A600071FFF9680446786806F06CFF014620464D
:103A700006F05EFE06F0F2FA02460B4606F090F9FA
:103A800004F058F806F000FED7F8089079687060E6
:103A9000484606F057FFD7F80C8039680446404680
:103AA00006F050FF0146204606F044FE06F0D6FA26
:103AB00002460B4606F074F904460D464846494650
:103AC00006F040FF41460746404606F03BFF0146F0
:103AD000384606F02FFE06F0C1FA02460B4606F005
:103AE0005FF902460B460020064906F057F90246E8
:103AF0000B462046294604F071F806F0C5FDB0607B
:103B0000BDE8F8830000F03F2DE9F74F04460D466D
:103B100008684FF07C5106F015FF06F09FFA064644
:103B20000F4603F071FF06F0AFFD3946814630467F
:103B300003F0B4FF06F0A8FD4FF07C51834668689F
:103B400006F000FF06F08AFA06460F4603F05CFF17
:103B500006F09AFD39468246304603F09FFF06F094
:103B600093FD4FF07C510190A86806F0EBFE06F043
:103B700075FA06460F4603F047FF06F085FD394605
:103B80000546304603F08AFF06F07EFD51460646A4
:103B9000484606F0D7FE01998046584606F0D2FE08
:103BA00029460746404606F0CDFE314603463846D4
:103BB000009306F0C7FE009B0146184606F0BAFDCA
:103BC00051462060584606F0BDFE0199824648469F
:103BD00006F0B8FE29468146504606F0B3FE31464F
:103BE0008346484606F0AEFE0146584606F0A0FD64
:103BF00029466060484606F0A5FE3146814650469B
:103C000006F0A0FE0146484606F094FD3146A0604D
:103C1000404606F097FE29460646384606F092FED4
:103C20000146304606F084FDE060204603B0BDE862
:103C3000F04FFFF787BE38B50D460446FFF776FE16
:103C40002B6823606B6803F100436360AB6803F18A
:103C50000043A360EB6803F10043E360204638BDF6
:103C6000407970470048704778C1000005207047D0
:103C7000436B4FF4C87090FBF3F07047034B10B5E3
:103C80000446036000F0C0FB204610BD90C1000058
:103C900010B50446FFF7F2FF204603F04DFB204627
:103CA00010BDFFFF10B5044600F0CEFB014B2046CF
:103CB000236010BD90C100004B1FB3F5797F4FF01A
:103CC000000308D24FF47A724163B2FBF1F18163D1
:103CD000C3630120704718467047FFFF112907D8BA
:103CE000044A4BB29A4003D580F88B1001207047EC
:103CF0000020704700C000FE082907D8044A4BB2D4
:103D00009A4003D580F88C1001207047002070473E
:103D1000000080FE4B1E632B03D8C0F890100120DA
:103D2000704700207047FFFF08290BD001D829B148
:103D300017E010290AD0182913D10BE080F894104D
:103D4000094B0AE080F89410084B06E080F89410C4
:103D5000074B02E0074B80F89410C0F89830012020
:103D600070470020704700BFFDB30B39A968923936
:103D7000787D0B3A787D8B3A08290CD001D829B18F
:103D80001BE010290CD0182917D10EE080F89510EF
:103D90004FF062530DE080F895104FF0645308E047
:103DA00080F895104FF0665303E080F895104FF0BF
:103DB0006853C0F89C30012070470020704710B550
:103DC00038210446002290F88900FFF75DFB0028A7
:103DD0002DD094F8890023210022FFF755FB30B342
:103DE00094F889006A210022FFF74EFBF8B194F89D
:103DF00089006A210422FFF747FBC0B194F88900CB
:103E00006A216022FFF740FB88B1322001F09AFF5F
:103E100094F8890038210122FFF736FB38B194F875
:103E2000890023217822BDE81040FFF72DBB002038
:103E300010BDFFFF70B5514E8AB033880446722121
:103E400090F889000093022203ABFFF789FA00B9CA
:103E500011E09DF80C509DF80D3003EB0525B5F5EC
:103E6000806F0AD12046FFF7AAFFE36AA26B5621B2
:103E700001FB0233E36200207EE0B5F5F07F11D94B
:103E8000338894F88900009374210C2207ABFFF764
:103E900067FA0028EFD0E26AA36B0C3DD318E36207
:103EA000772DECE70B2DE6D9344D94F889002B885B
:103EB000742100930C2207ABFFF752FA0028DAD0E6
:103EC0002B8894F8890000934921082205ABFFF75D
:103ED00047FA0028CFD007A804F11401D4F89C2099
:103EE0000123FFF70DFB0DF1220004F10801D4F8C6
:103EF00098200123FFF704FB214A0DF1150004F17E
:103F000020010023FFF7FCFAE368206AD4F8A01030
:103F100003F10043E360236903F100432361636914
:103F200003F10043636106F00DFDD4F8A4100546CB
:103F3000606A06F007FDD4F8A8100646A06A06F0ED
:103F400001FD05F10045A06226622046656200F091
:103F500001FB204600F0A8FB94F8883023B1094B00
:103F60001B680493049B02E0E26AA36BD318E3622C
:103F7000002384F8883001200AB070BD6687FF1FD7
:103F80009A99193F3C8FFF1F13B5164B04466A21BF
:103F900090F889001B880DF10702FFF74DFA08B968
:103FA00000201DE09DF8072094F8890022F02002EF
:103FB00042F002026A218DF80720FFF765FA002817
:103FC000EED0322001F0BEFE94F889003721822223
:103FD000FFF75AFA0028E3D0322001F0B3FE0120A7
:103FE0001CBD00BF6687FF1F13B5144B04466A2132
:103FF00090F889001B880DF10702FFF71DFA08B938
:1040000000201AE09DF8072094F8890042F0200271
:104010006A218DF80720FFF737FA0028F0D0322008
:1040200001F090FE94F8890037218022FFF72CFAE6
:1040300018B1322001F086FE01201CBD6687FF1FEB
:1040400038B590F88B5090F89430C5F3C102D2186F
:1040500004461B2190F88900D2B2FFF715FA40B14F
:1040600094F889001A2105F00702BDE83840FFF7EF
:104070000BBA38BD10B504461C2190F8890094F89D
:104080009520FFF701FA40B194F8890094F88C204C
:104090001D21BDE81040FFF7F7B910BD436BB3F524
:1040A0007A7F0ADC4FF47A7292FBF3F35A1E90F88F
:1040B00089001921D2B2FFF7E7B901207047426B9E
:1040C000D0F8903090F8890092FBF3F2013A1F2A61
:1040D000A8BF1F223421D2B2FFF7D6B91FB50123E2
:1040E00080F88830036B1A79044680F889201969B2
:1040F000FFF7E2FD236B20465969FFF70BFE236BA8
:104100002046197EFFF7EAFD236B2046197FFFF753
:10411000F3FD236B204693F82010FFF705FE236B79
:10412000204693F82410FFF727FE204600F0B2F94E
:1041300094F889006B218022FFF7A6F9002800F08F
:104140001881642001F0FEFD94F889006B210022A3
:10415000FFF79AF9002800F00F81A74B94F8890027
:104160001B8875210DF10B02FFF766F9002800F09E
:1041700006819DF80B30712B40F004812046FFF73B
:104180005FFF002800F001812046FFF773FF002841
:1041900000F0FE802046FFF781FF002800F0FB8042
:1041A0002046FFF7F1FE002800F0F8800C200A21DD
:1041B0000022FFF769F928B92046FFF715FF6FF0D5
:1041C0000B0017E10C200A210F22FFF75DF928B937
:1041D0002046FFF709FF6FF00C000BE1864B1B88B0
:1041E0000C200093102103220DEB0003FFF7B8F819
:1041F00028B92046FFF7F8FE6FF00D00FAE09DF8B1
:104200000C0006F047FB05F029FF00227B4B05F070
:10421000C5FD00227A4B05F075FF0022794B05F0B1
:10422000BFFD06F031FAC4F8A0009DF80D0006F0BD
:1042300031FB05F013FF0022704B05F0AFFD0022AB
:104240006F4B05F05FFF00226E4B05F0A9FD06F0F5
:104250001BFAC4F8A4009DF80E0006F01BFB05F045
:10426000FDFE0022654B05F099FD0022644B05F030
:1042700049FF0022634B05F093FD06F005FA0A2181
:10428000C4F8A80000220C20FFF7FEF828B9204649
:10429000FFF7AAFE6FF00E00ACE02046FFF7A4FE89
:1042A00000287ED094F8890024214022FFF7ECF802
:1042B000002879D094F8890025218C22FFF7E4F8B2
:1042C000002874D094F8890026210222FFF7DCF838
:1042D00000286FD094F8890027218822FFF7D4F8AE
:1042E00000286AD094F8890028210C22FFF7CCF826
:1042F000002865D094F8890029210A22FFF7C4F824
:10430000002860D094F889002A218122FFF7BCF8A8
:1043100000285BD094F8890064210122FFF7B4F8EB
:10432000002856D094F8890067210322FFF7ACF8E3
:10433000002851D02046FFF7C2FE00284FD094F845
:1043400089006B210122FFF79FF800284AD094F8DA
:1043500089006C210022FFF797F8002845D02046FD
:10436000FFF72DFD002843D0204600F0E5F801209E
:1043700040E04FF0FF303DE06FF003003AE06FF0B7
:10438000040037E06FF0050034E06FF0060031E024
:104390006FF007002EE06FF008002BE06FF00A00CE
:1043A00028E06FF00F0025E06FF0100022E06FF0C2
:1043B00011001FE06FF012001CE06FF0130019E015
:1043C0006FF0140016E06FF0150013E06FF01600A8
:1043D00010E06FF017000DE06FF018000AE06FF0CA
:1043E0001A0007E06FF01B0004E06FF01C0001E012
:1043F0006FF01D0004B010BD6687FF1F0000604015
:104400000000703F0000F03F014B0360704700BFA9
:10441000C0C1000090F848007047FFFF034B10B583
:104420000446036002F088FF204610BDC0C10000B2
:1044300038B50546B02002F07BFF29460446FFF759
:1044400031FC204638BDFFFF38B5114B044640F81B
:10445000083B0D46FFF7B4F804F11400FFF7B0F87D
:1044600004F12000FFF7ACF804F14C00FFF7A8F8C6
:1044700004F15800FFF7A4F804F17C00FFF7A0F85E
:10448000002325632371637184F84830204638BDCA
:10449000C0C100002DE9F043064689B000207071CC
:1044A00001A900F0EFFB002841D09DF80630012B58
:1044B0003DD1204D6C4603AF60690434616806F05D
:1044C00037F92946804606F0F9FB00B14546BC4263
:1044D000F2D12846002106F0D3FB40BB28464FF01E
:1044E0007C5106F02FFA35468146002401AA1319A3
:1044F0000434D3F810805F684046394606F018F956
:104500004FF07C5106F01EFA0146484606F0CEFAFE
:1045100039462867404606F00DF94FF07C5106F009
:1045200011FA043528660C2CE0D10123737109B00F
:10453000BDE8F083000080BF10B50446406B06F074
:10454000ADF901464FF0804006F0B0FA0023206438
:10455000636410BD2DE9F04300F15805804695E8ED
:10456000070085B001AC08F1140684E80700314665
:104570002046FFF70CF831462846FEF7FFFF20469D
:10458000FFF7F3F8454906F07BFB80B108F108001E
:10459000FFF7EBF8424906F073FB78B907E0013208
:1045A0009A42C8F8442002D1012388F8483008F123
:1045B000080008F14C01FEF7EAFF6CE0D8F84090E3
:1045C000484605F04BFD02460B460020354905F0F4
:1045D000E5FB0446D8F84C000D4605F03FFD0246C9
:1045E0000B462046294605F08DFD06460F464846F7
:1045F000D8F8081006F0A6F905F030FD02460B4683
:104600003046394605F0CCFB06F03EF8C8F84C00C1
:10461000D8F8500005F022FD02460B4620462946F8
:1046200005F070FD06460F464846D8F80C1006F017
:1046300089F905F013FD02460B463046394605F070
:10464000AFFB06F021F8C8F85000D8F8540005F088
:1046500005FD02460B462046294605F053FD04465B
:104660000D464846D8F8101006F06CF905F0F6FC37
:1046700002460B462046294605F092FB06F004F858
:10468000D8F83430D8F84420C8F8540005214B43FA
:104690009A4284DB8BE705B0BDE8F0830BD7233B60
:1046A0000BD7233D0000F03F037970B50646CBB928
:1046B0004379BBB1006A716E06F03AF8316F06F0CB
:1046C00041F9B16E3062706A06F032F8716F06F02F
:1046D00039F9F16E7062B06A06F02AF8B16F06F02F
:1046E00031F9B062306A2E4906F02CF905F0B6FCBB
:1046F0000446F06F0D4605F0B1FC27A3D3E9002373
:1047000005F000FD02460B462046294605F048FB11
:1047100005F0BAFF2249F067706A06F013F905F058
:104720009DFC0446D6F880000D4605F097FC1AA3C0
:10473000D3E9002305F0E6FC02460B462046294655
:1047400005F02EFB05F0A0FF1549C6F88000B06A01
:1047500006F0F8F805F082FC0446D6F884000D4611
:1047600005F07CFC0CA3D3E9002305F0CBFC02464A
:104770000B462046294605F013FB05F085FF06F1A0
:104780007C01C6F8840006F12000BDE87040FEF709
:10479000F5BE00BFAFF30080000000989999E93F93
:1047A000CDCC4C3EAFF30080704730B5012385B0CF
:1047B00080F85730044600F1480501A8FEF700FFD5
:1047C00001A92846FEF7DAFE294604F13800FFF772
:1047D0009BF904F12C0501A8FEF7F2FE01A9284679
:1047E000FEF7CCFE04F11C002946FFF78DF905B059
:1047F00030BDFFFF10B504460430FFF79DF804F10B
:104800001C00FFF799F804F12C00FEF7D9FE04F123
:104810003800FFF791F804F14800FEF7D1FE084B8D
:104820006361084BA3610123204684F8543084F867
:10483000553084F85630FFF7B8FF204610BD00BF52
:104840006F12833A6F12033A2DE9F04794B006468F
:1048500068460C461746FFF76FF804A8FFF76CF898
:1048600096F8552006F12C011AB12046FEF73BFFC1
:1048700006E0084606F14801FEF780FE0023736358
:1048800096F85630002B6CD0F06A4FF07C5106F051
:1048900059F805F0E3FB04460D4603F0B5F805F0C2
:1048A000F3FE29468046204603F0F8F805F0ECFEBA
:1048B0004FF07C518146306B06F044F805F0CEFB9A
:1048C00004460D4603F0A0F805F0DEFE29468246B8
:1048D000204603F0E3F805F0D7FE51460446404673
:1048E00006F030F851460490484606F02BF8214671
:1048F0000590404606F026F82146069009F1004052
:1049000006F020F8002300933B68079001937B6832
:104910000293BB686A4608A804A90393FEF7E2FF66
:104920000CA804A9FFF787F90CAA10A808A9FEF79C
:10493000D9FF10A96846FEF733FF029805F08EFBF9
:10494000044601980D4605F089FB02460B462046B9
:10495000294603F043F905F097FE00F1004070632B
:1049600001E0336D736306F11C0806F12C07404625
:104970003946FFF7C9F8DFF88C9000244FF0FF3577
:1049800006F11C03494653F8243023F0004A5046F0
:1049900006F094F908B1D14625460134042CEFD134
:1049A00006EB85090021D9F81C40204606F068F97D
:1049B00028B1D9F83800002106F080F958B920460E
:1049C000002106F07BF9D0B106EB85050021A86B2C
:1049D00006F056F998B1F36903F10043F361336AC5
:1049E00003F100433362736A03F100437362B36AF5
:1049F00003F10043B36240463946FEF7EFFF14B0BF
:104A0000BDE8F08700007AC42DE9F04F04468DB070
:104A100002A81E460F469046169DFEF7D1FD94F85B
:104A20005730ABB13246A5652046414604F12C050E
:104A3000FFF70AFF04F138002946FFF765F804F193
:104A400048002946FEF79AFD002384F85730FDE020
:104A5000A06D281A05F01EFF7E4906F027F8A5650F
:104A60002060002106F016F9002840F0EF80414652
:104A700032462046FFF7E8FE636CD4F838A0019375
:104A800094F85430D4F83C80266C13B102A839460F
:104A900004E005A8FEF794FD02A805A9FEF76EFD47
:104AA00002984FF07C5105F04DFF4FF07C510746C6
:104AB000039805F047FF4FF07C518146049805F0BC
:104AC00041FF4146834607F1004005F03BFF314678
:104AD00003464846009305F035FF009B25680146D4
:104AE000184605F025FE019903465846009305F047
:104AF00029FF009B0146184605F01AFE294605F0DD
:104B000021FF0146504605F015FE5146A063384688
:104B100005F018FF314603465846009305F012FF92
:104B2000009B0146184605F005FE019903464846DC
:104B3000009305F007FF009B0146184605F0F8FDBD
:104B4000294605F0FFFE0146404605F0F3FD5146BB
:104B5000E063484605F0F6FE41460346584600939A
:104B600005F0F0FE009B0146184605F0E1FD0199B5
:104B700003463846009305F0E5FE009B01461846C3
:104B800005F0D8FD294605F0DDFE0146304605F06A
:104B9000D1FD51462064584605F0D4FE4146824678
:104BA000484605F0CFFE0146504605F0C3FD3146AC
:104BB0008046384605F0C6FE0146404605F0B8FD81
:104BC000294605F0BFFE0146019805F0B3FD94F8B3
:104BD0005630606408A813B994F8553033B104F125
:104BE0001C0104F13802FEF795FE01E0FEF7A4FE79
:104BF00004F1380508A9201DFEF7D2FD261D2A461E
:104C000008A804F11C01FEF785FE08A93046FEF74E
:104C1000C7FD2168606905F095FEA169074605F0AA
:104C200089FD0146384605F041FF3146024608A895
:104C3000FEF764FE08A92846FEF7BDFD2846FEF7EC
:104C400081FE284604F14801FEF7C8FE0DB0BDE81C
:104C5000F08F00BF00007A4470B583004401E41A6D
:104C6000FC230B7015234B7004F11C050E1B214611
:104C7000325D03480134FEF712FCAC42F7D170BD3F
:104C8000AD8EFF1F70B583004401E41A00238B70C2
:104C90000D460D482146FEF7FFFBFC2812D1611C92
:104CA0000948FEF7F9FB15280CD104F11C062D1B51
:104CB00021460548FEF7F0FB28550134B442F7D1F0
:104CC000012070BD002070BDAD8EFF1F7047FFFF3B
:104CD000034B10B504460360FBF742FE204610BDAF
:104CE000F0C1000010B50446FFF7F2FF204602F0C5
:104CF00023FB204610BDC069C0B201B1012100F004
:104D0000BBBFC9680029D4BF00210121FFF7F3BF51
:104D100037B51D460023009308230446FBF730FEF9
:104D2000084B012D236001D1062300E00723E36136
:104D3000207F012100F0CCFF20460121FBF738FE47
:104D400020463EBDF0C100007047FFFF034B10B589
:104D500004460360FBF704FE204610BD08C20000B5
:104D600010B50446FFF7F2FF204602F0E5FA2046B0
:104D700010BDFFFFF0B58BB00446FBF71DFE002809
:104D800056D001F0C1FA002819DD01F0CBFA04F188
:104D90001C06C1B2304600F04DFB80B1237FA3B9A1
:104DA0000DE01DF80300121892B201338B42F8DBBC
:104DB000A069ADF80620036869461B69984720463C
:104DC0004FF0FF31FBF7F4FD32E07123ADF8003016
:104DD00028230025ADF80230304641F20103ADF83A
:104DE0000430ADF8065000F03FF9CDE9020130463D
:104DF00000F05EF984F89550CDE90401D4F89C00E8
:104E000005F01AF900220B4B05F0A6FAD4F8BC30D5
:104E100084F8B5500893D4F8AC3084F8A550CDE9A7
:104E2000060109932F46BDF802102B462A46BDE71E
:104E30000BB0F0BD0000594037B504461D46009246
:104E400002230022FBF79CFD20460F4B40F81C3B41
:104E500000F01CF815B1C4F8F45003E04FF41653F9
:104E6000C4F8F430D4F8F430580800F1B76000F515
:104E70005840B0FBF3F001F0CFF820460121FBF7DA
:104E800097FD20463EBD00BF08C20000034600213A
:104E900010B50224017041708180816001824161FE
:104EA000818301620185C1621973197683F8241028
:104EB00083F8301083F83810C16383F8391083F811
:104EC0004810C16483F8491083F8581001660167DF
:104ED000C0F8801083F8591083F8681083F86910BF
:104EE00083F8781083F8791083F8881083F8891094
:104EF000C0F8901083F8981083F89910C0F8A010AB
:104F000080F8B94083F8A81083F8A91083F8BA1084
:104F100083F8BB1083F8BC10C0F8C010C0F8C410F0
:104F2000C0F8C810C0F8CC10C0F8D010C0F8D41029
:104F300083F8AA1010BDA1F14103052B02D8A1F1FD
:104F400037007047A1F16103052B94BFA1F1570011
:104F5000A1F13000704738B50578B5F12D035D42F9
:104F60005D41044605B1441C204605F0DDFE642386
:104F70004343224614F8011BA1F130000928F8D957
:104F80002E2910D15178A1F1300009280BD809B28F
:104F9000C800927800EB4101303AA1F5F0715B183E
:104FA000092A98BF9B1805B15B42184638BDFFFF20
:104FB00038B50C46054605F0B7FE6423B0FBF3F2A6
:104FC0001249228003FB12034B432846014610F886
:104FD000012BA2F13005092DF8D92E2A0CD1084653
:104FE0000A4A0A2503E0B2FBF5F202FB013310F88E
:104FF000011F30390929F6D9052253430133032211
:10500000B3FBF2F363600023237238BD80969800EF
:10501000034682B053F81C2F42605A6882601B7AA4
:105020000373034653F8282F02615A6842611B7AC2
:105030000376054B1B680193019B43630123437077
:10504000037002B0704700BF3C8FFF1F00F11C03CC
:1050500008461946FFF7ACBF00F128030846194679
:10506000FFF7A6BFFFFFFFFF002370B543700646A2
:10507000808804F0E1FF0446B0680D4604F0CCFFE0
:1050800009A3D3E9002305F067F902460B46204641
:10509000294604F085FE0B46317B024609B103F137
:1050A00000431046194670BD0000000065CDCD419B
:1050B000002370B543700646008A04F0BDFF044625
:1050C00070690D4604F0A8FF09A3D3E9002305F099
:1050D00043F902460B462046294604F061FE0B4682
:1050E000317E024609B103F100431046194670BDF6
:1050F0000000000065CDCD4183684360054B82B060
:105100001B680193019BC36001234370037002B0CD
:10511000704700BF3C8FFF1F83684360054B82B020
:105120001B680193019BC36001234370037002B0AD
:10513000704700BF3C8FFF1F10B504460846FFF7BD
:105140000AFFA06010BD10B50446084605F0ECFD4E
:10515000A06010BDC3688360054B82B01B680193DB
:10516000019B436001234370037002B0704700BF8E
:105170003C8FFF1F10B504460846FFF7ECFEE060C9
:1051800010BDFFFFC3688360054B82B01B680193AD
:10519000019B436001234370037002B0704700BF5E
:1051A0003C8FFF1F10B50446084605F0BDFDE060CA
:1051B00010BDFFFF13B504462146103006F0FAFA81
:1051C000054B1B680193019B2362012384F8253062
:1051D00084F824301CBD00BF3C8FFF1F102206F056
:1051E00047BBFFFF90F8A93070B50446002B62D092
:1051F00090F8AA10FFF79FFE94F8AB1005462046E2
:10520000FFF799FE94F8A83000EB0510C5B2AB4249
:105210004BD1D4F8D4300133C4F8D43094F8BC3036
:1052200023B1D4F8CC300133C4F8CC3094F8B93081
:10523000B3B1012B2AD104F13800FFF75DFF04F16F
:105240004800FFF769FF94F8BC30FBB12046FFF738
:10525000DFFE04F15800FFF77DFF04F1680013E062
:1052600004F14800FFF758FF94F8BC3033B12046F2
:10527000FFF7CEFE04F17800FFF76CFF04F1880021
:10528000FFF780FF04F19800FFF764FFD4F8C450E3
:10529000002D00F0BC80D4F8C430A86A996A06F0EA
:1052A0009BF9002800F0B580B1E0D4F8D03001338C
:1052B000C4F8D0301DE090F8BA2042BB00F1AA0536
:1052C00028465A4906F088F908B9012308E028461B
:1052D000574906F081F910B984F8B90002E00223B9
:1052E00084F8B930D4F8C030C4F8C430D4F8C460FD
:1052F0000EB9002070BDB06A294606F06DF900288D
:1053000080F290808AE00020C4F8C40070BD90F85C
:10531000B910022960D090F8AA30002B5CD042EA84
:105320004112013A282A57D8DFE802F01520252C2F
:105330003142494F5156565656565656565656565F
:10534000565656565656565656565656151B2025E0
:105350002C31383A3C00483004F1AA01FFF7ECFE4A
:105360003AE0B3F141004342434125E004F1AA0190
:10537000FFF76CFE30E0B3F153014B424B4180F834
:10538000243029E004F1AA01FFF766FE24E0B3F11E
:1053900057025342534180F830301DE0583017E037
:1053A000683015E0383004F1AA01FFF7CCFE13E0B5
:1053B000302B94BF0023012384F8BC300CE08830EC
:1053C00004F1AA01FFF7EEFE06E0983000E0783025
:1053D00004F1AA01FFF7CEFED4F8C45004F1AA06E6
:1053E00004E028463146FFF7F9FE2D6B002D80D0F2
:1053F000D4F8C430A86A996A06F0EEF800287FF461
:1054000078AFEB6A94F8BA20934209DD71E7012086
:1054100070BD2846FFF7CEFE2D6B39E7336B63E78F
:10542000E3D1DEE77FF46FAF63E700BF18C200008F
:105430001EC2000038B5D0F8C83001332429044614
:105440000D46C0F8C8302CD004D80A290CD00D293C
:1054500036D109E02A2907D02C2931D190F8A8307B
:1054600083F02C0380F8A83094F8BB300E2B4FF05B
:10547000000005D8E31883F8AA002046FFF7B2FE23
:1054800094F8BA30013384F8BA300023B5F12A0C0D
:10549000DCF1000555EB0C0584F8BB3084F8A9500D
:1054A00038BD0020022384F8BB0084F8BA0084F8D9
:1054B000A80084F8B93084F8A90084F8BC0038BD8D
:1054C00094F8BB300D2B05D8E218013382F8AA50AE
:1054D00084F8BB3094F8A90028B994F8A8305D404E
:1054E00084F8A85038BD002038BDFFFF024B1A6871
:1054F00001321A60704700BF3C8FFF1F38B50B4C5C
:1055000025462368580301D501F0F6FA2B685905A2
:1055100001D501F08FF92B681A0501D500F04CFF79
:105520002368DB04EDD502F019FAEAE73480044081
:1055300008B5FFF7E3FFFFFF014B10221A80704709
:10554000002005407047FFFF024A136818181060DA
:10555000184670476887FF1FFEE7FFFFEFF31383CE
:105560009BB9EFF3108098B9EFF3058323B10F2BAC
:1055700004D9084A985C01E04FF48070EFF311837E
:105580003BB1984228BF184670474FF0FF30704734
:1055900018467047F0E300E0F0B530483049036842
:1055A0001B06FCD40B6813F08002F8D172B62D4BA9
:1055B0001978002950D02C4908684F688E68CD684A
:1055C0000C693818143180190968401900194018FD
:1055D000C0F34E00254940F400400860C86A0F6BD4
:1055E0004E6B8D6BCC6B38184031801909684019AF
:1055F00000194018C0F34E001D4940F400400860F7
:1056000001F10811143151F8140C51F8107C51F8C3
:105610000C6C51F8085C51F8044C09683818801972
:10562000401900194018C0F34E00124940F40040E0
:105630000860C86A0F6B4E6B8D6BCC6B38184031AD
:1056400080190968401900194018C0F34E000A4932
:1056500040F4004008601A7062B6F0BD24B0034008
:1056600024B00B40AF8EFF1F38B003402CB0034076
:1056700030B003402CB00B4030B00B40224B6022C6
:105680001A70E1225A70214B214A1978214B0829BE
:1056900001D1012102E00A2907D139211160132229
:1056A0001A601D4B19605A600BE00C291A4901D190
:1056B000352000E03D20106012221A60174B086070
:1056C0001A60174B17491B78174A03B101230B6067
:1056D0001360164B164A1978164B012901D8802100
:1056E0000CE0042901D8842108E0082901D885218B
:1056F00004E0102901D8862100E08721116019609B
:105700000D4B01221A707047004007406C87FF1F45
:1057100008B003400CB0034008B00B400CB00B4085
:10572000B28EFF1F20B0034020B00B406D87FF1FDB
:1057300024B0034024B00B40AF8EFF1F0C2803D9C8
:105740001023102807D809E00A2806D8082894BF93
:1057500008230A2302E0184600E00C23084AD9B2C5
:10576000081A1070074A1078834208D0064B11704F
:105770001B7813B1054B00221A60FFF77FBF7047FB
:10578000AE8EFF1F6C87FF1FAF8EFF1F24B003403C
:105790000D282DE9F0410FD9172801D80E380AE05D
:1057A000A0F11A03052B01D8093804E0A0F1220367
:1057B000062B4DD81838C0B2274B1C5C274B1B78E2
:1057C0000BB1FFF7E9FE72B6200614D4244D254E26
:1057D00001272C60377062B672B62B68190603D5A4
:1057E000214B18681F4B23E03378002BF1D062B6B1
:1057F00001F094FEF0E704F040071C4D1C4EFFB290
:1058000004F03F044FF001081A4B1A6817B122F058
:10581000100201E042F010021A602C6086F800804D
:1058200062B672B62B681A060BD5134B1868104B6C
:1058300000221A7062B6114B1B7840FA03F0BDE8E3
:10584000F0813378002BDFD062B601F067FEE8E725
:105850000020BDE8F08100BF48C20000AF8EFF1FEE
:1058600000B00340B18EFF1F10B0034000B00B40EA
:10587000B08EFF1F0CB00B4010B00B40AE8EFF1F60
:10588000024A1378DB07FCD5704700BF01000240D5
:1058900030B5194B85B06C4603F11005186859688E
:1058A000224603C20833AB421446F7D1134B1B7890
:1058B00003F00203DBB2BBB1114B80221A7033221A
:1058C0001A710322DA7072B60E4C6B4643F0010374
:1058D0002046984762B6237813F0700304D02370F3
:1058E00008E0013B03D105E0044944F621630A784E
:1058F000D207F6D505B030BD60C2000001000240FD
:105900000700024000000240B0F5006F10B50446E9
:1059100009D2064B1B78D90701D4FFF7B9FF04F170
:10592000A054207810BD002010BD00BF010002402F
:10593000B0F5006F38B504460D460FD2084B1B7802
:10594000D90701D4FFF7A4FF04F1A0542378AB4298
:1059500004D02570BDE83840FFF792BF38BD00BFC6
:1059600001000240084B4FF400021A604FF08072B1
:105970001A604FF000721A604FF080621A604FF0A8
:1059800000621A60704700BF08E100E0212830B5CE
:1059900021D8042A1FD8DFE802F00709050B03000D
:1059A0000B2306E00A2304E0082302E00C2300E0B6
:1059B0000923094A02EBC002526872B61468074D07
:1059C00024F47024146044F0807444EA034345F8DE
:1059D0002010136062B630BD70C20000B48EFF1F8D
:1059E000094B03EBC0035B6872B61A6822F087723A
:1059F00022F4803242F080721A60044B002243F895
:105A0000202062B6704700BF70C20000B48EFF1F36
:105A1000114B10B51C68E0041C6004D50F4BDA680C
:105A20000AB1DB689847A10404D50C4B1A690AB186
:105A30001B699847A20604D5084B1A6E0AB11B6E63
:105A40009847E30606D5054BD3F8842012B1D3F866
:105A50008430984710BD00BFA0900440B48EFF1F53
:105A60001F4B10B51C68E0031C6004D51D4B1A6861
:105A70000AB11B689847A10304D51A4B5A680AB1AA
:105A80005B689847E20704D5164B1A6C0AB11B6C89
:105A90009847A30704D5134B5A6C0AB15B6C98471F
:105AA000200704D50F4B9A6C0AB19B6C984761078D
:105AB00004D50C4BDA6C0AB1DB6C9847220304D591
:105AC000084B5A6E0AB15B6E9847630306D5054BC7
:105AD000D3F8802012B1D3F88030984710BD00BFB2
